{
  "contractName": "CarbonFootPrint",
  "abi": [
    {
      "constant": true,
      "inputs": [
        {
          "name": "",
          "type": "uint32"
        }
      ],
      "name": "yearly",
      "outputs": [
        {
          "name": "id",
          "type": "uint32"
        },
        {
          "name": "ano",
          "type": "string"
        }
      ],
      "payable": false,
      "stateMutability": "view",
      "type": "function",
      "signature": "0x0be48c8d"
    },
    {
      "constant": true,
      "inputs": [
        {
          "name": "",
          "type": "uint32"
        }
      ],
      "name": "mactivities",
      "outputs": [
        {
          "name": "id",
          "type": "uint32"
        },
        {
          "name": "description",
          "type": "string"
        },
        {
          "name": "co2eq",
          "type": "uint32"
        },
        {
          "name": "finalProductQt",
          "type": "uint32"
        },
        {
          "name": "exp",
          "type": "uint16"
        },
        {
          "name": "month",
          "type": "string"
        },
        {
          "name": "output",
          "type": "uint32"
        },
        {
          "name": "idOrganization",
          "type": "uint32"
        },
        {
          "name": "idUnit",
          "type": "uint32"
        },
        {
          "name": "idYear",
          "type": "uint32"
        },
        {
          "name": "idUser",
          "type": "address"
        }
      ],
      "payable": false,
      "stateMutability": "view",
      "type": "function",
      "signature": "0x2c4d89b6"
    },
    {
      "constant": true,
      "inputs": [
        {
          "name": "",
          "type": "uint32"
        }
      ],
      "name": "productFootPrints",
      "outputs": [
        {
          "name": "id",
          "type": "uint32"
        },
        {
          "name": "co2eq",
          "type": "uint32"
        },
        {
          "name": "exp",
          "type": "uint16"
        },
        {
          "name": "idProduct",
          "type": "uint32"
        },
        {
          "name": "idAno",
          "type": "uint32"
        }
      ],
      "payable": false,
      "stateMutability": "view",
      "type": "function",
      "signature": "0x3bd6d8e3"
    },
    {
      "constant": true,
      "inputs": [
        {
          "name": "",
          "type": "uint32"
        }
      ],
      "name": "costsTypes",
      "outputs": [
        {
          "name": "id",
          "type": "uint32"
        },
        {
          "name": "co2PerUnit",
          "type": "uint32"
        },
        {
          "name": "exp",
          "type": "uint16"
        },
        {
          "name": "description",
          "type": "string"
        },
        {
          "name": "idUnit",
          "type": "uint32"
        }
      ],
      "payable": false,
      "stateMutability": "view",
      "type": "function",
      "signature": "0x4a2a7c27"
    },
    {
      "constant": true,
      "inputs": [],
      "name": "unitsCount",
      "outputs": [
        {
          "name": "",
          "type": "uint32"
        }
      ],
      "payable": false,
      "stateMutability": "view",
      "type": "function",
      "signature": "0x5c29bc08"
    },
    {
      "constant": true,
      "inputs": [
        {
          "name": "",
          "type": "uint32"
        }
      ],
      "name": "productsQuantities",
      "outputs": [
        {
          "name": "id",
          "type": "uint32"
        },
        {
          "name": "quantity",
          "type": "uint32"
        },
        {
          "name": "idPFootPrint",
          "type": "uint32"
        },
        {
          "name": "idM_Activity",
          "type": "uint32"
        }
      ],
      "payable": false,
      "stateMutability": "view",
      "type": "function",
      "signature": "0x8760466c"
    },
    {
      "constant": true,
      "inputs": [
        {
          "name": "",
          "type": "address"
        }
      ],
      "name": "users",
      "outputs": [
        {
          "name": "user_add",
          "type": "address"
        },
        {
          "name": "tipo",
          "type": "uint16"
        },
        {
          "name": "status",
          "type": "bool"
        },
        {
          "name": "idOrganization",
          "type": "uint32"
        }
      ],
      "payable": false,
      "stateMutability": "view",
      "type": "function",
      "signature": "0xa87430ba"
    },
    {
      "constant": true,
      "inputs": [
        {
          "name": "",
          "type": "uint32"
        }
      ],
      "name": "mfixcosts",
      "outputs": [
        {
          "name": "id",
          "type": "uint32"
        },
        {
          "name": "co2eq",
          "type": "uint32"
        },
        {
          "name": "exp",
          "type": "uint16"
        },
        {
          "name": "description",
          "type": "string"
        },
        {
          "name": "quantity",
          "type": "uint32"
        },
        {
          "name": "month",
          "type": "string"
        },
        {
          "name": "idCostType",
          "type": "uint32"
        },
        {
          "name": "idOrganization",
          "type": "uint32"
        },
        {
          "name": "idYear",
          "type": "uint32"
        }
      ],
      "payable": false,
      "stateMutability": "view",
      "type": "function",
      "signature": "0xa89215fa"
    },
    {
      "constant": true,
      "inputs": [
        {
          "name": "",
          "type": "uint32"
        }
      ],
      "name": "products",
      "outputs": [
        {
          "name": "id",
          "type": "uint32"
        },
        {
          "name": "name",
          "type": "string"
        },
        {
          "name": "description",
          "type": "string"
        },
        {
          "name": "prodUnit",
          "type": "string"
        },
        {
          "name": "co2eq",
          "type": "uint32"
        },
        {
          "name": "exp",
          "type": "uint16"
        },
        {
          "name": "intermediate",
          "type": "bool"
        },
        {
          "name": "idOrganization",
          "type": "uint32"
        },
        {
          "name": "idUnit",
          "type": "uint32"
        }
      ],
      "payable": false,
      "stateMutability": "view",
      "type": "function",
      "signature": "0xbf712fd6"
    },
    {
      "constant": true,
      "inputs": [
        {
          "name": "",
          "type": "uint256"
        }
      ],
      "name": "arrayUsers",
      "outputs": [
        {
          "name": "",
          "type": "address"
        }
      ],
      "payable": false,
      "stateMutability": "view",
      "type": "function",
      "signature": "0xcbedd17b"
    },
    {
      "constant": true,
      "inputs": [
        {
          "name": "",
          "type": "uint32"
        }
      ],
      "name": "units",
      "outputs": [
        {
          "name": "id",
          "type": "uint32"
        },
        {
          "name": "measure",
          "type": "string"
        },
        {
          "name": "initials",
          "type": "string"
        },
        {
          "name": "base",
          "type": "uint32"
        },
        {
          "name": "exp",
          "type": "uint32"
        },
        {
          "name": "idUnit",
          "type": "uint32"
        },
        {
          "name": "negative",
          "type": "bool"
        }
      ],
      "payable": false,
      "stateMutability": "view",
      "type": "function",
      "signature": "0xcfd6dc59"
    },
    {
      "constant": true,
      "inputs": [
        {
          "name": "",
          "type": "uint32"
        }
      ],
      "name": "organizations",
      "outputs": [
        {
          "name": "id",
          "type": "uint32"
        },
        {
          "name": "co2eq",
          "type": "uint32"
        },
        {
          "name": "exp",
          "type": "uint16"
        }
      ],
      "payable": false,
      "stateMutability": "view",
      "type": "function",
      "signature": "0xd4dfba99"
    },
    {
      "constant": true,
      "inputs": [
        {
          "name": "",
          "type": "uint32"
        }
      ],
      "name": "productCosts",
      "outputs": [
        {
          "name": "id",
          "type": "uint32"
        },
        {
          "name": "co2eq",
          "type": "uint32"
        },
        {
          "name": "exp",
          "type": "uint16"
        },
        {
          "name": "quantity",
          "type": "uint32"
        },
        {
          "name": "idCostType",
          "type": "uint32"
        },
        {
          "name": "idM_Activity",
          "type": "uint32"
        }
      ],
      "payable": false,
      "stateMutability": "view",
      "type": "function",
      "signature": "0xec923196"
    },
    {
      "inputs": [],
      "payable": false,
      "stateMutability": "nonpayable",
      "type": "constructor",
      "signature": "constructor"
    },
    {
      "constant": true,
      "inputs": [],
      "name": "getUsersCount",
      "outputs": [
        {
          "name": "count",
          "type": "uint256"
        }
      ],
      "payable": false,
      "stateMutability": "view",
      "type": "function",
      "signature": "0xa4a1e263"
    },
    {
      "constant": false,
      "inputs": [
        {
          "name": "_userResp",
          "type": "address"
        },
        {
          "name": "_user",
          "type": "address"
        },
        {
          "name": "_tipo",
          "type": "uint16"
        },
        {
          "name": "_idOrganization",
          "type": "uint32"
        }
      ],
      "name": "addUser",
      "outputs": [],
      "payable": false,
      "stateMutability": "nonpayable",
      "type": "function",
      "signature": "0x7a6cf388"
    }
  ],
  "bytecode": "0x60806040523480156200001157600080fd5b506080604051908101604052803373ffffffffffffffffffffffffffffffffffffffff168152602001600061ffff168152602001600115158152602001600063ffffffff16815250600e60003373ffffffffffffffffffffffffffffffffffffffff1673ffffffffffffffffffffffffffffffffffffffff16815260200190815260200160002060008201518160000160006101000a81548173ffffffffffffffffffffffffffffffffffffffff021916908373ffffffffffffffffffffffffffffffffffffffff16021790555060208201518160000160146101000a81548161ffff021916908361ffff16021790555060408201518160000160166101000a81548160ff02191690831515021790555060608201518160000160176101000a81548163ffffffff021916908363ffffffff160217905550905050600f3390806001815401808255809150509060018203906000526020600020016000909192909190916101000a81548173ffffffffffffffffffffffffffffffffffffffff021916908373ffffffffffffffffffffffffffffffffffffffff160217905550506200023f6040805190810160405280600581526020017f746f6e6e650000000000000000000000000000000000000000000000000000008152506040805190810160405280600181526020017f7400000000000000000000000000000000000000000000000000000000000000815250600a600060016000620003e9640100000000026401000000009004565b620002cb6040805190810160405280600881526020017f6b696c6f6772616d0000000000000000000000000000000000000000000000008152506040805190810160405280600281526020017f6b67000000000000000000000000000000000000000000000000000000000000815250600a6003600180620003e9640100000000026401000000009004565b620003576040805190810160405280600481526020017f6772616d000000000000000000000000000000000000000000000000000000008152506040805190810160405280600181526020017f6700000000000000000000000000000000000000000000000000000000000000815250600a6006600180620003e9640100000000026401000000009004565b620003e36040805190810160405280600981526020017f6d696c6c696772616d00000000000000000000000000000000000000000000008152506040805190810160405280600281526020017f6d67000000000000000000000000000000000000000000000000000000000000815250600a6009600180620003e9640100000000026401000000009004565b620007bd565b6000600e60003373ffffffffffffffffffffffffffffffffffffffff1673ffffffffffffffffffffffffffffffffffffffff16815260200190815260200160002060000160149054906101000a900461ffff1661ffff16141515620004dc576040517f08c379a00000000000000000000000000000000000000000000000000000000081526004018080602001828103825260298152602001807f4e656365737369746120746572207065726d697373c3b56573202741646d696e81526020017f6973747261646f7227000000000000000000000000000000000000000000000081525060400191505060405180910390fd5b600d600081819054906101000a900463ffffffff168092919060010191906101000a81548163ffffffff021916908363ffffffff1602179055505060e060405190810160405280600d60009054906101000a900463ffffffff1663ffffffff1681526020018781526020018681526020018563ffffffff1681526020018463ffffffff1681526020018363ffffffff1681526020018215158152505060e060405190810160405280600d60009054906101000a900463ffffffff1663ffffffff1681526020018781526020018681526020018563ffffffff1681526020018463ffffffff1681526020018363ffffffff168152602001821515815250600c6000600d60009054906101000a900463ffffffff1663ffffffff1663ffffffff16815260200190815260200160002060008201518160000160006101000a81548163ffffffff021916908363ffffffff16021790555060208201518160010190805190602001906200064e9291906200070e565b5060408201518160020190805190602001906200066d9291906200070e565b5060608201518160030160006101000a81548163ffffffff021916908363ffffffff16021790555060808201518160030160046101000a81548163ffffffff021916908363ffffffff16021790555060a08201518160030160086101000a81548163ffffffff021916908363ffffffff16021790555060c082015181600301600c6101000a81548160ff021916908315150217905550905050505050505050565b828054600181600116156101000203166002900490600052602060002090601f016020900481019282601f106200075157805160ff191683800117855562000782565b8280016001018555821562000782579182015b828111156200078157825182559160200191906001019062000764565b5b50905062000791919062000795565b5090565b620007ba91905b80821115620007b65760008160009055506001016200079c565b5090565b90565b61221e80620007cd6000396000f3fe6080604052600436106100db576000357c0100000000000000000000000000000000000000000000000000000000900463ffffffff1680630be48c8d146100e05780632c4d89b6146101ad5780633bd6d8e31461039a5780634a2a7c27146104435780635c29bc08146105455780637a6cf3881461057c5780638760466c1461060b578063a4a1e263146106a5578063a87430ba146106d0578063a89215fa1461078e578063bf712fd614610935578063cbedd17b14610b2d578063cfd6dc5914610ba8578063d4dfba9914610d25578063ec92319614610da8575b600080fd5b3480156100ec57600080fd5b5061011f6004803603602081101561010357600080fd5b81019080803563ffffffff169060200190929190505050610e64565b604051808363ffffffff1663ffffffff16815260200180602001828103825283818151815260200191508051906020019080838360005b83811015610171578082015181840152602081019050610156565b50505050905090810190601f16801561019e5780820380516001836020036101000a031916815260200191505b50935050505060405180910390f35b3480156101b957600080fd5b506101ec600480360360208110156101d057600080fd5b81019080803563ffffffff169060200190929190505050610f30565b604051808c63ffffffff1663ffffffff168152602001806020018b63ffffffff1663ffffffff1681526020018a63ffffffff1663ffffffff1681526020018961ffff1661ffff168152602001806020018863ffffffff1663ffffffff1681526020018763ffffffff1663ffffffff1681526020018663ffffffff1663ffffffff1681526020018563ffffffff1663ffffffff1681526020018473ffffffffffffffffffffffffffffffffffffffff1673ffffffffffffffffffffffffffffffffffffffff16815260200183810383528d818151815260200191508051906020019080838360005b838110156102ee5780820151818401526020810190506102d3565b50505050905090810190601f16801561031b5780820380516001836020036101000a031916815260200191505b50838103825289818151815260200191508051906020019080838360005b83811015610354578082015181840152602081019050610339565b50505050905090810190601f1680156103815780820380516001836020036101000a031916815260200191505b509d505050505050505050505050505060405180910390f35b3480156103a657600080fd5b506103d9600480360360208110156103bd57600080fd5b81019080803563ffffffff169060200190929190505050611158565b604051808663ffffffff1663ffffffff1681526020018563ffffffff1663ffffffff1681526020018461ffff1661ffff1681526020018363ffffffff1663ffffffff1681526020018263ffffffff1663ffffffff1681526020019550505050505060405180910390f35b34801561044f57600080fd5b506104826004803603602081101561046657600080fd5b81019080803563ffffffff1690602001909291905050506111dc565b604051808663ffffffff1663ffffffff1681526020018563ffffffff1663ffffffff1681526020018461ffff1661ffff168152602001806020018363ffffffff1663ffffffff168152602001828103825284818151815260200191508051906020019080838360005b838110156105065780820151818401526020810190506104eb565b50505050905090810190601f1680156105335780820380516001836020036101000a031916815260200191505b50965050505050505060405180910390f35b34801561055157600080fd5b5061055a6112e8565b604051808263ffffffff1663ffffffff16815260200191505060405180910390f35b34801561058857600080fd5b506106096004803603608081101561059f57600080fd5b81019080803573ffffffffffffffffffffffffffffffffffffffff169060200190929190803573ffffffffffffffffffffffffffffffffffffffff169060200190929190803561ffff169060200190929190803563ffffffff1690602001909291905050506112fe565b005b34801561061757600080fd5b5061064a6004803603602081101561062e57600080fd5b81019080803563ffffffff1690602001909291905050506119ae565b604051808563ffffffff1663ffffffff1681526020018463ffffffff1663ffffffff1681526020018363ffffffff1663ffffffff1681526020018263ffffffff1663ffffffff16815260200194505050505060405180910390f35b3480156106b157600080fd5b506106ba611a1e565b6040518082815260200191505060405180910390f35b3480156106dc57600080fd5b5061071f600480360360208110156106f357600080fd5b81019080803573ffffffffffffffffffffffffffffffffffffffff169060200190929190505050611a2b565b604051808573ffffffffffffffffffffffffffffffffffffffff1673ffffffffffffffffffffffffffffffffffffffff1681526020018461ffff1661ffff168152602001831515151581526020018263ffffffff1663ffffffff16815260200194505050505060405180910390f35b34801561079a57600080fd5b506107cd600480360360208110156107b157600080fd5b81019080803563ffffffff169060200190929190505050611aa6565b604051808a63ffffffff1663ffffffff1681526020018963ffffffff1663ffffffff1681526020018861ffff1661ffff168152602001806020018763ffffffff1663ffffffff168152602001806020018663ffffffff1663ffffffff1681526020018563ffffffff1663ffffffff1681526020018463ffffffff1663ffffffff168152602001838103835289818151815260200191508051906020019080838360005b8381101561088b578082015181840152602081019050610870565b50505050905090810190601f1680156108b85780820380516001836020036101000a031916815260200191505b50838103825287818151815260200191508051906020019080838360005b838110156108f15780820151818401526020810190506108d6565b50505050905090810190601f16801561091e5780820380516001836020036101000a031916815260200191505b509b50505050505050505050505060405180910390f35b34801561094157600080fd5b506109746004803603602081101561095857600080fd5b81019080803563ffffffff169060200190929190505050611c92565b604051808a63ffffffff1663ffffffff1681526020018060200180602001806020018963ffffffff1663ffffffff1681526020018861ffff1661ffff168152602001871515151581526020018663ffffffff1663ffffffff1681526020018563ffffffff1663ffffffff16815260200184810384528c818151815260200191508051906020019080838360005b83811015610a1c578082015181840152602081019050610a01565b50505050905090810190601f168015610a495780820380516001836020036101000a031916815260200191505b5084810383528b818151815260200191508051906020019080838360005b83811015610a82578082015181840152602081019050610a67565b50505050905090810190601f168015610aaf5780820380516001836020036101000a031916815260200191505b5084810382528a818151815260200191508051906020019080838360005b83811015610ae8578082015181840152602081019050610acd565b50505050905090810190601f168015610b155780820380516001836020036101000a031916815260200191505b509c5050505050505050505050505060405180910390f35b348015610b3957600080fd5b50610b6660048036036020811015610b5057600080fd5b8101908080359060200190929190505050611f03565b604051808273ffffffffffffffffffffffffffffffffffffffff1673ffffffffffffffffffffffffffffffffffffffff16815260200191505060405180910390f35b348015610bb457600080fd5b50610be760048036036020811015610bcb57600080fd5b81019080803563ffffffff169060200190929190505050611f41565b604051808863ffffffff1663ffffffff16815260200180602001806020018763ffffffff1663ffffffff1681526020018663ffffffff1663ffffffff1681526020018563ffffffff1663ffffffff16815260200184151515158152602001838103835289818151815260200191508051906020019080838360005b83811015610c7d578082015181840152602081019050610c62565b50505050905090810190601f168015610caa5780820380516001836020036101000a031916815260200191505b50838103825288818151815260200191508051906020019080838360005b83811015610ce3578082015181840152602081019050610cc8565b50505050905090810190601f168015610d105780820380516001836020036101000a031916815260200191505b50995050505050505050505060405180910390f35b348015610d3157600080fd5b50610d6460048036036020811015610d4857600080fd5b81019080803563ffffffff169060200190929190505050612100565b604051808463ffffffff1663ffffffff1681526020018363ffffffff1663ffffffff1681526020018261ffff1661ffff168152602001935050505060405180910390f35b348015610db457600080fd5b50610de760048036036020811015610dcb57600080fd5b81019080803563ffffffff169060200190929190505050612158565b604051808763ffffffff1663ffffffff1681526020018663ffffffff1663ffffffff1681526020018561ffff1661ffff1681526020018463ffffffff1663ffffffff1681526020018363ffffffff1663ffffffff1681526020018263ffffffff1663ffffffff168152602001965050505050505060405180910390f35b60146020528060005260406000206000915090508060000160009054906101000a900463ffffffff1690806001018054600181600116156101000203166002900480601f016020809104026020016040519081016040528092919081815260200182805460018160011615610100020316600290048015610f265780601f10610efb57610100808354040283529160200191610f26565b820191906000526020600020905b815481529060010190602001808311610f0957829003601f168201915b5050505050905082565b60026020528060005260406000206000915090508060000160009054906101000a900463ffffffff1690806001018054600181600116156101000203166002900480601f016020809104026020016040519081016040528092919081815260200182805460018160011615610100020316600290048015610ff25780601f10610fc757610100808354040283529160200191610ff2565b820191906000526020600020905b815481529060010190602001808311610fd557829003601f168201915b5050505050908060020160009054906101000a900463ffffffff16908060020160049054906101000a900463ffffffff16908060020160089054906101000a900461ffff1690806003018054600181600116156101000203166002900480601f0160208091040260200160405190810160405280929190818152602001828054600181600116156101000203166002900480156110d05780601f106110a5576101008083540402835291602001916110d0565b820191906000526020600020905b8154815290600101906020018083116110b357829003601f168201915b5050505050908060050160009054906101000a900463ffffffff16908060050160049054906101000a900463ffffffff16908060050160089054906101000a900463ffffffff169080600501600c9054906101000a900463ffffffff16908060060160009054906101000a900473ffffffffffffffffffffffffffffffffffffffff1690508b565b60106020528060005260406000206000915090508060000160009054906101000a900463ffffffff16908060000160049054906101000a900463ffffffff16908060000160089054906101000a900461ffff169080600001600a9054906101000a900463ffffffff169080600001600e9054906101000a900463ffffffff16905085565b600a6020528060005260406000206000915090508060000160009054906101000a900463ffffffff16908060000160049054906101000a900463ffffffff16908060000160089054906101000a900461ffff1690806001018054600181600116156101000203166002900480601f0160208091040260200160405190810160405280929190818152602001828054600181600116156101000203166002900480156112c85780601f1061129d576101008083540402835291602001916112c8565b820191906000526020600020905b8154815290600101906020018083116112ab57829003601f168201915b5050505050908060020160009054906101000a900463ffffffff16905085565b600d60009054906101000a900463ffffffff1681565b600073ffffffffffffffffffffffffffffffffffffffff16600e60008673ffffffffffffffffffffffffffffffffffffffff1673ffffffffffffffffffffffffffffffffffffffff16815260200190815260200160002060000160009054906101000a900473ffffffffffffffffffffffffffffffffffffffff1673ffffffffffffffffffffffffffffffffffffffff1614151515611405576040517f08c379a000000000000000000000000000000000000000000000000000000000815260040180806020018281038252601f8152602001807f5574696c697a61646f72206ec3a36f20657374c3a12072656769737461646f0081525060200191505060405180910390fd5b60008261ffff161415611509576000600e60008673ffffffffffffffffffffffffffffffffffffffff1673ffffffffffffffffffffffffffffffffffffffff16815260200190815260200160002060000160149054906101000a900461ffff1661ffff16141515611504576040517f08c379a00000000000000000000000000000000000000000000000000000000081526004018080602001828103825260298152602001807f4e656365737369746120746572207065726d697373c3b56573202741646d696e81526020017f6973747261646f7227000000000000000000000000000000000000000000000081525060400191505060405180910390fd5b61180a565b60018261ffff16141561160d576000600e60008673ffffffffffffffffffffffffffffffffffffffff1673ffffffffffffffffffffffffffffffffffffffff16815260200190815260200160002060000160149054906101000a900461ffff1661ffff16141515611608576040517f08c379a000000000000000000000000000000000000000000000000000000000815260040180806020018281038252602a8152602001807f4e65636573736974612074657220706572696d697373c3b56573202741646d6981526020017f6e6973747261646f72270000000000000000000000000000000000000000000081525060400191505060405180910390fd5b611809565b60028261ffff161415611808576001600e60008673ffffffffffffffffffffffffffffffffffffffff1673ffffffffffffffffffffffffffffffffffffffff16815260200190815260200160002060000160149054906101000a900461ffff1661ffff1614151561170c576040517f08c379a00000000000000000000000000000000000000000000000000000000081526004018080602001828103825260308152602001807f4e65636573736974612074657220706572696d697373c3b56573202741646d6981526020017f6e204f7267616e697a61c3a7c3a36f270000000000000000000000000000000081525060400191505060405180910390fd5b8063ffffffff16600e60008673ffffffffffffffffffffffffffffffffffffffff1673ffffffffffffffffffffffffffffffffffffffff16815260200190815260200160002060000160179054906101000a900463ffffffff1663ffffffff16141515611807576040517f08c379a00000000000000000000000000000000000000000000000000000000081526004018080602001828103825260248152602001807f4e65636573736974612070657274656e63657220c3a0206f7267616e697a61c381526020017fa7c3a36f0000000000000000000000000000000000000000000000000000000081525060400191505060405180910390fd5b5b5b5b6080604051908101604052808473ffffffffffffffffffffffffffffffffffffffff1681526020018361ffff1681526020016001151581526020018263ffffffff16815250600e60008573ffffffffffffffffffffffffffffffffffffffff1673ffffffffffffffffffffffffffffffffffffffff16815260200190815260200160002060008201518160000160006101000a81548173ffffffffffffffffffffffffffffffffffffffff021916908373ffffffffffffffffffffffffffffffffffffffff16021790555060208201518160000160146101000a81548161ffff021916908361ffff16021790555060408201518160000160166101000a81548160ff02191690831515021790555060608201518160000160176101000a81548163ffffffff021916908363ffffffff160217905550905050600f8390806001815401808255809150509060018203906000526020600020016000909192909190916101000a81548173ffffffffffffffffffffffffffffffffffffffff021916908373ffffffffffffffffffffffffffffffffffffffff1602179055505050505050565b60126020528060005260406000206000915090508060000160009054906101000a900463ffffffff16908060000160049054906101000a900463ffffffff16908060000160089054906101000a900463ffffffff169080600001600c9054906101000a900463ffffffff16905084565b6000600f80549050905090565b600e6020528060005260406000206000915090508060000160009054906101000a900473ffffffffffffffffffffffffffffffffffffffff16908060000160149054906101000a900461ffff16908060000160169054906101000a900460ff16908060000160179054906101000a900463ffffffff16905084565b60066020528060005260406000206000915090508060000160009054906101000a900463ffffffff16908060000160049054906101000a900463ffffffff16908060000160089054906101000a900461ffff1690806001018054600181600116156101000203166002900480601f016020809104026020016040519081016040528092919081815260200182805460018160011615610100020316600290048015611b925780601f10611b6757610100808354040283529160200191611b92565b820191906000526020600020905b815481529060010190602001808311611b7557829003601f168201915b5050505050908060020160009054906101000a900463ffffffff1690806003018054600181600116156101000203166002900480601f016020809104026020016040519081016040528092919081815260200182805460018160011615610100020316600290048015611c465780601f10611c1b57610100808354040283529160200191611c46565b820191906000526020600020905b815481529060010190602001808311611c2957829003601f168201915b5050505050908060040160009054906101000a900463ffffffff16908060040160049054906101000a900463ffffffff16908060040160089054906101000a900463ffffffff16905089565b60006020528060005260406000206000915090508060000160009054906101000a900463ffffffff1690806001018054600181600116156101000203166002900480601f016020809104026020016040519081016040528092919081815260200182805460018160011615610100020316600290048015611d545780601f10611d2957610100808354040283529160200191611d54565b820191906000526020600020905b815481529060010190602001808311611d3757829003601f168201915b505050505090806002018054600181600116156101000203166002900480601f016020809104026020016040519081016040528092919081815260200182805460018160011615610100020316600290048015611df25780601f10611dc757610100808354040283529160200191611df2565b820191906000526020600020905b815481529060010190602001808311611dd557829003601f168201915b505050505090806003018054600181600116156101000203166002900480601f016020809104026020016040519081016040528092919081815260200182805460018160011615610100020316600290048015611e905780601f10611e6557610100808354040283529160200191611e90565b820191906000526020600020905b815481529060010190602001808311611e7357829003601f168201915b5050505050908060040160009054906101000a900463ffffffff16908060040160049054906101000a900461ffff16908060040160069054906101000a900460ff16908060040160079054906101000a900463ffffffff169080600401600b9054906101000a900463ffffffff16905089565b600f81815481101515611f1257fe5b906000526020600020016000915054906101000a900473ffffffffffffffffffffffffffffffffffffffff1681565b600c6020528060005260406000206000915090508060000160009054906101000a900463ffffffff1690806001018054600181600116156101000203166002900480601f0160208091040260200160405190810160405280929190818152602001828054600181600116156101000203166002900480156120035780601f10611fd857610100808354040283529160200191612003565b820191906000526020600020905b815481529060010190602001808311611fe657829003601f168201915b505050505090806002018054600181600116156101000203166002900480601f0160208091040260200160405190810160405280929190818152602001828054600181600116156101000203166002900480156120a15780601f10612076576101008083540402835291602001916120a1565b820191906000526020600020905b81548152906001019060200180831161208457829003601f168201915b5050505050908060030160009054906101000a900463ffffffff16908060030160049054906101000a900463ffffffff16908060030160089054906101000a900463ffffffff169080600301600c9054906101000a900460ff16905087565b60046020528060005260406000206000915090508060000160009054906101000a900463ffffffff16908060000160049054906101000a900463ffffffff16908060000160089054906101000a900461ffff16905083565b60086020528060005260406000206000915090508060000160009054906101000a900463ffffffff16908060000160049054906101000a900463ffffffff16908060000160089054906101000a900461ffff169080600001600a9054906101000a900463ffffffff169080600001600e9054906101000a900463ffffffff16908060000160129054906101000a900463ffffffff1690508656fea165627a7a72305820fee82240c5f34b296a0893e286ea20e0ea68e0b42ec136bcd1cd742aa68c9f860029",
  "source": "pragma solidity >=0.4.2;\r\n\r\ncontract CarbonFootPrint{\r\n    \r\n    // -- Estrutura dos produtos\r\n    struct Product{\r\n        uint32 id;\r\n        string name;\r\n        string description;\r\n        string prodUnit;\r\n        uint32 co2eq;\r\n        uint16 exp;\r\n        bool intermediate;\r\n        uint32 idOrganization;\r\n        uint32 idUnit;\r\n        uint32[] productFootPrints;\r\n    }\r\n\r\n    struct ProductFootprint{\r\n        uint32 id;\r\n        uint32 co2eq;\r\n        uint16 exp;\r\n        uint32 idProduct;\r\n        uint32 idAno;\r\n    }\r\n\r\n    struct ProductQuantity{\r\n        uint32 id;\r\n        uint32 quantity;\r\n        uint32 idPFootPrint;\r\n        uint32 idM_Activity;\r\n    }\r\n\r\n\r\n    // -- Estrutura das organizaes\r\n    struct Organization{\r\n        uint32 id;\r\n        uint32 co2eq;\r\n        uint16 exp;\r\n        uint32[] products;\r\n        uint32[] m_activities;\r\n        uint32[] m_fixcosts;\r\n    }\r\n\r\n    // -- Estrutura das atividades mensais\r\n    struct MonthlyActivity{\r\n        uint32 id;\r\n        string description;\r\n        uint32 co2eq;\r\n        uint32 finalProductQt;\r\n        uint16 exp;\r\n        string month;\r\n        uint32[] productQuantities; // -- codigo dos produtos de input\r\n        uint32 output; // -- codigo do product foot print de output\r\n        uint32 idOrganization;\r\n        uint32 idUnit;\r\n        uint32 idYear;\r\n        address idUser;\r\n    }\r\n\r\n    // -- Estrutura dos custos fixos mensais\r\n    struct MonthlyFixCost{\r\n        uint32 id;\r\n        uint32 co2eq;\r\n        uint16 exp;\r\n        string description;\r\n        uint32 quantity;\r\n        string month;\r\n        uint32 idCostType;\r\n        uint32 idOrganization;\r\n        uint32 idYear;\r\n    }\r\n\r\n    // -- Estrutura dos custos dos produtos\r\n    struct ProductCost{\r\n        uint32 id;\r\n        uint32 co2eq;\r\n        uint16 exp;\r\n        uint32 quantity;\r\n        uint32 idCostType;\r\n        uint32 idM_Activity;\r\n    }\r\n\r\n    // -- Estrutura do tipo de custo\r\n    struct CostType{\r\n        uint32 id;\r\n        uint32 co2PerUnit;\r\n        uint16 exp;\r\n        string description;\r\n        uint32 idUnit;\r\n        uint32[] m_fixcosts;\r\n        uint32[] products_costs;\r\n    }\r\n\r\n    // -- Estrutura das unidades\r\n    struct Unit{\r\n        uint32 id;\r\n        string measure;\r\n        string initials;\r\n        uint32 base;\r\n        uint32 exp;\r\n        uint32 idUnit;\r\n        bool negative;\r\n    }\r\n\r\n    // -- Users\r\n    struct User{\r\n        address user_add;\r\n        uint16 tipo; // 0 - Admin , 1 - OrgAdmin,  2 - User\r\n        bool status;\r\n        uint32 idOrganization;\r\n    }\r\n\r\n    struct Year{\r\n        uint32 id;\r\n        string ano;\r\n    }\r\n\r\n\r\n    // -- Mappings\r\n    mapping(uint32 => Product) public products;\r\n    uint32 productsCount;\r\n\r\n    mapping(uint32 => MonthlyActivity) public mactivities;\r\n    uint32 mactivitiesCount;\r\n\r\n    mapping(uint32 => Organization) public organizations;\r\n    uint32 organizationsCount;\r\n\r\n    mapping(uint32 => MonthlyFixCost) public mfixcosts;\r\n    uint32 mfixcostsCount;\r\n\r\n    mapping(uint32 => ProductCost) public productCosts;\r\n    uint32 productCostsCount;\r\n\r\n    mapping(uint32 => CostType) public costsTypes;\r\n    uint32 costsTypesCount;\r\n\r\n    mapping(uint32 => Unit) public units;\r\n    uint32 public unitsCount;\r\n\r\n    mapping(address => User) public users;\r\n    address[] public arrayUsers;\r\n\r\n    mapping(uint32 => ProductFootprint) public productFootPrints;\r\n    uint32 pfootPrintCount;\r\n\r\n    mapping(uint32 => ProductQuantity) public productsQuantities;\r\n    uint32 productsQuantitiesCount;\r\n\r\n    mapping(uint32 => Year) public yearly;\r\n    uint32 yearliesCount;\r\n\r\n    constructor () public {\r\n        users[msg.sender] = User(msg.sender, 0, true, 0);\r\n        arrayUsers.push(msg.sender);\r\n\r\n        // -- Initalize units\r\n        addUnit(\"tonne\", \"t\", 10, 0, 1, false);\r\n        addUnit(\"kilogram\", \"kg\", 10, 3, 1, true);\r\n        addUnit(\"gram\", \"g\", 10, 6, 1, true);\r\n        addUnit(\"milligram\", \"mg\", 10, 9, 1, true);\r\n    }\r\n\r\n    function getUsersCount() public view returns(uint count) {\r\n        return arrayUsers.length;\r\n    }   \r\n\r\n\r\n\r\n    function addUser (address _userResp,address _user, uint16 _tipo, uint32 _idOrganization) public {\r\n        \r\n        require(users[_userResp].user_add != address(0), \"Utilizador no est registado\");\r\n\r\n        if(_tipo == 0){\r\n            require(users[_userResp].tipo == 0, \"Necessita ter permisses 'Administrador'\");\r\n        }else if(_tipo == 1){\r\n            require(users[_userResp].tipo == 0 , \"Necessita ter perimisses 'Administrador'\");\r\n        }else if(_tipo == 2){\r\n            require(users[_userResp].tipo == 1 , \"Necessita ter perimisses 'Admin Organizao'\");\r\n            require(users[_userResp].idOrganization == _idOrganization, \"Necessita pertencer  organizao\");\r\n        }\r\n\r\n        users[_user] = User(_user, _tipo, true, _idOrganization);\r\n        arrayUsers.push(_user);\r\n        \r\n    }\r\n\r\n    function addUnit(string memory _measure, string memory _initials, uint32 _base, uint32 _exp, uint32 _idUnit,bool _negative) private{\r\n        \r\n        require(users[msg.sender].tipo == 0, \"Necessita ter permisses 'Administrador'\");\r\n\r\n        unitsCount++;\r\n        Unit(unitsCount, _measure, _initials, _base, _exp, _idUnit, _negative);\r\n        units[unitsCount] = Unit(unitsCount, _measure, _initials, _base, _exp, _idUnit, _negative);\r\n    }\r\n\r\n\r\n\r\n\r\n\r\n}",
  "sourcePath": "C:/Users/Francisco Santos/Desktop/ENG. INFORMTICA/E.I._2018-2019/2_semestre/CarbonFootPrint/contracts/CarbonFootPrint.sol",
  "compiler": {
    "name": "solc",
    "version": "0.5.0+commit.1d4f565a.Emscripten.clang"
  },
  "schemaVersion": "3.0.2",
  "updatedAt": "2019-04-03T15:43:46.256Z",
  "devdoc": {
    "methods": {}
  },
  "userdoc": {
    "methods": {}
  }
}