{
  "contractName": "CarbonFootPrint",
  "abi": [
    {
      "constant": true,
      "inputs": [
        {
          "name": "",
          "type": "uint32"
        }
      ],
      "name": "yearly",
      "outputs": [
        {
          "name": "id",
          "type": "uint32"
        },
        {
          "name": "year",
          "type": "string"
        }
      ],
      "payable": false,
      "stateMutability": "view",
      "type": "function"
    },
    {
      "constant": true,
      "inputs": [],
      "name": "productsQuantitiesCount",
      "outputs": [
        {
          "name": "",
          "type": "uint32"
        }
      ],
      "payable": false,
      "stateMutability": "view",
      "type": "function"
    },
    {
      "constant": true,
      "inputs": [
        {
          "name": "",
          "type": "uint32"
        }
      ],
      "name": "mactivities",
      "outputs": [
        {
          "name": "id",
          "type": "uint32"
        },
        {
          "name": "description",
          "type": "string"
        },
        {
          "name": "co2eq",
          "type": "uint32"
        },
        {
          "name": "finalProductQt",
          "type": "uint32"
        },
        {
          "name": "exp",
          "type": "uint16"
        },
        {
          "name": "month",
          "type": "string"
        },
        {
          "name": "output",
          "type": "uint32"
        },
        {
          "name": "idOrganization",
          "type": "uint32"
        },
        {
          "name": "idUnit",
          "type": "uint32"
        },
        {
          "name": "idYear",
          "type": "uint32"
        },
        {
          "name": "idUser",
          "type": "address"
        }
      ],
      "payable": false,
      "stateMutability": "view",
      "type": "function"
    },
    {
      "constant": true,
      "inputs": [
        {
          "name": "",
          "type": "uint32"
        }
      ],
      "name": "productFootPrints",
      "outputs": [
        {
          "name": "id",
          "type": "uint32"
        },
        {
          "name": "co2eq",
          "type": "uint32"
        },
        {
          "name": "exp",
          "type": "uint16"
        },
        {
          "name": "idProduct",
          "type": "uint32"
        },
        {
          "name": "idYear",
          "type": "uint32"
        }
      ],
      "payable": false,
      "stateMutability": "view",
      "type": "function"
    },
    {
      "constant": true,
      "inputs": [
        {
          "name": "",
          "type": "uint32"
        }
      ],
      "name": "costsTypes",
      "outputs": [
        {
          "name": "id",
          "type": "uint32"
        },
        {
          "name": "co2PerUnit",
          "type": "uint32"
        },
        {
          "name": "exp",
          "type": "uint16"
        },
        {
          "name": "description",
          "type": "string"
        },
        {
          "name": "idUnit",
          "type": "uint32"
        }
      ],
      "payable": false,
      "stateMutability": "view",
      "type": "function"
    },
    {
      "constant": true,
      "inputs": [],
      "name": "yearliesCount",
      "outputs": [
        {
          "name": "",
          "type": "uint32"
        }
      ],
      "payable": false,
      "stateMutability": "view",
      "type": "function"
    },
    {
      "constant": true,
      "inputs": [],
      "name": "organizationsCount",
      "outputs": [
        {
          "name": "",
          "type": "uint32"
        }
      ],
      "payable": false,
      "stateMutability": "view",
      "type": "function"
    },
    {
      "constant": true,
      "inputs": [],
      "name": "unitsCount",
      "outputs": [
        {
          "name": "",
          "type": "uint32"
        }
      ],
      "payable": false,
      "stateMutability": "view",
      "type": "function"
    },
    {
      "constant": true,
      "inputs": [],
      "name": "productCostsCount",
      "outputs": [
        {
          "name": "",
          "type": "uint32"
        }
      ],
      "payable": false,
      "stateMutability": "view",
      "type": "function"
    },
    {
      "constant": true,
      "inputs": [
        {
          "name": "",
          "type": "uint32"
        }
      ],
      "name": "productsQuantities",
      "outputs": [
        {
          "name": "id",
          "type": "uint32"
        },
        {
          "name": "quantity",
          "type": "uint32"
        },
        {
          "name": "idPFootPrint",
          "type": "uint32"
        },
        {
          "name": "idM_Activity",
          "type": "uint32"
        }
      ],
      "payable": false,
      "stateMutability": "view",
      "type": "function"
    },
    {
      "constant": true,
      "inputs": [
        {
          "name": "",
          "type": "address"
        }
      ],
      "name": "users",
      "outputs": [
        {
          "name": "user_add",
          "type": "address"
        },
        {
          "name": "tipo",
          "type": "uint16"
        },
        {
          "name": "status",
          "type": "bool"
        },
        {
          "name": "idOrganization",
          "type": "uint32"
        }
      ],
      "payable": false,
      "stateMutability": "view",
      "type": "function"
    },
    {
      "constant": true,
      "inputs": [
        {
          "name": "",
          "type": "uint32"
        }
      ],
      "name": "mfixcosts",
      "outputs": [
        {
          "name": "id",
          "type": "uint32"
        },
        {
          "name": "co2eq",
          "type": "uint32"
        },
        {
          "name": "exp",
          "type": "uint16"
        },
        {
          "name": "description",
          "type": "string"
        },
        {
          "name": "quantity",
          "type": "uint32"
        },
        {
          "name": "month",
          "type": "string"
        },
        {
          "name": "idCostType",
          "type": "uint32"
        },
        {
          "name": "idOrganization",
          "type": "uint32"
        },
        {
          "name": "idYear",
          "type": "uint32"
        }
      ],
      "payable": false,
      "stateMutability": "view",
      "type": "function"
    },
    {
      "constant": true,
      "inputs": [
        {
          "name": "",
          "type": "uint32"
        }
      ],
      "name": "products",
      "outputs": [
        {
          "name": "id",
          "type": "uint32"
        },
        {
          "name": "name",
          "type": "string"
        },
        {
          "name": "description",
          "type": "string"
        },
        {
          "name": "prodUnit",
          "type": "string"
        },
        {
          "name": "intermediate",
          "type": "bool"
        },
        {
          "name": "idOrganization",
          "type": "uint32"
        },
        {
          "name": "idUnit",
          "type": "uint32"
        }
      ],
      "payable": false,
      "stateMutability": "view",
      "type": "function"
    },
    {
      "constant": true,
      "inputs": [
        {
          "name": "",
          "type": "uint256"
        }
      ],
      "name": "arrayUsers",
      "outputs": [
        {
          "name": "",
          "type": "address"
        }
      ],
      "payable": false,
      "stateMutability": "view",
      "type": "function"
    },
    {
      "constant": true,
      "inputs": [],
      "name": "costsTypesCount",
      "outputs": [
        {
          "name": "",
          "type": "uint32"
        }
      ],
      "payable": false,
      "stateMutability": "view",
      "type": "function"
    },
    {
      "constant": true,
      "inputs": [
        {
          "name": "",
          "type": "uint32"
        }
      ],
      "name": "units",
      "outputs": [
        {
          "name": "id",
          "type": "uint32"
        },
        {
          "name": "measure",
          "type": "string"
        },
        {
          "name": "initials",
          "type": "string"
        },
        {
          "name": "base",
          "type": "uint32"
        },
        {
          "name": "exp",
          "type": "uint32"
        },
        {
          "name": "idUnit",
          "type": "uint32"
        },
        {
          "name": "negative",
          "type": "bool"
        }
      ],
      "payable": false,
      "stateMutability": "view",
      "type": "function"
    },
    {
      "constant": true,
      "inputs": [
        {
          "name": "",
          "type": "uint32"
        }
      ],
      "name": "organizations",
      "outputs": [
        {
          "name": "id",
          "type": "uint32"
        },
        {
          "name": "co2eq",
          "type": "uint32"
        },
        {
          "name": "exp",
          "type": "uint16"
        },
        {
          "name": "name",
          "type": "string"
        }
      ],
      "payable": false,
      "stateMutability": "view",
      "type": "function"
    },
    {
      "constant": true,
      "inputs": [],
      "name": "pfootPrintCount",
      "outputs": [
        {
          "name": "",
          "type": "uint32"
        }
      ],
      "payable": false,
      "stateMutability": "view",
      "type": "function"
    },
    {
      "constant": true,
      "inputs": [],
      "name": "productsCount",
      "outputs": [
        {
          "name": "",
          "type": "uint32"
        }
      ],
      "payable": false,
      "stateMutability": "view",
      "type": "function"
    },
    {
      "constant": true,
      "inputs": [],
      "name": "mactivitiesCount",
      "outputs": [
        {
          "name": "",
          "type": "uint32"
        }
      ],
      "payable": false,
      "stateMutability": "view",
      "type": "function"
    },
    {
      "constant": true,
      "inputs": [
        {
          "name": "",
          "type": "uint32"
        }
      ],
      "name": "productCosts",
      "outputs": [
        {
          "name": "id",
          "type": "uint32"
        },
        {
          "name": "co2eq",
          "type": "uint32"
        },
        {
          "name": "exp",
          "type": "uint16"
        },
        {
          "name": "quantity",
          "type": "uint32"
        },
        {
          "name": "idCostType",
          "type": "uint32"
        },
        {
          "name": "idM_Activity",
          "type": "uint32"
        }
      ],
      "payable": false,
      "stateMutability": "view",
      "type": "function"
    },
    {
      "constant": true,
      "inputs": [],
      "name": "mfixcostsCount",
      "outputs": [
        {
          "name": "",
          "type": "uint32"
        }
      ],
      "payable": false,
      "stateMutability": "view",
      "type": "function"
    },
    {
      "inputs": [],
      "payable": false,
      "stateMutability": "nonpayable",
      "type": "constructor"
    },
    {
      "anonymous": false,
      "inputs": [
        {
          "indexed": true,
          "name": "_candidateAddress",
          "type": "address"
        }
      ],
      "name": "registUserEvent",
      "type": "event"
    },
    {
      "constant": true,
      "inputs": [],
      "name": "getUsersCount",
      "outputs": [
        {
          "name": "count",
          "type": "uint256"
        }
      ],
      "payable": false,
      "stateMutability": "view",
      "type": "function"
    },
    {
      "constant": true,
      "inputs": [
        {
          "name": "_add",
          "type": "address"
        }
      ],
      "name": "isNull",
      "outputs": [
        {
          "name": "addressNull",
          "type": "bool"
        }
      ],
      "payable": false,
      "stateMutability": "pure",
      "type": "function"
    },
    {
      "constant": true,
      "inputs": [
        {
          "name": "_org",
          "type": "uint32"
        }
      ],
      "name": "getOrgProducts",
      "outputs": [
        {
          "name": "prods",
          "type": "uint32[]"
        }
      ],
      "payable": false,
      "stateMutability": "view",
      "type": "function"
    },
    {
      "constant": true,
      "inputs": [
        {
          "name": "_org",
          "type": "uint32"
        }
      ],
      "name": "getOrgMactivities",
      "outputs": [
        {
          "name": "m_activities",
          "type": "uint32[]"
        }
      ],
      "payable": false,
      "stateMutability": "view",
      "type": "function"
    },
    {
      "constant": true,
      "inputs": [
        {
          "name": "_org",
          "type": "uint32"
        }
      ],
      "name": "getOrgFixCosts",
      "outputs": [
        {
          "name": "m_fixcosts",
          "type": "uint32[]"
        }
      ],
      "payable": false,
      "stateMutability": "view",
      "type": "function"
    },
    {
      "constant": true,
      "inputs": [
        {
          "name": "_prod",
          "type": "uint32"
        }
      ],
      "name": "getProdQuantities",
      "outputs": [
        {
          "name": "quantities",
          "type": "uint32[]"
        }
      ],
      "payable": false,
      "stateMutability": "view",
      "type": "function"
    },
    {
      "constant": true,
      "inputs": [
        {
          "name": "_prod",
          "type": "uint32"
        }
      ],
      "name": "getFootPrintsProd",
      "outputs": [
        {
          "name": "footprints",
          "type": "uint32[]"
        }
      ],
      "payable": false,
      "stateMutability": "view",
      "type": "function"
    },
    {
      "constant": false,
      "inputs": [
        {
          "name": "_userResp",
          "type": "address"
        },
        {
          "name": "_user",
          "type": "address"
        },
        {
          "name": "_tipo",
          "type": "uint16"
        },
        {
          "name": "_idOrganization",
          "type": "uint32"
        }
      ],
      "name": "addUser",
      "outputs": [],
      "payable": false,
      "stateMutability": "nonpayable",
      "type": "function"
    },
    {
      "constant": false,
      "inputs": [
        {
          "name": "_userResp",
          "type": "address"
        },
        {
          "name": "_userBlock",
          "type": "address"
        }
      ],
      "name": "blockUser",
      "outputs": [],
      "payable": false,
      "stateMutability": "nonpayable",
      "type": "function"
    },
    {
      "constant": false,
      "inputs": [
        {
          "name": "_userResp",
          "type": "address"
        },
        {
          "name": "_userBlock",
          "type": "address"
        }
      ],
      "name": "unblockUser",
      "outputs": [],
      "payable": false,
      "stateMutability": "nonpayable",
      "type": "function"
    },
    {
      "constant": false,
      "inputs": [
        {
          "name": "_name",
          "type": "string"
        },
        {
          "name": "_products",
          "type": "uint32[]"
        },
        {
          "name": "_m_activities",
          "type": "uint32[]"
        },
        {
          "name": "_m_fixcosts",
          "type": "uint32[]"
        }
      ],
      "name": "addOrganization",
      "outputs": [],
      "payable": false,
      "stateMutability": "nonpayable",
      "type": "function"
    },
    {
      "constant": false,
      "inputs": [
        {
          "name": "_name",
          "type": "string"
        },
        {
          "name": "_description",
          "type": "string"
        },
        {
          "name": "_intermediate",
          "type": "bool"
        },
        {
          "name": "_org",
          "type": "uint32"
        },
        {
          "name": "_unit",
          "type": "uint32"
        },
        {
          "name": "_footPrints",
          "type": "uint32[]"
        }
      ],
      "name": "addProduct",
      "outputs": [],
      "payable": false,
      "stateMutability": "nonpayable",
      "type": "function"
    },
    {
      "constant": false,
      "inputs": [
        {
          "name": "_year",
          "type": "string"
        }
      ],
      "name": "addYear",
      "outputs": [],
      "payable": false,
      "stateMutability": "nonpayable",
      "type": "function"
    },
    {
      "constant": false,
      "inputs": [
        {
          "name": "_co2eq",
          "type": "uint32"
        },
        {
          "name": "_exp",
          "type": "uint16"
        },
        {
          "name": "_idProd",
          "type": "uint32"
        },
        {
          "name": "_idYear",
          "type": "uint32"
        }
      ],
      "name": "addFootPrintProd",
      "outputs": [],
      "payable": false,
      "stateMutability": "nonpayable",
      "type": "function"
    },
    {
      "constant": false,
      "inputs": [
        {
          "name": "_co2",
          "type": "uint32"
        },
        {
          "name": "_exp",
          "type": "uint16"
        },
        {
          "name": "_desc",
          "type": "string"
        },
        {
          "name": "_idUnit",
          "type": "uint32"
        },
        {
          "name": "_fixCosts",
          "type": "uint32[]"
        },
        {
          "name": "_p_costs",
          "type": "uint32[]"
        }
      ],
      "name": "addCostType",
      "outputs": [],
      "payable": false,
      "stateMutability": "nonpayable",
      "type": "function"
    },
    {
      "constant": false,
      "inputs": [
        {
          "name": "_co2eq",
          "type": "uint32"
        },
        {
          "name": "_exp",
          "type": "uint16"
        },
        {
          "name": "_desc",
          "type": "string"
        },
        {
          "name": "_qtd",
          "type": "uint32"
        },
        {
          "name": "_month",
          "type": "string"
        },
        {
          "name": "_idCost",
          "type": "uint32"
        },
        {
          "name": "_idOrg",
          "type": "uint32"
        },
        {
          "name": "_idYear",
          "type": "uint32"
        }
      ],
      "name": "addMonthlyFixCost",
      "outputs": [],
      "payable": false,
      "stateMutability": "nonpayable",
      "type": "function"
    },
    {
      "constant": false,
      "inputs": [
        {
          "name": "_desc",
          "type": "string"
        },
        {
          "name": "_qtd",
          "type": "uint32"
        },
        {
          "name": "_month",
          "type": "string"
        },
        {
          "name": "_prodQuantities",
          "type": "uint32[]"
        },
        {
          "name": "_output",
          "type": "uint32"
        },
        {
          "name": "_idOrg",
          "type": "uint32"
        },
        {
          "name": "_idUnit",
          "type": "uint32"
        },
        {
          "name": "_idYear",
          "type": "uint32"
        }
      ],
      "name": "addMonthlyActivity",
      "outputs": [],
      "payable": false,
      "stateMutability": "nonpayable",
      "type": "function"
    },
    {
      "constant": false,
      "inputs": [
        {
          "name": "_co2",
          "type": "uint32"
        },
        {
          "name": "_exp",
          "type": "uint16"
        },
        {
          "name": "_qt",
          "type": "uint32"
        },
        {
          "name": "_costType",
          "type": "uint32"
        },
        {
          "name": "_mactivity",
          "type": "uint32"
        }
      ],
      "name": "addProductionCost",
      "outputs": [],
      "payable": false,
      "stateMutability": "nonpayable",
      "type": "function"
    },
    {
      "constant": false,
      "inputs": [
        {
          "name": "_qtd",
          "type": "uint32"
        },
        {
          "name": "_idPfootPrint",
          "type": "uint32"
        },
        {
          "name": "_m_activity",
          "type": "uint32"
        }
      ],
      "name": "addProdQuantity",
      "outputs": [],
      "payable": false,
      "stateMutability": "nonpayable",
      "type": "function"
    },
    {
      "constant": false,
      "inputs": [
        {
          "name": "_org",
          "type": "uint32"
        },
        {
          "name": "_co2eq",
          "type": "uint32"
        },
        {
          "name": "_exp",
          "type": "uint16"
        }
      ],
      "name": "updateCO2org",
      "outputs": [],
      "payable": false,
      "stateMutability": "nonpayable",
      "type": "function"
    },
    {
      "constant": false,
      "inputs": [
        {
          "name": "_mactivity",
          "type": "uint32"
        },
        {
          "name": "_co2eq",
          "type": "uint32"
        },
        {
          "name": "_exp",
          "type": "uint16"
        }
      ],
      "name": "updateCO2mactivity",
      "outputs": [],
      "payable": false,
      "stateMutability": "nonpayable",
      "type": "function"
    },
    {
      "constant": true,
      "inputs": [
        {
          "name": "_user",
          "type": "address"
        }
      ],
      "name": "verifyUser",
      "outputs": [
        {
          "name": "message",
          "type": "string"
        }
      ],
      "payable": false,
      "stateMutability": "view",
      "type": "function"
    }
  ],
  "bytecode": "0x60806040523480156200001157600080fd5b506080604051908101604052803373ffffffffffffffffffffffffffffffffffffffff168152602001600061ffff168152602001600115158152602001600063ffffffff16815250600e60003373ffffffffffffffffffffffffffffffffffffffff1673ffffffffffffffffffffffffffffffffffffffff16815260200190815260200160002060008201518160000160006101000a81548173ffffffffffffffffffffffffffffffffffffffff021916908373ffffffffffffffffffffffffffffffffffffffff16021790555060208201518160000160146101000a81548161ffff021916908361ffff16021790555060408201518160000160166101000a81548160ff02191690831515021790555060608201518160000160176101000a81548163ffffffff021916908363ffffffff160217905550905050600f3390806001815401808255809150509060018203906000526020600020016000909192909190916101000a81548173ffffffffffffffffffffffffffffffffffffffff021916908373ffffffffffffffffffffffffffffffffffffffff160217905550506200023f6040805190810160405280600581526020017f746f6e6e650000000000000000000000000000000000000000000000000000008152506040805190810160405280600181526020017f7400000000000000000000000000000000000000000000000000000000000000815250600a60006001600062000438640100000000026401000000009004565b620002cb6040805190810160405280600881526020017f6b696c6f6772616d0000000000000000000000000000000000000000000000008152506040805190810160405280600281526020017f6b67000000000000000000000000000000000000000000000000000000000000815250600a600360018062000438640100000000026401000000009004565b620003576040805190810160405280600481526020017f6772616d000000000000000000000000000000000000000000000000000000008152506040805190810160405280600181526020017f6700000000000000000000000000000000000000000000000000000000000000815250600a600660018062000438640100000000026401000000009004565b620003e36040805190810160405280600981526020017f6d696c6c696772616d00000000000000000000000000000000000000000000008152506040805190810160405280600281526020017f6d67000000000000000000000000000000000000000000000000000000000000815250600a600960018062000438640100000000026401000000009004565b620004326040805190810160405280600481526020017f32303139000000000000000000000000000000000000000000000000000000008152506200075d640100000000026401000000009004565b62000c5b565b6000600e60003373ffffffffffffffffffffffffffffffffffffffff1673ffffffffffffffffffffffffffffffffffffffff16815260200190815260200160002060000160149054906101000a900461ffff1661ffff161415156200052b576040517f08c379a00000000000000000000000000000000000000000000000000000000081526004018080602001828103825260228152602001807f596f75206e65656420746f20686176652061646d696e207065726d697373696f81526020017f6e7300000000000000000000000000000000000000000000000000000000000081525060400191505060405180910390fd5b600d600081819054906101000a900463ffffffff168092919060010191906101000a81548163ffffffff021916908363ffffffff1602179055505060e060405190810160405280600d60009054906101000a900463ffffffff1663ffffffff1681526020018781526020018681526020018563ffffffff1681526020018463ffffffff1681526020018363ffffffff1681526020018215158152505060e060405190810160405280600d60009054906101000a900463ffffffff1663ffffffff1681526020018781526020018681526020018563ffffffff1681526020018463ffffffff1681526020018363ffffffff168152602001821515815250600c6000600d60009054906101000a900463ffffffff1663ffffffff1663ffffffff16815260200190815260200160002060008201518160000160006101000a81548163ffffffff021916908363ffffffff16021790555060208201518160010190805190602001906200069d92919062000bac565b506040820151816002019080519060200190620006bc92919062000bac565b5060608201518160030160006101000a81548163ffffffff021916908363ffffffff16021790555060808201518160030160046101000a81548163ffffffff021916908363ffffffff16021790555060a08201518160030160086101000a81548163ffffffff021916908363ffffffff16021790555060c082015181600301600c6101000a81548160ff021916908315150217905550905050505050505050565b6000600e60003373ffffffffffffffffffffffffffffffffffffffff1673ffffffffffffffffffffffffffffffffffffffff16815260200190815260200160002060000160149054906101000a900461ffff1661ffff1614151562000850576040517f08c379a00000000000000000000000000000000000000000000000000000000081526004018080602001828103825260228152602001807f596f75206e65656420746f20686176652061646d696e207065726d697373696f81526020017f6e7300000000000000000000000000000000000000000000000000000000000081525060400191505060405180910390fd5b60008090506000600190505b601560009054906101000a900463ffffffff1663ffffffff168163ffffffff1611151562000a4e576060601460008363ffffffff1663ffffffff1681526020019081526020016000206001018054600181600116156101000203166002900480601f016020809104026020016040519081016040528092919081815260200182805460018160011615610100020316600290048015620009405780601f10620009145761010080835404028352916020019162000940565b820191906000526020600020905b8154815290600101906020018083116200092257829003601f168201915b50505050509050836040516020018082805190602001908083835b6020831015156200098257805182526020820191506020810190506020830392506200095b565b6001836020036101000a03801982511681845116808217855250505050505090500191505060405160208183030381529060405280519060200120816040516020018082805190602001908083835b602083101515620009f85780518252602082019150602081019050602083039250620009d1565b6001836020036101000a03801982511681845116808217855250505050505090500191505060405160208183030381529060405280519060200120141562000a3f57600192505b5080806001019150506200085c565b508015151562000ac6576040517f08c379a00000000000000000000000000000000000000000000000000000000081526004018080602001828103825260168152602001807f5965617220616c7265616479207265676973747265640000000000000000000081525060200191505060405180910390fd5b6015600081819054906101000a900463ffffffff168092919060010191906101000a81548163ffffffff021916908363ffffffff160217905550506040805190810160405280601560009054906101000a900463ffffffff1663ffffffff1681526020018381525060146000601560009054906101000a900463ffffffff1663ffffffff1663ffffffff16815260200190815260200160002060008201518160000160006101000a81548163ffffffff021916908363ffffffff160217905550602082015181600101908051906020019062000ba492919062000bac565b509050505050565b828054600181600116156101000203166002900490600052602060002090601f016020900481019282601f1062000bef57805160ff191683800117855562000c20565b8280016001018555821562000c20579182015b8281111562000c1f57825182559160200191906001019062000c02565b5b50905062000c2f919062000c33565b5090565b62000c5891905b8082111562000c5457600081600090555060010162000c3a565b5090565b90565b6161768062000c6b6000396000f3fe60806040526004361061021a576000357c0100000000000000000000000000000000000000000000000000000000900463ffffffff16806301843f741461021f5780630be31dc4146102b55780630be48c8d1461034b57806326de83c0146104185780632c4d89b61461044f5780633bd6d8e31461063c5780634a2a7c27146106e55780634d813120146107e757806353f1799b146108b157806359987f91146108e85780635c29bc081461091f5780635e32e2fe146109565780636aeb9ca1146109b5578063778eb30b14610c395780637a6cf38814610caa5780637ae8869714610d395780638760466c14610d705780638b86286914610e0a5780638d40f3031461102857806393d12817146110f05780639a5a3c5d14611151578063a4a1e263146111e7578063a5f3b6a814611212578063a87430ba14611291578063a89215fa1461134f578063bf712fd6146114f6578063c10da47d146116cc578063c5b2db7d1461188a578063ca7cf05414611920578063cbedd17b146119b6578063cd7c044814611a31578063cfd6dc5914611a68578063d4676fa414611be5578063d4dfba9914611e04578063dd69c58214611ef3578063df77a00914611f2a578063e0df7bb614611f99578063e0e561fb14611fd0578063e46fe1cd1461202f578063e5bb657514612098578063ec4b547d14612109578063ec92319614612140578063f09c475a146121fc578063f86bc05e14612440575b600080fd5b34801561022b57600080fd5b5061025e6004803603602081101561024257600080fd5b81019080803563ffffffff169060200190929190505050612477565b6040518080602001828103825283818151815260200191508051906020019060200280838360005b838110156102a1578082015181840152602081019050610286565b505050509050019250505060405180910390f35b3480156102c157600080fd5b506102f4600480360360208110156102d857600080fd5b81019080803563ffffffff16906020019092919050505061251d565b6040518080602001828103825283818151815260200191508051906020019060200280838360005b8381101561033757808201518184015260208101905061031c565b505050509050019250505060405180910390f35b34801561035757600080fd5b5061038a6004803603602081101561036e57600080fd5b81019080803563ffffffff1690602001909291905050506125c3565b604051808363ffffffff1663ffffffff16815260200180602001828103825283818151815260200191508051906020019080838360005b838110156103dc5780820151818401526020810190506103c1565b50505050905090810190601f1680156104095780820380516001836020036101000a031916815260200191505b50935050505060405180910390f35b34801561042457600080fd5b5061042d61268f565b604051808263ffffffff1663ffffffff16815260200191505060405180910390f35b34801561045b57600080fd5b5061048e6004803603602081101561047257600080fd5b81019080803563ffffffff1690602001909291905050506126a5565b604051808c63ffffffff1663ffffffff168152602001806020018b63ffffffff1663ffffffff1681526020018a63ffffffff1663ffffffff1681526020018961ffff1661ffff168152602001806020018863ffffffff1663ffffffff1681526020018763ffffffff1663ffffffff1681526020018663ffffffff1663ffffffff1681526020018563ffffffff1663ffffffff1681526020018473ffffffffffffffffffffffffffffffffffffffff1673ffffffffffffffffffffffffffffffffffffffff16815260200183810383528d818151815260200191508051906020019080838360005b83811015610590578082015181840152602081019050610575565b50505050905090810190601f1680156105bd5780820380516001836020036101000a031916815260200191505b50838103825289818151815260200191508051906020019080838360005b838110156105f65780820151818401526020810190506105db565b50505050905090810190601f1680156106235780820380516001836020036101000a031916815260200191505b509d505050505050505050505050505060405180910390f35b34801561064857600080fd5b5061067b6004803603602081101561065f57600080fd5b81019080803563ffffffff1690602001909291905050506128cd565b604051808663ffffffff1663ffffffff1681526020018563ffffffff1663ffffffff1681526020018461ffff1661ffff1681526020018363ffffffff1663ffffffff1681526020018263ffffffff1663ffffffff1681526020019550505050505060405180910390f35b3480156106f157600080fd5b506107246004803603602081101561070857600080fd5b81019080803563ffffffff169060200190929190505050612951565b604051808663ffffffff1663ffffffff1681526020018563ffffffff1663ffffffff1681526020018461ffff1661ffff168152602001806020018363ffffffff1663ffffffff168152602001828103825284818151815260200191508051906020019080838360005b838110156107a857808201518184015260208101905061078d565b50505050905090810190601f1680156107d55780820380516001836020036101000a031916815260200191505b50965050505050505060405180910390f35b3480156107f357600080fd5b506108366004803603602081101561080a57600080fd5b81019080803573ffffffffffffffffffffffffffffffffffffffff169060200190929190505050612a5d565b6040518080602001828103825283818151815260200191508051906020019080838360005b8381101561087657808201518184015260208101905061085b565b50505050905090810190601f1680156108a35780820380516001836020036101000a031916815260200191505b509250505060405180910390f35b3480156108bd57600080fd5b506108c6612c0a565b604051808263ffffffff1663ffffffff16815260200191505060405180910390f35b3480156108f457600080fd5b506108fd612c20565b604051808263ffffffff1663ffffffff16815260200191505060405180910390f35b34801561092b57600080fd5b50610934612c36565b604051808263ffffffff1663ffffffff16815260200191505060405180910390f35b34801561096257600080fd5b506109b36004803603606081101561097957600080fd5b81019080803563ffffffff169060200190929190803563ffffffff169060200190929190803561ffff169060200190929190505050612c4c565b005b3480156109c157600080fd5b50610c37600480360360808110156109d857600080fd5b81019080803590602001906401000000008111156109f557600080fd5b820183602082011115610a0757600080fd5b80359060200191846001830284011164010000000083111715610a2957600080fd5b91908080601f016020809104026020016040519081016040528093929190818152602001838380828437600081840152601f19601f82011690508083019250505050505050919291929080359060200190640100000000811115610a8c57600080fd5b820183602082011115610a9e57600080fd5b80359060200191846020830284011164010000000083111715610ac057600080fd5b919080806020026020016040519081016040528093929190818152602001838360200280828437600081840152601f19601f82011690508083019250505050505050919291929080359060200190640100000000811115610b2057600080fd5b820183602082011115610b3257600080fd5b80359060200191846020830284011164010000000083111715610b5457600080fd5b919080806020026020016040519081016040528093929190818152602001838360200280828437600081840152601f19601f82011690508083019250505050505050919291929080359060200190640100000000811115610bb457600080fd5b820183602082011115610bc657600080fd5b80359060200191846020830284011164010000000083111715610be857600080fd5b919080806020026020016040519081016040528093929190818152602001838360200280828437600081840152601f19601f820116905080830192505050505050509192919290505050612ccf565b005b348015610c4557600080fd5b50610ca860048036036040811015610c5c57600080fd5b81019080803573ffffffffffffffffffffffffffffffffffffffff169060200190929190803573ffffffffffffffffffffffffffffffffffffffff1690602001909291905050506131de565b005b348015610cb657600080fd5b50610d3760048036036080811015610ccd57600080fd5b81019080803573ffffffffffffffffffffffffffffffffffffffff169060200190929190803573ffffffffffffffffffffffffffffffffffffffff169060200190929190803561ffff169060200190929190803563ffffffff16906020019092919050505061332f565b005b348015610d4557600080fd5b50610d4e61392b565b604051808263ffffffff1663ffffffff16815260200191505060405180910390f35b348015610d7c57600080fd5b50610daf60048036036020811015610d9357600080fd5b81019080803563ffffffff169060200190929190505050613941565b604051808563ffffffff1663ffffffff1681526020018463ffffffff1663ffffffff1681526020018363ffffffff1663ffffffff1681526020018263ffffffff1663ffffffff16815260200194505050505060405180910390f35b348015610e1657600080fd5b50611026600480360360c0811015610e2d57600080fd5b81019080803563ffffffff169060200190929190803561ffff16906020019092919080359060200190640100000000811115610e6857600080fd5b820183602082011115610e7a57600080fd5b80359060200191846001830284011164010000000083111715610e9c57600080fd5b91908080601f016020809104026020016040519081016040528093929190818152602001838380828437600081840152601f19601f820116905080830192505050505050509192919290803563ffffffff16906020019092919080359060200190640100000000811115610f0f57600080fd5b820183602082011115610f2157600080fd5b80359060200191846020830284011164010000000083111715610f4357600080fd5b919080806020026020016040519081016040528093929190818152602001838360200280828437600081840152601f19601f82011690508083019250505050505050919291929080359060200190640100000000811115610fa357600080fd5b820183602082011115610fb557600080fd5b80359060200191846020830284011164010000000083111715610fd757600080fd5b919080806020026020016040519081016040528093929190818152602001838360200280828437600081840152601f19601f8201169050808301925050505050505091929192905050506139b1565b005b34801561103457600080fd5b506110ee6004803603602081101561104b57600080fd5b810190808035906020019064010000000081111561106857600080fd5b82018360208201111561107a57600080fd5b8035906020019184600183028401116401000000008311171561109c57600080fd5b91908080601f016020809104026020016040519081016040528093929190818152602001838380828437600081840152601f19601f820116905080830192505050505050509192919290505050613b73565b005b3480156110fc57600080fd5b5061114f6004803603606081101561111357600080fd5b81019080803563ffffffff169060200190929190803563ffffffff169060200190929190803563ffffffff169060200190929190505050613fb3565b005b34801561115d57600080fd5b506111906004803603602081101561117457600080fd5b81019080803563ffffffff169060200190929190505050614192565b6040518080602001828103825283818151815260200191508051906020019060200280838360005b838110156111d35780820151818401526020810190506111b8565b505050509050019250505060405180910390f35b3480156111f357600080fd5b506111fc614238565b6040518082815260200191505060405180910390f35b34801561121e57600080fd5b5061128f600480360360a081101561123557600080fd5b81019080803563ffffffff169060200190929190803561ffff169060200190929190803563ffffffff169060200190929190803563ffffffff169060200190929190803563ffffffff169060200190929190505050614245565b005b34801561129d57600080fd5b506112e0600480360360208110156112b457600080fd5b81019080803573ffffffffffffffffffffffffffffffffffffffff169060200190929190505050614403565b604051808573ffffffffffffffffffffffffffffffffffffffff1673ffffffffffffffffffffffffffffffffffffffff1681526020018461ffff1661ffff168152602001831515151581526020018263ffffffff1663ffffffff16815260200194505050505060405180910390f35b34801561135b57600080fd5b5061138e6004803603602081101561137257600080fd5b81019080803563ffffffff16906020019092919050505061447e565b604051808a63ffffffff1663ffffffff1681526020018963ffffffff1663ffffffff1681526020018861ffff1661ffff168152602001806020018763ffffffff1663ffffffff168152602001806020018663ffffffff1663ffffffff1681526020018563ffffffff1663ffffffff1681526020018463ffffffff1663ffffffff168152602001838103835289818151815260200191508051906020019080838360005b8381101561144c578082015181840152602081019050611431565b50505050905090810190601f1680156114795780820380516001836020036101000a031916815260200191505b50838103825287818151815260200191508051906020019080838360005b838110156114b2578082015181840152602081019050611497565b50505050905090810190601f1680156114df5780820380516001836020036101000a031916815260200191505b509b50505050505050505050505060405180910390f35b34801561150257600080fd5b506115356004803603602081101561151957600080fd5b81019080803563ffffffff16906020019092919050505061466a565b604051808863ffffffff1663ffffffff168152602001806020018060200180602001871515151581526020018663ffffffff1663ffffffff1681526020018563ffffffff1663ffffffff16815260200184810384528a818151815260200191508051906020019080838360005b838110156115bd5780820151818401526020810190506115a2565b50505050905090810190601f1680156115ea5780820380516001836020036101000a031916815260200191505b50848103835289818151815260200191508051906020019080838360005b83811015611623578082015181840152602081019050611608565b50505050905090810190601f1680156116505780820380516001836020036101000a031916815260200191505b50848103825288818151815260200191508051906020019080838360005b8381101561168957808201518184015260208101905061166e565b50505050905090810190601f1680156116b65780820380516001836020036101000a031916815260200191505b509a505050505050505050505060405180910390f35b3480156116d857600080fd5b5061188860048036036101008110156116f057600080fd5b81019080803563ffffffff169060200190929190803561ffff1690602001909291908035906020019064010000000081111561172b57600080fd5b82018360208201111561173d57600080fd5b8035906020019184600183028401116401000000008311171561175f57600080fd5b91908080601f016020809104026020016040519081016040528093929190818152602001838380828437600081840152601f19601f820116905080830192505050505050509192919290803563ffffffff169060200190929190803590602001906401000000008111156117d257600080fd5b8201836020820111156117e457600080fd5b8035906020019184600183028401116401000000008311171561180657600080fd5b91908080601f016020809104026020016040519081016040528093929190818152602001838380828437600081840152601f19601f820116905080830192505050505050509192919290803563ffffffff169060200190929190803563ffffffff169060200190929190803563ffffffff1690602001909291905050506148b1565b005b34801561189657600080fd5b506118c9600480360360208110156118ad57600080fd5b81019080803563ffffffff169060200190929190505050614bf3565b6040518080602001828103825283818151815260200191508051906020019060200280838360005b8381101561190c5780820151818401526020810190506118f1565b505050509050019250505060405180910390f35b34801561192c57600080fd5b5061195f6004803603602081101561194357600080fd5b81019080803563ffffffff169060200190929190505050614c99565b6040518080602001828103825283818151815260200191508051906020019060200280838360005b838110156119a2578082015181840152602081019050611987565b505050509050019250505060405180910390f35b3480156119c257600080fd5b506119ef600480360360208110156119d957600080fd5b8101908080359060200190929190505050614d3e565b604051808273ffffffffffffffffffffffffffffffffffffffff1673ffffffffffffffffffffffffffffffffffffffff16815260200191505060405180910390f35b348015611a3d57600080fd5b50611a46614d7c565b604051808263ffffffff1663ffffffff16815260200191505060405180910390f35b348015611a7457600080fd5b50611aa760048036036020811015611a8b57600080fd5b81019080803563ffffffff169060200190929190505050614d92565b604051808863ffffffff1663ffffffff16815260200180602001806020018763ffffffff1663ffffffff1681526020018663ffffffff1663ffffffff1681526020018563ffffffff1663ffffffff16815260200184151515158152602001838103835289818151815260200191508051906020019080838360005b83811015611b3d578082015181840152602081019050611b22565b50505050905090810190601f168015611b6a5780820380516001836020036101000a031916815260200191505b50838103825288818151815260200191508051906020019080838360005b83811015611ba3578082015181840152602081019050611b88565b50505050905090810190601f168015611bd05780820380516001836020036101000a031916815260200191505b50995050505050505050505060405180910390f35b348015611bf157600080fd5b50611e02600480360360c0811015611c0857600080fd5b8101908080359060200190640100000000811115611c2557600080fd5b820183602082011115611c3757600080fd5b80359060200191846001830284011164010000000083111715611c5957600080fd5b91908080601f016020809104026020016040519081016040528093929190818152602001838380828437600081840152601f19601f82011690508083019250505050505050919291929080359060200190640100000000811115611cbc57600080fd5b820183602082011115611cce57600080fd5b80359060200191846001830284011164010000000083111715611cf057600080fd5b91908080601f016020809104026020016040519081016040528093929190818152602001838380828437600081840152601f19601f820116905080830192505050505050509192919290803515159060200190929190803563ffffffff169060200190929190803563ffffffff16906020019092919080359060200190640100000000811115611d7f57600080fd5b820183602082011115611d9157600080fd5b80359060200191846020830284011164010000000083111715611db357600080fd5b919080806020026020016040519081016040528093929190818152602001838360200280828437600081840152601f19601f820116905080830192505050505050509192919290505050614f51565b005b348015611e1057600080fd5b50611e4360048036036020811015611e2757600080fd5b81019080803563ffffffff16906020019092919050505061558f565b604051808563ffffffff1663ffffffff1681526020018463ffffffff1663ffffffff1681526020018361ffff1661ffff16815260200180602001828103825283818151815260200191508051906020019080838360005b83811015611eb5578082015181840152602081019050611e9a565b50505050905090810190601f168015611ee25780820380516001836020036101000a031916815260200191505b509550505050505060405180910390f35b348015611eff57600080fd5b50611f08615685565b604051808263ffffffff1663ffffffff16815260200191505060405180910390f35b348015611f3657600080fd5b50611f9760048036036080811015611f4d57600080fd5b81019080803563ffffffff169060200190929190803561ffff169060200190929190803563ffffffff169060200190929190803563ffffffff16906020019092919050505061569b565b005b348015611fa557600080fd5b50611fae61595d565b604051808263ffffffff1663ffffffff16815260200191505060405180910390f35b348015611fdc57600080fd5b5061202d60048036036060811015611ff357600080fd5b81019080803563ffffffff169060200190929190803563ffffffff169060200190929190803561ffff169060200190929190505050615973565b005b34801561203b57600080fd5b5061207e6004803603602081101561205257600080fd5b81019080803573ffffffffffffffffffffffffffffffffffffffff1690602001909291905050506159f6565b604051808215151515815260200191505060405180910390f35b3480156120a457600080fd5b50612107600480360360408110156120bb57600080fd5b81019080803573ffffffffffffffffffffffffffffffffffffffff169060200190929190803573ffffffffffffffffffffffffffffffffffffffff169060200190929190505050615a2e565b005b34801561211557600080fd5b5061211e615b7f565b604051808263ffffffff1663ffffffff16815260200191505060405180910390f35b34801561214c57600080fd5b5061217f6004803603602081101561216357600080fd5b81019080803563ffffffff169060200190929190505050615b95565b604051808763ffffffff1663ffffffff1681526020018663ffffffff1663ffffffff1681526020018561ffff1661ffff1681526020018463ffffffff1663ffffffff1681526020018363ffffffff1663ffffffff1681526020018263ffffffff1663ffffffff168152602001965050505050505060405180910390f35b34801561220857600080fd5b5061243e600480360361010081101561222057600080fd5b810190808035906020019064010000000081111561223d57600080fd5b82018360208201111561224f57600080fd5b8035906020019184600183028401116401000000008311171561227157600080fd5b91908080601f016020809104026020016040519081016040528093929190818152602001838380828437600081840152601f19601f820116905080830192505050505050509192919290803563ffffffff169060200190929190803590602001906401000000008111156122e457600080fd5b8201836020820111156122f657600080fd5b8035906020019184600183028401116401000000008311171561231857600080fd5b91908080601f016020809104026020016040519081016040528093929190818152602001838380828437600081840152601f19601f8201169050808301925050505050505091929192908035906020019064010000000081111561237b57600080fd5b82018360208201111561238d57600080fd5b803590602001918460208302840111640100000000831117156123af57600080fd5b919080806020026020016040519081016040528093929190818152602001838360200280828437600081840152601f19601f820116905080830192505050505050509192919290803563ffffffff169060200190929190803563ffffffff169060200190929190803563ffffffff169060200190929190803563ffffffff169060200190929190505050615c2f565b005b34801561244c57600080fd5b50612455615fac565b604051808263ffffffff1663ffffffff16815260200191505060405180910390f35b6060600460008363ffffffff1663ffffffff16815260200190815260200160002060020180548060200260200160405190810160405280929190818152602001828054801561251157602002820191906000526020600020906000905b82829054906101000a900463ffffffff1663ffffffff16815260200190600401906020826003010492830192600103820291508084116124d45790505b50505050509050919050565b6060600460008363ffffffff1663ffffffff1681526020019081526020016000206003018054806020026020016040519081016040528092919081815260200182805480156125b757602002820191906000526020600020906000905b82829054906101000a900463ffffffff1663ffffffff168152602001906004019060208260030104928301926001038202915080841161257a5790505b50505050509050919050565b60146020528060005260406000206000915090508060000160009054906101000a900463ffffffff1690806001018054600181600116156101000203166002900480601f0160208091040260200160405190810160405280929190818152602001828054600181600116156101000203166002900480156126855780601f1061265a57610100808354040283529160200191612685565b820191906000526020600020905b81548152906001019060200180831161266857829003601f168201915b5050505050905082565b601360009054906101000a900463ffffffff1681565b60026020528060005260406000206000915090508060000160009054906101000a900463ffffffff1690806001018054600181600116156101000203166002900480601f0160208091040260200160405190810160405280929190818152602001828054600181600116156101000203166002900480156127675780601f1061273c57610100808354040283529160200191612767565b820191906000526020600020905b81548152906001019060200180831161274a57829003601f168201915b5050505050908060020160009054906101000a900463ffffffff16908060020160049054906101000a900463ffffffff16908060020160089054906101000a900461ffff1690806003018054600181600116156101000203166002900480601f0160208091040260200160405190810160405280929190818152602001828054600181600116156101000203166002900480156128455780601f1061281a57610100808354040283529160200191612845565b820191906000526020600020905b81548152906001019060200180831161282857829003601f168201915b5050505050908060050160009054906101000a900463ffffffff16908060050160049054906101000a900463ffffffff16908060050160089054906101000a900463ffffffff169080600501600c9054906101000a900463ffffffff16908060060160009054906101000a900473ffffffffffffffffffffffffffffffffffffffff1690508b565b60106020528060005260406000206000915090508060000160009054906101000a900463ffffffff16908060000160049054906101000a900463ffffffff16908060000160089054906101000a900461ffff169080600001600a9054906101000a900463ffffffff169080600001600e9054906101000a900463ffffffff16905085565b600a6020528060005260406000206000915090508060000160009054906101000a900463ffffffff16908060000160049054906101000a900463ffffffff16908060000160089054906101000a900461ffff1690806001018054600181600116156101000203166002900480601f016020809104026020016040519081016040528092919081815260200182805460018160011615610100020316600290048015612a3d5780601f10612a1257610100808354040283529160200191612a3d565b820191906000526020600020905b815481529060010190602001808311612a2057829003601f168201915b5050505050908060020160009054906101000a900463ffffffff16905085565b6060600073ffffffffffffffffffffffffffffffffffffffff16600e60008473ffffffffffffffffffffffffffffffffffffffff1673ffffffffffffffffffffffffffffffffffffffff16815260200190815260200160002060000160009054906101000a900473ffffffffffffffffffffffffffffffffffffffff1673ffffffffffffffffffffffffffffffffffffffff161415612b33576040805190810160405280600d81526020017f6e6f745f726567697374726564000000000000000000000000000000000000008152509050612c05565b60001515600e60008473ffffffffffffffffffffffffffffffffffffffff1673ffffffffffffffffffffffffffffffffffffffff16815260200190815260200160002060000160169054906101000a900460ff1615151415612bcc576040805190810160405280600781526020017f626c6f636b6564000000000000000000000000000000000000000000000000008152509050612c05565b6040805190810160405280600281526020017f6f6b00000000000000000000000000000000000000000000000000000000000081525090505b919050565b601560009054906101000a900463ffffffff1681565b600560009054906101000a900463ffffffff1681565b600d60009054906101000a900463ffffffff1681565b81600460008563ffffffff1663ffffffff16815260200190815260200160002060000160046101000a81548163ffffffff021916908363ffffffff16021790555080600460008563ffffffff1663ffffffff16815260200190815260200160002060000160086101000a81548161ffff021916908361ffff160217905550505050565b6000600e60003373ffffffffffffffffffffffffffffffffffffffff1673ffffffffffffffffffffffffffffffffffffffff16815260200190815260200160002060000160149054906101000a900461ffff1661ffff16141515612dc1576040517f08c379a00000000000000000000000000000000000000000000000000000000081526004018080602001828103825260228152602001807f596f75206e65656420746f20686176652061646d696e207065726d697373696f81526020017f6e7300000000000000000000000000000000000000000000000000000000000081525060400191505060405180910390fd5b60008090506000600190505b600560009054906101000a900463ffffffff1663ffffffff168163ffffffff16111515612fb4576060600460008363ffffffff1663ffffffff1681526020019081526020016000206001018054600181600116156101000203166002900480601f016020809104026020016040519081016040528092919081815260200182805460018160011615610100020316600290048015612eac5780601f10612e8157610100808354040283529160200191612eac565b820191906000526020600020905b815481529060010190602001808311612e8f57829003601f168201915b50505050509050866040516020018082805190602001908083835b602083101515612eec5780518252602082019150602081019050602083039250612ec7565b6001836020036101000a03801982511681845116808217855250505050505090500191505060405160208183030381529060405280519060200120816040516020018082805190602001908083835b602083101515612f605780518252602082019150602081019050602083039250612f3b565b6001836020036101000a038019825116818451168082178552505050505050905001915050604051602081830303815290604052805190602001201415612fa657600192505b508080600101915050612dcd565b508015151561302b576040517f08c379a000000000000000000000000000000000000000000000000000000000815260040180806020018281038252601e8152602001807f4f7267616e697a6174696f6e20616c726561647920726567697374726564000081525060200191505060405180910390fd5b6005600081819054906101000a900463ffffffff168092919060010191906101000a81548163ffffffff021916908363ffffffff1602179055505060e060405190810160405280600560009054906101000a900463ffffffff1663ffffffff168152602001600063ffffffff168152602001600061ffff1681526020018681526020018581526020018481526020018381525060046000600560009054906101000a900463ffffffff1663ffffffff1663ffffffff16815260200190815260200160002060008201518160000160006101000a81548163ffffffff021916908363ffffffff16021790555060208201518160000160046101000a81548163ffffffff021916908363ffffffff16021790555060408201518160000160086101000a81548161ffff021916908361ffff160217905550606082015181600101908051906020019061317c929190615fc2565b506080820151816002019080519060200190613199929190616042565b5060a08201518160030190805190602001906131b6929190616042565b5060c08201518160040190805190602001906131d3929190616042565b509050505050505050565b6000600e60008473ffffffffffffffffffffffffffffffffffffffff1673ffffffffffffffffffffffffffffffffffffffff16815260200190815260200160002060000160149054906101000a900461ffff1661ffff161415156132d0576040517f08c379a00000000000000000000000000000000000000000000000000000000081526004018080602001828103825260228152602001807f596f75206e65656420746f20686176652061646d696e207065726d697373696f81526020017f6e7300000000000000000000000000000000000000000000000000000000000081525060400191505060405180910390fd5b6001600e60008373ffffffffffffffffffffffffffffffffffffffff1673ffffffffffffffffffffffffffffffffffffffff16815260200190815260200160002060000160166101000a81548160ff0219169083151502179055505050565b600073ffffffffffffffffffffffffffffffffffffffff16600e60008573ffffffffffffffffffffffffffffffffffffffff1673ffffffffffffffffffffffffffffffffffffffff16815260200190815260200160002060000160009054906101000a900473ffffffffffffffffffffffffffffffffffffffff1673ffffffffffffffffffffffffffffffffffffffff16141515613435576040517f08c379a00000000000000000000000000000000000000000000000000000000081526004018080602001828103825260168152602001807f5573657220616c7265616479207265676973747265640000000000000000000081525060200191505060405180910390fd5b60008261ffff16148061344c575060018261ffff16145b15613548576000600e60008673ffffffffffffffffffffffffffffffffffffffff1673ffffffffffffffffffffffffffffffffffffffff16815260200190815260200160002060000160149054906101000a900461ffff1661ffff16141515613543576040517f08c379a00000000000000000000000000000000000000000000000000000000081526004018080602001828103825260228152602001807f596f75206e65656420746f20686176652061646d696e207065726d697373696f81526020017f6e7300000000000000000000000000000000000000000000000000000000000081525060400191505060405180910390fd5b613744565b60028261ffff161415613743576001600e60008673ffffffffffffffffffffffffffffffffffffffff1673ffffffffffffffffffffffffffffffffffffffff16815260200190815260200160002060000160149054906101000a900461ffff1661ffff16141515613647576040517f08c379a000000000000000000000000000000000000000000000000000000000815260040180806020018281038252602f8152602001807f596f75206e65656420746f2068617665206f7267616e697a6174696f6e20616481526020017f6d696e207065726d697373696f6e73000000000000000000000000000000000081525060400191505060405180910390fd5b8063ffffffff16600e60008673ffffffffffffffffffffffffffffffffffffffff1673ffffffffffffffffffffffffffffffffffffffff16815260200190815260200160002060000160179054906101000a900463ffffffff1663ffffffff16141515613742576040517f08c379a00000000000000000000000000000000000000000000000000000000081526004018080602001828103825260268152602001807f596f75206e65656420746f2062656c6f6e6720746f20746865206f7267616e6981526020017f7a6174696f6e000000000000000000000000000000000000000000000000000081525060400191505060405180910390fd5b5b5b6080604051908101604052808473ffffffffffffffffffffffffffffffffffffffff1681526020018361ffff1681526020016001151581526020018263ffffffff16815250600e60008573ffffffffffffffffffffffffffffffffffffffff1673ffffffffffffffffffffffffffffffffffffffff16815260200190815260200160002060008201518160000160006101000a81548173ffffffffffffffffffffffffffffffffffffffff021916908373ffffffffffffffffffffffffffffffffffffffff16021790555060208201518160000160146101000a81548161ffff021916908361ffff16021790555060408201518160000160166101000a81548160ff02191690831515021790555060608201518160000160176101000a81548163ffffffff021916908363ffffffff160217905550905050600f8390806001815401808255809150509060018203906000526020600020016000909192909190916101000a81548173ffffffffffffffffffffffffffffffffffffffff021916908373ffffffffffffffffffffffffffffffffffffffff160217905550508273ffffffffffffffffffffffffffffffffffffffff167f7bdb2b3927fb40923bed5ce31134e6f465bc28bcf91ad634338c2eb2398de5fe60405160405180910390a250505050565b600960009054906101000a900463ffffffff1681565b60126020528060005260406000206000915090508060000160009054906101000a900463ffffffff16908060000160049054906101000a900463ffffffff16908060000160089054906101000a900463ffffffff169080600001600c9054906101000a900463ffffffff16905084565b600b600081819054906101000a900463ffffffff168092919060010191906101000a81548163ffffffff021916908363ffffffff1602179055505060e060405190810160405280600b60009054906101000a900463ffffffff1663ffffffff1681526020018763ffffffff1681526020018661ffff1681526020018581526020018463ffffffff16815260200183815260200182815250600a6000600b60009054906101000a900463ffffffff1663ffffffff1663ffffffff16815260200190815260200160002060008201518160000160006101000a81548163ffffffff021916908363ffffffff16021790555060208201518160000160046101000a81548163ffffffff021916908363ffffffff16021790555060408201518160000160086101000a81548161ffff021916908361ffff1602179055506060820151816001019080519060200190613b06929190615fc2565b5060808201518160020160006101000a81548163ffffffff021916908363ffffffff16021790555060a0820151816003019080519060200190613b4a929190616042565b5060c0820151816004019080519060200190613b67929190616042565b50905050505050505050565b6000600e60003373ffffffffffffffffffffffffffffffffffffffff1673ffffffffffffffffffffffffffffffffffffffff16815260200190815260200160002060000160149054906101000a900461ffff1661ffff16141515613c65576040517f08c379a00000000000000000000000000000000000000000000000000000000081526004018080602001828103825260228152602001807f596f75206e65656420746f20686176652061646d696e207065726d697373696f81526020017f6e7300000000000000000000000000000000000000000000000000000000000081525060400191505060405180910390fd5b60008090506000600190505b601560009054906101000a900463ffffffff1663ffffffff168163ffffffff16111515613e58576060601460008363ffffffff1663ffffffff1681526020019081526020016000206001018054600181600116156101000203166002900480601f016020809104026020016040519081016040528092919081815260200182805460018160011615610100020316600290048015613d505780601f10613d2557610100808354040283529160200191613d50565b820191906000526020600020905b815481529060010190602001808311613d3357829003601f168201915b50505050509050836040516020018082805190602001908083835b602083101515613d905780518252602082019150602081019050602083039250613d6b565b6001836020036101000a03801982511681845116808217855250505050505090500191505060405160208183030381529060405280519060200120816040516020018082805190602001908083835b602083101515613e045780518252602082019150602081019050602083039250613ddf565b6001836020036101000a038019825116818451168082178552505050505050905001915050604051602081830303815290604052805190602001201415613e4a57600192505b508080600101915050613c71565b5080151515613ecf576040517f08c379a00000000000000000000000000000000000000000000000000000000081526004018080602001828103825260168152602001807f5965617220616c7265616479207265676973747265640000000000000000000081525060200191505060405180910390fd5b6015600081819054906101000a900463ffffffff168092919060010191906101000a81548163ffffffff021916908363ffffffff160217905550506040805190810160405280601560009054906101000a900463ffffffff1663ffffffff1681526020018381525060146000601560009054906101000a900463ffffffff1663ffffffff1663ffffffff16815260200190815260200160002060008201518160000160006101000a81548163ffffffff021916908363ffffffff1602179055506020820151816001019080519060200190613fab929190615fc2565b509050505050565b6013600081819054906101000a900463ffffffff168092919060010191906101000a81548163ffffffff021916908363ffffffff16021790555050608060405190810160405280601360009054906101000a900463ffffffff1663ffffffff1681526020018463ffffffff1681526020018363ffffffff1681526020018263ffffffff1681525060126000601360009054906101000a900463ffffffff1663ffffffff1663ffffffff16815260200190815260200160002060008201518160000160006101000a81548163ffffffff021916908363ffffffff16021790555060208201518160000160046101000a81548163ffffffff021916908363ffffffff16021790555060408201518160000160086101000a81548163ffffffff021916908363ffffffff160217905550606082015181600001600c6101000a81548163ffffffff021916908363ffffffff160217905550905050600260008263ffffffff1663ffffffff168152602001908152602001600020600401601360009054906101000a900463ffffffff16908060018154018082558091505090600182039060005260206000209060089182820401919006600402909192909190916101000a81548163ffffffff021916908363ffffffff16021790555050505050565b6060600260008363ffffffff1663ffffffff16815260200190815260200160002060040180548060200260200160405190810160405280929190818152602001828054801561422c57602002820191906000526020600020906000905b82829054906101000a900463ffffffff1663ffffffff16815260200190600401906020826003010492830192600103820291508084116141ef5790505b50505050509050919050565b6000600f80549050905090565b6009600081819054906101000a900463ffffffff168092919060010191906101000a81548163ffffffff021916908363ffffffff1602179055505060c060405190810160405280600960009054906101000a900463ffffffff1663ffffffff1681526020018663ffffffff1681526020018561ffff1681526020018463ffffffff1681526020018363ffffffff1681526020018263ffffffff1681525060086000600960009054906101000a900463ffffffff1663ffffffff1663ffffffff16815260200190815260200160002060008201518160000160006101000a81548163ffffffff021916908363ffffffff16021790555060208201518160000160046101000a81548163ffffffff021916908363ffffffff16021790555060408201518160000160086101000a81548161ffff021916908361ffff160217905550606082015181600001600a6101000a81548163ffffffff021916908363ffffffff160217905550608082015181600001600e6101000a81548163ffffffff021916908363ffffffff16021790555060a08201518160000160126101000a81548163ffffffff021916908363ffffffff1602179055509050505050505050565b600e6020528060005260406000206000915090508060000160009054906101000a900473ffffffffffffffffffffffffffffffffffffffff16908060000160149054906101000a900461ffff16908060000160169054906101000a900460ff16908060000160179054906101000a900463ffffffff16905084565b60066020528060005260406000206000915090508060000160009054906101000a900463ffffffff16908060000160049054906101000a900463ffffffff16908060000160089054906101000a900461ffff1690806001018054600181600116156101000203166002900480601f01602080910402602001604051908101604052809291908181526020018280546001816001161561010002031660029004801561456a5780601f1061453f5761010080835404028352916020019161456a565b820191906000526020600020905b81548152906001019060200180831161454d57829003601f168201915b5050505050908060020160009054906101000a900463ffffffff1690806003018054600181600116156101000203166002900480601f01602080910402602001604051908101604052809291908181526020018280546001816001161561010002031660029004801561461e5780601f106145f35761010080835404028352916020019161461e565b820191906000526020600020905b81548152906001019060200180831161460157829003601f168201915b5050505050908060040160009054906101000a900463ffffffff16908060040160049054906101000a900463ffffffff16908060040160089054906101000a900463ffffffff16905089565b60006020528060005260406000206000915090508060000160009054906101000a900463ffffffff1690806001018054600181600116156101000203166002900480601f01602080910402602001604051908101604052809291908181526020018280546001816001161561010002031660029004801561472c5780601f106147015761010080835404028352916020019161472c565b820191906000526020600020905b81548152906001019060200180831161470f57829003601f168201915b505050505090806002018054600181600116156101000203166002900480601f0160208091040260200160405190810160405280929190818152602001828054600181600116156101000203166002900480156147ca5780601f1061479f576101008083540402835291602001916147ca565b820191906000526020600020905b8154815290600101906020018083116147ad57829003601f168201915b505050505090806003018054600181600116156101000203166002900480601f0160208091040260200160405190810160405280929190818152602001828054600181600116156101000203166002900480156148685780601f1061483d57610100808354040283529160200191614868565b820191906000526020600020905b81548152906001019060200180831161484b57829003601f168201915b5050505050908060040160009054906101000a900460ff16908060040160019054906101000a900463ffffffff16908060040160059054906101000a900463ffffffff16905087565b6007600081819054906101000a900463ffffffff168092919060010191906101000a81548163ffffffff021916908363ffffffff1602179055505061012060405190810160405280600760009054906101000a900463ffffffff1663ffffffff1681526020018963ffffffff1681526020018861ffff1681526020018781526020018663ffffffff1681526020018581526020018463ffffffff1681526020018363ffffffff1681526020018263ffffffff1681525060066000600760009054906101000a900463ffffffff1663ffffffff1663ffffffff16815260200190815260200160002060008201518160000160006101000a81548163ffffffff021916908363ffffffff16021790555060208201518160000160046101000a81548163ffffffff021916908363ffffffff16021790555060408201518160000160086101000a81548161ffff021916908361ffff1602179055506060820151816001019080519060200190614a25929190615fc2565b5060808201518160020160006101000a81548163ffffffff021916908363ffffffff16021790555060a0820151816003019080519060200190614a69929190615fc2565b5060c08201518160040160006101000a81548163ffffffff021916908363ffffffff16021790555060e08201518160040160046101000a81548163ffffffff021916908363ffffffff1602179055506101008201518160040160086101000a81548163ffffffff021916908363ffffffff160217905550905050600a60008463ffffffff1663ffffffff168152602001908152602001600020600301600760009054906101000a900463ffffffff16908060018154018082558091505090600182039060005260206000209060089182820401919006600402909192909190916101000a81548163ffffffff021916908363ffffffff16021790555050600460008363ffffffff1663ffffffff168152602001908152602001600020600401600760009054906101000a900463ffffffff16908060018154018082558091505090600182039060005260206000209060089182820401919006600402909192909190916101000a81548163ffffffff021916908363ffffffff160217905550505050505050505050565b6060600460008363ffffffff1663ffffffff168152602001908152602001600020600401805480602002602001604051908101604052809291908181526020018280548015614c8d57602002820191906000526020600020906000905b82829054906101000a900463ffffffff1663ffffffff1681526020019060040190602082600301049283019260010382029150808411614c505790505b50505050509050919050565b60606000808363ffffffff1663ffffffff168152602001908152602001600020600501805480602002602001604051908101604052809291908181526020018280548015614d3257602002820191906000526020600020906000905b82829054906101000a900463ffffffff1663ffffffff1681526020019060040190602082600301049283019260010382029150808411614cf55790505b50505050509050919050565b600f81815481101515614d4d57fe5b906000526020600020016000915054906101000a900473ffffffffffffffffffffffffffffffffffffffff1681565b600b60009054906101000a900463ffffffff1681565b600c6020528060005260406000206000915090508060000160009054906101000a900463ffffffff1690806001018054600181600116156101000203166002900480601f016020809104026020016040519081016040528092919081815260200182805460018160011615610100020316600290048015614e545780601f10614e2957610100808354040283529160200191614e54565b820191906000526020600020905b815481529060010190602001808311614e3757829003601f168201915b505050505090806002018054600181600116156101000203166002900480601f016020809104026020016040519081016040528092919081815260200182805460018160011615610100020316600290048015614ef25780601f10614ec757610100808354040283529160200191614ef2565b820191906000526020600020905b815481529060010190602001808311614ed557829003601f168201915b5050505050908060030160009054906101000a900463ffffffff16908060030160049054906101000a900463ffffffff16908060030160089054906101000a900463ffffffff169080600301600c9054906101000a900460ff16905087565b6000809050600063ffffffff16600460008663ffffffff1663ffffffff16815260200190815260200160002060000160009054906101000a900463ffffffff1663ffffffff161415151561500d576040517f08c379a000000000000000000000000000000000000000000000000000000000815260040180806020018281038252601a8152602001807f4f7267616e697a6174696f6e20646f65736e277420657869737400000000000081525060200191505060405180910390fd5b6000600190505b600560009054906101000a900463ffffffff1663ffffffff168163ffffffff161115156151fa5760606000808363ffffffff1663ffffffff1681526020019081526020016000206001018054600181600116156101000203166002900480601f0160208091040260200160405190810160405280929190818152602001828054600181600116156101000203166002900480156150f25780601f106150c7576101008083540402835291602001916150f2565b820191906000526020600020905b8154815290600101906020018083116150d557829003601f168201915b50505050509050886040516020018082805190602001908083835b602083101515615132578051825260208201915060208101905060208303925061510d565b6001836020036101000a03801982511681845116808217855250505050505090500191505060405160208183030381529060405280519060200120816040516020018082805190602001908083835b6020831015156151a65780518252602082019150602081019050602083039250615181565b6001836020036101000a0380198251168184511680821785525050505050509050019150506040516020818303038152906040528051906020012014156151ec57600192505b508080600101915050615014565b5080151515615271576040517f08c379a00000000000000000000000000000000000000000000000000000000081526004018080602001828103825260198152602001807f50726f6475637420616c7265616479207265676973747265640000000000000081525060200191505060405180910390fd5b6001600081819054906101000a900463ffffffff168092919060010191906101000a81548163ffffffff021916908363ffffffff1602179055505061010060405190810160405280600160009054906101000a900463ffffffff1663ffffffff168152602001888152602001878152602001600c60008663ffffffff1663ffffffff1681526020019081526020016000206002018054600181600116156101000203166002900480601f0160208091040260200160405190810160405280929190818152602001828054600181600116156101000203166002900480156153995780601f1061536e57610100808354040283529160200191615399565b820191906000526020600020905b81548152906001019060200180831161537c57829003601f168201915b5050505050815260200186151581526020018563ffffffff1681526020018463ffffffff16815260200183815250600080600160009054906101000a900463ffffffff1663ffffffff1663ffffffff16815260200190815260200160002060008201518160000160006101000a81548163ffffffff021916908363ffffffff160217905550602082015181600101908051906020019061543a929190615fc2565b506040820151816002019080519060200190615457929190615fc2565b506060820151816003019080519060200190615474929190615fc2565b5060808201518160040160006101000a81548160ff02191690831515021790555060a08201518160040160016101000a81548163ffffffff021916908363ffffffff16021790555060c08201518160040160056101000a81548163ffffffff021916908363ffffffff16021790555060e08201518160050190805190602001906154ff929190616042565b50905050600460008563ffffffff1663ffffffff168152602001908152602001600020600201600160009054906101000a900463ffffffff16908060018154018082558091505090600182039060005260206000209060089182820401919006600402909192909190916101000a81548163ffffffff021916908363ffffffff1602179055505050505050505050565b60046020528060005260406000206000915090508060000160009054906101000a900463ffffffff16908060000160049054906101000a900463ffffffff16908060000160089054906101000a900461ffff1690806001018054600181600116156101000203166002900480601f01602080910402602001604051908101604052809291908181526020018280546001816001161561010002031660029004801561567b5780601f106156505761010080835404028352916020019161567b565b820191906000526020600020905b81548152906001019060200180831161565e57829003601f168201915b5050505050905084565b601160009054906101000a900463ffffffff1681565b600063ffffffff166000808463ffffffff1663ffffffff16815260200190815260200160002060000160009054906101000a900463ffffffff1663ffffffff1614151515615751576040517f08c379a00000000000000000000000000000000000000000000000000000000081526004018080602001828103825260158152602001807f50726f6475637420646f65736e2774206578697374000000000000000000000081525060200191505060405180910390fd5b6011600081819054906101000a900463ffffffff168092919060010191906101000a81548163ffffffff021916908363ffffffff1602179055505060a060405190810160405280601160009054906101000a900463ffffffff1663ffffffff1681526020018563ffffffff1681526020018461ffff1681526020018363ffffffff1681526020018263ffffffff1681525060106000601160009054906101000a900463ffffffff1663ffffffff1663ffffffff16815260200190815260200160002060008201518160000160006101000a81548163ffffffff021916908363ffffffff16021790555060208201518160000160046101000a81548163ffffffff021916908363ffffffff16021790555060408201518160000160086101000a81548161ffff021916908361ffff160217905550606082015181600001600a6101000a81548163ffffffff021916908363ffffffff160217905550608082015181600001600e6101000a81548163ffffffff021916908363ffffffff1602179055509050506000808363ffffffff1663ffffffff168152602001908152602001600020600501601160009054906101000a900463ffffffff16908060018154018082558091505090600182039060005260206000209060089182820401919006600402909192909190916101000a81548163ffffffff021916908363ffffffff1602179055505050505050565b600160009054906101000a900463ffffffff1681565b81600260008563ffffffff1663ffffffff16815260200190815260200160002060020160006101000a81548163ffffffff021916908363ffffffff16021790555080600260008563ffffffff1663ffffffff16815260200190815260200160002060020160086101000a81548161ffff021916908361ffff160217905550505050565b60008073ffffffffffffffffffffffffffffffffffffffff168273ffffffffffffffffffffffffffffffffffffffff16149050919050565b6000600e60008473ffffffffffffffffffffffffffffffffffffffff1673ffffffffffffffffffffffffffffffffffffffff16815260200190815260200160002060000160149054906101000a900461ffff1661ffff16141515615b20576040517f08c379a00000000000000000000000000000000000000000000000000000000081526004018080602001828103825260228152602001807f596f75206e65656420746f20686176652061646d696e207065726d697373696f81526020017f6e7300000000000000000000000000000000000000000000000000000000000081525060400191505060405180910390fd5b6000600e60008373ffffffffffffffffffffffffffffffffffffffff1673ffffffffffffffffffffffffffffffffffffffff16815260200190815260200160002060000160166101000a81548160ff0219169083151502179055505050565b600360009054906101000a900463ffffffff1681565b60086020528060005260406000206000915090508060000160009054906101000a900463ffffffff16908060000160049054906101000a900463ffffffff16908060000160089054906101000a900461ffff169080600001600a9054906101000a900463ffffffff169080600001600e9054906101000a900463ffffffff16908060000160129054906101000a900463ffffffff16905086565b6003600081819054906101000a900463ffffffff168092919060010191906101000a81548163ffffffff021916908363ffffffff1602179055505061018060405190810160405280600360009054906101000a900463ffffffff1663ffffffff168152602001898152602001600063ffffffff1681526020018863ffffffff168152602001600061ffff1681526020018781526020018681526020018563ffffffff1681526020018463ffffffff1681526020018363ffffffff1681526020018263ffffffff1681526020013373ffffffffffffffffffffffffffffffffffffffff1681525060026000600360009054906101000a900463ffffffff1663ffffffff1663ffffffff16815260200190815260200160002060008201518160000160006101000a81548163ffffffff021916908363ffffffff1602179055506020820151816001019080519060200190615d89929190615fc2565b5060408201518160020160006101000a81548163ffffffff021916908363ffffffff16021790555060608201518160020160046101000a81548163ffffffff021916908363ffffffff16021790555060808201518160020160086101000a81548161ffff021916908361ffff16021790555060a0820151816003019080519060200190615e17929190615fc2565b5060c0820151816004019080519060200190615e34929190616042565b5060e08201518160050160006101000a81548163ffffffff021916908363ffffffff1602179055506101008201518160050160046101000a81548163ffffffff021916908363ffffffff1602179055506101208201518160050160086101000a81548163ffffffff021916908363ffffffff16021790555061014082015181600501600c6101000a81548163ffffffff021916908363ffffffff1602179055506101608201518160060160006101000a81548173ffffffffffffffffffffffffffffffffffffffff021916908373ffffffffffffffffffffffffffffffffffffffff160217905550905050600460008463ffffffff1663ffffffff168152602001908152602001600020600301600360009054906101000a900463ffffffff16908060018154018082558091505090600182039060005260206000209060089182820401919006600402909192909190916101000a81548163ffffffff021916908363ffffffff160217905550505050505050505050565b600760009054906101000a900463ffffffff1681565b828054600181600116156101000203166002900490600052602060002090601f016020900481019282601f1061600357805160ff1916838001178555616031565b82800160010185558215616031579182015b82811115616030578251825591602001919060010190616015565b5b50905061603e91906160f2565b5090565b828054828255906000526020600020906007016008900481019282156160e15791602002820160005b838211156160af57835183826101000a81548163ffffffff021916908363ffffffff160217905550926020019260040160208160030104928301926001030261606b565b80156160df5782816101000a81549063ffffffff02191690556004016020816003010492830192600103026160af565b505b5090506160ee9190616117565b5090565b61611491905b808211156161105760008160009055506001016160f8565b5090565b90565b61614791905b8082111561614357600081816101000a81549063ffffffff02191690555060010161611d565b5090565b9056fea165627a7a72305820e341190899c4b6f35865ccde59c3d488a13d9b74d820694f3bf75f4c745c78750029",
  "source": "pragma solidity ^0.5.0;\r\n\r\ncontract CarbonFootPrint{\r\n    // -- Estrutura dos produtos\r\n    struct Product{\r\n        uint32 id;\r\n        string name;\r\n        string description;\r\n        string prodUnit;\r\n        bool intermediate;\r\n        uint32 idOrganization;\r\n        uint32 idUnit;\r\n        uint32[] productFootPrints;\r\n    }\r\n\r\n    struct ProductFootprint{\r\n        uint32 id;\r\n        uint32 co2eq;\r\n        uint16 exp;\r\n        uint32 idProduct;\r\n        uint32 idYear;\r\n    }\r\n\r\n    struct ProductQuantity{\r\n        uint32 id;\r\n        uint32 quantity;\r\n        uint32 idPFootPrint;\r\n        uint32 idM_Activity;\r\n    }\r\n\r\n\r\n    // -- Estrutura das organizaes\r\n    struct Organization{\r\n        uint32 id;\r\n        uint32 co2eq;\r\n        uint16 exp;\r\n        string name;\r\n        uint32[] products;\r\n        uint32[] m_activities;\r\n        uint32[] m_fixcosts;\r\n    }\r\n\r\n    // -- Estrutura das atividades mensais\r\n    struct MonthlyActivity{\r\n        uint32 id;\r\n        string description;\r\n        uint32 co2eq;\r\n        uint32 finalProductQt;\r\n        uint16 exp;\r\n        string month;\r\n        uint32[] productQuantities; // -- codigo dos produtos de input\r\n        uint32 output; // -- codigo do product foot print de output\r\n        uint32 idOrganization;\r\n        uint32 idUnit;\r\n        uint32 idYear;\r\n        address idUser;\r\n    }\r\n\r\n    // -- Estrutura dos custos fixos mensais\r\n    struct MonthlyFixCost{\r\n        uint32 id;\r\n        uint32 co2eq;\r\n        uint16 exp;\r\n        string description;\r\n        uint32 quantity;\r\n        string month;\r\n        uint32 idCostType;\r\n        uint32 idOrganization;\r\n        uint32 idYear;\r\n    }\r\n\r\n    // -- Estrutura dos custos dos produtos\r\n    struct ProductCost{\r\n        uint32 id;\r\n        uint32 co2eq;\r\n        uint16 exp;\r\n        uint32 quantity;\r\n        uint32 idCostType;\r\n        uint32 idM_Activity;\r\n    }\r\n\r\n    // -- Estrutura do tipo de custo\r\n    struct CostType{\r\n        uint32 id;\r\n        uint32 co2PerUnit;\r\n        uint16 exp;\r\n        string description;\r\n        uint32 idUnit;\r\n        uint32[] m_fixcosts;\r\n        uint32[] products_costs;\r\n    }\r\n\r\n    // -- Estrutura das unidades\r\n    struct Unit{\r\n        uint32 id;\r\n        string measure;\r\n        string initials;\r\n        uint32 base;\r\n        uint32 exp;\r\n        uint32 idUnit;\r\n        bool negative;\r\n    }\r\n\r\n    // -- Users\r\n    struct User{\r\n        address user_add;\r\n        uint16 tipo; // 0 - Admin , 1 - OrgAdmin,  2 - User\r\n        bool status;\r\n        uint32 idOrganization;\r\n    }\r\n\r\n    struct Year{\r\n        uint32 id;\r\n        string year;\r\n    }\r\n\r\n\r\n    // -- Mappings\r\n    mapping(uint32 => Product) public products;\r\n    uint32 public productsCount;\r\n\r\n    mapping(uint32 => MonthlyActivity) public mactivities;\r\n    uint32 public mactivitiesCount;\r\n\r\n    mapping(uint32 => Organization) public organizations;\r\n    uint32 public organizationsCount;\r\n\r\n    mapping(uint32 => MonthlyFixCost) public mfixcosts;\r\n    uint32 public mfixcostsCount;\r\n\r\n    mapping(uint32 => ProductCost) public productCosts;\r\n    uint32 public productCostsCount;\r\n\r\n    mapping(uint32 => CostType) public costsTypes;\r\n    uint32 public costsTypesCount;\r\n\r\n    mapping(uint32 => Unit) public units;\r\n    uint32 public unitsCount;\r\n\r\n    mapping(address => User) public users;\r\n    address[] public arrayUsers;\r\n\r\n    mapping(uint32 => ProductFootprint) public productFootPrints;\r\n    uint32 public pfootPrintCount;\r\n\r\n    mapping(uint32 => ProductQuantity) public productsQuantities;\r\n    uint32 public productsQuantitiesCount;\r\n\r\n    mapping(uint32 => Year) public yearly;\r\n    uint32 public yearliesCount;\r\n\r\n    event registUserEvent (\r\n        address indexed _candidateAddress\r\n    );\r\n\r\n    constructor () public{\r\n        users[msg.sender] = User(msg.sender, 0, true, 0);\r\n        arrayUsers.push(msg.sender);\r\n\r\n        // -- Initalize units\r\n        addUnit(\"tonne\", \"t\", 10, 0, 1, false);\r\n        addUnit(\"kilogram\", \"kg\", 10, 3, 1, true);\r\n        addUnit(\"gram\", \"g\", 10, 6, 1, true);\r\n        addUnit(\"milligram\", \"mg\", 10, 9, 1, true);\r\n\r\n        addYear(\"2019\");\r\n    }\r\n\r\n    function getUsersCount() public view returns(uint count) {\r\n        return arrayUsers.length;\r\n    }\r\n\r\n    function isNull(address _add) public pure returns(bool addressNull){\r\n        return _add == address(0);\r\n    }\r\n\r\n    // -- GETTERS -> organization\r\n    function getOrgProducts(uint32 _org) public view returns(uint32[] memory prods){\r\n        return organizations[_org].products;\r\n    }\r\n\r\n    function getOrgMactivities(uint32 _org) public view returns(uint32[] memory m_activities){\r\n        return organizations[_org].m_activities;\r\n    }\r\n\r\n    function getOrgFixCosts(uint32 _org) public view returns(uint32[] memory m_fixcosts){\r\n        return organizations[_org].m_fixcosts;\r\n    }\r\n    \r\n    // -- GETTERS -> MonthlyActivity\r\n    function getProdQuantities(uint32 _prod) public view returns(uint32[] memory quantities){\r\n        return mactivities[_prod].productQuantities;\r\n    }\r\n\r\n\r\n\r\n    // -- GETTERS -> products\r\n    function getFootPrintsProd(uint32 _prod) public view returns(uint32[] memory footprints){\r\n        return products[_prod].productFootPrints;\r\n    }   \r\n\r\n\r\n\r\n    function addUser (address _userResp,address _user, uint16 _tipo, uint32 _idOrganization) public {\r\n        \r\n        require(users[_user].user_add == address(0), \"User already registred\");\r\n\r\n        if(_tipo == 0 || _tipo == 1){\r\n            require(users[_userResp].tipo == 0, \"You need to have admin permissions\");\r\n        }else if(_tipo == 2){\r\n            require(users[_userResp].tipo == 1 , \"You need to have organization admin permissions\");\r\n            require(users[_userResp].idOrganization == _idOrganization, \"You need to belong to the organization\");\r\n        }\r\n\r\n        users[_user] = User(_user, _tipo, true, _idOrganization);\r\n        arrayUsers.push(_user);\r\n\r\n        emit registUserEvent(_user);\r\n        \r\n    }\r\n\r\n    function blockUser (address _userResp, address _userBlock) public {\r\n\r\n        require(users[_userResp].tipo == 0, \"You need to have admin permissions\");\r\n\r\n        users[_userBlock].status = false;\r\n    }\r\n    \r\n    function unblockUser(address _userResp, address _userBlock) public {\r\n        \r\n        require(users[_userResp].tipo == 0, \"You need to have admin permissions\");\r\n        \r\n        users[_userBlock].status = true;\r\n    }\r\n\r\n    function addUnit(string memory _measure, string memory _initials, uint32 _base, uint32 _exp, uint32 _idUnit,bool _negative) private{\r\n        \r\n        require(users[msg.sender].tipo == 0, \"You need to have admin permissions\");\r\n\r\n        unitsCount++;\r\n        Unit(unitsCount, _measure, _initials, _base, _exp, _idUnit, _negative);\r\n        units[unitsCount] = Unit(unitsCount, _measure, _initials, _base, _exp, _idUnit, _negative);\r\n    }\r\n\r\n    function addOrganization(string memory _name, uint32[] memory _products, uint32[] memory _m_activities, uint32[] memory _m_fixcosts) public {\r\n        require(users[msg.sender].tipo == 0, \"You need to have admin permissions\");\r\n        bool exist = false;\r\n\r\n        for(uint32 i=1; i <= organizationsCount; i++){\r\n            string memory name = organizations[i].name;\r\n            if(keccak256(abi.encodePacked(name)) == keccak256(abi.encodePacked(_name))){\r\n                exist = true;\r\n            }\r\n        }\r\n\r\n        require(!exist, \"Organization already registred\");\r\n\r\n        organizationsCount++;\r\n        organizations[organizationsCount] = Organization(organizationsCount, 0, 0, _name, _products, _m_activities, _m_fixcosts); \r\n    }\r\n\r\n\r\n    function addProduct(string memory _name, string memory _description, \r\n        bool _intermediate, uint32 _org, uint32 _unit, uint32[] memory _footPrints) public{\r\n        \r\n        bool exist = false;        \r\n        //require(users[msg.sender].idOrganization == _org, \"You need to belong to the organization\");\r\n        require(organizations[_org].id != uint32(0), \"Organization doesn't exist\");\r\n\r\n        for(uint32 i=1; i <= organizationsCount; i++){\r\n            string memory name = products[i].name;\r\n            if(keccak256(abi.encodePacked(name)) == keccak256(abi.encodePacked(_name))){\r\n                exist = true;\r\n            }\r\n        }\r\n\r\n        require(!exist, \"Product already registred\");\r\n\r\n\r\n        productsCount++;\r\n        products[productsCount] = Product(productsCount, _name, _description, units[_unit].initials,\r\n            _intermediate, _org, _unit, _footPrints);\r\n        organizations[_org].products.push(productsCount);\r\n\r\n    }\r\n\r\n    function addYear(string memory _year) public {\r\n        require(users[msg.sender].tipo == 0, \"You need to have admin permissions\");\r\n        \r\n        \r\n        bool exist = false;\r\n        for(uint32 i=1; i <= yearliesCount; i++){\r\n            string memory name = yearly[i].year;\r\n            if(keccak256(abi.encodePacked(name)) == keccak256(abi.encodePacked(_year))){\r\n                exist = true;\r\n            }\r\n        }\r\n        \r\n        require(!exist, \"Year already registred\");\r\n        \r\n        yearliesCount++;\r\n        yearly[yearliesCount] = Year(yearliesCount, _year);\r\n    }\r\n\r\n    function addFootPrintProd(uint32 _co2eq, uint16 _exp, uint32 _idProd, uint32 _idYear) public {\r\n        \r\n        //require(users[msg.sender].idOrganization == products[_idProd].idOrganization, \"The product doesnt belong to your organization\");        \r\n        require(products[_idProd].id != uint32(0), \"Product doesn't exist\");\r\n\r\n\r\n        \r\n        pfootPrintCount++;\r\n        productFootPrints[pfootPrintCount] = ProductFootprint(pfootPrintCount, _co2eq, _exp, _idProd, _idYear);\r\n        products[_idProd].productFootPrints.push(pfootPrintCount);\r\n    }\r\n\r\n    function addCostType(uint32 _co2, uint16 _exp, string memory _desc, uint32 _idUnit, \r\n        uint32[] memory _fixCosts, uint32[] memory _p_costs) public {\r\n\r\n        //require(users[msg.sender].tipo == 0 || users[msg.sender].tipo == 1, \"You need to have admin/org admin permissions\");        \r\n        \r\n\r\n        costsTypesCount++;\r\n        costsTypes[costsTypesCount] = CostType(costsTypesCount, _co2, _exp, _desc, _idUnit, _fixCosts, _p_costs);\r\n    }\r\n\r\n    function addMonthlyFixCost(uint32 _co2eq, uint16 _exp, string memory _desc, uint32 _qtd, \r\n        string memory _month,uint32 _idCost,uint32 _idOrg, uint32 _idYear) public{\r\n\r\n        //require(users[msg.sender].idOrganization == _idOrg, \"You need to belong to the organization\");        \r\n\r\n        mfixcostsCount++;\r\n        mfixcosts[mfixcostsCount] = MonthlyFixCost(mfixcostsCount, _co2eq, _exp, _desc, _qtd, _month, _idCost, _idOrg, _idYear);\r\n        costsTypes[_idCost].m_fixcosts.push(mfixcostsCount);\r\n        organizations[_idOrg].m_fixcosts.push(mfixcostsCount);\r\n    }\r\n\r\n    function addMonthlyActivity(string memory _desc, uint32 _qtd, string memory _month,\r\n        uint32[] memory _prodQuantities, uint32 _output, uint32 _idOrg, uint32 _idUnit, uint32 _idYear) public{\r\n        \r\n        //require(users[msg.sender].idOrganization == _idOrg, \"You need to belong to the organization\");    \r\n\r\n        mactivitiesCount++;\r\n        mactivities[mactivitiesCount] = MonthlyActivity(mactivitiesCount, _desc, 0, _qtd, 0, _month, _prodQuantities, _output, _idOrg, _idUnit, _idYear, msg.sender);\r\n        organizations[_idOrg].m_activities.push(mactivitiesCount);\r\n    }\r\n    \r\n    \r\n    function addProductionCost(uint32 _co2, uint16 _exp, uint32 _qt, uint32 _costType, uint32 _mactivity) public {\r\n        productCostsCount++;\r\n        productCosts[productCostsCount] = ProductCost(productCostsCount, _co2, _exp, _qt, _costType, _mactivity);\r\n    }\r\n\r\n\r\n    function addProdQuantity(uint32 _qtd, uint32 _idPfootPrint, uint32 _m_activity) public{\r\n        productsQuantitiesCount++;\r\n        productsQuantities[productsQuantitiesCount] = ProductQuantity(productsQuantitiesCount, _qtd, _idPfootPrint, _m_activity);\r\n        mactivities[_m_activity].productQuantities.push(productsQuantitiesCount);\r\n    }\r\n\r\n    function updateCO2org(uint32 _org, uint32 _co2eq, uint16 _exp) public {\r\n        organizations[_org].co2eq = _co2eq;\r\n        organizations[_org].exp = _exp;\r\n    }\r\n    \r\n    function updateCO2mactivity(uint32 _mactivity, uint32 _co2eq, uint16 _exp) public {\r\n        mactivities[_mactivity].co2eq = _co2eq;\r\n        mactivities[_mactivity].exp = _exp;\r\n    }\r\n\r\n    function verifyUser(address _user) public view returns(string memory message){\r\n        \r\n        if(users[_user].user_add == address(0)){\r\n            return \"not_registred\";\r\n        }else if(users[_user].status == false){\r\n            return \"blocked\";\r\n        }else {\r\n            return \"ok\";\r\n        }\r\n        \r\n    }\r\n}",
  "sourcePath": "C:/Users/Francisco Santos/Desktop/ENG. INFORMTICA/E.I._2018-2019/2_semestre/Projeto IV/CarbonFootPrint/contracts/CarbonFootPrint.sol",
  "compiler": {
    "name": "solc",
    "version": "0.5.0+commit.1d4f565a.Emscripten.clang"
  },
  "schemaVersion": "3.0.2",
  "updatedAt": "2019-05-07T09:37:12.318Z",
  "devdoc": {
    "methods": {}
  },
  "userdoc": {
    "methods": {}
  }
}