{
  "contractName": "CarbonFootPrint",
  "abi": [
    {
      "constant": true,
      "inputs": [
        {
          "name": "",
          "type": "uint32"
        }
      ],
      "name": "yearly",
      "outputs": [
        {
          "name": "id",
          "type": "uint32"
        },
        {
          "name": "year",
          "type": "string"
        }
      ],
      "payable": false,
      "stateMutability": "view",
      "type": "function",
      "signature": "0x0be48c8d"
    },
    {
      "constant": true,
      "inputs": [],
      "name": "productsQuantitiesCount",
      "outputs": [
        {
          "name": "",
          "type": "uint32"
        }
      ],
      "payable": false,
      "stateMutability": "view",
      "type": "function",
      "signature": "0x26de83c0"
    },
    {
      "constant": true,
      "inputs": [
        {
          "name": "",
          "type": "uint32"
        }
      ],
      "name": "mactivities",
      "outputs": [
        {
          "name": "id",
          "type": "uint32"
        },
        {
          "name": "description",
          "type": "string"
        },
        {
          "name": "co2eq",
          "type": "uint32"
        },
        {
          "name": "finalProductQt",
          "type": "uint32"
        },
        {
          "name": "exp",
          "type": "uint16"
        },
        {
          "name": "month",
          "type": "string"
        },
        {
          "name": "output",
          "type": "uint32"
        },
        {
          "name": "idOrganization",
          "type": "uint32"
        },
        {
          "name": "idUnit",
          "type": "uint32"
        },
        {
          "name": "idYear",
          "type": "uint32"
        },
        {
          "name": "idUser",
          "type": "address"
        }
      ],
      "payable": false,
      "stateMutability": "view",
      "type": "function",
      "signature": "0x2c4d89b6"
    },
    {
      "constant": true,
      "inputs": [
        {
          "name": "",
          "type": "uint32"
        }
      ],
      "name": "productFootPrints",
      "outputs": [
        {
          "name": "id",
          "type": "uint32"
        },
        {
          "name": "co2eq",
          "type": "uint32"
        },
        {
          "name": "exp",
          "type": "uint16"
        },
        {
          "name": "idProduct",
          "type": "uint32"
        },
        {
          "name": "idYear",
          "type": "uint32"
        }
      ],
      "payable": false,
      "stateMutability": "view",
      "type": "function",
      "signature": "0x3bd6d8e3"
    },
    {
      "constant": true,
      "inputs": [
        {
          "name": "",
          "type": "uint32"
        }
      ],
      "name": "costsTypes",
      "outputs": [
        {
          "name": "id",
          "type": "uint32"
        },
        {
          "name": "co2PerUnit",
          "type": "uint32"
        },
        {
          "name": "exp",
          "type": "uint16"
        },
        {
          "name": "description",
          "type": "string"
        },
        {
          "name": "idUnit",
          "type": "uint32"
        }
      ],
      "payable": false,
      "stateMutability": "view",
      "type": "function",
      "signature": "0x4a2a7c27"
    },
    {
      "constant": true,
      "inputs": [],
      "name": "yearliesCount",
      "outputs": [
        {
          "name": "",
          "type": "uint32"
        }
      ],
      "payable": false,
      "stateMutability": "view",
      "type": "function",
      "signature": "0x53f1799b"
    },
    {
      "constant": true,
      "inputs": [],
      "name": "organizationsCount",
      "outputs": [
        {
          "name": "",
          "type": "uint32"
        }
      ],
      "payable": false,
      "stateMutability": "view",
      "type": "function",
      "signature": "0x59987f91"
    },
    {
      "constant": true,
      "inputs": [],
      "name": "unitsCount",
      "outputs": [
        {
          "name": "",
          "type": "uint32"
        }
      ],
      "payable": false,
      "stateMutability": "view",
      "type": "function",
      "signature": "0x5c29bc08"
    },
    {
      "constant": true,
      "inputs": [],
      "name": "productCostsCount",
      "outputs": [
        {
          "name": "",
          "type": "uint32"
        }
      ],
      "payable": false,
      "stateMutability": "view",
      "type": "function",
      "signature": "0x7ae88697"
    },
    {
      "constant": true,
      "inputs": [
        {
          "name": "",
          "type": "uint32"
        }
      ],
      "name": "productsQuantities",
      "outputs": [
        {
          "name": "id",
          "type": "uint32"
        },
        {
          "name": "quantity",
          "type": "uint32"
        },
        {
          "name": "idPFootPrint",
          "type": "uint32"
        },
        {
          "name": "idM_Activity",
          "type": "uint32"
        }
      ],
      "payable": false,
      "stateMutability": "view",
      "type": "function",
      "signature": "0x8760466c"
    },
    {
      "constant": true,
      "inputs": [
        {
          "name": "",
          "type": "address"
        }
      ],
      "name": "users",
      "outputs": [
        {
          "name": "user_add",
          "type": "address"
        },
        {
          "name": "tipo",
          "type": "uint16"
        },
        {
          "name": "status",
          "type": "bool"
        },
        {
          "name": "idOrganization",
          "type": "uint32"
        }
      ],
      "payable": false,
      "stateMutability": "view",
      "type": "function",
      "signature": "0xa87430ba"
    },
    {
      "constant": true,
      "inputs": [
        {
          "name": "",
          "type": "uint32"
        }
      ],
      "name": "mfixcosts",
      "outputs": [
        {
          "name": "id",
          "type": "uint32"
        },
        {
          "name": "co2eq",
          "type": "uint32"
        },
        {
          "name": "exp",
          "type": "uint16"
        },
        {
          "name": "description",
          "type": "string"
        },
        {
          "name": "quantity",
          "type": "uint32"
        },
        {
          "name": "month",
          "type": "string"
        },
        {
          "name": "idCostType",
          "type": "uint32"
        },
        {
          "name": "idOrganization",
          "type": "uint32"
        },
        {
          "name": "idYear",
          "type": "uint32"
        }
      ],
      "payable": false,
      "stateMutability": "view",
      "type": "function",
      "signature": "0xa89215fa"
    },
    {
      "constant": true,
      "inputs": [
        {
          "name": "",
          "type": "uint32"
        }
      ],
      "name": "products",
      "outputs": [
        {
          "name": "id",
          "type": "uint32"
        },
        {
          "name": "name",
          "type": "string"
        },
        {
          "name": "description",
          "type": "string"
        },
        {
          "name": "prodUnit",
          "type": "string"
        },
        {
          "name": "co2eq",
          "type": "uint32"
        },
        {
          "name": "exp",
          "type": "uint16"
        },
        {
          "name": "intermediate",
          "type": "bool"
        },
        {
          "name": "idOrganization",
          "type": "uint32"
        },
        {
          "name": "idUnit",
          "type": "uint32"
        }
      ],
      "payable": false,
      "stateMutability": "view",
      "type": "function",
      "signature": "0xbf712fd6"
    },
    {
      "constant": true,
      "inputs": [
        {
          "name": "",
          "type": "uint256"
        }
      ],
      "name": "arrayUsers",
      "outputs": [
        {
          "name": "",
          "type": "address"
        }
      ],
      "payable": false,
      "stateMutability": "view",
      "type": "function",
      "signature": "0xcbedd17b"
    },
    {
      "constant": true,
      "inputs": [],
      "name": "costsTypesCount",
      "outputs": [
        {
          "name": "",
          "type": "uint32"
        }
      ],
      "payable": false,
      "stateMutability": "view",
      "type": "function",
      "signature": "0xcd7c0448"
    },
    {
      "constant": true,
      "inputs": [
        {
          "name": "",
          "type": "uint32"
        }
      ],
      "name": "units",
      "outputs": [
        {
          "name": "id",
          "type": "uint32"
        },
        {
          "name": "measure",
          "type": "string"
        },
        {
          "name": "initials",
          "type": "string"
        },
        {
          "name": "base",
          "type": "uint32"
        },
        {
          "name": "exp",
          "type": "uint32"
        },
        {
          "name": "idUnit",
          "type": "uint32"
        },
        {
          "name": "negative",
          "type": "bool"
        }
      ],
      "payable": false,
      "stateMutability": "view",
      "type": "function",
      "signature": "0xcfd6dc59"
    },
    {
      "constant": true,
      "inputs": [
        {
          "name": "",
          "type": "uint32"
        }
      ],
      "name": "organizations",
      "outputs": [
        {
          "name": "id",
          "type": "uint32"
        },
        {
          "name": "co2eq",
          "type": "uint32"
        },
        {
          "name": "exp",
          "type": "uint16"
        },
        {
          "name": "name",
          "type": "string"
        }
      ],
      "payable": false,
      "stateMutability": "view",
      "type": "function",
      "signature": "0xd4dfba99"
    },
    {
      "constant": true,
      "inputs": [],
      "name": "pfootPrintCount",
      "outputs": [
        {
          "name": "",
          "type": "uint32"
        }
      ],
      "payable": false,
      "stateMutability": "view",
      "type": "function",
      "signature": "0xdd69c582"
    },
    {
      "constant": true,
      "inputs": [],
      "name": "productsCount",
      "outputs": [
        {
          "name": "",
          "type": "uint32"
        }
      ],
      "payable": false,
      "stateMutability": "view",
      "type": "function",
      "signature": "0xe0df7bb6"
    },
    {
      "constant": true,
      "inputs": [],
      "name": "mactivitiesCount",
      "outputs": [
        {
          "name": "",
          "type": "uint32"
        }
      ],
      "payable": false,
      "stateMutability": "view",
      "type": "function",
      "signature": "0xec4b547d"
    },
    {
      "constant": true,
      "inputs": [
        {
          "name": "",
          "type": "uint32"
        }
      ],
      "name": "productCosts",
      "outputs": [
        {
          "name": "id",
          "type": "uint32"
        },
        {
          "name": "co2eq",
          "type": "uint32"
        },
        {
          "name": "exp",
          "type": "uint16"
        },
        {
          "name": "quantity",
          "type": "uint32"
        },
        {
          "name": "idCostType",
          "type": "uint32"
        },
        {
          "name": "idM_Activity",
          "type": "uint32"
        }
      ],
      "payable": false,
      "stateMutability": "view",
      "type": "function",
      "signature": "0xec923196"
    },
    {
      "constant": true,
      "inputs": [],
      "name": "mfixcostsCount",
      "outputs": [
        {
          "name": "",
          "type": "uint32"
        }
      ],
      "payable": false,
      "stateMutability": "view",
      "type": "function",
      "signature": "0xf86bc05e"
    },
    {
      "inputs": [],
      "payable": false,
      "stateMutability": "nonpayable",
      "type": "constructor",
      "signature": "constructor"
    },
    {
      "anonymous": false,
      "inputs": [
        {
          "indexed": true,
          "name": "_candidateAddress",
          "type": "address"
        }
      ],
      "name": "registUserEvent",
      "type": "event",
      "signature": "0x7bdb2b3927fb40923bed5ce31134e6f465bc28bcf91ad634338c2eb2398de5fe"
    },
    {
      "constant": true,
      "inputs": [],
      "name": "getUsersCount",
      "outputs": [
        {
          "name": "count",
          "type": "uint256"
        }
      ],
      "payable": false,
      "stateMutability": "view",
      "type": "function",
      "signature": "0xa4a1e263"
    },
    {
      "constant": true,
      "inputs": [
        {
          "name": "_org",
          "type": "uint32"
        }
      ],
      "name": "getOrgProducts",
      "outputs": [
        {
          "name": "prods",
          "type": "uint32[]"
        }
      ],
      "payable": false,
      "stateMutability": "view",
      "type": "function",
      "signature": "0x01843f74"
    },
    {
      "constant": true,
      "inputs": [
        {
          "name": "_prod",
          "type": "uint32"
        }
      ],
      "name": "getFootPrintsProd",
      "outputs": [
        {
          "name": "footprints",
          "type": "uint32[]"
        }
      ],
      "payable": false,
      "stateMutability": "view",
      "type": "function",
      "signature": "0xca7cf054"
    },
    {
      "constant": false,
      "inputs": [
        {
          "name": "_userResp",
          "type": "address"
        },
        {
          "name": "_user",
          "type": "address"
        },
        {
          "name": "_tipo",
          "type": "uint16"
        },
        {
          "name": "_idOrganization",
          "type": "uint32"
        }
      ],
      "name": "addUser",
      "outputs": [],
      "payable": false,
      "stateMutability": "nonpayable",
      "type": "function",
      "signature": "0x7a6cf388"
    },
    {
      "constant": false,
      "inputs": [
        {
          "name": "_userResp",
          "type": "address"
        },
        {
          "name": "_userBlock",
          "type": "address"
        }
      ],
      "name": "blockUser",
      "outputs": [],
      "payable": false,
      "stateMutability": "nonpayable",
      "type": "function",
      "signature": "0xe5bb6575"
    },
    {
      "constant": false,
      "inputs": [
        {
          "name": "_name",
          "type": "string"
        },
        {
          "name": "_products",
          "type": "uint32[]"
        },
        {
          "name": "_m_activities",
          "type": "uint32[]"
        },
        {
          "name": "_m_fixcosts",
          "type": "uint32[]"
        }
      ],
      "name": "addOrganization",
      "outputs": [],
      "payable": false,
      "stateMutability": "nonpayable",
      "type": "function",
      "signature": "0x6aeb9ca1"
    },
    {
      "constant": false,
      "inputs": [
        {
          "name": "_name",
          "type": "string"
        },
        {
          "name": "_description",
          "type": "string"
        },
        {
          "name": "_intermediate",
          "type": "bool"
        },
        {
          "name": "_org",
          "type": "uint32"
        },
        {
          "name": "_unit",
          "type": "uint32"
        },
        {
          "name": "_footPrints",
          "type": "uint32[]"
        }
      ],
      "name": "addProduct",
      "outputs": [],
      "payable": false,
      "stateMutability": "nonpayable",
      "type": "function",
      "signature": "0xd4676fa4"
    },
    {
      "constant": false,
      "inputs": [
        {
          "name": "_year",
          "type": "string"
        }
      ],
      "name": "addYear",
      "outputs": [],
      "payable": false,
      "stateMutability": "nonpayable",
      "type": "function",
      "signature": "0x8d40f303"
    },
    {
      "constant": false,
      "inputs": [
        {
          "name": "_co2eq",
          "type": "uint32"
        },
        {
          "name": "_exp",
          "type": "uint16"
        },
        {
          "name": "_idProd",
          "type": "uint32"
        },
        {
          "name": "_idYear",
          "type": "uint32"
        }
      ],
      "name": "addFootPrintProd",
      "outputs": [],
      "payable": false,
      "stateMutability": "nonpayable",
      "type": "function",
      "signature": "0xdf77a009"
    },
    {
      "constant": false,
      "inputs": [
        {
          "name": "_id",
          "type": "uint32"
        },
        {
          "name": "_co2eq",
          "type": "uint32"
        },
        {
          "name": "_exp",
          "type": "uint16"
        }
      ],
      "name": "updateCO2Prod",
      "outputs": [],
      "payable": false,
      "stateMutability": "nonpayable",
      "type": "function",
      "signature": "0x9be9523e"
    },
    {
      "constant": false,
      "inputs": [
        {
          "name": "_co2",
          "type": "uint32"
        },
        {
          "name": "_exp",
          "type": "uint16"
        },
        {
          "name": "_desc",
          "type": "string"
        },
        {
          "name": "_idUnit",
          "type": "uint32"
        },
        {
          "name": "_fixCosts",
          "type": "uint32[]"
        },
        {
          "name": "_p_costs",
          "type": "uint32[]"
        }
      ],
      "name": "addCostType",
      "outputs": [],
      "payable": false,
      "stateMutability": "nonpayable",
      "type": "function",
      "signature": "0x8b862869"
    },
    {
      "constant": false,
      "inputs": [
        {
          "name": "_co2eq",
          "type": "uint32"
        },
        {
          "name": "_exp",
          "type": "uint16"
        },
        {
          "name": "_desc",
          "type": "string"
        },
        {
          "name": "_qtd",
          "type": "uint32"
        },
        {
          "name": "_month",
          "type": "string"
        },
        {
          "name": "_idCost",
          "type": "uint32"
        },
        {
          "name": "_idOrg",
          "type": "uint32"
        },
        {
          "name": "_idYear",
          "type": "uint32"
        }
      ],
      "name": "addMonthlyFixCost",
      "outputs": [],
      "payable": false,
      "stateMutability": "nonpayable",
      "type": "function",
      "signature": "0xc10da47d"
    },
    {
      "constant": false,
      "inputs": [
        {
          "name": "_desc",
          "type": "string"
        },
        {
          "name": "_co2eq",
          "type": "uint32"
        },
        {
          "name": "_qtd",
          "type": "uint32"
        },
        {
          "name": "_exp",
          "type": "uint16"
        },
        {
          "name": "_month",
          "type": "string"
        },
        {
          "name": "_prodQuantities",
          "type": "uint32[]"
        },
        {
          "name": "_output",
          "type": "uint32"
        },
        {
          "name": "_idOrg",
          "type": "uint32"
        },
        {
          "name": "_idUnit",
          "type": "uint32"
        },
        {
          "name": "_idYear",
          "type": "uint32"
        }
      ],
      "name": "addMonthlyActivity",
      "outputs": [],
      "payable": false,
      "stateMutability": "nonpayable",
      "type": "function",
      "signature": "0xa8becc6d"
    },
    {
      "constant": false,
      "inputs": [
        {
          "name": "_qtd",
          "type": "uint32"
        },
        {
          "name": "_idPfootPrint",
          "type": "uint32"
        },
        {
          "name": "_m_activity",
          "type": "uint32"
        }
      ],
      "name": "addProdQuantity",
      "outputs": [],
      "payable": false,
      "stateMutability": "nonpayable",
      "type": "function",
      "signature": "0x93d12817"
    },
    {
      "constant": false,
      "inputs": [
        {
          "name": "_idProd",
          "type": "uint32"
        },
        {
          "name": "_idMA",
          "type": "uint32"
        }
      ],
      "name": "updateMonthlyActivity",
      "outputs": [],
      "payable": false,
      "stateMutability": "nonpayable",
      "type": "function",
      "signature": "0x67b37dae"
    }
  ],
  "bytecode": "0x60806040523480156200001157600080fd5b506080604051908101604052803373ffffffffffffffffffffffffffffffffffffffff168152602001600061ffff168152602001600115158152602001600063ffffffff16815250600e60003373ffffffffffffffffffffffffffffffffffffffff1673ffffffffffffffffffffffffffffffffffffffff16815260200190815260200160002060008201518160000160006101000a81548173ffffffffffffffffffffffffffffffffffffffff021916908373ffffffffffffffffffffffffffffffffffffffff16021790555060208201518160000160146101000a81548161ffff021916908361ffff16021790555060408201518160000160166101000a81548160ff02191690831515021790555060608201518160000160176101000a81548163ffffffff021916908363ffffffff160217905550905050600f3390806001815401808255809150509060018203906000526020600020016000909192909190916101000a81548173ffffffffffffffffffffffffffffffffffffffff021916908373ffffffffffffffffffffffffffffffffffffffff160217905550506200023f6040805190810160405280600581526020017f746f6e6e650000000000000000000000000000000000000000000000000000008152506040805190810160405280600181526020017f7400000000000000000000000000000000000000000000000000000000000000815250600a600060016000620003e9640100000000026401000000009004565b620002cb6040805190810160405280600881526020017f6b696c6f6772616d0000000000000000000000000000000000000000000000008152506040805190810160405280600281526020017f6b67000000000000000000000000000000000000000000000000000000000000815250600a6003600180620003e9640100000000026401000000009004565b620003576040805190810160405280600481526020017f6772616d000000000000000000000000000000000000000000000000000000008152506040805190810160405280600181526020017f6700000000000000000000000000000000000000000000000000000000000000815250600a6006600180620003e9640100000000026401000000009004565b620003e36040805190810160405280600981526020017f6d696c6c696772616d00000000000000000000000000000000000000000000008152506040805190810160405280600281526020017f6d67000000000000000000000000000000000000000000000000000000000000815250600a6009600180620003e9640100000000026401000000009004565b620007bd565b6000600e60003373ffffffffffffffffffffffffffffffffffffffff1673ffffffffffffffffffffffffffffffffffffffff16815260200190815260200160002060000160149054906101000a900461ffff1661ffff16141515620004dc576040517f08c379a00000000000000000000000000000000000000000000000000000000081526004018080602001828103825260228152602001807f596f75206e65656420746f20686176652061646d696e207065726d697373696f81526020017f6e7300000000000000000000000000000000000000000000000000000000000081525060400191505060405180910390fd5b600d600081819054906101000a900463ffffffff168092919060010191906101000a81548163ffffffff021916908363ffffffff1602179055505060e060405190810160405280600d60009054906101000a900463ffffffff1663ffffffff1681526020018781526020018681526020018563ffffffff1681526020018463ffffffff1681526020018363ffffffff1681526020018215158152505060e060405190810160405280600d60009054906101000a900463ffffffff1663ffffffff1681526020018781526020018681526020018563ffffffff1681526020018463ffffffff1681526020018363ffffffff168152602001821515815250600c6000600d60009054906101000a900463ffffffff1663ffffffff1663ffffffff16815260200190815260200160002060008201518160000160006101000a81548163ffffffff021916908363ffffffff16021790555060208201518160010190805190602001906200064e9291906200070e565b5060408201518160020190805190602001906200066d9291906200070e565b5060608201518160030160006101000a81548163ffffffff021916908363ffffffff16021790555060808201518160030160046101000a81548163ffffffff021916908363ffffffff16021790555060a08201518160030160086101000a81548163ffffffff021916908363ffffffff16021790555060c082015181600301600c6101000a81548160ff021916908315150217905550905050505050505050565b828054600181600116156101000203166002900490600052602060002090601f016020900481019282601f106200075157805160ff191683800117855562000782565b8280016001018555821562000782579182015b828111156200078157825182559160200191906001019062000764565b5b50905062000791919062000795565b5090565b620007ba91905b80821115620007b65760008160009055506001016200079c565b5090565b90565b614fec80620007cd6000396000f3fe6080604052600436106101cd576000357c0100000000000000000000000000000000000000000000000000000000900463ffffffff16806301843f74146101d25780630be48c8d1461026857806326de83c0146103355780632c4d89b61461036c5780633bd6d8e3146105595780634a2a7c271461060257806353f1799b1461070457806359987f911461073b5780635c29bc081461077257806367b37dae146107a95780636aeb9ca1146107fa5780637a6cf38814610a7e5780637ae8869714610b0d5780638760466c14610b445780638b86286914610bde5780638d40f30314610dfc57806393d1281714610ec45780639be9523e14610f25578063a4a1e26314610f84578063a87430ba14610faf578063a89215fa1461106d578063a8becc6d14611214578063bf712fd614611476578063c10da47d1461166e578063ca7cf0541461182c578063cbedd17b146118c2578063cd7c04481461193d578063cfd6dc5914611974578063d4676fa414611af1578063d4dfba9914611d10578063dd69c58214611dff578063df77a00914611e36578063e0df7bb614611ea5578063e5bb657514611edc578063ec4b547d14611f4d578063ec92319614611f84578063f86bc05e14612040575b600080fd5b3480156101de57600080fd5b50610211600480360360208110156101f557600080fd5b81019080803563ffffffff169060200190929190505050612077565b6040518080602001828103825283818151815260200191508051906020019060200280838360005b83811015610254578082015181840152602081019050610239565b505050509050019250505060405180910390f35b34801561027457600080fd5b506102a76004803603602081101561028b57600080fd5b81019080803563ffffffff16906020019092919050505061211d565b604051808363ffffffff1663ffffffff16815260200180602001828103825283818151815260200191508051906020019080838360005b838110156102f95780820151818401526020810190506102de565b50505050905090810190601f1680156103265780820380516001836020036101000a031916815260200191505b50935050505060405180910390f35b34801561034157600080fd5b5061034a6121e9565b604051808263ffffffff1663ffffffff16815260200191505060405180910390f35b34801561037857600080fd5b506103ab6004803603602081101561038f57600080fd5b81019080803563ffffffff1690602001909291905050506121ff565b604051808c63ffffffff1663ffffffff168152602001806020018b63ffffffff1663ffffffff1681526020018a63ffffffff1663ffffffff1681526020018961ffff1661ffff168152602001806020018863ffffffff1663ffffffff1681526020018763ffffffff1663ffffffff1681526020018663ffffffff1663ffffffff1681526020018563ffffffff1663ffffffff1681526020018473ffffffffffffffffffffffffffffffffffffffff1673ffffffffffffffffffffffffffffffffffffffff16815260200183810383528d818151815260200191508051906020019080838360005b838110156104ad578082015181840152602081019050610492565b50505050905090810190601f1680156104da5780820380516001836020036101000a031916815260200191505b50838103825289818151815260200191508051906020019080838360005b838110156105135780820151818401526020810190506104f8565b50505050905090810190601f1680156105405780820380516001836020036101000a031916815260200191505b509d505050505050505050505050505060405180910390f35b34801561056557600080fd5b506105986004803603602081101561057c57600080fd5b81019080803563ffffffff169060200190929190505050612427565b604051808663ffffffff1663ffffffff1681526020018563ffffffff1663ffffffff1681526020018461ffff1661ffff1681526020018363ffffffff1663ffffffff1681526020018263ffffffff1663ffffffff1681526020019550505050505060405180910390f35b34801561060e57600080fd5b506106416004803603602081101561062557600080fd5b81019080803563ffffffff1690602001909291905050506124ab565b604051808663ffffffff1663ffffffff1681526020018563ffffffff1663ffffffff1681526020018461ffff1661ffff168152602001806020018363ffffffff1663ffffffff168152602001828103825284818151815260200191508051906020019080838360005b838110156106c55780820151818401526020810190506106aa565b50505050905090810190601f1680156106f25780820380516001836020036101000a031916815260200191505b50965050505050505060405180910390f35b34801561071057600080fd5b506107196125b7565b604051808263ffffffff1663ffffffff16815260200191505060405180910390f35b34801561074757600080fd5b506107506125cd565b604051808263ffffffff1663ffffffff16815260200191505060405180910390f35b34801561077e57600080fd5b506107876125e3565b604051808263ffffffff1663ffffffff16815260200191505060405180910390f35b3480156107b557600080fd5b506107f8600480360360408110156107cc57600080fd5b81019080803563ffffffff169060200190929190803563ffffffff1690602001909291905050506125f9565b005b34801561080657600080fd5b50610a7c6004803603608081101561081d57600080fd5b810190808035906020019064010000000081111561083a57600080fd5b82018360208201111561084c57600080fd5b8035906020019184600183028401116401000000008311171561086e57600080fd5b91908080601f016020809104026020016040519081016040528093929190818152602001838380828437600081840152601f19601f820116905080830192505050505050509192919290803590602001906401000000008111156108d157600080fd5b8201836020820111156108e357600080fd5b8035906020019184602083028401116401000000008311171561090557600080fd5b919080806020026020016040519081016040528093929190818152602001838360200280828437600081840152601f19601f8201169050808301925050505050505091929192908035906020019064010000000081111561096557600080fd5b82018360208201111561097757600080fd5b8035906020019184602083028401116401000000008311171561099957600080fd5b919080806020026020016040519081016040528093929190818152602001838360200280828437600081840152601f19601f820116905080830192505050505050509192919290803590602001906401000000008111156109f957600080fd5b820183602082011115610a0b57600080fd5b80359060200191846020830284011164010000000083111715610a2d57600080fd5b919080806020026020016040519081016040528093929190818152602001838360200280828437600081840152601f19601f82011690508083019250505050505050919291929050505061266e565b005b348015610a8a57600080fd5b50610b0b60048036036080811015610aa157600080fd5b81019080803573ffffffffffffffffffffffffffffffffffffffff169060200190929190803573ffffffffffffffffffffffffffffffffffffffff169060200190929190803561ffff169060200190929190803563ffffffff169060200190929190505050612912565b005b348015610b1957600080fd5b50610b22613015565b604051808263ffffffff1663ffffffff16815260200191505060405180910390f35b348015610b5057600080fd5b50610b8360048036036020811015610b6757600080fd5b81019080803563ffffffff16906020019092919050505061302b565b604051808563ffffffff1663ffffffff1681526020018463ffffffff1663ffffffff1681526020018363ffffffff1663ffffffff1681526020018263ffffffff1663ffffffff16815260200194505050505060405180910390f35b348015610bea57600080fd5b50610dfa600480360360c0811015610c0157600080fd5b81019080803563ffffffff169060200190929190803561ffff16906020019092919080359060200190640100000000811115610c3c57600080fd5b820183602082011115610c4e57600080fd5b80359060200191846001830284011164010000000083111715610c7057600080fd5b91908080601f016020809104026020016040519081016040528093929190818152602001838380828437600081840152601f19601f820116905080830192505050505050509192919290803563ffffffff16906020019092919080359060200190640100000000811115610ce357600080fd5b820183602082011115610cf557600080fd5b80359060200191846020830284011164010000000083111715610d1757600080fd5b919080806020026020016040519081016040528093929190818152602001838360200280828437600081840152601f19601f82011690508083019250505050505050919291929080359060200190640100000000811115610d7757600080fd5b820183602082011115610d8957600080fd5b80359060200191846020830284011164010000000083111715610dab57600080fd5b919080806020026020016040519081016040528093929190818152602001838360200280828437600081840152601f19601f82011690508083019250505050505050919291929050505061309b565b005b348015610e0857600080fd5b50610ec260048036036020811015610e1f57600080fd5b8101908080359060200190640100000000811115610e3c57600080fd5b820183602082011115610e4e57600080fd5b80359060200191846001830284011164010000000083111715610e7057600080fd5b91908080601f016020809104026020016040519081016040528093929190818152602001838380828437600081840152601f19601f82011690508083019250505050505050919291929050505061325d565b005b348015610ed057600080fd5b50610f2360048036036060811015610ee757600080fd5b81019080803563ffffffff169060200190929190803563ffffffff169060200190929190803563ffffffff169060200190929190505050613432565b005b348015610f3157600080fd5b50610f8260048036036060811015610f4857600080fd5b81019080803563ffffffff169060200190929190803563ffffffff169060200190929190803561ffff16906020019092919050505061358e565b005b348015610f9057600080fd5b50610f9961360f565b6040518082815260200191505060405180910390f35b348015610fbb57600080fd5b50610ffe60048036036020811015610fd257600080fd5b81019080803573ffffffffffffffffffffffffffffffffffffffff16906020019092919050505061361c565b604051808573ffffffffffffffffffffffffffffffffffffffff1673ffffffffffffffffffffffffffffffffffffffff1681526020018461ffff1661ffff168152602001831515151581526020018263ffffffff1663ffffffff16815260200194505050505060405180910390f35b34801561107957600080fd5b506110ac6004803603602081101561109057600080fd5b81019080803563ffffffff169060200190929190505050613697565b604051808a63ffffffff1663ffffffff1681526020018963ffffffff1663ffffffff1681526020018861ffff1661ffff168152602001806020018763ffffffff1663ffffffff168152602001806020018663ffffffff1663ffffffff1681526020018563ffffffff1663ffffffff1681526020018463ffffffff1663ffffffff168152602001838103835289818151815260200191508051906020019080838360005b8381101561116a57808201518184015260208101905061114f565b50505050905090810190601f1680156111975780820380516001836020036101000a031916815260200191505b50838103825287818151815260200191508051906020019080838360005b838110156111d05780820151818401526020810190506111b5565b50505050905090810190601f1680156111fd5780820380516001836020036101000a031916815260200191505b509b50505050505050505050505060405180910390f35b34801561122057600080fd5b50611474600480360361014081101561123857600080fd5b810190808035906020019064010000000081111561125557600080fd5b82018360208201111561126757600080fd5b8035906020019184600183028401116401000000008311171561128957600080fd5b91908080601f016020809104026020016040519081016040528093929190818152602001838380828437600081840152601f19601f820116905080830192505050505050509192919290803563ffffffff169060200190929190803563ffffffff169060200190929190803561ffff1690602001909291908035906020019064010000000081111561131a57600080fd5b82018360208201111561132c57600080fd5b8035906020019184600183028401116401000000008311171561134e57600080fd5b91908080601f016020809104026020016040519081016040528093929190818152602001838380828437600081840152601f19601f820116905080830192505050505050509192919290803590602001906401000000008111156113b157600080fd5b8201836020820111156113c357600080fd5b803590602001918460208302840111640100000000831117156113e557600080fd5b919080806020026020016040519081016040528093929190818152602001838360200280828437600081840152601f19601f820116905080830192505050505050509192919290803563ffffffff169060200190929190803563ffffffff169060200190929190803563ffffffff169060200190929190803563ffffffff169060200190929190505050613883565b005b34801561148257600080fd5b506114b56004803603602081101561149957600080fd5b81019080803563ffffffff169060200190929190505050613c00565b604051808a63ffffffff1663ffffffff1681526020018060200180602001806020018963ffffffff1663ffffffff1681526020018861ffff1661ffff168152602001871515151581526020018663ffffffff1663ffffffff1681526020018563ffffffff1663ffffffff16815260200184810384528c818151815260200191508051906020019080838360005b8381101561155d578082015181840152602081019050611542565b50505050905090810190601f16801561158a5780820380516001836020036101000a031916815260200191505b5084810383528b818151815260200191508051906020019080838360005b838110156115c35780820151818401526020810190506115a8565b50505050905090810190601f1680156115f05780820380516001836020036101000a031916815260200191505b5084810382528a818151815260200191508051906020019080838360005b8381101561162957808201518184015260208101905061160e565b50505050905090810190601f1680156116565780820380516001836020036101000a031916815260200191505b509c5050505050505050505050505060405180910390f35b34801561167a57600080fd5b5061182a600480360361010081101561169257600080fd5b81019080803563ffffffff169060200190929190803561ffff169060200190929190803590602001906401000000008111156116cd57600080fd5b8201836020820111156116df57600080fd5b8035906020019184600183028401116401000000008311171561170157600080fd5b91908080601f016020809104026020016040519081016040528093929190818152602001838380828437600081840152601f19601f820116905080830192505050505050509192919290803563ffffffff1690602001909291908035906020019064010000000081111561177457600080fd5b82018360208201111561178657600080fd5b803590602001918460018302840111640100000000831117156117a857600080fd5b91908080601f016020809104026020016040519081016040528093929190818152602001838380828437600081840152601f19601f820116905080830192505050505050509192919290803563ffffffff169060200190929190803563ffffffff169060200190929190803563ffffffff169060200190929190505050613e71565b005b34801561183857600080fd5b5061186b6004803603602081101561184f57600080fd5b81019080803563ffffffff1690602001909291905050506141b3565b6040518080602001828103825283818151815260200191508051906020019060200280838360005b838110156118ae578082015181840152602081019050611893565b505050509050019250505060405180910390f35b3480156118ce57600080fd5b506118fb600480360360208110156118e557600080fd5b8101908080359060200190929190505050614258565b604051808273ffffffffffffffffffffffffffffffffffffffff1673ffffffffffffffffffffffffffffffffffffffff16815260200191505060405180910390f35b34801561194957600080fd5b50611952614296565b604051808263ffffffff1663ffffffff16815260200191505060405180910390f35b34801561198057600080fd5b506119b36004803603602081101561199757600080fd5b81019080803563ffffffff1690602001909291905050506142ac565b604051808863ffffffff1663ffffffff16815260200180602001806020018763ffffffff1663ffffffff1681526020018663ffffffff1663ffffffff1681526020018563ffffffff1663ffffffff16815260200184151515158152602001838103835289818151815260200191508051906020019080838360005b83811015611a49578082015181840152602081019050611a2e565b50505050905090810190601f168015611a765780820380516001836020036101000a031916815260200191505b50838103825288818151815260200191508051906020019080838360005b83811015611aaf578082015181840152602081019050611a94565b50505050905090810190601f168015611adc5780820380516001836020036101000a031916815260200191505b50995050505050505050505060405180910390f35b348015611afd57600080fd5b50611d0e600480360360c0811015611b1457600080fd5b8101908080359060200190640100000000811115611b3157600080fd5b820183602082011115611b4357600080fd5b80359060200191846001830284011164010000000083111715611b6557600080fd5b91908080601f016020809104026020016040519081016040528093929190818152602001838380828437600081840152601f19601f82011690508083019250505050505050919291929080359060200190640100000000811115611bc857600080fd5b820183602082011115611bda57600080fd5b80359060200191846001830284011164010000000083111715611bfc57600080fd5b91908080601f016020809104026020016040519081016040528093929190818152602001838380828437600081840152601f19601f820116905080830192505050505050509192919290803515159060200190929190803563ffffffff169060200190929190803563ffffffff16906020019092919080359060200190640100000000811115611c8b57600080fd5b820183602082011115611c9d57600080fd5b80359060200191846020830284011164010000000083111715611cbf57600080fd5b919080806020026020016040519081016040528093929190818152602001838360200280828437600081840152601f19601f82011690508083019250505050505050919291929050505061446b565b005b348015611d1c57600080fd5b50611d4f60048036036020811015611d3357600080fd5b81019080803563ffffffff1690602001909291905050506147ec565b604051808563ffffffff1663ffffffff1681526020018463ffffffff1663ffffffff1681526020018361ffff1661ffff16815260200180602001828103825283818151815260200191508051906020019080838360005b83811015611dc1578082015181840152602081019050611da6565b50505050905090810190601f168015611dee5780820380516001836020036101000a031916815260200191505b509550505050505060405180910390f35b348015611e0b57600080fd5b50611e146148e2565b604051808263ffffffff1663ffffffff16815260200191505060405180910390f35b348015611e4257600080fd5b50611ea360048036036080811015611e5957600080fd5b81019080803563ffffffff169060200190929190803561ffff169060200190929190803563ffffffff169060200190929190803563ffffffff1690602001909291905050506148f8565b005b348015611eb157600080fd5b50611eba614b04565b604051808263ffffffff1663ffffffff16815260200191505060405180910390f35b348015611ee857600080fd5b50611f4b60048036036040811015611eff57600080fd5b81019080803573ffffffffffffffffffffffffffffffffffffffff169060200190929190803573ffffffffffffffffffffffffffffffffffffffff169060200190929190505050614b1a565b005b348015611f5957600080fd5b50611f62614d72565b604051808263ffffffff1663ffffffff16815260200191505060405180910390f35b348015611f9057600080fd5b50611fc360048036036020811015611fa757600080fd5b81019080803563ffffffff169060200190929190505050614d88565b604051808763ffffffff1663ffffffff1681526020018663ffffffff1663ffffffff1681526020018561ffff1661ffff1681526020018463ffffffff1663ffffffff1681526020018363ffffffff1663ffffffff1681526020018263ffffffff1663ffffffff168152602001965050505050505060405180910390f35b34801561204c57600080fd5b50612055614e22565b604051808263ffffffff1663ffffffff16815260200191505060405180910390f35b6060600460008363ffffffff1663ffffffff16815260200190815260200160002060020180548060200260200160405190810160405280929190818152602001828054801561211157602002820191906000526020600020906000905b82829054906101000a900463ffffffff1663ffffffff16815260200190600401906020826003010492830192600103820291508084116120d45790505b50505050509050919050565b60146020528060005260406000206000915090508060000160009054906101000a900463ffffffff1690806001018054600181600116156101000203166002900480601f0160208091040260200160405190810160405280929190818152602001828054600181600116156101000203166002900480156121df5780601f106121b4576101008083540402835291602001916121df565b820191906000526020600020905b8154815290600101906020018083116121c257829003601f168201915b5050505050905082565b601360009054906101000a900463ffffffff1681565b60026020528060005260406000206000915090508060000160009054906101000a900463ffffffff1690806001018054600181600116156101000203166002900480601f0160208091040260200160405190810160405280929190818152602001828054600181600116156101000203166002900480156122c15780601f10612296576101008083540402835291602001916122c1565b820191906000526020600020905b8154815290600101906020018083116122a457829003601f168201915b5050505050908060020160009054906101000a900463ffffffff16908060020160049054906101000a900463ffffffff16908060020160089054906101000a900461ffff1690806003018054600181600116156101000203166002900480601f01602080910402602001604051908101604052809291908181526020018280546001816001161561010002031660029004801561239f5780601f106123745761010080835404028352916020019161239f565b820191906000526020600020905b81548152906001019060200180831161238257829003601f168201915b5050505050908060050160009054906101000a900463ffffffff16908060050160049054906101000a900463ffffffff16908060050160089054906101000a900463ffffffff169080600501600c9054906101000a900463ffffffff16908060060160009054906101000a900473ffffffffffffffffffffffffffffffffffffffff1690508b565b60106020528060005260406000206000915090508060000160009054906101000a900463ffffffff16908060000160049054906101000a900463ffffffff16908060000160089054906101000a900461ffff169080600001600a9054906101000a900463ffffffff169080600001600e9054906101000a900463ffffffff16905085565b600a6020528060005260406000206000915090508060000160009054906101000a900463ffffffff16908060000160049054906101000a900463ffffffff16908060000160089054906101000a900461ffff1690806001018054600181600116156101000203166002900480601f0160208091040260200160405190810160405280929190818152602001828054600181600116156101000203166002900480156125975780601f1061256c57610100808354040283529160200191612597565b820191906000526020600020905b81548152906001019060200180831161257a57829003601f168201915b5050505050908060020160009054906101000a900463ffffffff16905085565b601560009054906101000a900463ffffffff1681565b600560009054906101000a900463ffffffff1681565b600d60009054906101000a900463ffffffff1681565b600260008263ffffffff1663ffffffff16815260200190815260200160002060040182908060018154018082558091505090600182039060005260206000209060089182820401919006600402909192909190916101000a81548163ffffffff021916908363ffffffff160217905550505050565b6000600e60003373ffffffffffffffffffffffffffffffffffffffff1673ffffffffffffffffffffffffffffffffffffffff16815260200190815260200160002060000160149054906101000a900461ffff1661ffff16141515612760576040517f08c379a00000000000000000000000000000000000000000000000000000000081526004018080602001828103825260228152602001807f596f75206e65656420746f20686176652061646d696e207065726d697373696f81526020017f6e7300000000000000000000000000000000000000000000000000000000000081525060400191505060405180910390fd5b6005600081819054906101000a900463ffffffff168092919060010191906101000a81548163ffffffff021916908363ffffffff1602179055505060e060405190810160405280600560009054906101000a900463ffffffff1663ffffffff168152602001600063ffffffff168152602001600061ffff1681526020018581526020018481526020018381526020018281525060046000600560009054906101000a900463ffffffff1663ffffffff1663ffffffff16815260200190815260200160002060008201518160000160006101000a81548163ffffffff021916908363ffffffff16021790555060208201518160000160046101000a81548163ffffffff021916908363ffffffff16021790555060408201518160000160086101000a81548161ffff021916908361ffff16021790555060608201518160010190805190602001906128b1929190614e38565b5060808201518160020190805190602001906128ce929190614eb8565b5060a08201518160030190805190602001906128eb929190614eb8565b5060c0820151816004019080519060200190612908929190614eb8565b5090505050505050565b600073ffffffffffffffffffffffffffffffffffffffff16600e60008673ffffffffffffffffffffffffffffffffffffffff1673ffffffffffffffffffffffffffffffffffffffff16815260200190815260200160002060000160009054906101000a900473ffffffffffffffffffffffffffffffffffffffff1673ffffffffffffffffffffffffffffffffffffffff1614151515612a19576040517f08c379a00000000000000000000000000000000000000000000000000000000081526004018080602001828103825260158152602001807f55736572206973206e6f7420726567697374726564000000000000000000000081525060200191505060405180910390fd5b600073ffffffffffffffffffffffffffffffffffffffff16600e60008573ffffffffffffffffffffffffffffffffffffffff1673ffffffffffffffffffffffffffffffffffffffff16815260200190815260200160002060000160009054906101000a900473ffffffffffffffffffffffffffffffffffffffff1673ffffffffffffffffffffffffffffffffffffffff16141515612b1f576040517f08c379a00000000000000000000000000000000000000000000000000000000081526004018080602001828103825260168152602001807f5573657220616c7265616479207265676973747265640000000000000000000081525060200191505060405180910390fd5b60008261ffff161480612b36575060018261ffff16145b15612c32576000600e60008673ffffffffffffffffffffffffffffffffffffffff1673ffffffffffffffffffffffffffffffffffffffff16815260200190815260200160002060000160149054906101000a900461ffff1661ffff16141515612c2d576040517f08c379a00000000000000000000000000000000000000000000000000000000081526004018080602001828103825260228152602001807f596f75206e65656420746f20686176652061646d696e207065726d697373696f81526020017f6e7300000000000000000000000000000000000000000000000000000000000081525060400191505060405180910390fd5b612e2e565b60028261ffff161415612e2d576001600e60008673ffffffffffffffffffffffffffffffffffffffff1673ffffffffffffffffffffffffffffffffffffffff16815260200190815260200160002060000160149054906101000a900461ffff1661ffff16141515612d31576040517f08c379a000000000000000000000000000000000000000000000000000000000815260040180806020018281038252602f8152602001807f596f75206e65656420746f2068617665206f7267616e697a6174696f6e20616481526020017f6d696e207065726d697373696f6e73000000000000000000000000000000000081525060400191505060405180910390fd5b8063ffffffff16600e60008673ffffffffffffffffffffffffffffffffffffffff1673ffffffffffffffffffffffffffffffffffffffff16815260200190815260200160002060000160179054906101000a900463ffffffff1663ffffffff16141515612e2c576040517f08c379a00000000000000000000000000000000000000000000000000000000081526004018080602001828103825260268152602001807f596f75206e65656420746f2062656c6f6e6720746f20746865206f7267616e6981526020017f7a6174696f6e000000000000000000000000000000000000000000000000000081525060400191505060405180910390fd5b5b5b6080604051908101604052808473ffffffffffffffffffffffffffffffffffffffff1681526020018361ffff1681526020016001151581526020018263ffffffff16815250600e60008573ffffffffffffffffffffffffffffffffffffffff1673ffffffffffffffffffffffffffffffffffffffff16815260200190815260200160002060008201518160000160006101000a81548173ffffffffffffffffffffffffffffffffffffffff021916908373ffffffffffffffffffffffffffffffffffffffff16021790555060208201518160000160146101000a81548161ffff021916908361ffff16021790555060408201518160000160166101000a81548160ff02191690831515021790555060608201518160000160176101000a81548163ffffffff021916908363ffffffff160217905550905050600f8390806001815401808255809150509060018203906000526020600020016000909192909190916101000a81548173ffffffffffffffffffffffffffffffffffffffff021916908373ffffffffffffffffffffffffffffffffffffffff160217905550508273ffffffffffffffffffffffffffffffffffffffff167f7bdb2b3927fb40923bed5ce31134e6f465bc28bcf91ad634338c2eb2398de5fe60405160405180910390a250505050565b600960009054906101000a900463ffffffff1681565b60126020528060005260406000206000915090508060000160009054906101000a900463ffffffff16908060000160049054906101000a900463ffffffff16908060000160089054906101000a900463ffffffff169080600001600c9054906101000a900463ffffffff16905084565b600b600081819054906101000a900463ffffffff168092919060010191906101000a81548163ffffffff021916908363ffffffff1602179055505060e060405190810160405280600b60009054906101000a900463ffffffff1663ffffffff1681526020018763ffffffff1681526020018661ffff1681526020018581526020018463ffffffff16815260200183815260200182815250600a6000600b60009054906101000a900463ffffffff1663ffffffff1663ffffffff16815260200190815260200160002060008201518160000160006101000a81548163ffffffff021916908363ffffffff16021790555060208201518160000160046101000a81548163ffffffff021916908363ffffffff16021790555060408201518160000160086101000a81548161ffff021916908361ffff16021790555060608201518160010190805190602001906131f0929190614e38565b5060808201518160020160006101000a81548163ffffffff021916908363ffffffff16021790555060a0820151816003019080519060200190613234929190614eb8565b5060c0820151816004019080519060200190613251929190614eb8565b50905050505050505050565b6000600e60003373ffffffffffffffffffffffffffffffffffffffff1673ffffffffffffffffffffffffffffffffffffffff16815260200190815260200160002060000160149054906101000a900461ffff1661ffff1614151561334f576040517f08c379a00000000000000000000000000000000000000000000000000000000081526004018080602001828103825260228152602001807f596f75206e65656420746f20686176652061646d696e207065726d697373696f81526020017f6e7300000000000000000000000000000000000000000000000000000000000081525060400191505060405180910390fd5b6015600081819054906101000a900463ffffffff168092919060010191906101000a81548163ffffffff021916908363ffffffff160217905550506040805190810160405280601560009054906101000a900463ffffffff1663ffffffff1681526020018281525060146000601560009054906101000a900463ffffffff1663ffffffff1663ffffffff16815260200190815260200160002060008201518160000160006101000a81548163ffffffff021916908363ffffffff160217905550602082015181600101908051906020019061342b929190614e38565b5090505050565b6013600081819054906101000a900463ffffffff168092919060010191906101000a81548163ffffffff021916908363ffffffff16021790555050608060405190810160405280601360009054906101000a900463ffffffff1663ffffffff1681526020018463ffffffff1681526020018363ffffffff1681526020018263ffffffff1681525060126000601360009054906101000a900463ffffffff1663ffffffff1663ffffffff16815260200190815260200160002060008201518160000160006101000a81548163ffffffff021916908363ffffffff16021790555060208201518160000160046101000a81548163ffffffff021916908363ffffffff16021790555060408201518160000160086101000a81548163ffffffff021916908363ffffffff160217905550606082015181600001600c6101000a81548163ffffffff021916908363ffffffff160217905550905050505050565b816000808563ffffffff1663ffffffff16815260200190815260200160002060040160006101000a81548163ffffffff021916908363ffffffff160217905550806000808563ffffffff1663ffffffff16815260200190815260200160002060040160046101000a81548161ffff021916908361ffff160217905550505050565b6000600f80549050905090565b600e6020528060005260406000206000915090508060000160009054906101000a900473ffffffffffffffffffffffffffffffffffffffff16908060000160149054906101000a900461ffff16908060000160169054906101000a900460ff16908060000160179054906101000a900463ffffffff16905084565b60066020528060005260406000206000915090508060000160009054906101000a900463ffffffff16908060000160049054906101000a900463ffffffff16908060000160089054906101000a900461ffff1690806001018054600181600116156101000203166002900480601f0160208091040260200160405190810160405280929190818152602001828054600181600116156101000203166002900480156137835780601f1061375857610100808354040283529160200191613783565b820191906000526020600020905b81548152906001019060200180831161376657829003601f168201915b5050505050908060020160009054906101000a900463ffffffff1690806003018054600181600116156101000203166002900480601f0160208091040260200160405190810160405280929190818152602001828054600181600116156101000203166002900480156138375780601f1061380c57610100808354040283529160200191613837565b820191906000526020600020905b81548152906001019060200180831161381a57829003601f168201915b5050505050908060040160009054906101000a900463ffffffff16908060040160049054906101000a900463ffffffff16908060040160089054906101000a900463ffffffff16905089565b6003600081819054906101000a900463ffffffff168092919060010191906101000a81548163ffffffff021916908363ffffffff1602179055505061018060405190810160405280600360009054906101000a900463ffffffff1663ffffffff1681526020018b81526020018a63ffffffff1681526020018963ffffffff1681526020018861ffff1681526020018781526020018681526020018563ffffffff1681526020018463ffffffff1681526020018363ffffffff1681526020018263ffffffff1681526020013373ffffffffffffffffffffffffffffffffffffffff1681525060026000600360009054906101000a900463ffffffff1663ffffffff1663ffffffff16815260200190815260200160002060008201518160000160006101000a81548163ffffffff021916908363ffffffff16021790555060208201518160010190805190602001906139db929190614e38565b5060408201518160020160006101000a81548163ffffffff021916908363ffffffff16021790555060608201518160020160046101000a81548163ffffffff021916908363ffffffff16021790555060808201518160020160086101000a81548161ffff021916908361ffff16021790555060a0820151816003019080519060200190613a69929190614e38565b5060c0820151816004019080519060200190613a86929190614eb8565b5060e08201518160050160006101000a81548163ffffffff021916908363ffffffff1602179055506101008201518160050160046101000a81548163ffffffff021916908363ffffffff1602179055506101208201518160050160086101000a81548163ffffffff021916908363ffffffff16021790555061014082015181600501600c6101000a81548163ffffffff021916908363ffffffff1602179055506101608201518160060160006101000a81548173ffffffffffffffffffffffffffffffffffffffff021916908373ffffffffffffffffffffffffffffffffffffffff160217905550905050600460008463ffffffff1663ffffffff168152602001908152602001600020600401600360009054906101000a900463ffffffff16908060018154018082558091505090600182039060005260206000209060089182820401919006600402909192909190916101000a81548163ffffffff021916908363ffffffff1602179055505050505050505050505050565b60006020528060005260406000206000915090508060000160009054906101000a900463ffffffff1690806001018054600181600116156101000203166002900480601f016020809104026020016040519081016040528092919081815260200182805460018160011615610100020316600290048015613cc25780601f10613c9757610100808354040283529160200191613cc2565b820191906000526020600020905b815481529060010190602001808311613ca557829003601f168201915b505050505090806002018054600181600116156101000203166002900480601f016020809104026020016040519081016040528092919081815260200182805460018160011615610100020316600290048015613d605780601f10613d3557610100808354040283529160200191613d60565b820191906000526020600020905b815481529060010190602001808311613d4357829003601f168201915b505050505090806003018054600181600116156101000203166002900480601f016020809104026020016040519081016040528092919081815260200182805460018160011615610100020316600290048015613dfe5780601f10613dd357610100808354040283529160200191613dfe565b820191906000526020600020905b815481529060010190602001808311613de157829003601f168201915b5050505050908060040160009054906101000a900463ffffffff16908060040160049054906101000a900461ffff16908060040160069054906101000a900460ff16908060040160079054906101000a900463ffffffff169080600401600b9054906101000a900463ffffffff16905089565b6007600081819054906101000a900463ffffffff168092919060010191906101000a81548163ffffffff021916908363ffffffff1602179055505061012060405190810160405280600760009054906101000a900463ffffffff1663ffffffff1681526020018963ffffffff1681526020018861ffff1681526020018781526020018663ffffffff1681526020018581526020018463ffffffff1681526020018363ffffffff1681526020018263ffffffff1681525060066000600760009054906101000a900463ffffffff1663ffffffff1663ffffffff16815260200190815260200160002060008201518160000160006101000a81548163ffffffff021916908363ffffffff16021790555060208201518160000160046101000a81548163ffffffff021916908363ffffffff16021790555060408201518160000160086101000a81548161ffff021916908361ffff1602179055506060820151816001019080519060200190613fe5929190614e38565b5060808201518160020160006101000a81548163ffffffff021916908363ffffffff16021790555060a0820151816003019080519060200190614029929190614e38565b5060c08201518160040160006101000a81548163ffffffff021916908363ffffffff16021790555060e08201518160040160046101000a81548163ffffffff021916908363ffffffff1602179055506101008201518160040160086101000a81548163ffffffff021916908363ffffffff160217905550905050600a60008463ffffffff1663ffffffff168152602001908152602001600020600301600760009054906101000a900463ffffffff16908060018154018082558091505090600182039060005260206000209060089182820401919006600402909192909190916101000a81548163ffffffff021916908363ffffffff16021790555050600460008363ffffffff1663ffffffff168152602001908152602001600020600401600760009054906101000a900463ffffffff16908060018154018082558091505090600182039060005260206000209060089182820401919006600402909192909190916101000a81548163ffffffff021916908363ffffffff160217905550505050505050505050565b60606000808363ffffffff1663ffffffff16815260200190815260200160002060050180548060200260200160405190810160405280929190818152602001828054801561424c57602002820191906000526020600020906000905b82829054906101000a900463ffffffff1663ffffffff168152602001906004019060208260030104928301926001038202915080841161420f5790505b50505050509050919050565b600f8181548110151561426757fe5b906000526020600020016000915054906101000a900473ffffffffffffffffffffffffffffffffffffffff1681565b600b60009054906101000a900463ffffffff1681565b600c6020528060005260406000206000915090508060000160009054906101000a900463ffffffff1690806001018054600181600116156101000203166002900480601f01602080910402602001604051908101604052809291908181526020018280546001816001161561010002031660029004801561436e5780601f106143435761010080835404028352916020019161436e565b820191906000526020600020905b81548152906001019060200180831161435157829003601f168201915b505050505090806002018054600181600116156101000203166002900480601f01602080910402602001604051908101604052809291908181526020018280546001816001161561010002031660029004801561440c5780601f106143e15761010080835404028352916020019161440c565b820191906000526020600020905b8154815290600101906020018083116143ef57829003601f168201915b5050505050908060030160009054906101000a900463ffffffff16908060030160049054906101000a900463ffffffff16908060030160089054906101000a900463ffffffff169080600301600c9054906101000a900460ff16905087565b6001600081819054906101000a900463ffffffff168092919060010191906101000a81548163ffffffff021916908363ffffffff1602179055505061014060405190810160405280600160009054906101000a900463ffffffff1663ffffffff168152602001878152602001868152602001600c60008563ffffffff1663ffffffff1681526020019081526020016000206002018054600181600116156101000203166002900480601f0160208091040260200160405190810160405280929190818152602001828054600181600116156101000203166002900480156145935780601f1061456857610100808354040283529160200191614593565b820191906000526020600020905b81548152906001019060200180831161457657829003601f168201915b50505050508152602001600063ffffffff168152602001600061ffff16815260200185151581526020018463ffffffff1681526020018363ffffffff16815260200182815250600080600160009054906101000a900463ffffffff1663ffffffff1663ffffffff16815260200190815260200160002060008201518160000160006101000a81548163ffffffff021916908363ffffffff160217905550602082015181600101908051906020019061464c929190614e38565b506040820151816002019080519060200190614669929190614e38565b506060820151816003019080519060200190614686929190614e38565b5060808201518160040160006101000a81548163ffffffff021916908363ffffffff16021790555060a08201518160040160046101000a81548161ffff021916908361ffff16021790555060c08201518160040160066101000a81548160ff02191690831515021790555060e08201518160040160076101000a81548163ffffffff021916908363ffffffff16021790555061010082015181600401600b6101000a81548163ffffffff021916908363ffffffff16021790555061012082015181600501908051906020019061475d929190614eb8565b50905050600460008463ffffffff1663ffffffff168152602001908152602001600020600201600160009054906101000a900463ffffffff16908060018154018082558091505090600182039060005260206000209060089182820401919006600402909192909190916101000a81548163ffffffff021916908363ffffffff16021790555050505050505050565b60046020528060005260406000206000915090508060000160009054906101000a900463ffffffff16908060000160049054906101000a900463ffffffff16908060000160089054906101000a900461ffff1690806001018054600181600116156101000203166002900480601f0160208091040260200160405190810160405280929190818152602001828054600181600116156101000203166002900480156148d85780601f106148ad576101008083540402835291602001916148d8565b820191906000526020600020905b8154815290600101906020018083116148bb57829003601f168201915b5050505050905084565b601160009054906101000a900463ffffffff1681565b6011600081819054906101000a900463ffffffff168092919060010191906101000a81548163ffffffff021916908363ffffffff1602179055505060a060405190810160405280601160009054906101000a900463ffffffff1663ffffffff1681526020018563ffffffff1681526020018461ffff1681526020018363ffffffff1681526020018263ffffffff1681525060106000601160009054906101000a900463ffffffff1663ffffffff1663ffffffff16815260200190815260200160002060008201518160000160006101000a81548163ffffffff021916908363ffffffff16021790555060208201518160000160046101000a81548163ffffffff021916908363ffffffff16021790555060408201518160000160086101000a81548161ffff021916908361ffff160217905550606082015181600001600a6101000a81548163ffffffff021916908363ffffffff160217905550608082015181600001600e6101000a81548163ffffffff021916908363ffffffff1602179055509050506000808363ffffffff1663ffffffff168152602001908152602001600020600501601160009054906101000a900463ffffffff16908060018154018082558091505090600182039060005260206000209060089182820401919006600402909192909190916101000a81548163ffffffff021916908363ffffffff1602179055505050505050565b600160009054906101000a900463ffffffff1681565b600073ffffffffffffffffffffffffffffffffffffffff16600e60008473ffffffffffffffffffffffffffffffffffffffff1673ffffffffffffffffffffffffffffffffffffffff16815260200190815260200160002060000160009054906101000a900473ffffffffffffffffffffffffffffffffffffffff1673ffffffffffffffffffffffffffffffffffffffff1614151515614c21576040517f08c379a00000000000000000000000000000000000000000000000000000000081526004018080602001828103825260158152602001807f55736572206973206e6f7420726567697374726564000000000000000000000081525060200191505060405180910390fd5b6000600e60008473ffffffffffffffffffffffffffffffffffffffff1673ffffffffffffffffffffffffffffffffffffffff16815260200190815260200160002060000160149054906101000a900461ffff1661ffff16141515614d13576040517f08c379a00000000000000000000000000000000000000000000000000000000081526004018080602001828103825260228152602001807f596f75206e65656420746f20686176652061646d696e207065726d697373696f81526020017f6e7300000000000000000000000000000000000000000000000000000000000081525060400191505060405180910390fd5b6000600e60008373ffffffffffffffffffffffffffffffffffffffff1673ffffffffffffffffffffffffffffffffffffffff16815260200190815260200160002060000160166101000a81548160ff0219169083151502179055505050565b600360009054906101000a900463ffffffff1681565b60086020528060005260406000206000915090508060000160009054906101000a900463ffffffff16908060000160049054906101000a900463ffffffff16908060000160089054906101000a900461ffff169080600001600a9054906101000a900463ffffffff169080600001600e9054906101000a900463ffffffff16908060000160129054906101000a900463ffffffff16905086565b600760009054906101000a900463ffffffff1681565b828054600181600116156101000203166002900490600052602060002090601f016020900481019282601f10614e7957805160ff1916838001178555614ea7565b82800160010185558215614ea7579182015b82811115614ea6578251825591602001919060010190614e8b565b5b509050614eb49190614f68565b5090565b82805482825590600052602060002090600701600890048101928215614f575791602002820160005b83821115614f2557835183826101000a81548163ffffffff021916908363ffffffff1602179055509260200192600401602081600301049283019260010302614ee1565b8015614f555782816101000a81549063ffffffff0219169055600401602081600301049283019260010302614f25565b505b509050614f649190614f8d565b5090565b614f8a91905b80821115614f86576000816000905550600101614f6e565b5090565b90565b614fbd91905b80821115614fb957600081816101000a81549063ffffffff021916905550600101614f93565b5090565b9056fea165627a7a72305820bc8160969d999343c5e08ed7b7e4578e60a378fc8cf7626150ff1c8931e409150029",
  "source": "pragma solidity >=0.4.2;\r\n\r\ncontract CarbonFootPrint{\r\n    \r\n    // -- Estrutura dos produtos\r\n    struct Product{\r\n        uint32 id;\r\n        string name;\r\n        string description;\r\n        string prodUnit;\r\n        uint32 co2eq;\r\n        uint16 exp;\r\n        bool intermediate;\r\n        uint32 idOrganization;\r\n        uint32 idUnit;\r\n        uint32[] productFootPrints;\r\n    }\r\n\r\n    struct ProductFootprint{\r\n        uint32 id;\r\n        uint32 co2eq;\r\n        uint16 exp;\r\n        uint32 idProduct;\r\n        uint32 idYear;\r\n    }\r\n\r\n    struct ProductQuantity{\r\n        uint32 id;\r\n        uint32 quantity;\r\n        uint32 idPFootPrint;\r\n        uint32 idM_Activity;\r\n    }\r\n\r\n\r\n    // -- Estrutura das organizaes\r\n    struct Organization{\r\n        uint32 id;\r\n        uint32 co2eq;\r\n        uint16 exp;\r\n        string name;\r\n        uint32[] products;\r\n        uint32[] m_activities;\r\n        uint32[] m_fixcosts;\r\n    }\r\n\r\n    // -- Estrutura das atividades mensais\r\n    struct MonthlyActivity{\r\n        uint32 id;\r\n        string description;\r\n        uint32 co2eq;\r\n        uint32 finalProductQt;\r\n        uint16 exp;\r\n        string month;\r\n        uint32[] productQuantities; // -- codigo dos produtos de input\r\n        uint32 output; // -- codigo do product foot print de output\r\n        uint32 idOrganization;\r\n        uint32 idUnit;\r\n        uint32 idYear;\r\n        address idUser;\r\n    }\r\n\r\n    // -- Estrutura dos custos fixos mensais\r\n    struct MonthlyFixCost{\r\n        uint32 id;\r\n        uint32 co2eq;\r\n        uint16 exp;\r\n        string description;\r\n        uint32 quantity;\r\n        string month;\r\n        uint32 idCostType;\r\n        uint32 idOrganization;\r\n        uint32 idYear;\r\n    }\r\n\r\n    // -- Estrutura dos custos dos produtos\r\n    struct ProductCost{\r\n        uint32 id;\r\n        uint32 co2eq;\r\n        uint16 exp;\r\n        uint32 quantity;\r\n        uint32 idCostType;\r\n        uint32 idM_Activity;\r\n    }\r\n\r\n    // -- Estrutura do tipo de custo\r\n    struct CostType{\r\n        uint32 id;\r\n        uint32 co2PerUnit;\r\n        uint16 exp;\r\n        string description;\r\n        uint32 idUnit;\r\n        uint32[] m_fixcosts;\r\n        uint32[] products_costs;\r\n    }\r\n\r\n    // -- Estrutura das unidades\r\n    struct Unit{\r\n        uint32 id;\r\n        string measure;\r\n        string initials;\r\n        uint32 base;\r\n        uint32 exp;\r\n        uint32 idUnit;\r\n        bool negative;\r\n    }\r\n\r\n    // -- Users\r\n    struct User{\r\n        address user_add;\r\n        uint16 tipo; // 0 - Admin , 1 - OrgAdmin,  2 - User\r\n        bool status;\r\n        uint32 idOrganization;\r\n    }\r\n\r\n    struct Year{\r\n        uint32 id;\r\n        string year;\r\n    }\r\n\r\n\r\n    // -- Mappings\r\n    mapping(uint32 => Product) public products;\r\n    uint32 public productsCount;\r\n\r\n    mapping(uint32 => MonthlyActivity) public mactivities;\r\n    uint32 public mactivitiesCount;\r\n\r\n    mapping(uint32 => Organization) public organizations;\r\n    uint32 public organizationsCount;\r\n\r\n    mapping(uint32 => MonthlyFixCost) public mfixcosts;\r\n    uint32 public mfixcostsCount;\r\n\r\n    mapping(uint32 => ProductCost) public productCosts;\r\n    uint32 public productCostsCount;\r\n\r\n    mapping(uint32 => CostType) public costsTypes;\r\n    uint32 public costsTypesCount;\r\n\r\n    mapping(uint32 => Unit) public units;\r\n    uint32 public unitsCount;\r\n\r\n    mapping(address => User) public users;\r\n    address[] public arrayUsers;\r\n\r\n    mapping(uint32 => ProductFootprint) public productFootPrints;\r\n    uint32 public pfootPrintCount;\r\n\r\n    mapping(uint32 => ProductQuantity) public productsQuantities;\r\n    uint32 public productsQuantitiesCount;\r\n\r\n    mapping(uint32 => Year) public yearly;\r\n    uint32 public yearliesCount;\r\n\r\n    event registUserEvent (\r\n        address indexed _candidateAddress\r\n    );\r\n\r\n    constructor () public{\r\n        users[msg.sender] = User(msg.sender, 0, true, 0);\r\n        arrayUsers.push(msg.sender);\r\n\r\n        // -- Initalize units\r\n        addUnit(\"tonne\", \"t\", 10, 0, 1, false);\r\n        addUnit(\"kilogram\", \"kg\", 10, 3, 1, true);\r\n        addUnit(\"gram\", \"g\", 10, 6, 1, true);\r\n        addUnit(\"milligram\", \"mg\", 10, 9, 1, true);\r\n    }\r\n\r\n    function getUsersCount() public view returns(uint count) {\r\n        return arrayUsers.length;\r\n    }\r\n\r\n    // -- GETTERS -> organization\r\n    function getOrgProducts(uint32 _org) public view returns(uint32[] memory prods){\r\n        return organizations[_org].products;\r\n    }\r\n\r\n    // -- GETTERS -> products\r\n    function getFootPrintsProd(uint32 _prod) public view returns(uint32[] memory footprints){\r\n        return products[_prod].productFootPrints;\r\n    }   \r\n\r\n\r\n\r\n    function addUser (address _userResp,address _user, uint16 _tipo, uint32 _idOrganization) public {\r\n        \r\n        require(users[_userResp].user_add != address(0), \"User is not registred\");\r\n        require(users[_user].user_add == address(0), \"User already registred\");\r\n\r\n        if(_tipo == 0 || _tipo == 1){\r\n            require(users[_userResp].tipo == 0, \"You need to have admin permissions\");\r\n        }else if(_tipo == 2){\r\n            require(users[_userResp].tipo == 1 , \"You need to have organization admin permissions\");\r\n            require(users[_userResp].idOrganization == _idOrganization, \"You need to belong to the organization\");\r\n        }\r\n\r\n        users[_user] = User(_user, _tipo, true, _idOrganization);\r\n        arrayUsers.push(_user);\r\n\r\n        emit registUserEvent(_user);\r\n        \r\n    }\r\n\r\n    function blockUser (address _userResp, address _userBlock) public {\r\n\r\n        require(users[_userResp].user_add != address(0), \"User is not registred\");\r\n        require(users[_userResp].tipo == 0, \"You need to have admin permissions\");\r\n\r\n        users[_userBlock].status = false;\r\n    }\r\n\r\n    function addUnit(string memory _measure, string memory _initials, uint32 _base, uint32 _exp, uint32 _idUnit,bool _negative) private{\r\n        \r\n        require(users[msg.sender].tipo == 0, \"You need to have admin permissions\");\r\n\r\n        unitsCount++;\r\n        Unit(unitsCount, _measure, _initials, _base, _exp, _idUnit, _negative);\r\n        units[unitsCount] = Unit(unitsCount, _measure, _initials, _base, _exp, _idUnit, _negative);\r\n    }\r\n\r\n    function addOrganization(string memory _name, uint32[] memory _products, uint32[] memory _m_activities, uint32[] memory _m_fixcosts) public {\r\n        require(users[msg.sender].tipo == 0, \"You need to have admin permissions\");\r\n\r\n        organizationsCount++;\r\n        organizations[organizationsCount] = Organization(organizationsCount, 0, 0, _name, _products, _m_activities, _m_fixcosts); \r\n    }\r\n\r\n    function addProduct(string memory _name, string memory _description, \r\n        bool _intermediate, uint32 _org, uint32 _unit, uint32[] memory _footPrints) public{\r\n        \r\n        //require(users[msg.sender].idOrganization == _org, \"You need to belong to the organization\");\r\n\r\n        productsCount++;\r\n        products[productsCount] = Product(productsCount, _name, _description, units[_unit].initials, 0, 0,\r\n            _intermediate, _org, _unit, _footPrints);\r\n        organizations[_org].products.push(productsCount);\r\n\r\n    }\r\n\r\n    function addYear(string memory _year) public {\r\n        require(users[msg.sender].tipo == 0, \"You need to have admin permissions\");        \r\n        yearliesCount++;\r\n        yearly[yearliesCount] = Year(yearliesCount, _year);\r\n    }\r\n\r\n    function addFootPrintProd(uint32 _co2eq, uint16 _exp, uint32 _idProd, uint32 _idYear) public {\r\n        \r\n        //require(users[msg.sender].idOrganization == products[_idProd].idOrganization, \"The product doesnt belong to your organization\");        \r\n\r\n        pfootPrintCount++;\r\n        productFootPrints[pfootPrintCount] = ProductFootprint(pfootPrintCount, _co2eq, _exp, _idProd, _idYear);\r\n        products[_idProd].productFootPrints.push(pfootPrintCount);\r\n    }\r\n\r\n    function updateCO2Prod(uint32 _id, uint32 _co2eq, uint16 _exp) public {\r\n        products[_id].co2eq = _co2eq;\r\n        products[_id].exp = _exp;\r\n    }\r\n\r\n    function addCostType(uint32 _co2, uint16 _exp, string memory _desc, uint32 _idUnit, \r\n        uint32[] memory _fixCosts, uint32[] memory _p_costs) public {\r\n\r\n        //require(users[msg.sender].tipo == 0 || users[msg.sender].tipo == 1, \"You need to have admin/org admin permissions\");        \r\n        \r\n\r\n        costsTypesCount++;\r\n        costsTypes[costsTypesCount] = CostType(costsTypesCount, _co2, _exp, _desc, _idUnit, _fixCosts, _p_costs);\r\n    }\r\n\r\n    function addMonthlyFixCost(uint32 _co2eq, uint16 _exp, string memory _desc, uint32 _qtd, \r\n        string memory _month,uint32 _idCost,uint32 _idOrg, uint32 _idYear) public{\r\n\r\n        //require(users[msg.sender].idOrganization == _idOrg, \"You need to belong to the organization\");        \r\n\r\n        mfixcostsCount++;\r\n        mfixcosts[mfixcostsCount] = MonthlyFixCost(mfixcostsCount, _co2eq, _exp, _desc, _qtd, _month, _idCost, _idOrg, _idYear);\r\n        costsTypes[_idCost].m_fixcosts.push(mfixcostsCount);\r\n        organizations[_idOrg].m_fixcosts.push(mfixcostsCount);\r\n    }\r\n\r\n    function addMonthlyActivity(string memory _desc, uint32 _co2eq, uint32 _qtd, uint16 _exp, string memory _month,\r\n        uint32[] memory _prodQuantities, uint32 _output, uint32 _idOrg, uint32 _idUnit, uint32 _idYear) public{\r\n        \r\n        //require(users[msg.sender].idOrganization == _idOrg, \"You need to belong to the organization\");    \r\n\r\n        mactivitiesCount++;\r\n        mactivities[mactivitiesCount] = MonthlyActivity(mactivitiesCount, _desc, _co2eq, _qtd, _exp, _month, _prodQuantities, _output, _idOrg, _idUnit, _idYear, msg.sender);\r\n        organizations[_idOrg].m_fixcosts.push(mactivitiesCount);\r\n    }\r\n\r\n\r\n    function addProdQuantity(uint32 _qtd, uint32 _idPfootPrint, uint32 _m_activity) public{\r\n        productsQuantitiesCount++;\r\n        productsQuantities[productsQuantitiesCount] = ProductQuantity(productsQuantitiesCount, _qtd, _idPfootPrint, _m_activity);\r\n    }\r\n\r\n    function updateMonthlyActivity(uint32 _idProd, uint32 _idMA) public {\r\n        mactivities[_idMA].productQuantities.push(_idProd);\r\n    }\r\n\r\n\r\n\r\n}",
  "sourcePath": "C:/Users/Francisco Santos/Desktop/ENG. INFORMTICA/E.I._2018-2019/2_semestre/CarbonFootPrint/contracts/CarbonFootPrint.sol",
  "compiler": {
    "name": "solc",
    "version": "0.5.0+commit.1d4f565a.Emscripten.clang"
  },
  "schemaVersion": "3.0.2",
  "updatedAt": "2019-04-16T22:04:10.481Z",
  "devdoc": {
    "methods": {}
  },
  "userdoc": {
    "methods": {}
  }
}