{
  "contractName": "CarbonFootPrint",
  "abi": [
    {
      "constant": true,
      "inputs": [
        {
          "name": "",
          "type": "uint32"
        }
      ],
      "name": "yearly",
      "outputs": [
        {
          "name": "id",
          "type": "uint32"
        },
        {
          "name": "year",
          "type": "string"
        }
      ],
      "payable": false,
      "stateMutability": "view",
      "type": "function"
    },
    {
      "constant": true,
      "inputs": [],
      "name": "productsQuantitiesCount",
      "outputs": [
        {
          "name": "",
          "type": "uint32"
        }
      ],
      "payable": false,
      "stateMutability": "view",
      "type": "function"
    },
    {
      "constant": true,
      "inputs": [
        {
          "name": "",
          "type": "uint32"
        }
      ],
      "name": "mactivities",
      "outputs": [
        {
          "name": "id",
          "type": "uint32"
        },
        {
          "name": "description",
          "type": "string"
        },
        {
          "name": "co2eq",
          "type": "uint32"
        },
        {
          "name": "finalProductQt",
          "type": "uint32"
        },
        {
          "name": "exp",
          "type": "uint16"
        },
        {
          "name": "month",
          "type": "string"
        },
        {
          "name": "output",
          "type": "uint32"
        },
        {
          "name": "idOrganization",
          "type": "uint32"
        },
        {
          "name": "idUnit",
          "type": "uint32"
        },
        {
          "name": "idYear",
          "type": "uint32"
        },
        {
          "name": "idUser",
          "type": "address"
        }
      ],
      "payable": false,
      "stateMutability": "view",
      "type": "function"
    },
    {
      "constant": true,
      "inputs": [
        {
          "name": "",
          "type": "uint32"
        }
      ],
      "name": "productFootPrints",
      "outputs": [
        {
          "name": "id",
          "type": "uint32"
        },
        {
          "name": "co2eq",
          "type": "uint32"
        },
        {
          "name": "exp",
          "type": "uint16"
        },
        {
          "name": "idProduct",
          "type": "uint32"
        },
        {
          "name": "idYear",
          "type": "uint32"
        }
      ],
      "payable": false,
      "stateMutability": "view",
      "type": "function"
    },
    {
      "constant": true,
      "inputs": [
        {
          "name": "",
          "type": "uint32"
        }
      ],
      "name": "costsTypes",
      "outputs": [
        {
          "name": "id",
          "type": "uint32"
        },
        {
          "name": "co2PerUnit",
          "type": "uint32"
        },
        {
          "name": "exp",
          "type": "uint16"
        },
        {
          "name": "description",
          "type": "string"
        },
        {
          "name": "idUnit",
          "type": "uint32"
        }
      ],
      "payable": false,
      "stateMutability": "view",
      "type": "function"
    },
    {
      "constant": true,
      "inputs": [],
      "name": "yearliesCount",
      "outputs": [
        {
          "name": "",
          "type": "uint32"
        }
      ],
      "payable": false,
      "stateMutability": "view",
      "type": "function"
    },
    {
      "constant": true,
      "inputs": [],
      "name": "organizationsCount",
      "outputs": [
        {
          "name": "",
          "type": "uint32"
        }
      ],
      "payable": false,
      "stateMutability": "view",
      "type": "function"
    },
    {
      "constant": true,
      "inputs": [],
      "name": "unitsCount",
      "outputs": [
        {
          "name": "",
          "type": "uint32"
        }
      ],
      "payable": false,
      "stateMutability": "view",
      "type": "function"
    },
    {
      "constant": true,
      "inputs": [],
      "name": "productCostsCount",
      "outputs": [
        {
          "name": "",
          "type": "uint32"
        }
      ],
      "payable": false,
      "stateMutability": "view",
      "type": "function"
    },
    {
      "constant": true,
      "inputs": [
        {
          "name": "",
          "type": "uint32"
        }
      ],
      "name": "productsQuantities",
      "outputs": [
        {
          "name": "id",
          "type": "uint32"
        },
        {
          "name": "quantity",
          "type": "uint32"
        },
        {
          "name": "idPFootPrint",
          "type": "uint32"
        },
        {
          "name": "idM_Activity",
          "type": "uint32"
        }
      ],
      "payable": false,
      "stateMutability": "view",
      "type": "function"
    },
    {
      "constant": true,
      "inputs": [
        {
          "name": "",
          "type": "address"
        }
      ],
      "name": "users",
      "outputs": [
        {
          "name": "user_add",
          "type": "address"
        },
        {
          "name": "tipo",
          "type": "uint16"
        },
        {
          "name": "status",
          "type": "bool"
        },
        {
          "name": "idOrganization",
          "type": "uint32"
        }
      ],
      "payable": false,
      "stateMutability": "view",
      "type": "function"
    },
    {
      "constant": true,
      "inputs": [
        {
          "name": "",
          "type": "uint32"
        }
      ],
      "name": "mfixcosts",
      "outputs": [
        {
          "name": "id",
          "type": "uint32"
        },
        {
          "name": "co2eq",
          "type": "uint32"
        },
        {
          "name": "exp",
          "type": "uint16"
        },
        {
          "name": "description",
          "type": "string"
        },
        {
          "name": "quantity",
          "type": "uint32"
        },
        {
          "name": "month",
          "type": "string"
        },
        {
          "name": "idCostType",
          "type": "uint32"
        },
        {
          "name": "idOrganization",
          "type": "uint32"
        },
        {
          "name": "idYear",
          "type": "uint32"
        }
      ],
      "payable": false,
      "stateMutability": "view",
      "type": "function"
    },
    {
      "constant": true,
      "inputs": [
        {
          "name": "",
          "type": "uint32"
        }
      ],
      "name": "products",
      "outputs": [
        {
          "name": "id",
          "type": "uint32"
        },
        {
          "name": "name",
          "type": "string"
        },
        {
          "name": "description",
          "type": "string"
        },
        {
          "name": "prodUnit",
          "type": "string"
        },
        {
          "name": "intermediate",
          "type": "bool"
        },
        {
          "name": "idOrganization",
          "type": "uint32"
        },
        {
          "name": "idUnit",
          "type": "uint32"
        }
      ],
      "payable": false,
      "stateMutability": "view",
      "type": "function"
    },
    {
      "constant": true,
      "inputs": [
        {
          "name": "",
          "type": "uint256"
        }
      ],
      "name": "arrayUsers",
      "outputs": [
        {
          "name": "",
          "type": "address"
        }
      ],
      "payable": false,
      "stateMutability": "view",
      "type": "function"
    },
    {
      "constant": true,
      "inputs": [],
      "name": "costsTypesCount",
      "outputs": [
        {
          "name": "",
          "type": "uint32"
        }
      ],
      "payable": false,
      "stateMutability": "view",
      "type": "function"
    },
    {
      "constant": true,
      "inputs": [
        {
          "name": "",
          "type": "uint32"
        }
      ],
      "name": "units",
      "outputs": [
        {
          "name": "id",
          "type": "uint32"
        },
        {
          "name": "measure",
          "type": "string"
        },
        {
          "name": "initials",
          "type": "string"
        },
        {
          "name": "base",
          "type": "uint32"
        },
        {
          "name": "exp",
          "type": "uint32"
        },
        {
          "name": "idUnit",
          "type": "uint32"
        },
        {
          "name": "negative",
          "type": "bool"
        }
      ],
      "payable": false,
      "stateMutability": "view",
      "type": "function"
    },
    {
      "constant": true,
      "inputs": [
        {
          "name": "",
          "type": "uint32"
        }
      ],
      "name": "organizations",
      "outputs": [
        {
          "name": "id",
          "type": "uint32"
        },
        {
          "name": "co2eq",
          "type": "uint32"
        },
        {
          "name": "exp",
          "type": "uint16"
        },
        {
          "name": "name",
          "type": "string"
        }
      ],
      "payable": false,
      "stateMutability": "view",
      "type": "function"
    },
    {
      "constant": true,
      "inputs": [],
      "name": "pfootPrintCount",
      "outputs": [
        {
          "name": "",
          "type": "uint32"
        }
      ],
      "payable": false,
      "stateMutability": "view",
      "type": "function"
    },
    {
      "constant": true,
      "inputs": [],
      "name": "productsCount",
      "outputs": [
        {
          "name": "",
          "type": "uint32"
        }
      ],
      "payable": false,
      "stateMutability": "view",
      "type": "function"
    },
    {
      "constant": true,
      "inputs": [],
      "name": "mactivitiesCount",
      "outputs": [
        {
          "name": "",
          "type": "uint32"
        }
      ],
      "payable": false,
      "stateMutability": "view",
      "type": "function"
    },
    {
      "constant": true,
      "inputs": [
        {
          "name": "",
          "type": "uint32"
        }
      ],
      "name": "productCosts",
      "outputs": [
        {
          "name": "id",
          "type": "uint32"
        },
        {
          "name": "co2eq",
          "type": "uint32"
        },
        {
          "name": "exp",
          "type": "uint16"
        },
        {
          "name": "quantity",
          "type": "uint32"
        },
        {
          "name": "idCostType",
          "type": "uint32"
        },
        {
          "name": "idM_Activity",
          "type": "uint32"
        }
      ],
      "payable": false,
      "stateMutability": "view",
      "type": "function"
    },
    {
      "constant": true,
      "inputs": [],
      "name": "mfixcostsCount",
      "outputs": [
        {
          "name": "",
          "type": "uint32"
        }
      ],
      "payable": false,
      "stateMutability": "view",
      "type": "function"
    },
    {
      "inputs": [],
      "payable": false,
      "stateMutability": "nonpayable",
      "type": "constructor"
    },
    {
      "anonymous": false,
      "inputs": [
        {
          "indexed": true,
          "name": "_candidateAddress",
          "type": "address"
        }
      ],
      "name": "registUserEvent",
      "type": "event"
    },
    {
      "constant": true,
      "inputs": [],
      "name": "getUsersCount",
      "outputs": [
        {
          "name": "count",
          "type": "uint256"
        }
      ],
      "payable": false,
      "stateMutability": "view",
      "type": "function"
    },
    {
      "constant": true,
      "inputs": [
        {
          "name": "_add",
          "type": "address"
        }
      ],
      "name": "isNull",
      "outputs": [
        {
          "name": "addressNull",
          "type": "bool"
        }
      ],
      "payable": false,
      "stateMutability": "pure",
      "type": "function"
    },
    {
      "constant": true,
      "inputs": [
        {
          "name": "_org",
          "type": "uint32"
        }
      ],
      "name": "getOrgProducts",
      "outputs": [
        {
          "name": "prods",
          "type": "uint32[]"
        }
      ],
      "payable": false,
      "stateMutability": "view",
      "type": "function"
    },
    {
      "constant": true,
      "inputs": [
        {
          "name": "_org",
          "type": "uint32"
        }
      ],
      "name": "getOrgMactivities",
      "outputs": [
        {
          "name": "m_activities",
          "type": "uint32[]"
        }
      ],
      "payable": false,
      "stateMutability": "view",
      "type": "function"
    },
    {
      "constant": true,
      "inputs": [
        {
          "name": "_org",
          "type": "uint32"
        }
      ],
      "name": "getOrgFixCosts",
      "outputs": [
        {
          "name": "m_fixcosts",
          "type": "uint32[]"
        }
      ],
      "payable": false,
      "stateMutability": "view",
      "type": "function"
    },
    {
      "constant": true,
      "inputs": [
        {
          "name": "_prod",
          "type": "uint32"
        }
      ],
      "name": "getFootPrintsProd",
      "outputs": [
        {
          "name": "footprints",
          "type": "uint32[]"
        }
      ],
      "payable": false,
      "stateMutability": "view",
      "type": "function"
    },
    {
      "constant": false,
      "inputs": [
        {
          "name": "_userResp",
          "type": "address"
        },
        {
          "name": "_user",
          "type": "address"
        },
        {
          "name": "_tipo",
          "type": "uint16"
        },
        {
          "name": "_idOrganization",
          "type": "uint32"
        }
      ],
      "name": "addUser",
      "outputs": [],
      "payable": false,
      "stateMutability": "nonpayable",
      "type": "function"
    },
    {
      "constant": false,
      "inputs": [
        {
          "name": "_userResp",
          "type": "address"
        },
        {
          "name": "_userBlock",
          "type": "address"
        }
      ],
      "name": "blockUser",
      "outputs": [],
      "payable": false,
      "stateMutability": "nonpayable",
      "type": "function"
    },
    {
      "constant": false,
      "inputs": [
        {
          "name": "_userResp",
          "type": "address"
        },
        {
          "name": "_userBlock",
          "type": "address"
        }
      ],
      "name": "unblockUser",
      "outputs": [],
      "payable": false,
      "stateMutability": "nonpayable",
      "type": "function"
    },
    {
      "constant": false,
      "inputs": [
        {
          "name": "_name",
          "type": "string"
        },
        {
          "name": "_products",
          "type": "uint32[]"
        },
        {
          "name": "_m_activities",
          "type": "uint32[]"
        },
        {
          "name": "_m_fixcosts",
          "type": "uint32[]"
        }
      ],
      "name": "addOrganization",
      "outputs": [],
      "payable": false,
      "stateMutability": "nonpayable",
      "type": "function"
    },
    {
      "constant": false,
      "inputs": [
        {
          "name": "_name",
          "type": "string"
        },
        {
          "name": "_description",
          "type": "string"
        },
        {
          "name": "_intermediate",
          "type": "bool"
        },
        {
          "name": "_org",
          "type": "uint32"
        },
        {
          "name": "_unit",
          "type": "uint32"
        },
        {
          "name": "_footPrints",
          "type": "uint32[]"
        }
      ],
      "name": "addProduct",
      "outputs": [],
      "payable": false,
      "stateMutability": "nonpayable",
      "type": "function"
    },
    {
      "constant": false,
      "inputs": [
        {
          "name": "_year",
          "type": "string"
        }
      ],
      "name": "addYear",
      "outputs": [],
      "payable": false,
      "stateMutability": "nonpayable",
      "type": "function"
    },
    {
      "constant": false,
      "inputs": [
        {
          "name": "_co2eq",
          "type": "uint32"
        },
        {
          "name": "_exp",
          "type": "uint16"
        },
        {
          "name": "_idProd",
          "type": "uint32"
        },
        {
          "name": "_idYear",
          "type": "uint32"
        }
      ],
      "name": "addFootPrintProd",
      "outputs": [],
      "payable": false,
      "stateMutability": "nonpayable",
      "type": "function"
    },
    {
      "constant": false,
      "inputs": [
        {
          "name": "_co2",
          "type": "uint32"
        },
        {
          "name": "_exp",
          "type": "uint16"
        },
        {
          "name": "_desc",
          "type": "string"
        },
        {
          "name": "_idUnit",
          "type": "uint32"
        },
        {
          "name": "_fixCosts",
          "type": "uint32[]"
        },
        {
          "name": "_p_costs",
          "type": "uint32[]"
        }
      ],
      "name": "addCostType",
      "outputs": [],
      "payable": false,
      "stateMutability": "nonpayable",
      "type": "function"
    },
    {
      "constant": false,
      "inputs": [
        {
          "name": "_co2eq",
          "type": "uint32"
        },
        {
          "name": "_exp",
          "type": "uint16"
        },
        {
          "name": "_desc",
          "type": "string"
        },
        {
          "name": "_qtd",
          "type": "uint32"
        },
        {
          "name": "_month",
          "type": "string"
        },
        {
          "name": "_idCost",
          "type": "uint32"
        },
        {
          "name": "_idOrg",
          "type": "uint32"
        },
        {
          "name": "_idYear",
          "type": "uint32"
        }
      ],
      "name": "addMonthlyFixCost",
      "outputs": [],
      "payable": false,
      "stateMutability": "nonpayable",
      "type": "function"
    },
    {
      "constant": false,
      "inputs": [
        {
          "name": "_desc",
          "type": "string"
        },
        {
          "name": "_co2eq",
          "type": "uint32"
        },
        {
          "name": "_qtd",
          "type": "uint32"
        },
        {
          "name": "_exp",
          "type": "uint16"
        },
        {
          "name": "_month",
          "type": "string"
        },
        {
          "name": "_prodQuantities",
          "type": "uint32[]"
        },
        {
          "name": "_output",
          "type": "uint32"
        },
        {
          "name": "_idOrg",
          "type": "uint32"
        },
        {
          "name": "_idUnit",
          "type": "uint32"
        },
        {
          "name": "_idYear",
          "type": "uint32"
        }
      ],
      "name": "addMonthlyActivity",
      "outputs": [],
      "payable": false,
      "stateMutability": "nonpayable",
      "type": "function"
    },
    {
      "constant": false,
      "inputs": [
        {
          "name": "_qtd",
          "type": "uint32"
        },
        {
          "name": "_idPfootPrint",
          "type": "uint32"
        },
        {
          "name": "_m_activity",
          "type": "uint32"
        }
      ],
      "name": "addProdQuantity",
      "outputs": [],
      "payable": false,
      "stateMutability": "nonpayable",
      "type": "function"
    },
    {
      "constant": false,
      "inputs": [
        {
          "name": "_idProd",
          "type": "uint32"
        },
        {
          "name": "_idMA",
          "type": "uint32"
        }
      ],
      "name": "updateMonthlyActivity",
      "outputs": [],
      "payable": false,
      "stateMutability": "nonpayable",
      "type": "function"
    },
    {
      "constant": false,
      "inputs": [
        {
          "name": "_org",
          "type": "uint32"
        },
        {
          "name": "_co2eq",
          "type": "uint32"
        },
        {
          "name": "_exp",
          "type": "uint16"
        }
      ],
      "name": "updateCO2org",
      "outputs": [],
      "payable": false,
      "stateMutability": "nonpayable",
      "type": "function"
    },
    {
      "constant": true,
      "inputs": [
        {
          "name": "_user",
          "type": "address"
        }
      ],
      "name": "verifyUser",
      "outputs": [
        {
          "name": "message",
          "type": "string"
        }
      ],
      "payable": false,
      "stateMutability": "view",
      "type": "function"
    }
  ],
  "bytecode": "0x60806040523480156200001157600080fd5b506080604051908101604052803373ffffffffffffffffffffffffffffffffffffffff168152602001600061ffff168152602001600115158152602001600063ffffffff16815250600e60003373ffffffffffffffffffffffffffffffffffffffff1673ffffffffffffffffffffffffffffffffffffffff16815260200190815260200160002060008201518160000160006101000a81548173ffffffffffffffffffffffffffffffffffffffff021916908373ffffffffffffffffffffffffffffffffffffffff16021790555060208201518160000160146101000a81548161ffff021916908361ffff16021790555060408201518160000160166101000a81548160ff02191690831515021790555060608201518160000160176101000a81548163ffffffff021916908363ffffffff160217905550905050600f3390806001815401808255809150509060018203906000526020600020016000909192909190916101000a81548173ffffffffffffffffffffffffffffffffffffffff021916908373ffffffffffffffffffffffffffffffffffffffff160217905550506200023f6040805190810160405280600581526020017f746f6e6e650000000000000000000000000000000000000000000000000000008152506040805190810160405280600181526020017f7400000000000000000000000000000000000000000000000000000000000000815250600a60006001600062000438640100000000026401000000009004565b620002cb6040805190810160405280600881526020017f6b696c6f6772616d0000000000000000000000000000000000000000000000008152506040805190810160405280600281526020017f6b67000000000000000000000000000000000000000000000000000000000000815250600a600360018062000438640100000000026401000000009004565b620003576040805190810160405280600481526020017f6772616d000000000000000000000000000000000000000000000000000000008152506040805190810160405280600181526020017f6700000000000000000000000000000000000000000000000000000000000000815250600a600660018062000438640100000000026401000000009004565b620003e36040805190810160405280600981526020017f6d696c6c696772616d00000000000000000000000000000000000000000000008152506040805190810160405280600281526020017f6d67000000000000000000000000000000000000000000000000000000000000815250600a600960018062000438640100000000026401000000009004565b620004326040805190810160405280600481526020017f32303139000000000000000000000000000000000000000000000000000000008152506200075d640100000000026401000000009004565b620009e4565b6000600e60003373ffffffffffffffffffffffffffffffffffffffff1673ffffffffffffffffffffffffffffffffffffffff16815260200190815260200160002060000160149054906101000a900461ffff1661ffff161415156200052b576040517f08c379a00000000000000000000000000000000000000000000000000000000081526004018080602001828103825260228152602001807f596f75206e65656420746f20686176652061646d696e207065726d697373696f81526020017f6e7300000000000000000000000000000000000000000000000000000000000081525060400191505060405180910390fd5b600d600081819054906101000a900463ffffffff168092919060010191906101000a81548163ffffffff021916908363ffffffff1602179055505060e060405190810160405280600d60009054906101000a900463ffffffff1663ffffffff1681526020018781526020018681526020018563ffffffff1681526020018463ffffffff1681526020018363ffffffff1681526020018215158152505060e060405190810160405280600d60009054906101000a900463ffffffff1663ffffffff1681526020018781526020018681526020018563ffffffff1681526020018463ffffffff1681526020018363ffffffff168152602001821515815250600c6000600d60009054906101000a900463ffffffff1663ffffffff1663ffffffff16815260200190815260200160002060008201518160000160006101000a81548163ffffffff021916908363ffffffff16021790555060208201518160010190805190602001906200069d92919062000935565b506040820151816002019080519060200190620006bc92919062000935565b5060608201518160030160006101000a81548163ffffffff021916908363ffffffff16021790555060808201518160030160046101000a81548163ffffffff021916908363ffffffff16021790555060a08201518160030160086101000a81548163ffffffff021916908363ffffffff16021790555060c082015181600301600c6101000a81548160ff021916908315150217905550905050505050505050565b6000600e60003373ffffffffffffffffffffffffffffffffffffffff1673ffffffffffffffffffffffffffffffffffffffff16815260200190815260200160002060000160149054906101000a900461ffff1661ffff1614151562000850576040517f08c379a00000000000000000000000000000000000000000000000000000000081526004018080602001828103825260228152602001807f596f75206e65656420746f20686176652061646d696e207065726d697373696f81526020017f6e7300000000000000000000000000000000000000000000000000000000000081525060400191505060405180910390fd5b6015600081819054906101000a900463ffffffff168092919060010191906101000a81548163ffffffff021916908363ffffffff160217905550506040805190810160405280601560009054906101000a900463ffffffff1663ffffffff1681526020018281525060146000601560009054906101000a900463ffffffff1663ffffffff1663ffffffff16815260200190815260200160002060008201518160000160006101000a81548163ffffffff021916908363ffffffff16021790555060208201518160010190805190602001906200092e92919062000935565b5090505050565b828054600181600116156101000203166002900490600052602060002090601f016020900481019282601f106200097857805160ff1916838001178555620009a9565b82800160010185558215620009a9579182015b82811115620009a85782518255916020019190600101906200098b565b5b509050620009b89190620009bc565b5090565b620009e191905b80821115620009dd576000816000905550600101620009c3565b5090565b90565b615afb80620009f46000396000f3fe608060405260043610610204576000357c0100000000000000000000000000000000000000000000000000000000900463ffffffff16806301843f74146102095780630be31dc41461029f5780630be48c8d1461033557806326de83c0146104025780632c4d89b6146104395780633bd6d8e3146106265780634a2a7c27146106cf5780634d813120146107d157806353f1799b1461089b57806359987f91146108d25780635c29bc08146109095780635e32e2fe1461094057806367b37dae1461099f5780636aeb9ca1146109f0578063778eb30b14610c745780637a6cf38814610ce55780637ae8869714610d745780638760466c14610dab5780638b86286914610e455780638d40f3031461106357806393d128171461112b578063a4a1e2631461118c578063a87430ba146111b7578063a89215fa14611275578063a8becc6d1461141c578063bf712fd61461167e578063c10da47d14611854578063c5b2db7d14611a12578063ca7cf05414611aa8578063cbedd17b14611b3e578063cd7c044814611bb9578063cfd6dc5914611bf0578063d4676fa414611d6d578063d4dfba9914611f8c578063dd69c5821461207b578063df77a009146120b2578063e0df7bb614612121578063e46fe1cd14612158578063e5bb6575146121c1578063ec4b547d14612232578063ec92319614612269578063f86bc05e14612325575b600080fd5b34801561021557600080fd5b506102486004803603602081101561022c57600080fd5b81019080803563ffffffff16906020019092919050505061235c565b6040518080602001828103825283818151815260200191508051906020019060200280838360005b8381101561028b578082015181840152602081019050610270565b505050509050019250505060405180910390f35b3480156102ab57600080fd5b506102de600480360360208110156102c257600080fd5b81019080803563ffffffff169060200190929190505050612402565b6040518080602001828103825283818151815260200191508051906020019060200280838360005b83811015610321578082015181840152602081019050610306565b505050509050019250505060405180910390f35b34801561034157600080fd5b506103746004803603602081101561035857600080fd5b81019080803563ffffffff1690602001909291905050506124a8565b604051808363ffffffff1663ffffffff16815260200180602001828103825283818151815260200191508051906020019080838360005b838110156103c65780820151818401526020810190506103ab565b50505050905090810190601f1680156103f35780820380516001836020036101000a031916815260200191505b50935050505060405180910390f35b34801561040e57600080fd5b50610417612574565b604051808263ffffffff1663ffffffff16815260200191505060405180910390f35b34801561044557600080fd5b506104786004803603602081101561045c57600080fd5b81019080803563ffffffff16906020019092919050505061258a565b604051808c63ffffffff1663ffffffff168152602001806020018b63ffffffff1663ffffffff1681526020018a63ffffffff1663ffffffff1681526020018961ffff1661ffff168152602001806020018863ffffffff1663ffffffff1681526020018763ffffffff1663ffffffff1681526020018663ffffffff1663ffffffff1681526020018563ffffffff1663ffffffff1681526020018473ffffffffffffffffffffffffffffffffffffffff1673ffffffffffffffffffffffffffffffffffffffff16815260200183810383528d818151815260200191508051906020019080838360005b8381101561057a57808201518184015260208101905061055f565b50505050905090810190601f1680156105a75780820380516001836020036101000a031916815260200191505b50838103825289818151815260200191508051906020019080838360005b838110156105e05780820151818401526020810190506105c5565b50505050905090810190601f16801561060d5780820380516001836020036101000a031916815260200191505b509d505050505050505050505050505060405180910390f35b34801561063257600080fd5b506106656004803603602081101561064957600080fd5b81019080803563ffffffff1690602001909291905050506127b2565b604051808663ffffffff1663ffffffff1681526020018563ffffffff1663ffffffff1681526020018461ffff1661ffff1681526020018363ffffffff1663ffffffff1681526020018263ffffffff1663ffffffff1681526020019550505050505060405180910390f35b3480156106db57600080fd5b5061070e600480360360208110156106f257600080fd5b81019080803563ffffffff169060200190929190505050612836565b604051808663ffffffff1663ffffffff1681526020018563ffffffff1663ffffffff1681526020018461ffff1661ffff168152602001806020018363ffffffff1663ffffffff168152602001828103825284818151815260200191508051906020019080838360005b83811015610792578082015181840152602081019050610777565b50505050905090810190601f1680156107bf5780820380516001836020036101000a031916815260200191505b50965050505050505060405180910390f35b3480156107dd57600080fd5b50610820600480360360208110156107f457600080fd5b81019080803573ffffffffffffffffffffffffffffffffffffffff169060200190929190505050612942565b6040518080602001828103825283818151815260200191508051906020019080838360005b83811015610860578082015181840152602081019050610845565b50505050905090810190601f16801561088d5780820380516001836020036101000a031916815260200191505b509250505060405180910390f35b3480156108a757600080fd5b506108b0612aef565b604051808263ffffffff1663ffffffff16815260200191505060405180910390f35b3480156108de57600080fd5b506108e7612b05565b604051808263ffffffff1663ffffffff16815260200191505060405180910390f35b34801561091557600080fd5b5061091e612b1b565b604051808263ffffffff1663ffffffff16815260200191505060405180910390f35b34801561094c57600080fd5b5061099d6004803603606081101561096357600080fd5b81019080803563ffffffff169060200190929190803563ffffffff169060200190929190803561ffff169060200190929190505050612b31565b005b3480156109ab57600080fd5b506109ee600480360360408110156109c257600080fd5b81019080803563ffffffff169060200190929190803563ffffffff169060200190929190505050612bb4565b005b3480156109fc57600080fd5b50610c7260048036036080811015610a1357600080fd5b8101908080359060200190640100000000811115610a3057600080fd5b820183602082011115610a4257600080fd5b80359060200191846001830284011164010000000083111715610a6457600080fd5b91908080601f016020809104026020016040519081016040528093929190818152602001838380828437600081840152601f19601f82011690508083019250505050505050919291929080359060200190640100000000811115610ac757600080fd5b820183602082011115610ad957600080fd5b80359060200191846020830284011164010000000083111715610afb57600080fd5b919080806020026020016040519081016040528093929190818152602001838360200280828437600081840152601f19601f82011690508083019250505050505050919291929080359060200190640100000000811115610b5b57600080fd5b820183602082011115610b6d57600080fd5b80359060200191846020830284011164010000000083111715610b8f57600080fd5b919080806020026020016040519081016040528093929190818152602001838360200280828437600081840152601f19601f82011690508083019250505050505050919291929080359060200190640100000000811115610bef57600080fd5b820183602082011115610c0157600080fd5b80359060200191846020830284011164010000000083111715610c2357600080fd5b919080806020026020016040519081016040528093929190818152602001838360200280828437600081840152601f19601f820116905080830192505050505050509192919290505050612c29565b005b348015610c8057600080fd5b50610ce360048036036040811015610c9757600080fd5b81019080803573ffffffffffffffffffffffffffffffffffffffff169060200190929190803573ffffffffffffffffffffffffffffffffffffffff169060200190929190505050613138565b005b348015610cf157600080fd5b50610d7260048036036080811015610d0857600080fd5b81019080803573ffffffffffffffffffffffffffffffffffffffff169060200190929190803573ffffffffffffffffffffffffffffffffffffffff169060200190929190803561ffff169060200190929190803563ffffffff169060200190929190505050613289565b005b348015610d8057600080fd5b50610d89613885565b604051808263ffffffff1663ffffffff16815260200191505060405180910390f35b348015610db757600080fd5b50610dea60048036036020811015610dce57600080fd5b81019080803563ffffffff16906020019092919050505061389b565b604051808563ffffffff1663ffffffff1681526020018463ffffffff1663ffffffff1681526020018363ffffffff1663ffffffff1681526020018263ffffffff1663ffffffff16815260200194505050505060405180910390f35b348015610e5157600080fd5b50611061600480360360c0811015610e6857600080fd5b81019080803563ffffffff169060200190929190803561ffff16906020019092919080359060200190640100000000811115610ea357600080fd5b820183602082011115610eb557600080fd5b80359060200191846001830284011164010000000083111715610ed757600080fd5b91908080601f016020809104026020016040519081016040528093929190818152602001838380828437600081840152601f19601f820116905080830192505050505050509192919290803563ffffffff16906020019092919080359060200190640100000000811115610f4a57600080fd5b820183602082011115610f5c57600080fd5b80359060200191846020830284011164010000000083111715610f7e57600080fd5b919080806020026020016040519081016040528093929190818152602001838360200280828437600081840152601f19601f82011690508083019250505050505050919291929080359060200190640100000000811115610fde57600080fd5b820183602082011115610ff057600080fd5b8035906020019184602083028401116401000000008311171561101257600080fd5b919080806020026020016040519081016040528093929190818152602001838360200280828437600081840152601f19601f82011690508083019250505050505050919291929050505061390b565b005b34801561106f57600080fd5b506111296004803603602081101561108657600080fd5b81019080803590602001906401000000008111156110a357600080fd5b8201836020820111156110b557600080fd5b803590602001918460018302840111640100000000831117156110d757600080fd5b91908080601f016020809104026020016040519081016040528093929190818152602001838380828437600081840152601f19601f820116905080830192505050505050509192919290505050613acd565b005b34801561113757600080fd5b5061118a6004803603606081101561114e57600080fd5b81019080803563ffffffff169060200190929190803563ffffffff169060200190929190803563ffffffff169060200190929190505050613ca2565b005b34801561119857600080fd5b506111a1613dfe565b6040518082815260200191505060405180910390f35b3480156111c357600080fd5b50611206600480360360208110156111da57600080fd5b81019080803573ffffffffffffffffffffffffffffffffffffffff169060200190929190505050613e0b565b604051808573ffffffffffffffffffffffffffffffffffffffff1673ffffffffffffffffffffffffffffffffffffffff1681526020018461ffff1661ffff168152602001831515151581526020018263ffffffff1663ffffffff16815260200194505050505060405180910390f35b34801561128157600080fd5b506112b46004803603602081101561129857600080fd5b81019080803563ffffffff169060200190929190505050613e86565b604051808a63ffffffff1663ffffffff1681526020018963ffffffff1663ffffffff1681526020018861ffff1661ffff168152602001806020018763ffffffff1663ffffffff168152602001806020018663ffffffff1663ffffffff1681526020018563ffffffff1663ffffffff1681526020018463ffffffff1663ffffffff168152602001838103835289818151815260200191508051906020019080838360005b83811015611372578082015181840152602081019050611357565b50505050905090810190601f16801561139f5780820380516001836020036101000a031916815260200191505b50838103825287818151815260200191508051906020019080838360005b838110156113d85780820151818401526020810190506113bd565b50505050905090810190601f1680156114055780820380516001836020036101000a031916815260200191505b509b50505050505050505050505060405180910390f35b34801561142857600080fd5b5061167c600480360361014081101561144057600080fd5b810190808035906020019064010000000081111561145d57600080fd5b82018360208201111561146f57600080fd5b8035906020019184600183028401116401000000008311171561149157600080fd5b91908080601f016020809104026020016040519081016040528093929190818152602001838380828437600081840152601f19601f820116905080830192505050505050509192919290803563ffffffff169060200190929190803563ffffffff169060200190929190803561ffff1690602001909291908035906020019064010000000081111561152257600080fd5b82018360208201111561153457600080fd5b8035906020019184600183028401116401000000008311171561155657600080fd5b91908080601f016020809104026020016040519081016040528093929190818152602001838380828437600081840152601f19601f820116905080830192505050505050509192919290803590602001906401000000008111156115b957600080fd5b8201836020820111156115cb57600080fd5b803590602001918460208302840111640100000000831117156115ed57600080fd5b919080806020026020016040519081016040528093929190818152602001838360200280828437600081840152601f19601f820116905080830192505050505050509192919290803563ffffffff169060200190929190803563ffffffff169060200190929190803563ffffffff169060200190929190803563ffffffff169060200190929190505050614072565b005b34801561168a57600080fd5b506116bd600480360360208110156116a157600080fd5b81019080803563ffffffff1690602001909291905050506143ef565b604051808863ffffffff1663ffffffff168152602001806020018060200180602001871515151581526020018663ffffffff1663ffffffff1681526020018563ffffffff1663ffffffff16815260200184810384528a818151815260200191508051906020019080838360005b8381101561174557808201518184015260208101905061172a565b50505050905090810190601f1680156117725780820380516001836020036101000a031916815260200191505b50848103835289818151815260200191508051906020019080838360005b838110156117ab578082015181840152602081019050611790565b50505050905090810190601f1680156117d85780820380516001836020036101000a031916815260200191505b50848103825288818151815260200191508051906020019080838360005b838110156118115780820151818401526020810190506117f6565b50505050905090810190601f16801561183e5780820380516001836020036101000a031916815260200191505b509a505050505050505050505060405180910390f35b34801561186057600080fd5b50611a10600480360361010081101561187857600080fd5b81019080803563ffffffff169060200190929190803561ffff169060200190929190803590602001906401000000008111156118b357600080fd5b8201836020820111156118c557600080fd5b803590602001918460018302840111640100000000831117156118e757600080fd5b91908080601f016020809104026020016040519081016040528093929190818152602001838380828437600081840152601f19601f820116905080830192505050505050509192919290803563ffffffff1690602001909291908035906020019064010000000081111561195a57600080fd5b82018360208201111561196c57600080fd5b8035906020019184600183028401116401000000008311171561198e57600080fd5b91908080601f016020809104026020016040519081016040528093929190818152602001838380828437600081840152601f19601f820116905080830192505050505050509192919290803563ffffffff169060200190929190803563ffffffff169060200190929190803563ffffffff169060200190929190505050614636565b005b348015611a1e57600080fd5b50611a5160048036036020811015611a3557600080fd5b81019080803563ffffffff169060200190929190505050614978565b6040518080602001828103825283818151815260200191508051906020019060200280838360005b83811015611a94578082015181840152602081019050611a79565b505050509050019250505060405180910390f35b348015611ab457600080fd5b50611ae760048036036020811015611acb57600080fd5b81019080803563ffffffff169060200190929190505050614a1e565b6040518080602001828103825283818151815260200191508051906020019060200280838360005b83811015611b2a578082015181840152602081019050611b0f565b505050509050019250505060405180910390f35b348015611b4a57600080fd5b50611b7760048036036020811015611b6157600080fd5b8101908080359060200190929190505050614ac3565b604051808273ffffffffffffffffffffffffffffffffffffffff1673ffffffffffffffffffffffffffffffffffffffff16815260200191505060405180910390f35b348015611bc557600080fd5b50611bce614b01565b604051808263ffffffff1663ffffffff16815260200191505060405180910390f35b348015611bfc57600080fd5b50611c2f60048036036020811015611c1357600080fd5b81019080803563ffffffff169060200190929190505050614b17565b604051808863ffffffff1663ffffffff16815260200180602001806020018763ffffffff1663ffffffff1681526020018663ffffffff1663ffffffff1681526020018563ffffffff1663ffffffff16815260200184151515158152602001838103835289818151815260200191508051906020019080838360005b83811015611cc5578082015181840152602081019050611caa565b50505050905090810190601f168015611cf25780820380516001836020036101000a031916815260200191505b50838103825288818151815260200191508051906020019080838360005b83811015611d2b578082015181840152602081019050611d10565b50505050905090810190601f168015611d585780820380516001836020036101000a031916815260200191505b50995050505050505050505060405180910390f35b348015611d7957600080fd5b50611f8a600480360360c0811015611d9057600080fd5b8101908080359060200190640100000000811115611dad57600080fd5b820183602082011115611dbf57600080fd5b80359060200191846001830284011164010000000083111715611de157600080fd5b91908080601f016020809104026020016040519081016040528093929190818152602001838380828437600081840152601f19601f82011690508083019250505050505050919291929080359060200190640100000000811115611e4457600080fd5b820183602082011115611e5657600080fd5b80359060200191846001830284011164010000000083111715611e7857600080fd5b91908080601f016020809104026020016040519081016040528093929190818152602001838380828437600081840152601f19601f820116905080830192505050505050509192919290803515159060200190929190803563ffffffff169060200190929190803563ffffffff16906020019092919080359060200190640100000000811115611f0757600080fd5b820183602082011115611f1957600080fd5b80359060200191846020830284011164010000000083111715611f3b57600080fd5b919080806020026020016040519081016040528093929190818152602001838360200280828437600081840152601f19601f820116905080830192505050505050509192919290505050614cd6565b005b348015611f9857600080fd5b50611fcb60048036036020811015611faf57600080fd5b81019080803563ffffffff169060200190929190505050615314565b604051808563ffffffff1663ffffffff1681526020018463ffffffff1663ffffffff1681526020018361ffff1661ffff16815260200180602001828103825283818151815260200191508051906020019080838360005b8381101561203d578082015181840152602081019050612022565b50505050905090810190601f16801561206a5780820380516001836020036101000a031916815260200191505b509550505050505060405180910390f35b34801561208757600080fd5b5061209061540a565b604051808263ffffffff1663ffffffff16815260200191505060405180910390f35b3480156120be57600080fd5b5061211f600480360360808110156120d557600080fd5b81019080803563ffffffff169060200190929190803561ffff169060200190929190803563ffffffff169060200190929190803563ffffffff169060200190929190505050615420565b005b34801561212d57600080fd5b506121366156e2565b604051808263ffffffff1663ffffffff16815260200191505060405180910390f35b34801561216457600080fd5b506121a76004803603602081101561217b57600080fd5b81019080803573ffffffffffffffffffffffffffffffffffffffff1690602001909291905050506156f8565b604051808215151515815260200191505060405180910390f35b3480156121cd57600080fd5b50612230600480360360408110156121e457600080fd5b81019080803573ffffffffffffffffffffffffffffffffffffffff169060200190929190803573ffffffffffffffffffffffffffffffffffffffff169060200190929190505050615730565b005b34801561223e57600080fd5b50612247615881565b604051808263ffffffff1663ffffffff16815260200191505060405180910390f35b34801561227557600080fd5b506122a86004803603602081101561228c57600080fd5b81019080803563ffffffff169060200190929190505050615897565b604051808763ffffffff1663ffffffff1681526020018663ffffffff1663ffffffff1681526020018561ffff1661ffff1681526020018463ffffffff1663ffffffff1681526020018363ffffffff1663ffffffff1681526020018263ffffffff1663ffffffff168152602001965050505050505060405180910390f35b34801561233157600080fd5b5061233a615931565b604051808263ffffffff1663ffffffff16815260200191505060405180910390f35b6060600460008363ffffffff1663ffffffff1681526020019081526020016000206002018054806020026020016040519081016040528092919081815260200182805480156123f657602002820191906000526020600020906000905b82829054906101000a900463ffffffff1663ffffffff16815260200190600401906020826003010492830192600103820291508084116123b95790505b50505050509050919050565b6060600460008363ffffffff1663ffffffff16815260200190815260200160002060030180548060200260200160405190810160405280929190818152602001828054801561249c57602002820191906000526020600020906000905b82829054906101000a900463ffffffff1663ffffffff168152602001906004019060208260030104928301926001038202915080841161245f5790505b50505050509050919050565b60146020528060005260406000206000915090508060000160009054906101000a900463ffffffff1690806001018054600181600116156101000203166002900480601f01602080910402602001604051908101604052809291908181526020018280546001816001161561010002031660029004801561256a5780601f1061253f5761010080835404028352916020019161256a565b820191906000526020600020905b81548152906001019060200180831161254d57829003601f168201915b5050505050905082565b601360009054906101000a900463ffffffff1681565b60026020528060005260406000206000915090508060000160009054906101000a900463ffffffff1690806001018054600181600116156101000203166002900480601f01602080910402602001604051908101604052809291908181526020018280546001816001161561010002031660029004801561264c5780601f106126215761010080835404028352916020019161264c565b820191906000526020600020905b81548152906001019060200180831161262f57829003601f168201915b5050505050908060020160009054906101000a900463ffffffff16908060020160049054906101000a900463ffffffff16908060020160089054906101000a900461ffff1690806003018054600181600116156101000203166002900480601f01602080910402602001604051908101604052809291908181526020018280546001816001161561010002031660029004801561272a5780601f106126ff5761010080835404028352916020019161272a565b820191906000526020600020905b81548152906001019060200180831161270d57829003601f168201915b5050505050908060050160009054906101000a900463ffffffff16908060050160049054906101000a900463ffffffff16908060050160089054906101000a900463ffffffff169080600501600c9054906101000a900463ffffffff16908060060160009054906101000a900473ffffffffffffffffffffffffffffffffffffffff1690508b565b60106020528060005260406000206000915090508060000160009054906101000a900463ffffffff16908060000160049054906101000a900463ffffffff16908060000160089054906101000a900461ffff169080600001600a9054906101000a900463ffffffff169080600001600e9054906101000a900463ffffffff16905085565b600a6020528060005260406000206000915090508060000160009054906101000a900463ffffffff16908060000160049054906101000a900463ffffffff16908060000160089054906101000a900461ffff1690806001018054600181600116156101000203166002900480601f0160208091040260200160405190810160405280929190818152602001828054600181600116156101000203166002900480156129225780601f106128f757610100808354040283529160200191612922565b820191906000526020600020905b81548152906001019060200180831161290557829003601f168201915b5050505050908060020160009054906101000a900463ffffffff16905085565b6060600073ffffffffffffffffffffffffffffffffffffffff16600e60008473ffffffffffffffffffffffffffffffffffffffff1673ffffffffffffffffffffffffffffffffffffffff16815260200190815260200160002060000160009054906101000a900473ffffffffffffffffffffffffffffffffffffffff1673ffffffffffffffffffffffffffffffffffffffff161415612a18576040805190810160405280600d81526020017f6e6f745f726567697374726564000000000000000000000000000000000000008152509050612aea565b60001515600e60008473ffffffffffffffffffffffffffffffffffffffff1673ffffffffffffffffffffffffffffffffffffffff16815260200190815260200160002060000160169054906101000a900460ff1615151415612ab1576040805190810160405280600781526020017f626c6f636b6564000000000000000000000000000000000000000000000000008152509050612aea565b6040805190810160405280600281526020017f6f6b00000000000000000000000000000000000000000000000000000000000081525090505b919050565b601560009054906101000a900463ffffffff1681565b600560009054906101000a900463ffffffff1681565b600d60009054906101000a900463ffffffff1681565b81600460008563ffffffff1663ffffffff16815260200190815260200160002060000160046101000a81548163ffffffff021916908363ffffffff16021790555080600460008563ffffffff1663ffffffff16815260200190815260200160002060000160086101000a81548161ffff021916908361ffff160217905550505050565b600260008263ffffffff1663ffffffff16815260200190815260200160002060040182908060018154018082558091505090600182039060005260206000209060089182820401919006600402909192909190916101000a81548163ffffffff021916908363ffffffff160217905550505050565b6000600e60003373ffffffffffffffffffffffffffffffffffffffff1673ffffffffffffffffffffffffffffffffffffffff16815260200190815260200160002060000160149054906101000a900461ffff1661ffff16141515612d1b576040517f08c379a00000000000000000000000000000000000000000000000000000000081526004018080602001828103825260228152602001807f596f75206e65656420746f20686176652061646d696e207065726d697373696f81526020017f6e7300000000000000000000000000000000000000000000000000000000000081525060400191505060405180910390fd5b60008090506000600190505b600560009054906101000a900463ffffffff1663ffffffff168163ffffffff16111515612f0e576060600460008363ffffffff1663ffffffff1681526020019081526020016000206001018054600181600116156101000203166002900480601f016020809104026020016040519081016040528092919081815260200182805460018160011615610100020316600290048015612e065780601f10612ddb57610100808354040283529160200191612e06565b820191906000526020600020905b815481529060010190602001808311612de957829003601f168201915b50505050509050866040516020018082805190602001908083835b602083101515612e465780518252602082019150602081019050602083039250612e21565b6001836020036101000a03801982511681845116808217855250505050505090500191505060405160208183030381529060405280519060200120816040516020018082805190602001908083835b602083101515612eba5780518252602082019150602081019050602083039250612e95565b6001836020036101000a038019825116818451168082178552505050505050905001915050604051602081830303815290604052805190602001201415612f0057600192505b508080600101915050612d27565b5080151515612f85576040517f08c379a000000000000000000000000000000000000000000000000000000000815260040180806020018281038252601e8152602001807f4f7267616e697a6174696f6e20616c726561647920726567697374726564000081525060200191505060405180910390fd5b6005600081819054906101000a900463ffffffff168092919060010191906101000a81548163ffffffff021916908363ffffffff1602179055505060e060405190810160405280600560009054906101000a900463ffffffff1663ffffffff168152602001600063ffffffff168152602001600061ffff1681526020018681526020018581526020018481526020018381525060046000600560009054906101000a900463ffffffff1663ffffffff1663ffffffff16815260200190815260200160002060008201518160000160006101000a81548163ffffffff021916908363ffffffff16021790555060208201518160000160046101000a81548163ffffffff021916908363ffffffff16021790555060408201518160000160086101000a81548161ffff021916908361ffff16021790555060608201518160010190805190602001906130d6929190615947565b5060808201518160020190805190602001906130f39291906159c7565b5060a08201518160030190805190602001906131109291906159c7565b5060c082015181600401908051906020019061312d9291906159c7565b509050505050505050565b6000600e60008473ffffffffffffffffffffffffffffffffffffffff1673ffffffffffffffffffffffffffffffffffffffff16815260200190815260200160002060000160149054906101000a900461ffff1661ffff1614151561322a576040517f08c379a00000000000000000000000000000000000000000000000000000000081526004018080602001828103825260228152602001807f596f75206e65656420746f20686176652061646d696e207065726d697373696f81526020017f6e7300000000000000000000000000000000000000000000000000000000000081525060400191505060405180910390fd5b6001600e60008373ffffffffffffffffffffffffffffffffffffffff1673ffffffffffffffffffffffffffffffffffffffff16815260200190815260200160002060000160166101000a81548160ff0219169083151502179055505050565b600073ffffffffffffffffffffffffffffffffffffffff16600e60008573ffffffffffffffffffffffffffffffffffffffff1673ffffffffffffffffffffffffffffffffffffffff16815260200190815260200160002060000160009054906101000a900473ffffffffffffffffffffffffffffffffffffffff1673ffffffffffffffffffffffffffffffffffffffff1614151561338f576040517f08c379a00000000000000000000000000000000000000000000000000000000081526004018080602001828103825260168152602001807f5573657220616c7265616479207265676973747265640000000000000000000081525060200191505060405180910390fd5b60008261ffff1614806133a6575060018261ffff16145b156134a2576000600e60008673ffffffffffffffffffffffffffffffffffffffff1673ffffffffffffffffffffffffffffffffffffffff16815260200190815260200160002060000160149054906101000a900461ffff1661ffff1614151561349d576040517f08c379a00000000000000000000000000000000000000000000000000000000081526004018080602001828103825260228152602001807f596f75206e65656420746f20686176652061646d696e207065726d697373696f81526020017f6e7300000000000000000000000000000000000000000000000000000000000081525060400191505060405180910390fd5b61369e565b60028261ffff16141561369d576001600e60008673ffffffffffffffffffffffffffffffffffffffff1673ffffffffffffffffffffffffffffffffffffffff16815260200190815260200160002060000160149054906101000a900461ffff1661ffff161415156135a1576040517f08c379a000000000000000000000000000000000000000000000000000000000815260040180806020018281038252602f8152602001807f596f75206e65656420746f2068617665206f7267616e697a6174696f6e20616481526020017f6d696e207065726d697373696f6e73000000000000000000000000000000000081525060400191505060405180910390fd5b8063ffffffff16600e60008673ffffffffffffffffffffffffffffffffffffffff1673ffffffffffffffffffffffffffffffffffffffff16815260200190815260200160002060000160179054906101000a900463ffffffff1663ffffffff1614151561369c576040517f08c379a00000000000000000000000000000000000000000000000000000000081526004018080602001828103825260268152602001807f596f75206e65656420746f2062656c6f6e6720746f20746865206f7267616e6981526020017f7a6174696f6e000000000000000000000000000000000000000000000000000081525060400191505060405180910390fd5b5b5b6080604051908101604052808473ffffffffffffffffffffffffffffffffffffffff1681526020018361ffff1681526020016001151581526020018263ffffffff16815250600e60008573ffffffffffffffffffffffffffffffffffffffff1673ffffffffffffffffffffffffffffffffffffffff16815260200190815260200160002060008201518160000160006101000a81548173ffffffffffffffffffffffffffffffffffffffff021916908373ffffffffffffffffffffffffffffffffffffffff16021790555060208201518160000160146101000a81548161ffff021916908361ffff16021790555060408201518160000160166101000a81548160ff02191690831515021790555060608201518160000160176101000a81548163ffffffff021916908363ffffffff160217905550905050600f8390806001815401808255809150509060018203906000526020600020016000909192909190916101000a81548173ffffffffffffffffffffffffffffffffffffffff021916908373ffffffffffffffffffffffffffffffffffffffff160217905550508273ffffffffffffffffffffffffffffffffffffffff167f7bdb2b3927fb40923bed5ce31134e6f465bc28bcf91ad634338c2eb2398de5fe60405160405180910390a250505050565b600960009054906101000a900463ffffffff1681565b60126020528060005260406000206000915090508060000160009054906101000a900463ffffffff16908060000160049054906101000a900463ffffffff16908060000160089054906101000a900463ffffffff169080600001600c9054906101000a900463ffffffff16905084565b600b600081819054906101000a900463ffffffff168092919060010191906101000a81548163ffffffff021916908363ffffffff1602179055505060e060405190810160405280600b60009054906101000a900463ffffffff1663ffffffff1681526020018763ffffffff1681526020018661ffff1681526020018581526020018463ffffffff16815260200183815260200182815250600a6000600b60009054906101000a900463ffffffff1663ffffffff1663ffffffff16815260200190815260200160002060008201518160000160006101000a81548163ffffffff021916908363ffffffff16021790555060208201518160000160046101000a81548163ffffffff021916908363ffffffff16021790555060408201518160000160086101000a81548161ffff021916908361ffff1602179055506060820151816001019080519060200190613a60929190615947565b5060808201518160020160006101000a81548163ffffffff021916908363ffffffff16021790555060a0820151816003019080519060200190613aa49291906159c7565b5060c0820151816004019080519060200190613ac19291906159c7565b50905050505050505050565b6000600e60003373ffffffffffffffffffffffffffffffffffffffff1673ffffffffffffffffffffffffffffffffffffffff16815260200190815260200160002060000160149054906101000a900461ffff1661ffff16141515613bbf576040517f08c379a00000000000000000000000000000000000000000000000000000000081526004018080602001828103825260228152602001807f596f75206e65656420746f20686176652061646d696e207065726d697373696f81526020017f6e7300000000000000000000000000000000000000000000000000000000000081525060400191505060405180910390fd5b6015600081819054906101000a900463ffffffff168092919060010191906101000a81548163ffffffff021916908363ffffffff160217905550506040805190810160405280601560009054906101000a900463ffffffff1663ffffffff1681526020018281525060146000601560009054906101000a900463ffffffff1663ffffffff1663ffffffff16815260200190815260200160002060008201518160000160006101000a81548163ffffffff021916908363ffffffff1602179055506020820151816001019080519060200190613c9b929190615947565b5090505050565b6013600081819054906101000a900463ffffffff168092919060010191906101000a81548163ffffffff021916908363ffffffff16021790555050608060405190810160405280601360009054906101000a900463ffffffff1663ffffffff1681526020018463ffffffff1681526020018363ffffffff1681526020018263ffffffff1681525060126000601360009054906101000a900463ffffffff1663ffffffff1663ffffffff16815260200190815260200160002060008201518160000160006101000a81548163ffffffff021916908363ffffffff16021790555060208201518160000160046101000a81548163ffffffff021916908363ffffffff16021790555060408201518160000160086101000a81548163ffffffff021916908363ffffffff160217905550606082015181600001600c6101000a81548163ffffffff021916908363ffffffff160217905550905050505050565b6000600f80549050905090565b600e6020528060005260406000206000915090508060000160009054906101000a900473ffffffffffffffffffffffffffffffffffffffff16908060000160149054906101000a900461ffff16908060000160169054906101000a900460ff16908060000160179054906101000a900463ffffffff16905084565b60066020528060005260406000206000915090508060000160009054906101000a900463ffffffff16908060000160049054906101000a900463ffffffff16908060000160089054906101000a900461ffff1690806001018054600181600116156101000203166002900480601f016020809104026020016040519081016040528092919081815260200182805460018160011615610100020316600290048015613f725780601f10613f4757610100808354040283529160200191613f72565b820191906000526020600020905b815481529060010190602001808311613f5557829003601f168201915b5050505050908060020160009054906101000a900463ffffffff1690806003018054600181600116156101000203166002900480601f0160208091040260200160405190810160405280929190818152602001828054600181600116156101000203166002900480156140265780601f10613ffb57610100808354040283529160200191614026565b820191906000526020600020905b81548152906001019060200180831161400957829003601f168201915b5050505050908060040160009054906101000a900463ffffffff16908060040160049054906101000a900463ffffffff16908060040160089054906101000a900463ffffffff16905089565b6003600081819054906101000a900463ffffffff168092919060010191906101000a81548163ffffffff021916908363ffffffff1602179055505061018060405190810160405280600360009054906101000a900463ffffffff1663ffffffff1681526020018b81526020018a63ffffffff1681526020018963ffffffff1681526020018861ffff1681526020018781526020018681526020018563ffffffff1681526020018463ffffffff1681526020018363ffffffff1681526020018263ffffffff1681526020013373ffffffffffffffffffffffffffffffffffffffff1681525060026000600360009054906101000a900463ffffffff1663ffffffff1663ffffffff16815260200190815260200160002060008201518160000160006101000a81548163ffffffff021916908363ffffffff16021790555060208201518160010190805190602001906141ca929190615947565b5060408201518160020160006101000a81548163ffffffff021916908363ffffffff16021790555060608201518160020160046101000a81548163ffffffff021916908363ffffffff16021790555060808201518160020160086101000a81548161ffff021916908361ffff16021790555060a0820151816003019080519060200190614258929190615947565b5060c08201518160040190805190602001906142759291906159c7565b5060e08201518160050160006101000a81548163ffffffff021916908363ffffffff1602179055506101008201518160050160046101000a81548163ffffffff021916908363ffffffff1602179055506101208201518160050160086101000a81548163ffffffff021916908363ffffffff16021790555061014082015181600501600c6101000a81548163ffffffff021916908363ffffffff1602179055506101608201518160060160006101000a81548173ffffffffffffffffffffffffffffffffffffffff021916908373ffffffffffffffffffffffffffffffffffffffff160217905550905050600460008463ffffffff1663ffffffff168152602001908152602001600020600401600360009054906101000a900463ffffffff16908060018154018082558091505090600182039060005260206000209060089182820401919006600402909192909190916101000a81548163ffffffff021916908363ffffffff1602179055505050505050505050505050565b60006020528060005260406000206000915090508060000160009054906101000a900463ffffffff1690806001018054600181600116156101000203166002900480601f0160208091040260200160405190810160405280929190818152602001828054600181600116156101000203166002900480156144b15780601f10614486576101008083540402835291602001916144b1565b820191906000526020600020905b81548152906001019060200180831161449457829003601f168201915b505050505090806002018054600181600116156101000203166002900480601f01602080910402602001604051908101604052809291908181526020018280546001816001161561010002031660029004801561454f5780601f106145245761010080835404028352916020019161454f565b820191906000526020600020905b81548152906001019060200180831161453257829003601f168201915b505050505090806003018054600181600116156101000203166002900480601f0160208091040260200160405190810160405280929190818152602001828054600181600116156101000203166002900480156145ed5780601f106145c2576101008083540402835291602001916145ed565b820191906000526020600020905b8154815290600101906020018083116145d057829003601f168201915b5050505050908060040160009054906101000a900460ff16908060040160019054906101000a900463ffffffff16908060040160059054906101000a900463ffffffff16905087565b6007600081819054906101000a900463ffffffff168092919060010191906101000a81548163ffffffff021916908363ffffffff1602179055505061012060405190810160405280600760009054906101000a900463ffffffff1663ffffffff1681526020018963ffffffff1681526020018861ffff1681526020018781526020018663ffffffff1681526020018581526020018463ffffffff1681526020018363ffffffff1681526020018263ffffffff1681525060066000600760009054906101000a900463ffffffff1663ffffffff1663ffffffff16815260200190815260200160002060008201518160000160006101000a81548163ffffffff021916908363ffffffff16021790555060208201518160000160046101000a81548163ffffffff021916908363ffffffff16021790555060408201518160000160086101000a81548161ffff021916908361ffff16021790555060608201518160010190805190602001906147aa929190615947565b5060808201518160020160006101000a81548163ffffffff021916908363ffffffff16021790555060a08201518160030190805190602001906147ee929190615947565b5060c08201518160040160006101000a81548163ffffffff021916908363ffffffff16021790555060e08201518160040160046101000a81548163ffffffff021916908363ffffffff1602179055506101008201518160040160086101000a81548163ffffffff021916908363ffffffff160217905550905050600a60008463ffffffff1663ffffffff168152602001908152602001600020600301600760009054906101000a900463ffffffff16908060018154018082558091505090600182039060005260206000209060089182820401919006600402909192909190916101000a81548163ffffffff021916908363ffffffff16021790555050600460008363ffffffff1663ffffffff168152602001908152602001600020600401600760009054906101000a900463ffffffff16908060018154018082558091505090600182039060005260206000209060089182820401919006600402909192909190916101000a81548163ffffffff021916908363ffffffff160217905550505050505050505050565b6060600460008363ffffffff1663ffffffff168152602001908152602001600020600401805480602002602001604051908101604052809291908181526020018280548015614a1257602002820191906000526020600020906000905b82829054906101000a900463ffffffff1663ffffffff16815260200190600401906020826003010492830192600103820291508084116149d55790505b50505050509050919050565b60606000808363ffffffff1663ffffffff168152602001908152602001600020600501805480602002602001604051908101604052809291908181526020018280548015614ab757602002820191906000526020600020906000905b82829054906101000a900463ffffffff1663ffffffff1681526020019060040190602082600301049283019260010382029150808411614a7a5790505b50505050509050919050565b600f81815481101515614ad257fe5b906000526020600020016000915054906101000a900473ffffffffffffffffffffffffffffffffffffffff1681565b600b60009054906101000a900463ffffffff1681565b600c6020528060005260406000206000915090508060000160009054906101000a900463ffffffff1690806001018054600181600116156101000203166002900480601f016020809104026020016040519081016040528092919081815260200182805460018160011615610100020316600290048015614bd95780601f10614bae57610100808354040283529160200191614bd9565b820191906000526020600020905b815481529060010190602001808311614bbc57829003601f168201915b505050505090806002018054600181600116156101000203166002900480601f016020809104026020016040519081016040528092919081815260200182805460018160011615610100020316600290048015614c775780601f10614c4c57610100808354040283529160200191614c77565b820191906000526020600020905b815481529060010190602001808311614c5a57829003601f168201915b5050505050908060030160009054906101000a900463ffffffff16908060030160049054906101000a900463ffffffff16908060030160089054906101000a900463ffffffff169080600301600c9054906101000a900460ff16905087565b6000809050600063ffffffff16600460008663ffffffff1663ffffffff16815260200190815260200160002060000160009054906101000a900463ffffffff1663ffffffff1614151515614d92576040517f08c379a000000000000000000000000000000000000000000000000000000000815260040180806020018281038252601a8152602001807f4f7267616e697a6174696f6e20646f65736e277420657869737400000000000081525060200191505060405180910390fd5b6000600190505b600560009054906101000a900463ffffffff1663ffffffff168163ffffffff16111515614f7f5760606000808363ffffffff1663ffffffff1681526020019081526020016000206001018054600181600116156101000203166002900480601f016020809104026020016040519081016040528092919081815260200182805460018160011615610100020316600290048015614e775780601f10614e4c57610100808354040283529160200191614e77565b820191906000526020600020905b815481529060010190602001808311614e5a57829003601f168201915b50505050509050886040516020018082805190602001908083835b602083101515614eb75780518252602082019150602081019050602083039250614e92565b6001836020036101000a03801982511681845116808217855250505050505090500191505060405160208183030381529060405280519060200120816040516020018082805190602001908083835b602083101515614f2b5780518252602082019150602081019050602083039250614f06565b6001836020036101000a038019825116818451168082178552505050505050905001915050604051602081830303815290604052805190602001201415614f7157600192505b508080600101915050614d99565b5080151515614ff6576040517f08c379a00000000000000000000000000000000000000000000000000000000081526004018080602001828103825260198152602001807f50726f6475637420616c7265616479207265676973747265640000000000000081525060200191505060405180910390fd5b6001600081819054906101000a900463ffffffff168092919060010191906101000a81548163ffffffff021916908363ffffffff1602179055505061010060405190810160405280600160009054906101000a900463ffffffff1663ffffffff168152602001888152602001878152602001600c60008663ffffffff1663ffffffff1681526020019081526020016000206002018054600181600116156101000203166002900480601f01602080910402602001604051908101604052809291908181526020018280546001816001161561010002031660029004801561511e5780601f106150f35761010080835404028352916020019161511e565b820191906000526020600020905b81548152906001019060200180831161510157829003601f168201915b5050505050815260200186151581526020018563ffffffff1681526020018463ffffffff16815260200183815250600080600160009054906101000a900463ffffffff1663ffffffff1663ffffffff16815260200190815260200160002060008201518160000160006101000a81548163ffffffff021916908363ffffffff16021790555060208201518160010190805190602001906151bf929190615947565b5060408201518160020190805190602001906151dc929190615947565b5060608201518160030190805190602001906151f9929190615947565b5060808201518160040160006101000a81548160ff02191690831515021790555060a08201518160040160016101000a81548163ffffffff021916908363ffffffff16021790555060c08201518160040160056101000a81548163ffffffff021916908363ffffffff16021790555060e08201518160050190805190602001906152849291906159c7565b50905050600460008563ffffffff1663ffffffff168152602001908152602001600020600201600160009054906101000a900463ffffffff16908060018154018082558091505090600182039060005260206000209060089182820401919006600402909192909190916101000a81548163ffffffff021916908363ffffffff1602179055505050505050505050565b60046020528060005260406000206000915090508060000160009054906101000a900463ffffffff16908060000160049054906101000a900463ffffffff16908060000160089054906101000a900461ffff1690806001018054600181600116156101000203166002900480601f0160208091040260200160405190810160405280929190818152602001828054600181600116156101000203166002900480156154005780601f106153d557610100808354040283529160200191615400565b820191906000526020600020905b8154815290600101906020018083116153e357829003601f168201915b5050505050905084565b601160009054906101000a900463ffffffff1681565b600063ffffffff166000808463ffffffff1663ffffffff16815260200190815260200160002060000160009054906101000a900463ffffffff1663ffffffff16141515156154d6576040517f08c379a00000000000000000000000000000000000000000000000000000000081526004018080602001828103825260158152602001807f50726f6475637420646f65736e2774206578697374000000000000000000000081525060200191505060405180910390fd5b6011600081819054906101000a900463ffffffff168092919060010191906101000a81548163ffffffff021916908363ffffffff1602179055505060a060405190810160405280601160009054906101000a900463ffffffff1663ffffffff1681526020018563ffffffff1681526020018461ffff1681526020018363ffffffff1681526020018263ffffffff1681525060106000601160009054906101000a900463ffffffff1663ffffffff1663ffffffff16815260200190815260200160002060008201518160000160006101000a81548163ffffffff021916908363ffffffff16021790555060208201518160000160046101000a81548163ffffffff021916908363ffffffff16021790555060408201518160000160086101000a81548161ffff021916908361ffff160217905550606082015181600001600a6101000a81548163ffffffff021916908363ffffffff160217905550608082015181600001600e6101000a81548163ffffffff021916908363ffffffff1602179055509050506000808363ffffffff1663ffffffff168152602001908152602001600020600501601160009054906101000a900463ffffffff16908060018154018082558091505090600182039060005260206000209060089182820401919006600402909192909190916101000a81548163ffffffff021916908363ffffffff1602179055505050505050565b600160009054906101000a900463ffffffff1681565b60008073ffffffffffffffffffffffffffffffffffffffff168273ffffffffffffffffffffffffffffffffffffffff16149050919050565b6000600e60008473ffffffffffffffffffffffffffffffffffffffff1673ffffffffffffffffffffffffffffffffffffffff16815260200190815260200160002060000160149054906101000a900461ffff1661ffff16141515615822576040517f08c379a00000000000000000000000000000000000000000000000000000000081526004018080602001828103825260228152602001807f596f75206e65656420746f20686176652061646d696e207065726d697373696f81526020017f6e7300000000000000000000000000000000000000000000000000000000000081525060400191505060405180910390fd5b6000600e60008373ffffffffffffffffffffffffffffffffffffffff1673ffffffffffffffffffffffffffffffffffffffff16815260200190815260200160002060000160166101000a81548160ff0219169083151502179055505050565b600360009054906101000a900463ffffffff1681565b60086020528060005260406000206000915090508060000160009054906101000a900463ffffffff16908060000160049054906101000a900463ffffffff16908060000160089054906101000a900461ffff169080600001600a9054906101000a900463ffffffff169080600001600e9054906101000a900463ffffffff16908060000160129054906101000a900463ffffffff16905086565b600760009054906101000a900463ffffffff1681565b828054600181600116156101000203166002900490600052602060002090601f016020900481019282601f1061598857805160ff19168380011785556159b6565b828001600101855582156159b6579182015b828111156159b557825182559160200191906001019061599a565b5b5090506159c39190615a77565b5090565b82805482825590600052602060002090600701600890048101928215615a665791602002820160005b83821115615a3457835183826101000a81548163ffffffff021916908363ffffffff16021790555092602001926004016020816003010492830192600103026159f0565b8015615a645782816101000a81549063ffffffff0219169055600401602081600301049283019260010302615a34565b505b509050615a739190615a9c565b5090565b615a9991905b80821115615a95576000816000905550600101615a7d565b5090565b90565b615acc91905b80821115615ac857600081816101000a81549063ffffffff021916905550600101615aa2565b5090565b9056fea165627a7a7230582049aab6d5e9c0bb809ccd084f6c6493b7339f833e3c5570fad7b14f6624dcc6c50029",
  "source": "pragma solidity >=0.4.2;\r\n\r\ncontract CarbonFootPrint{\r\n    \r\n    // -- Estrutura dos produtos\r\n    struct Product{\r\n        uint32 id;\r\n        string name;\r\n        string description;\r\n        string prodUnit;\r\n        bool intermediate;\r\n        uint32 idOrganization;\r\n        uint32 idUnit;\r\n        uint32[] productFootPrints;\r\n    }\r\n\r\n    struct ProductFootprint{\r\n        uint32 id;\r\n        uint32 co2eq;\r\n        uint16 exp;\r\n        uint32 idProduct;\r\n        uint32 idYear;\r\n    }\r\n\r\n    struct ProductQuantity{\r\n        uint32 id;\r\n        uint32 quantity;\r\n        uint32 idPFootPrint;\r\n        uint32 idM_Activity;\r\n    }\r\n\r\n\r\n    // -- Estrutura das organizaes\r\n    struct Organization{\r\n        uint32 id;\r\n        uint32 co2eq;\r\n        uint16 exp;\r\n        string name;\r\n        uint32[] products;\r\n        uint32[] m_activities;\r\n        uint32[] m_fixcosts;\r\n    }\r\n\r\n    // -- Estrutura das atividades mensais\r\n    struct MonthlyActivity{\r\n        uint32 id;\r\n        string description;\r\n        uint32 co2eq;\r\n        uint32 finalProductQt;\r\n        uint16 exp;\r\n        string month;\r\n        uint32[] productQuantities; // -- codigo dos produtos de input\r\n        uint32 output; // -- codigo do product foot print de output\r\n        uint32 idOrganization;\r\n        uint32 idUnit;\r\n        uint32 idYear;\r\n        address idUser;\r\n    }\r\n\r\n    // -- Estrutura dos custos fixos mensais\r\n    struct MonthlyFixCost{\r\n        uint32 id;\r\n        uint32 co2eq;\r\n        uint16 exp;\r\n        string description;\r\n        uint32 quantity;\r\n        string month;\r\n        uint32 idCostType;\r\n        uint32 idOrganization;\r\n        uint32 idYear;\r\n    }\r\n\r\n    // -- Estrutura dos custos dos produtos\r\n    struct ProductCost{\r\n        uint32 id;\r\n        uint32 co2eq;\r\n        uint16 exp;\r\n        uint32 quantity;\r\n        uint32 idCostType;\r\n        uint32 idM_Activity;\r\n    }\r\n\r\n    // -- Estrutura do tipo de custo\r\n    struct CostType{\r\n        uint32 id;\r\n        uint32 co2PerUnit;\r\n        uint16 exp;\r\n        string description;\r\n        uint32 idUnit;\r\n        uint32[] m_fixcosts;\r\n        uint32[] products_costs;\r\n    }\r\n\r\n    // -- Estrutura das unidades\r\n    struct Unit{\r\n        uint32 id;\r\n        string measure;\r\n        string initials;\r\n        uint32 base;\r\n        uint32 exp;\r\n        uint32 idUnit;\r\n        bool negative;\r\n    }\r\n\r\n    // -- Users\r\n    struct User{\r\n        address user_add;\r\n        uint16 tipo; // 0 - Admin , 1 - OrgAdmin,  2 - User\r\n        bool status;\r\n        uint32 idOrganization;\r\n    }\r\n\r\n    struct Year{\r\n        uint32 id;\r\n        string year;\r\n    }\r\n\r\n\r\n    // -- Mappings\r\n    mapping(uint32 => Product) public products;\r\n    uint32 public productsCount;\r\n\r\n    mapping(uint32 => MonthlyActivity) public mactivities;\r\n    uint32 public mactivitiesCount;\r\n\r\n    mapping(uint32 => Organization) public organizations;\r\n    uint32 public organizationsCount;\r\n\r\n    mapping(uint32 => MonthlyFixCost) public mfixcosts;\r\n    uint32 public mfixcostsCount;\r\n\r\n    mapping(uint32 => ProductCost) public productCosts;\r\n    uint32 public productCostsCount;\r\n\r\n    mapping(uint32 => CostType) public costsTypes;\r\n    uint32 public costsTypesCount;\r\n\r\n    mapping(uint32 => Unit) public units;\r\n    uint32 public unitsCount;\r\n\r\n    mapping(address => User) public users;\r\n    address[] public arrayUsers;\r\n\r\n    mapping(uint32 => ProductFootprint) public productFootPrints;\r\n    uint32 public pfootPrintCount;\r\n\r\n    mapping(uint32 => ProductQuantity) public productsQuantities;\r\n    uint32 public productsQuantitiesCount;\r\n\r\n    mapping(uint32 => Year) public yearly;\r\n    uint32 public yearliesCount;\r\n\r\n    event registUserEvent (\r\n        address indexed _candidateAddress\r\n    );\r\n\r\n    constructor () public{\r\n        users[msg.sender] = User(msg.sender, 0, true, 0);\r\n        arrayUsers.push(msg.sender);\r\n\r\n        // -- Initalize units\r\n        addUnit(\"tonne\", \"t\", 10, 0, 1, false);\r\n        addUnit(\"kilogram\", \"kg\", 10, 3, 1, true);\r\n        addUnit(\"gram\", \"g\", 10, 6, 1, true);\r\n        addUnit(\"milligram\", \"mg\", 10, 9, 1, true);\r\n\r\n        addYear(\"2019\");\r\n    }\r\n\r\n    function getUsersCount() public view returns(uint count) {\r\n        return arrayUsers.length;\r\n    }\r\n\r\n    function isNull(address _add) public pure returns(bool addressNull){\r\n        return _add == address(0);\r\n    }\r\n\r\n    // -- GETTERS -> organization\r\n    function getOrgProducts(uint32 _org) public view returns(uint32[] memory prods){\r\n        return organizations[_org].products;\r\n    }\r\n\r\n    function getOrgMactivities(uint32 _org) public view returns(uint32[] memory m_activities){\r\n        return organizations[_org].m_activities;\r\n    }\r\n\r\n    function getOrgFixCosts(uint32 _org) public view returns(uint32[] memory m_fixcosts){\r\n        return organizations[_org].m_fixcosts;\r\n    }\r\n\r\n\r\n\r\n    // -- GETTERS -> products\r\n    function getFootPrintsProd(uint32 _prod) public view returns(uint32[] memory footprints){\r\n        return products[_prod].productFootPrints;\r\n    }   \r\n\r\n\r\n\r\n    function addUser (address _userResp,address _user, uint16 _tipo, uint32 _idOrganization) public {\r\n        \r\n        require(users[_user].user_add == address(0), \"User already registred\");\r\n\r\n        if(_tipo == 0 || _tipo == 1){\r\n            require(users[_userResp].tipo == 0, \"You need to have admin permissions\");\r\n        }else if(_tipo == 2){\r\n            require(users[_userResp].tipo == 1 , \"You need to have organization admin permissions\");\r\n            require(users[_userResp].idOrganization == _idOrganization, \"You need to belong to the organization\");\r\n        }\r\n\r\n        users[_user] = User(_user, _tipo, true, _idOrganization);\r\n        arrayUsers.push(_user);\r\n\r\n        emit registUserEvent(_user);\r\n        \r\n    }\r\n\r\n    function blockUser (address _userResp, address _userBlock) public {\r\n\r\n        require(users[_userResp].tipo == 0, \"You need to have admin permissions\");\r\n\r\n        users[_userBlock].status = false;\r\n    }\r\n    \r\n    function unblockUser(address _userResp, address _userBlock) public {\r\n        \r\n        require(users[_userResp].tipo == 0, \"You need to have admin permissions\");\r\n        \r\n        users[_userBlock].status = true;\r\n    }\r\n\r\n    function addUnit(string memory _measure, string memory _initials, uint32 _base, uint32 _exp, uint32 _idUnit,bool _negative) private{\r\n        \r\n        require(users[msg.sender].tipo == 0, \"You need to have admin permissions\");\r\n\r\n        unitsCount++;\r\n        Unit(unitsCount, _measure, _initials, _base, _exp, _idUnit, _negative);\r\n        units[unitsCount] = Unit(unitsCount, _measure, _initials, _base, _exp, _idUnit, _negative);\r\n    }\r\n\r\n    function addOrganization(string memory _name, uint32[] memory _products, uint32[] memory _m_activities, uint32[] memory _m_fixcosts) public {\r\n        require(users[msg.sender].tipo == 0, \"You need to have admin permissions\");\r\n        bool exist = false;\r\n\r\n        for(uint32 i=1; i <= organizationsCount; i++){\r\n            string memory name = organizations[i].name;\r\n            if(keccak256(abi.encodePacked(name)) == keccak256(abi.encodePacked(_name))){\r\n                exist = true;\r\n            }\r\n        }\r\n\r\n        require(!exist, \"Organization already registred\");\r\n\r\n        organizationsCount++;\r\n        organizations[organizationsCount] = Organization(organizationsCount, 0, 0, _name, _products, _m_activities, _m_fixcosts); \r\n    }\r\n\r\n\r\n    function addProduct(string memory _name, string memory _description, \r\n        bool _intermediate, uint32 _org, uint32 _unit, uint32[] memory _footPrints) public{\r\n        \r\n        bool exist = false;        \r\n        //require(users[msg.sender].idOrganization == _org, \"You need to belong to the organization\");\r\n        require(organizations[_org].id != uint32(0), \"Organization doesn't exist\");\r\n\r\n        for(uint32 i=1; i <= organizationsCount; i++){\r\n            string memory name = products[i].name;\r\n            if(keccak256(abi.encodePacked(name)) == keccak256(abi.encodePacked(_name))){\r\n                exist = true;\r\n            }\r\n        }\r\n\r\n        require(!exist, \"Product already registred\");\r\n\r\n\r\n        productsCount++;\r\n        products[productsCount] = Product(productsCount, _name, _description, units[_unit].initials,\r\n            _intermediate, _org, _unit, _footPrints);\r\n        organizations[_org].products.push(productsCount);\r\n\r\n    }\r\n\r\n    function addYear(string memory _year) public {\r\n        require(users[msg.sender].tipo == 0, \"You need to have admin permissions\");        \r\n        yearliesCount++;\r\n        yearly[yearliesCount] = Year(yearliesCount, _year);\r\n    }\r\n\r\n    function addFootPrintProd(uint32 _co2eq, uint16 _exp, uint32 _idProd, uint32 _idYear) public {\r\n        \r\n        //require(users[msg.sender].idOrganization == products[_idProd].idOrganization, \"The product doesnt belong to your organization\");        \r\n        require(products[_idProd].id != uint32(0), \"Product doesn't exist\");\r\n\r\n\r\n        pfootPrintCount++;\r\n        productFootPrints[pfootPrintCount] = ProductFootprint(pfootPrintCount, _co2eq, _exp, _idProd, _idYear);\r\n        products[_idProd].productFootPrints.push(pfootPrintCount);\r\n    }\r\n\r\n    function addCostType(uint32 _co2, uint16 _exp, string memory _desc, uint32 _idUnit, \r\n        uint32[] memory _fixCosts, uint32[] memory _p_costs) public {\r\n\r\n        //require(users[msg.sender].tipo == 0 || users[msg.sender].tipo == 1, \"You need to have admin/org admin permissions\");        \r\n        \r\n\r\n        costsTypesCount++;\r\n        costsTypes[costsTypesCount] = CostType(costsTypesCount, _co2, _exp, _desc, _idUnit, _fixCosts, _p_costs);\r\n    }\r\n\r\n    function addMonthlyFixCost(uint32 _co2eq, uint16 _exp, string memory _desc, uint32 _qtd, \r\n        string memory _month,uint32 _idCost,uint32 _idOrg, uint32 _idYear) public{\r\n\r\n        //require(users[msg.sender].idOrganization == _idOrg, \"You need to belong to the organization\");        \r\n\r\n        mfixcostsCount++;\r\n        mfixcosts[mfixcostsCount] = MonthlyFixCost(mfixcostsCount, _co2eq, _exp, _desc, _qtd, _month, _idCost, _idOrg, _idYear);\r\n        costsTypes[_idCost].m_fixcosts.push(mfixcostsCount);\r\n        organizations[_idOrg].m_fixcosts.push(mfixcostsCount);\r\n    }\r\n\r\n    function addMonthlyActivity(string memory _desc, uint32 _co2eq, uint32 _qtd, uint16 _exp, string memory _month,\r\n        uint32[] memory _prodQuantities, uint32 _output, uint32 _idOrg, uint32 _idUnit, uint32 _idYear) public{\r\n        \r\n        //require(users[msg.sender].idOrganization == _idOrg, \"You need to belong to the organization\");    \r\n\r\n        mactivitiesCount++;\r\n        mactivities[mactivitiesCount] = MonthlyActivity(mactivitiesCount, _desc, _co2eq, _qtd, _exp, _month, _prodQuantities, _output, _idOrg, _idUnit, _idYear, msg.sender);\r\n        organizations[_idOrg].m_fixcosts.push(mactivitiesCount);\r\n    }\r\n\r\n\r\n    function addProdQuantity(uint32 _qtd, uint32 _idPfootPrint, uint32 _m_activity) public{\r\n        productsQuantitiesCount++;\r\n        productsQuantities[productsQuantitiesCount] = ProductQuantity(productsQuantitiesCount, _qtd, _idPfootPrint, _m_activity);\r\n    }\r\n\r\n    function updateMonthlyActivity(uint32 _idProd, uint32 _idMA) public {\r\n        mactivities[_idMA].productQuantities.push(_idProd);\r\n    }\r\n\r\n    function updateCO2org(uint32 _org, uint32 _co2eq, uint16 _exp) public {\r\n        organizations[_org].co2eq = _co2eq;\r\n        organizations[_org].exp = _exp;\r\n    }\r\n\r\n    function verifyUser(address _user) public view returns(string memory message){\r\n        \r\n        if(users[_user].user_add == address(0)){\r\n            return \"not_registred\";\r\n        }else if(users[_user].status == false){\r\n            return \"blocked\";\r\n        }else {\r\n            return \"ok\";\r\n        }\r\n        \r\n    }\r\n}",
  "sourcePath": "C:/Users/Francisco Santos/Desktop/ENG. INFORMTICA/E.I._2018-2019/2_semestre/CarbonFootPrint/contracts/CarbonFootPrint.sol",
  "compiler": {
    "name": "solc",
    "version": "0.5.0+commit.1d4f565a.Emscripten.clang"
  },
  "schemaVersion": "3.0.2",
  "updatedAt": "2019-04-27T08:29:40.587Z",
  "devdoc": {
    "methods": {}
  },
  "userdoc": {
    "methods": {}
  }
}