{
  "contractName": "CarbonFootPrint",
  "abi": [
    {
      "constant": true,
      "inputs": [
        {
          "name": "",
          "type": "uint32"
        }
      ],
      "name": "yearly",
      "outputs": [
        {
          "name": "id",
          "type": "uint32"
        },
        {
          "name": "year",
          "type": "string"
        }
      ],
      "payable": false,
      "stateMutability": "view",
      "type": "function",
      "signature": "0x0be48c8d"
    },
    {
      "constant": true,
      "inputs": [],
      "name": "productsQuantitiesCount",
      "outputs": [
        {
          "name": "",
          "type": "uint32"
        }
      ],
      "payable": false,
      "stateMutability": "view",
      "type": "function",
      "signature": "0x26de83c0"
    },
    {
      "constant": true,
      "inputs": [
        {
          "name": "",
          "type": "uint32"
        }
      ],
      "name": "mactivities",
      "outputs": [
        {
          "name": "id",
          "type": "uint32"
        },
        {
          "name": "description",
          "type": "string"
        },
        {
          "name": "co2eq",
          "type": "uint32"
        },
        {
          "name": "finalProductQt",
          "type": "uint32"
        },
        {
          "name": "exp",
          "type": "uint16"
        },
        {
          "name": "month",
          "type": "string"
        },
        {
          "name": "output",
          "type": "uint32"
        },
        {
          "name": "idOrganization",
          "type": "uint32"
        },
        {
          "name": "idUnit",
          "type": "uint32"
        },
        {
          "name": "idYear",
          "type": "uint32"
        },
        {
          "name": "idUser",
          "type": "address"
        }
      ],
      "payable": false,
      "stateMutability": "view",
      "type": "function",
      "signature": "0x2c4d89b6"
    },
    {
      "constant": true,
      "inputs": [
        {
          "name": "",
          "type": "uint32"
        }
      ],
      "name": "productFootPrints",
      "outputs": [
        {
          "name": "id",
          "type": "uint32"
        },
        {
          "name": "co2eq",
          "type": "uint32"
        },
        {
          "name": "exp",
          "type": "uint16"
        },
        {
          "name": "idProduct",
          "type": "uint32"
        },
        {
          "name": "idYear",
          "type": "uint32"
        }
      ],
      "payable": false,
      "stateMutability": "view",
      "type": "function",
      "signature": "0x3bd6d8e3"
    },
    {
      "constant": true,
      "inputs": [
        {
          "name": "",
          "type": "uint32"
        }
      ],
      "name": "costsTypes",
      "outputs": [
        {
          "name": "id",
          "type": "uint32"
        },
        {
          "name": "co2PerUnit",
          "type": "uint32"
        },
        {
          "name": "exp",
          "type": "uint16"
        },
        {
          "name": "description",
          "type": "string"
        },
        {
          "name": "idUnit",
          "type": "uint32"
        }
      ],
      "payable": false,
      "stateMutability": "view",
      "type": "function",
      "signature": "0x4a2a7c27"
    },
    {
      "constant": true,
      "inputs": [],
      "name": "yearliesCount",
      "outputs": [
        {
          "name": "",
          "type": "uint32"
        }
      ],
      "payable": false,
      "stateMutability": "view",
      "type": "function",
      "signature": "0x53f1799b"
    },
    {
      "constant": true,
      "inputs": [],
      "name": "organizationsCount",
      "outputs": [
        {
          "name": "",
          "type": "uint32"
        }
      ],
      "payable": false,
      "stateMutability": "view",
      "type": "function",
      "signature": "0x59987f91"
    },
    {
      "constant": true,
      "inputs": [],
      "name": "unitsCount",
      "outputs": [
        {
          "name": "",
          "type": "uint32"
        }
      ],
      "payable": false,
      "stateMutability": "view",
      "type": "function",
      "signature": "0x5c29bc08"
    },
    {
      "constant": true,
      "inputs": [],
      "name": "productCostsCount",
      "outputs": [
        {
          "name": "",
          "type": "uint32"
        }
      ],
      "payable": false,
      "stateMutability": "view",
      "type": "function",
      "signature": "0x7ae88697"
    },
    {
      "constant": true,
      "inputs": [
        {
          "name": "",
          "type": "uint32"
        }
      ],
      "name": "productsQuantities",
      "outputs": [
        {
          "name": "id",
          "type": "uint32"
        },
        {
          "name": "quantity",
          "type": "uint32"
        },
        {
          "name": "idPFootPrint",
          "type": "uint32"
        },
        {
          "name": "idM_Activity",
          "type": "uint32"
        }
      ],
      "payable": false,
      "stateMutability": "view",
      "type": "function",
      "signature": "0x8760466c"
    },
    {
      "constant": true,
      "inputs": [
        {
          "name": "",
          "type": "address"
        }
      ],
      "name": "users",
      "outputs": [
        {
          "name": "user_add",
          "type": "address"
        },
        {
          "name": "tipo",
          "type": "uint16"
        },
        {
          "name": "status",
          "type": "bool"
        },
        {
          "name": "idOrganization",
          "type": "uint32"
        }
      ],
      "payable": false,
      "stateMutability": "view",
      "type": "function",
      "signature": "0xa87430ba"
    },
    {
      "constant": true,
      "inputs": [
        {
          "name": "",
          "type": "uint32"
        }
      ],
      "name": "mfixcosts",
      "outputs": [
        {
          "name": "id",
          "type": "uint32"
        },
        {
          "name": "co2eq",
          "type": "uint32"
        },
        {
          "name": "exp",
          "type": "uint16"
        },
        {
          "name": "description",
          "type": "string"
        },
        {
          "name": "quantity",
          "type": "uint32"
        },
        {
          "name": "month",
          "type": "string"
        },
        {
          "name": "idCostType",
          "type": "uint32"
        },
        {
          "name": "idOrganization",
          "type": "uint32"
        },
        {
          "name": "idYear",
          "type": "uint32"
        }
      ],
      "payable": false,
      "stateMutability": "view",
      "type": "function",
      "signature": "0xa89215fa"
    },
    {
      "constant": true,
      "inputs": [
        {
          "name": "",
          "type": "uint32"
        }
      ],
      "name": "products",
      "outputs": [
        {
          "name": "id",
          "type": "uint32"
        },
        {
          "name": "name",
          "type": "string"
        },
        {
          "name": "description",
          "type": "string"
        },
        {
          "name": "prodUnit",
          "type": "string"
        },
        {
          "name": "intermediate",
          "type": "bool"
        },
        {
          "name": "idOrganization",
          "type": "uint32"
        },
        {
          "name": "idUnit",
          "type": "uint32"
        }
      ],
      "payable": false,
      "stateMutability": "view",
      "type": "function",
      "signature": "0xbf712fd6"
    },
    {
      "constant": true,
      "inputs": [
        {
          "name": "",
          "type": "uint256"
        }
      ],
      "name": "arrayUsers",
      "outputs": [
        {
          "name": "",
          "type": "address"
        }
      ],
      "payable": false,
      "stateMutability": "view",
      "type": "function",
      "signature": "0xcbedd17b"
    },
    {
      "constant": true,
      "inputs": [],
      "name": "costsTypesCount",
      "outputs": [
        {
          "name": "",
          "type": "uint32"
        }
      ],
      "payable": false,
      "stateMutability": "view",
      "type": "function",
      "signature": "0xcd7c0448"
    },
    {
      "constant": true,
      "inputs": [
        {
          "name": "",
          "type": "uint32"
        }
      ],
      "name": "units",
      "outputs": [
        {
          "name": "id",
          "type": "uint32"
        },
        {
          "name": "measure",
          "type": "string"
        },
        {
          "name": "initials",
          "type": "string"
        },
        {
          "name": "base",
          "type": "uint32"
        },
        {
          "name": "exp",
          "type": "uint32"
        },
        {
          "name": "idUnit",
          "type": "uint32"
        },
        {
          "name": "negative",
          "type": "bool"
        }
      ],
      "payable": false,
      "stateMutability": "view",
      "type": "function",
      "signature": "0xcfd6dc59"
    },
    {
      "constant": true,
      "inputs": [
        {
          "name": "",
          "type": "uint32"
        }
      ],
      "name": "organizations",
      "outputs": [
        {
          "name": "id",
          "type": "uint32"
        },
        {
          "name": "co2eq",
          "type": "uint32"
        },
        {
          "name": "exp",
          "type": "uint16"
        },
        {
          "name": "name",
          "type": "string"
        }
      ],
      "payable": false,
      "stateMutability": "view",
      "type": "function",
      "signature": "0xd4dfba99"
    },
    {
      "constant": true,
      "inputs": [],
      "name": "pfootPrintCount",
      "outputs": [
        {
          "name": "",
          "type": "uint32"
        }
      ],
      "payable": false,
      "stateMutability": "view",
      "type": "function",
      "signature": "0xdd69c582"
    },
    {
      "constant": true,
      "inputs": [],
      "name": "productsCount",
      "outputs": [
        {
          "name": "",
          "type": "uint32"
        }
      ],
      "payable": false,
      "stateMutability": "view",
      "type": "function",
      "signature": "0xe0df7bb6"
    },
    {
      "constant": true,
      "inputs": [],
      "name": "mactivitiesCount",
      "outputs": [
        {
          "name": "",
          "type": "uint32"
        }
      ],
      "payable": false,
      "stateMutability": "view",
      "type": "function",
      "signature": "0xec4b547d"
    },
    {
      "constant": true,
      "inputs": [
        {
          "name": "",
          "type": "uint32"
        }
      ],
      "name": "productCosts",
      "outputs": [
        {
          "name": "id",
          "type": "uint32"
        },
        {
          "name": "co2eq",
          "type": "uint32"
        },
        {
          "name": "exp",
          "type": "uint16"
        },
        {
          "name": "quantity",
          "type": "uint32"
        },
        {
          "name": "idCostType",
          "type": "uint32"
        },
        {
          "name": "idM_Activity",
          "type": "uint32"
        }
      ],
      "payable": false,
      "stateMutability": "view",
      "type": "function",
      "signature": "0xec923196"
    },
    {
      "constant": true,
      "inputs": [],
      "name": "mfixcostsCount",
      "outputs": [
        {
          "name": "",
          "type": "uint32"
        }
      ],
      "payable": false,
      "stateMutability": "view",
      "type": "function",
      "signature": "0xf86bc05e"
    },
    {
      "inputs": [],
      "payable": false,
      "stateMutability": "nonpayable",
      "type": "constructor",
      "signature": "constructor"
    },
    {
      "anonymous": false,
      "inputs": [
        {
          "indexed": true,
          "name": "_candidateAddress",
          "type": "address"
        }
      ],
      "name": "registUserEvent",
      "type": "event",
      "signature": "0x7bdb2b3927fb40923bed5ce31134e6f465bc28bcf91ad634338c2eb2398de5fe"
    },
    {
      "constant": true,
      "inputs": [],
      "name": "getUsersCount",
      "outputs": [
        {
          "name": "count",
          "type": "uint256"
        }
      ],
      "payable": false,
      "stateMutability": "view",
      "type": "function",
      "signature": "0xa4a1e263"
    },
    {
      "constant": true,
      "inputs": [
        {
          "name": "_add",
          "type": "address"
        }
      ],
      "name": "isNull",
      "outputs": [
        {
          "name": "addressNull",
          "type": "bool"
        }
      ],
      "payable": false,
      "stateMutability": "pure",
      "type": "function",
      "signature": "0xe46fe1cd"
    },
    {
      "constant": true,
      "inputs": [
        {
          "name": "_org",
          "type": "uint32"
        }
      ],
      "name": "getOrgProducts",
      "outputs": [
        {
          "name": "prods",
          "type": "uint32[]"
        }
      ],
      "payable": false,
      "stateMutability": "view",
      "type": "function",
      "signature": "0x01843f74"
    },
    {
      "constant": true,
      "inputs": [
        {
          "name": "_org",
          "type": "uint32"
        }
      ],
      "name": "getOrgMactivities",
      "outputs": [
        {
          "name": "m_activities",
          "type": "uint32[]"
        }
      ],
      "payable": false,
      "stateMutability": "view",
      "type": "function",
      "signature": "0x0be31dc4"
    },
    {
      "constant": true,
      "inputs": [
        {
          "name": "_org",
          "type": "uint32"
        }
      ],
      "name": "getOrgFixCosts",
      "outputs": [
        {
          "name": "m_fixcosts",
          "type": "uint32[]"
        }
      ],
      "payable": false,
      "stateMutability": "view",
      "type": "function",
      "signature": "0xc5b2db7d"
    },
    {
      "constant": true,
      "inputs": [
        {
          "name": "_prod",
          "type": "uint32"
        }
      ],
      "name": "getFootPrintsProd",
      "outputs": [
        {
          "name": "footprints",
          "type": "uint32[]"
        }
      ],
      "payable": false,
      "stateMutability": "view",
      "type": "function",
      "signature": "0xca7cf054"
    },
    {
      "constant": false,
      "inputs": [
        {
          "name": "_userResp",
          "type": "address"
        },
        {
          "name": "_user",
          "type": "address"
        },
        {
          "name": "_tipo",
          "type": "uint16"
        },
        {
          "name": "_idOrganization",
          "type": "uint32"
        }
      ],
      "name": "addUser",
      "outputs": [],
      "payable": false,
      "stateMutability": "nonpayable",
      "type": "function",
      "signature": "0x7a6cf388"
    },
    {
      "constant": false,
      "inputs": [
        {
          "name": "_userResp",
          "type": "address"
        },
        {
          "name": "_userBlock",
          "type": "address"
        }
      ],
      "name": "blockUser",
      "outputs": [],
      "payable": false,
      "stateMutability": "nonpayable",
      "type": "function",
      "signature": "0xe5bb6575"
    },
    {
      "constant": false,
      "inputs": [
        {
          "name": "_name",
          "type": "string"
        },
        {
          "name": "_products",
          "type": "uint32[]"
        },
        {
          "name": "_m_activities",
          "type": "uint32[]"
        },
        {
          "name": "_m_fixcosts",
          "type": "uint32[]"
        }
      ],
      "name": "addOrganization",
      "outputs": [],
      "payable": false,
      "stateMutability": "nonpayable",
      "type": "function",
      "signature": "0x6aeb9ca1"
    },
    {
      "constant": false,
      "inputs": [
        {
          "name": "_name",
          "type": "string"
        },
        {
          "name": "_description",
          "type": "string"
        },
        {
          "name": "_intermediate",
          "type": "bool"
        },
        {
          "name": "_org",
          "type": "uint32"
        },
        {
          "name": "_unit",
          "type": "uint32"
        },
        {
          "name": "_footPrints",
          "type": "uint32[]"
        }
      ],
      "name": "addProduct",
      "outputs": [],
      "payable": false,
      "stateMutability": "nonpayable",
      "type": "function",
      "signature": "0xd4676fa4"
    },
    {
      "constant": false,
      "inputs": [
        {
          "name": "_year",
          "type": "string"
        }
      ],
      "name": "addYear",
      "outputs": [],
      "payable": false,
      "stateMutability": "nonpayable",
      "type": "function",
      "signature": "0x8d40f303"
    },
    {
      "constant": false,
      "inputs": [
        {
          "name": "_co2eq",
          "type": "uint32"
        },
        {
          "name": "_exp",
          "type": "uint16"
        },
        {
          "name": "_idProd",
          "type": "uint32"
        },
        {
          "name": "_idYear",
          "type": "uint32"
        }
      ],
      "name": "addFootPrintProd",
      "outputs": [],
      "payable": false,
      "stateMutability": "nonpayable",
      "type": "function",
      "signature": "0xdf77a009"
    },
    {
      "constant": false,
      "inputs": [
        {
          "name": "_co2",
          "type": "uint32"
        },
        {
          "name": "_exp",
          "type": "uint16"
        },
        {
          "name": "_desc",
          "type": "string"
        },
        {
          "name": "_idUnit",
          "type": "uint32"
        },
        {
          "name": "_fixCosts",
          "type": "uint32[]"
        },
        {
          "name": "_p_costs",
          "type": "uint32[]"
        }
      ],
      "name": "addCostType",
      "outputs": [],
      "payable": false,
      "stateMutability": "nonpayable",
      "type": "function",
      "signature": "0x8b862869"
    },
    {
      "constant": false,
      "inputs": [
        {
          "name": "_co2eq",
          "type": "uint32"
        },
        {
          "name": "_exp",
          "type": "uint16"
        },
        {
          "name": "_desc",
          "type": "string"
        },
        {
          "name": "_qtd",
          "type": "uint32"
        },
        {
          "name": "_month",
          "type": "string"
        },
        {
          "name": "_idCost",
          "type": "uint32"
        },
        {
          "name": "_idOrg",
          "type": "uint32"
        },
        {
          "name": "_idYear",
          "type": "uint32"
        }
      ],
      "name": "addMonthlyFixCost",
      "outputs": [],
      "payable": false,
      "stateMutability": "nonpayable",
      "type": "function",
      "signature": "0xc10da47d"
    },
    {
      "constant": false,
      "inputs": [
        {
          "name": "_desc",
          "type": "string"
        },
        {
          "name": "_co2eq",
          "type": "uint32"
        },
        {
          "name": "_qtd",
          "type": "uint32"
        },
        {
          "name": "_exp",
          "type": "uint16"
        },
        {
          "name": "_month",
          "type": "string"
        },
        {
          "name": "_prodQuantities",
          "type": "uint32[]"
        },
        {
          "name": "_output",
          "type": "uint32"
        },
        {
          "name": "_idOrg",
          "type": "uint32"
        },
        {
          "name": "_idUnit",
          "type": "uint32"
        },
        {
          "name": "_idYear",
          "type": "uint32"
        }
      ],
      "name": "addMonthlyActivity",
      "outputs": [],
      "payable": false,
      "stateMutability": "nonpayable",
      "type": "function",
      "signature": "0xa8becc6d"
    },
    {
      "constant": false,
      "inputs": [
        {
          "name": "_qtd",
          "type": "uint32"
        },
        {
          "name": "_idPfootPrint",
          "type": "uint32"
        },
        {
          "name": "_m_activity",
          "type": "uint32"
        }
      ],
      "name": "addProdQuantity",
      "outputs": [],
      "payable": false,
      "stateMutability": "nonpayable",
      "type": "function",
      "signature": "0x93d12817"
    },
    {
      "constant": false,
      "inputs": [
        {
          "name": "_idProd",
          "type": "uint32"
        },
        {
          "name": "_idMA",
          "type": "uint32"
        }
      ],
      "name": "updateMonthlyActivity",
      "outputs": [],
      "payable": false,
      "stateMutability": "nonpayable",
      "type": "function",
      "signature": "0x67b37dae"
    }
  ],
  "bytecode": "0x60806040523480156200001157600080fd5b506080604051908101604052803373ffffffffffffffffffffffffffffffffffffffff168152602001600061ffff168152602001600115158152602001600063ffffffff16815250600e60003373ffffffffffffffffffffffffffffffffffffffff1673ffffffffffffffffffffffffffffffffffffffff16815260200190815260200160002060008201518160000160006101000a81548173ffffffffffffffffffffffffffffffffffffffff021916908373ffffffffffffffffffffffffffffffffffffffff16021790555060208201518160000160146101000a81548161ffff021916908361ffff16021790555060408201518160000160166101000a81548160ff02191690831515021790555060608201518160000160176101000a81548163ffffffff021916908363ffffffff160217905550905050600f3390806001815401808255809150509060018203906000526020600020016000909192909190916101000a81548173ffffffffffffffffffffffffffffffffffffffff021916908373ffffffffffffffffffffffffffffffffffffffff160217905550506200023f6040805190810160405280600581526020017f746f6e6e650000000000000000000000000000000000000000000000000000008152506040805190810160405280600181526020017f7400000000000000000000000000000000000000000000000000000000000000815250600a60006001600062000438640100000000026401000000009004565b620002cb6040805190810160405280600881526020017f6b696c6f6772616d0000000000000000000000000000000000000000000000008152506040805190810160405280600281526020017f6b67000000000000000000000000000000000000000000000000000000000000815250600a600360018062000438640100000000026401000000009004565b620003576040805190810160405280600481526020017f6772616d000000000000000000000000000000000000000000000000000000008152506040805190810160405280600181526020017f6700000000000000000000000000000000000000000000000000000000000000815250600a600660018062000438640100000000026401000000009004565b620003e36040805190810160405280600981526020017f6d696c6c696772616d00000000000000000000000000000000000000000000008152506040805190810160405280600281526020017f6d67000000000000000000000000000000000000000000000000000000000000815250600a600960018062000438640100000000026401000000009004565b620004326040805190810160405280600481526020017f32303139000000000000000000000000000000000000000000000000000000008152506200075d640100000000026401000000009004565b620009e4565b6000600e60003373ffffffffffffffffffffffffffffffffffffffff1673ffffffffffffffffffffffffffffffffffffffff16815260200190815260200160002060000160149054906101000a900461ffff1661ffff161415156200052b576040517f08c379a00000000000000000000000000000000000000000000000000000000081526004018080602001828103825260228152602001807f596f75206e65656420746f20686176652061646d696e207065726d697373696f81526020017f6e7300000000000000000000000000000000000000000000000000000000000081525060400191505060405180910390fd5b600d600081819054906101000a900463ffffffff168092919060010191906101000a81548163ffffffff021916908363ffffffff1602179055505060e060405190810160405280600d60009054906101000a900463ffffffff1663ffffffff1681526020018781526020018681526020018563ffffffff1681526020018463ffffffff1681526020018363ffffffff1681526020018215158152505060e060405190810160405280600d60009054906101000a900463ffffffff1663ffffffff1681526020018781526020018681526020018563ffffffff1681526020018463ffffffff1681526020018363ffffffff168152602001821515815250600c6000600d60009054906101000a900463ffffffff1663ffffffff1663ffffffff16815260200190815260200160002060008201518160000160006101000a81548163ffffffff021916908363ffffffff16021790555060208201518160010190805190602001906200069d92919062000935565b506040820151816002019080519060200190620006bc92919062000935565b5060608201518160030160006101000a81548163ffffffff021916908363ffffffff16021790555060808201518160030160046101000a81548163ffffffff021916908363ffffffff16021790555060a08201518160030160086101000a81548163ffffffff021916908363ffffffff16021790555060c082015181600301600c6101000a81548160ff021916908315150217905550905050505050505050565b6000600e60003373ffffffffffffffffffffffffffffffffffffffff1673ffffffffffffffffffffffffffffffffffffffff16815260200190815260200160002060000160149054906101000a900461ffff1661ffff1614151562000850576040517f08c379a00000000000000000000000000000000000000000000000000000000081526004018080602001828103825260228152602001807f596f75206e65656420746f20686176652061646d696e207065726d697373696f81526020017f6e7300000000000000000000000000000000000000000000000000000000000081525060400191505060405180910390fd5b6015600081819054906101000a900463ffffffff168092919060010191906101000a81548163ffffffff021916908363ffffffff160217905550506040805190810160405280601560009054906101000a900463ffffffff1663ffffffff1681526020018281525060146000601560009054906101000a900463ffffffff1663ffffffff1663ffffffff16815260200190815260200160002060008201518160000160006101000a81548163ffffffff021916908363ffffffff16021790555060208201518160010190805190602001906200092e92919062000935565b5090505050565b828054600181600116156101000203166002900490600052602060002090601f016020900481019282601f106200097857805160ff1916838001178555620009a9565b82800160010185558215620009a9579182015b82811115620009a85782518255916020019190600101906200098b565b5b509050620009b89190620009bc565b5090565b620009e191905b80821115620009dd576000816000905550600101620009c3565b5090565b90565b6157cd80620009f46000396000f3fe6080604052600436106101e3576000357c0100000000000000000000000000000000000000000000000000000000900463ffffffff16806301843f74146101e85780630be31dc41461027e5780630be48c8d1461031457806326de83c0146103e15780632c4d89b6146104185780633bd6d8e3146106055780634a2a7c27146106ae57806353f1799b146107b057806359987f91146107e75780635c29bc081461081e57806367b37dae146108555780636aeb9ca1146108a65780637a6cf38814610b2a5780637ae8869714610bb95780638760466c14610bf05780638b86286914610c8a5780638d40f30314610ea857806393d1281714610f70578063a4a1e26314610fd1578063a87430ba14610ffc578063a89215fa146110ba578063a8becc6d14611261578063bf712fd6146114c3578063c10da47d14611699578063c5b2db7d14611857578063ca7cf054146118ed578063cbedd17b14611983578063cd7c0448146119fe578063cfd6dc5914611a35578063d4676fa414611bb2578063d4dfba9914611dd1578063dd69c58214611ec0578063df77a00914611ef7578063e0df7bb614611f66578063e46fe1cd14611f9d578063e5bb657514612006578063ec4b547d14612077578063ec923196146120ae578063f86bc05e1461216a575b600080fd5b3480156101f457600080fd5b506102276004803603602081101561020b57600080fd5b81019080803563ffffffff1690602001909291905050506121a1565b6040518080602001828103825283818151815260200191508051906020019060200280838360005b8381101561026a57808201518184015260208101905061024f565b505050509050019250505060405180910390f35b34801561028a57600080fd5b506102bd600480360360208110156102a157600080fd5b81019080803563ffffffff169060200190929190505050612247565b6040518080602001828103825283818151815260200191508051906020019060200280838360005b838110156103005780820151818401526020810190506102e5565b505050509050019250505060405180910390f35b34801561032057600080fd5b506103536004803603602081101561033757600080fd5b81019080803563ffffffff1690602001909291905050506122ed565b604051808363ffffffff1663ffffffff16815260200180602001828103825283818151815260200191508051906020019080838360005b838110156103a557808201518184015260208101905061038a565b50505050905090810190601f1680156103d25780820380516001836020036101000a031916815260200191505b50935050505060405180910390f35b3480156103ed57600080fd5b506103f66123b9565b604051808263ffffffff1663ffffffff16815260200191505060405180910390f35b34801561042457600080fd5b506104576004803603602081101561043b57600080fd5b81019080803563ffffffff1690602001909291905050506123cf565b604051808c63ffffffff1663ffffffff168152602001806020018b63ffffffff1663ffffffff1681526020018a63ffffffff1663ffffffff1681526020018961ffff1661ffff168152602001806020018863ffffffff1663ffffffff1681526020018763ffffffff1663ffffffff1681526020018663ffffffff1663ffffffff1681526020018563ffffffff1663ffffffff1681526020018473ffffffffffffffffffffffffffffffffffffffff1673ffffffffffffffffffffffffffffffffffffffff16815260200183810383528d818151815260200191508051906020019080838360005b8381101561055957808201518184015260208101905061053e565b50505050905090810190601f1680156105865780820380516001836020036101000a031916815260200191505b50838103825289818151815260200191508051906020019080838360005b838110156105bf5780820151818401526020810190506105a4565b50505050905090810190601f1680156105ec5780820380516001836020036101000a031916815260200191505b509d505050505050505050505050505060405180910390f35b34801561061157600080fd5b506106446004803603602081101561062857600080fd5b81019080803563ffffffff1690602001909291905050506125f7565b604051808663ffffffff1663ffffffff1681526020018563ffffffff1663ffffffff1681526020018461ffff1661ffff1681526020018363ffffffff1663ffffffff1681526020018263ffffffff1663ffffffff1681526020019550505050505060405180910390f35b3480156106ba57600080fd5b506106ed600480360360208110156106d157600080fd5b81019080803563ffffffff16906020019092919050505061267b565b604051808663ffffffff1663ffffffff1681526020018563ffffffff1663ffffffff1681526020018461ffff1661ffff168152602001806020018363ffffffff1663ffffffff168152602001828103825284818151815260200191508051906020019080838360005b83811015610771578082015181840152602081019050610756565b50505050905090810190601f16801561079e5780820380516001836020036101000a031916815260200191505b50965050505050505060405180910390f35b3480156107bc57600080fd5b506107c5612787565b604051808263ffffffff1663ffffffff16815260200191505060405180910390f35b3480156107f357600080fd5b506107fc61279d565b604051808263ffffffff1663ffffffff16815260200191505060405180910390f35b34801561082a57600080fd5b506108336127b3565b604051808263ffffffff1663ffffffff16815260200191505060405180910390f35b34801561086157600080fd5b506108a46004803603604081101561087857600080fd5b81019080803563ffffffff169060200190929190803563ffffffff1690602001909291905050506127c9565b005b3480156108b257600080fd5b50610b28600480360360808110156108c957600080fd5b81019080803590602001906401000000008111156108e657600080fd5b8201836020820111156108f857600080fd5b8035906020019184600183028401116401000000008311171561091a57600080fd5b91908080601f016020809104026020016040519081016040528093929190818152602001838380828437600081840152601f19601f8201169050808301925050505050505091929192908035906020019064010000000081111561097d57600080fd5b82018360208201111561098f57600080fd5b803590602001918460208302840111640100000000831117156109b157600080fd5b919080806020026020016040519081016040528093929190818152602001838360200280828437600081840152601f19601f82011690508083019250505050505050919291929080359060200190640100000000811115610a1157600080fd5b820183602082011115610a2357600080fd5b80359060200191846020830284011164010000000083111715610a4557600080fd5b919080806020026020016040519081016040528093929190818152602001838360200280828437600081840152601f19601f82011690508083019250505050505050919291929080359060200190640100000000811115610aa557600080fd5b820183602082011115610ab757600080fd5b80359060200191846020830284011164010000000083111715610ad957600080fd5b919080806020026020016040519081016040528093929190818152602001838360200280828437600081840152601f19601f82011690508083019250505050505050919291929050505061283e565b005b348015610b3657600080fd5b50610bb760048036036080811015610b4d57600080fd5b81019080803573ffffffffffffffffffffffffffffffffffffffff169060200190929190803573ffffffffffffffffffffffffffffffffffffffff169060200190929190803561ffff169060200190929190803563ffffffff169060200190929190505050612d4d565b005b348015610bc557600080fd5b50610bce613450565b604051808263ffffffff1663ffffffff16815260200191505060405180910390f35b348015610bfc57600080fd5b50610c2f60048036036020811015610c1357600080fd5b81019080803563ffffffff169060200190929190505050613466565b604051808563ffffffff1663ffffffff1681526020018463ffffffff1663ffffffff1681526020018363ffffffff1663ffffffff1681526020018263ffffffff1663ffffffff16815260200194505050505060405180910390f35b348015610c9657600080fd5b50610ea6600480360360c0811015610cad57600080fd5b81019080803563ffffffff169060200190929190803561ffff16906020019092919080359060200190640100000000811115610ce857600080fd5b820183602082011115610cfa57600080fd5b80359060200191846001830284011164010000000083111715610d1c57600080fd5b91908080601f016020809104026020016040519081016040528093929190818152602001838380828437600081840152601f19601f820116905080830192505050505050509192919290803563ffffffff16906020019092919080359060200190640100000000811115610d8f57600080fd5b820183602082011115610da157600080fd5b80359060200191846020830284011164010000000083111715610dc357600080fd5b919080806020026020016040519081016040528093929190818152602001838360200280828437600081840152601f19601f82011690508083019250505050505050919291929080359060200190640100000000811115610e2357600080fd5b820183602082011115610e3557600080fd5b80359060200191846020830284011164010000000083111715610e5757600080fd5b919080806020026020016040519081016040528093929190818152602001838360200280828437600081840152601f19601f8201169050808301925050505050505091929192905050506134d6565b005b348015610eb457600080fd5b50610f6e60048036036020811015610ecb57600080fd5b8101908080359060200190640100000000811115610ee857600080fd5b820183602082011115610efa57600080fd5b80359060200191846001830284011164010000000083111715610f1c57600080fd5b91908080601f016020809104026020016040519081016040528093929190818152602001838380828437600081840152601f19601f820116905080830192505050505050509192919290505050613698565b005b348015610f7c57600080fd5b50610fcf60048036036060811015610f9357600080fd5b81019080803563ffffffff169060200190929190803563ffffffff169060200190929190803563ffffffff16906020019092919050505061386d565b005b348015610fdd57600080fd5b50610fe66139c9565b6040518082815260200191505060405180910390f35b34801561100857600080fd5b5061104b6004803603602081101561101f57600080fd5b81019080803573ffffffffffffffffffffffffffffffffffffffff1690602001909291905050506139d6565b604051808573ffffffffffffffffffffffffffffffffffffffff1673ffffffffffffffffffffffffffffffffffffffff1681526020018461ffff1661ffff168152602001831515151581526020018263ffffffff1663ffffffff16815260200194505050505060405180910390f35b3480156110c657600080fd5b506110f9600480360360208110156110dd57600080fd5b81019080803563ffffffff169060200190929190505050613a51565b604051808a63ffffffff1663ffffffff1681526020018963ffffffff1663ffffffff1681526020018861ffff1661ffff168152602001806020018763ffffffff1663ffffffff168152602001806020018663ffffffff1663ffffffff1681526020018563ffffffff1663ffffffff1681526020018463ffffffff1663ffffffff168152602001838103835289818151815260200191508051906020019080838360005b838110156111b757808201518184015260208101905061119c565b50505050905090810190601f1680156111e45780820380516001836020036101000a031916815260200191505b50838103825287818151815260200191508051906020019080838360005b8381101561121d578082015181840152602081019050611202565b50505050905090810190601f16801561124a5780820380516001836020036101000a031916815260200191505b509b50505050505050505050505060405180910390f35b34801561126d57600080fd5b506114c1600480360361014081101561128557600080fd5b81019080803590602001906401000000008111156112a257600080fd5b8201836020820111156112b457600080fd5b803590602001918460018302840111640100000000831117156112d657600080fd5b91908080601f016020809104026020016040519081016040528093929190818152602001838380828437600081840152601f19601f820116905080830192505050505050509192919290803563ffffffff169060200190929190803563ffffffff169060200190929190803561ffff1690602001909291908035906020019064010000000081111561136757600080fd5b82018360208201111561137957600080fd5b8035906020019184600183028401116401000000008311171561139b57600080fd5b91908080601f016020809104026020016040519081016040528093929190818152602001838380828437600081840152601f19601f820116905080830192505050505050509192919290803590602001906401000000008111156113fe57600080fd5b82018360208201111561141057600080fd5b8035906020019184602083028401116401000000008311171561143257600080fd5b919080806020026020016040519081016040528093929190818152602001838360200280828437600081840152601f19601f820116905080830192505050505050509192919290803563ffffffff169060200190929190803563ffffffff169060200190929190803563ffffffff169060200190929190803563ffffffff169060200190929190505050613c3d565b005b3480156114cf57600080fd5b50611502600480360360208110156114e657600080fd5b81019080803563ffffffff169060200190929190505050613fba565b604051808863ffffffff1663ffffffff168152602001806020018060200180602001871515151581526020018663ffffffff1663ffffffff1681526020018563ffffffff1663ffffffff16815260200184810384528a818151815260200191508051906020019080838360005b8381101561158a57808201518184015260208101905061156f565b50505050905090810190601f1680156115b75780820380516001836020036101000a031916815260200191505b50848103835289818151815260200191508051906020019080838360005b838110156115f05780820151818401526020810190506115d5565b50505050905090810190601f16801561161d5780820380516001836020036101000a031916815260200191505b50848103825288818151815260200191508051906020019080838360005b8381101561165657808201518184015260208101905061163b565b50505050905090810190601f1680156116835780820380516001836020036101000a031916815260200191505b509a505050505050505050505060405180910390f35b3480156116a557600080fd5b5061185560048036036101008110156116bd57600080fd5b81019080803563ffffffff169060200190929190803561ffff169060200190929190803590602001906401000000008111156116f857600080fd5b82018360208201111561170a57600080fd5b8035906020019184600183028401116401000000008311171561172c57600080fd5b91908080601f016020809104026020016040519081016040528093929190818152602001838380828437600081840152601f19601f820116905080830192505050505050509192919290803563ffffffff1690602001909291908035906020019064010000000081111561179f57600080fd5b8201836020820111156117b157600080fd5b803590602001918460018302840111640100000000831117156117d357600080fd5b91908080601f016020809104026020016040519081016040528093929190818152602001838380828437600081840152601f19601f820116905080830192505050505050509192919290803563ffffffff169060200190929190803563ffffffff169060200190929190803563ffffffff169060200190929190505050614201565b005b34801561186357600080fd5b506118966004803603602081101561187a57600080fd5b81019080803563ffffffff169060200190929190505050614543565b6040518080602001828103825283818151815260200191508051906020019060200280838360005b838110156118d95780820151818401526020810190506118be565b505050509050019250505060405180910390f35b3480156118f957600080fd5b5061192c6004803603602081101561191057600080fd5b81019080803563ffffffff1690602001909291905050506145e9565b6040518080602001828103825283818151815260200191508051906020019060200280838360005b8381101561196f578082015181840152602081019050611954565b505050509050019250505060405180910390f35b34801561198f57600080fd5b506119bc600480360360208110156119a657600080fd5b810190808035906020019092919050505061468e565b604051808273ffffffffffffffffffffffffffffffffffffffff1673ffffffffffffffffffffffffffffffffffffffff16815260200191505060405180910390f35b348015611a0a57600080fd5b50611a136146cc565b604051808263ffffffff1663ffffffff16815260200191505060405180910390f35b348015611a4157600080fd5b50611a7460048036036020811015611a5857600080fd5b81019080803563ffffffff1690602001909291905050506146e2565b604051808863ffffffff1663ffffffff16815260200180602001806020018763ffffffff1663ffffffff1681526020018663ffffffff1663ffffffff1681526020018563ffffffff1663ffffffff16815260200184151515158152602001838103835289818151815260200191508051906020019080838360005b83811015611b0a578082015181840152602081019050611aef565b50505050905090810190601f168015611b375780820380516001836020036101000a031916815260200191505b50838103825288818151815260200191508051906020019080838360005b83811015611b70578082015181840152602081019050611b55565b50505050905090810190601f168015611b9d5780820380516001836020036101000a031916815260200191505b50995050505050505050505060405180910390f35b348015611bbe57600080fd5b50611dcf600480360360c0811015611bd557600080fd5b8101908080359060200190640100000000811115611bf257600080fd5b820183602082011115611c0457600080fd5b80359060200191846001830284011164010000000083111715611c2657600080fd5b91908080601f016020809104026020016040519081016040528093929190818152602001838380828437600081840152601f19601f82011690508083019250505050505050919291929080359060200190640100000000811115611c8957600080fd5b820183602082011115611c9b57600080fd5b80359060200191846001830284011164010000000083111715611cbd57600080fd5b91908080601f016020809104026020016040519081016040528093929190818152602001838380828437600081840152601f19601f820116905080830192505050505050509192919290803515159060200190929190803563ffffffff169060200190929190803563ffffffff16906020019092919080359060200190640100000000811115611d4c57600080fd5b820183602082011115611d5e57600080fd5b80359060200191846020830284011164010000000083111715611d8057600080fd5b919080806020026020016040519081016040528093929190818152602001838360200280828437600081840152601f19601f8201169050808301925050505050505091929192905050506148a1565b005b348015611ddd57600080fd5b50611e1060048036036020811015611df457600080fd5b81019080803563ffffffff169060200190929190505050614edf565b604051808563ffffffff1663ffffffff1681526020018463ffffffff1663ffffffff1681526020018361ffff1661ffff16815260200180602001828103825283818151815260200191508051906020019080838360005b83811015611e82578082015181840152602081019050611e67565b50505050905090810190601f168015611eaf5780820380516001836020036101000a031916815260200191505b509550505050505060405180910390f35b348015611ecc57600080fd5b50611ed5614fd5565b604051808263ffffffff1663ffffffff16815260200191505060405180910390f35b348015611f0357600080fd5b50611f6460048036036080811015611f1a57600080fd5b81019080803563ffffffff169060200190929190803561ffff169060200190929190803563ffffffff169060200190929190803563ffffffff169060200190929190505050614feb565b005b348015611f7257600080fd5b50611f7b6152ad565b604051808263ffffffff1663ffffffff16815260200191505060405180910390f35b348015611fa957600080fd5b50611fec60048036036020811015611fc057600080fd5b81019080803573ffffffffffffffffffffffffffffffffffffffff1690602001909291905050506152c3565b604051808215151515815260200191505060405180910390f35b34801561201257600080fd5b506120756004803603604081101561202957600080fd5b81019080803573ffffffffffffffffffffffffffffffffffffffff169060200190929190803573ffffffffffffffffffffffffffffffffffffffff1690602001909291905050506152fb565b005b34801561208357600080fd5b5061208c615553565b604051808263ffffffff1663ffffffff16815260200191505060405180910390f35b3480156120ba57600080fd5b506120ed600480360360208110156120d157600080fd5b81019080803563ffffffff169060200190929190505050615569565b604051808763ffffffff1663ffffffff1681526020018663ffffffff1663ffffffff1681526020018561ffff1661ffff1681526020018463ffffffff1663ffffffff1681526020018363ffffffff1663ffffffff1681526020018263ffffffff1663ffffffff168152602001965050505050505060405180910390f35b34801561217657600080fd5b5061217f615603565b604051808263ffffffff1663ffffffff16815260200191505060405180910390f35b6060600460008363ffffffff1663ffffffff16815260200190815260200160002060020180548060200260200160405190810160405280929190818152602001828054801561223b57602002820191906000526020600020906000905b82829054906101000a900463ffffffff1663ffffffff16815260200190600401906020826003010492830192600103820291508084116121fe5790505b50505050509050919050565b6060600460008363ffffffff1663ffffffff1681526020019081526020016000206003018054806020026020016040519081016040528092919081815260200182805480156122e157602002820191906000526020600020906000905b82829054906101000a900463ffffffff1663ffffffff16815260200190600401906020826003010492830192600103820291508084116122a45790505b50505050509050919050565b60146020528060005260406000206000915090508060000160009054906101000a900463ffffffff1690806001018054600181600116156101000203166002900480601f0160208091040260200160405190810160405280929190818152602001828054600181600116156101000203166002900480156123af5780601f10612384576101008083540402835291602001916123af565b820191906000526020600020905b81548152906001019060200180831161239257829003601f168201915b5050505050905082565b601360009054906101000a900463ffffffff1681565b60026020528060005260406000206000915090508060000160009054906101000a900463ffffffff1690806001018054600181600116156101000203166002900480601f0160208091040260200160405190810160405280929190818152602001828054600181600116156101000203166002900480156124915780601f1061246657610100808354040283529160200191612491565b820191906000526020600020905b81548152906001019060200180831161247457829003601f168201915b5050505050908060020160009054906101000a900463ffffffff16908060020160049054906101000a900463ffffffff16908060020160089054906101000a900461ffff1690806003018054600181600116156101000203166002900480601f01602080910402602001604051908101604052809291908181526020018280546001816001161561010002031660029004801561256f5780601f106125445761010080835404028352916020019161256f565b820191906000526020600020905b81548152906001019060200180831161255257829003601f168201915b5050505050908060050160009054906101000a900463ffffffff16908060050160049054906101000a900463ffffffff16908060050160089054906101000a900463ffffffff169080600501600c9054906101000a900463ffffffff16908060060160009054906101000a900473ffffffffffffffffffffffffffffffffffffffff1690508b565b60106020528060005260406000206000915090508060000160009054906101000a900463ffffffff16908060000160049054906101000a900463ffffffff16908060000160089054906101000a900461ffff169080600001600a9054906101000a900463ffffffff169080600001600e9054906101000a900463ffffffff16905085565b600a6020528060005260406000206000915090508060000160009054906101000a900463ffffffff16908060000160049054906101000a900463ffffffff16908060000160089054906101000a900461ffff1690806001018054600181600116156101000203166002900480601f0160208091040260200160405190810160405280929190818152602001828054600181600116156101000203166002900480156127675780601f1061273c57610100808354040283529160200191612767565b820191906000526020600020905b81548152906001019060200180831161274a57829003601f168201915b5050505050908060020160009054906101000a900463ffffffff16905085565b601560009054906101000a900463ffffffff1681565b600560009054906101000a900463ffffffff1681565b600d60009054906101000a900463ffffffff1681565b600260008263ffffffff1663ffffffff16815260200190815260200160002060040182908060018154018082558091505090600182039060005260206000209060089182820401919006600402909192909190916101000a81548163ffffffff021916908363ffffffff160217905550505050565b6000600e60003373ffffffffffffffffffffffffffffffffffffffff1673ffffffffffffffffffffffffffffffffffffffff16815260200190815260200160002060000160149054906101000a900461ffff1661ffff16141515612930576040517f08c379a00000000000000000000000000000000000000000000000000000000081526004018080602001828103825260228152602001807f596f75206e65656420746f20686176652061646d696e207065726d697373696f81526020017f6e7300000000000000000000000000000000000000000000000000000000000081525060400191505060405180910390fd5b60008090506000600190505b600560009054906101000a900463ffffffff1663ffffffff168163ffffffff16111515612b23576060600460008363ffffffff1663ffffffff1681526020019081526020016000206001018054600181600116156101000203166002900480601f016020809104026020016040519081016040528092919081815260200182805460018160011615610100020316600290048015612a1b5780601f106129f057610100808354040283529160200191612a1b565b820191906000526020600020905b8154815290600101906020018083116129fe57829003601f168201915b50505050509050866040516020018082805190602001908083835b602083101515612a5b5780518252602082019150602081019050602083039250612a36565b6001836020036101000a03801982511681845116808217855250505050505090500191505060405160208183030381529060405280519060200120816040516020018082805190602001908083835b602083101515612acf5780518252602082019150602081019050602083039250612aaa565b6001836020036101000a038019825116818451168082178552505050505050905001915050604051602081830303815290604052805190602001201415612b1557600192505b50808060010191505061293c565b5080151515612b9a576040517f08c379a000000000000000000000000000000000000000000000000000000000815260040180806020018281038252601e8152602001807f4f7267616e697a6174696f6e20616c726561647920726567697374726564000081525060200191505060405180910390fd5b6005600081819054906101000a900463ffffffff168092919060010191906101000a81548163ffffffff021916908363ffffffff1602179055505060e060405190810160405280600560009054906101000a900463ffffffff1663ffffffff168152602001600063ffffffff168152602001600061ffff1681526020018681526020018581526020018481526020018381525060046000600560009054906101000a900463ffffffff1663ffffffff1663ffffffff16815260200190815260200160002060008201518160000160006101000a81548163ffffffff021916908363ffffffff16021790555060208201518160000160046101000a81548163ffffffff021916908363ffffffff16021790555060408201518160000160086101000a81548161ffff021916908361ffff1602179055506060820151816001019080519060200190612ceb929190615619565b506080820151816002019080519060200190612d08929190615699565b5060a0820151816003019080519060200190612d25929190615699565b5060c0820151816004019080519060200190612d42929190615699565b509050505050505050565b600073ffffffffffffffffffffffffffffffffffffffff16600e60008673ffffffffffffffffffffffffffffffffffffffff1673ffffffffffffffffffffffffffffffffffffffff16815260200190815260200160002060000160009054906101000a900473ffffffffffffffffffffffffffffffffffffffff1673ffffffffffffffffffffffffffffffffffffffff1614151515612e54576040517f08c379a00000000000000000000000000000000000000000000000000000000081526004018080602001828103825260158152602001807f55736572206973206e6f7420726567697374726564000000000000000000000081525060200191505060405180910390fd5b600073ffffffffffffffffffffffffffffffffffffffff16600e60008573ffffffffffffffffffffffffffffffffffffffff1673ffffffffffffffffffffffffffffffffffffffff16815260200190815260200160002060000160009054906101000a900473ffffffffffffffffffffffffffffffffffffffff1673ffffffffffffffffffffffffffffffffffffffff16141515612f5a576040517f08c379a00000000000000000000000000000000000000000000000000000000081526004018080602001828103825260168152602001807f5573657220616c7265616479207265676973747265640000000000000000000081525060200191505060405180910390fd5b60008261ffff161480612f71575060018261ffff16145b1561306d576000600e60008673ffffffffffffffffffffffffffffffffffffffff1673ffffffffffffffffffffffffffffffffffffffff16815260200190815260200160002060000160149054906101000a900461ffff1661ffff16141515613068576040517f08c379a00000000000000000000000000000000000000000000000000000000081526004018080602001828103825260228152602001807f596f75206e65656420746f20686176652061646d696e207065726d697373696f81526020017f6e7300000000000000000000000000000000000000000000000000000000000081525060400191505060405180910390fd5b613269565b60028261ffff161415613268576001600e60008673ffffffffffffffffffffffffffffffffffffffff1673ffffffffffffffffffffffffffffffffffffffff16815260200190815260200160002060000160149054906101000a900461ffff1661ffff1614151561316c576040517f08c379a000000000000000000000000000000000000000000000000000000000815260040180806020018281038252602f8152602001807f596f75206e65656420746f2068617665206f7267616e697a6174696f6e20616481526020017f6d696e207065726d697373696f6e73000000000000000000000000000000000081525060400191505060405180910390fd5b8063ffffffff16600e60008673ffffffffffffffffffffffffffffffffffffffff1673ffffffffffffffffffffffffffffffffffffffff16815260200190815260200160002060000160179054906101000a900463ffffffff1663ffffffff16141515613267576040517f08c379a00000000000000000000000000000000000000000000000000000000081526004018080602001828103825260268152602001807f596f75206e65656420746f2062656c6f6e6720746f20746865206f7267616e6981526020017f7a6174696f6e000000000000000000000000000000000000000000000000000081525060400191505060405180910390fd5b5b5b6080604051908101604052808473ffffffffffffffffffffffffffffffffffffffff1681526020018361ffff1681526020016001151581526020018263ffffffff16815250600e60008573ffffffffffffffffffffffffffffffffffffffff1673ffffffffffffffffffffffffffffffffffffffff16815260200190815260200160002060008201518160000160006101000a81548173ffffffffffffffffffffffffffffffffffffffff021916908373ffffffffffffffffffffffffffffffffffffffff16021790555060208201518160000160146101000a81548161ffff021916908361ffff16021790555060408201518160000160166101000a81548160ff02191690831515021790555060608201518160000160176101000a81548163ffffffff021916908363ffffffff160217905550905050600f8390806001815401808255809150509060018203906000526020600020016000909192909190916101000a81548173ffffffffffffffffffffffffffffffffffffffff021916908373ffffffffffffffffffffffffffffffffffffffff160217905550508273ffffffffffffffffffffffffffffffffffffffff167f7bdb2b3927fb40923bed5ce31134e6f465bc28bcf91ad634338c2eb2398de5fe60405160405180910390a250505050565b600960009054906101000a900463ffffffff1681565b60126020528060005260406000206000915090508060000160009054906101000a900463ffffffff16908060000160049054906101000a900463ffffffff16908060000160089054906101000a900463ffffffff169080600001600c9054906101000a900463ffffffff16905084565b600b600081819054906101000a900463ffffffff168092919060010191906101000a81548163ffffffff021916908363ffffffff1602179055505060e060405190810160405280600b60009054906101000a900463ffffffff1663ffffffff1681526020018763ffffffff1681526020018661ffff1681526020018581526020018463ffffffff16815260200183815260200182815250600a6000600b60009054906101000a900463ffffffff1663ffffffff1663ffffffff16815260200190815260200160002060008201518160000160006101000a81548163ffffffff021916908363ffffffff16021790555060208201518160000160046101000a81548163ffffffff021916908363ffffffff16021790555060408201518160000160086101000a81548161ffff021916908361ffff160217905550606082015181600101908051906020019061362b929190615619565b5060808201518160020160006101000a81548163ffffffff021916908363ffffffff16021790555060a082015181600301908051906020019061366f929190615699565b5060c082015181600401908051906020019061368c929190615699565b50905050505050505050565b6000600e60003373ffffffffffffffffffffffffffffffffffffffff1673ffffffffffffffffffffffffffffffffffffffff16815260200190815260200160002060000160149054906101000a900461ffff1661ffff1614151561378a576040517f08c379a00000000000000000000000000000000000000000000000000000000081526004018080602001828103825260228152602001807f596f75206e65656420746f20686176652061646d696e207065726d697373696f81526020017f6e7300000000000000000000000000000000000000000000000000000000000081525060400191505060405180910390fd5b6015600081819054906101000a900463ffffffff168092919060010191906101000a81548163ffffffff021916908363ffffffff160217905550506040805190810160405280601560009054906101000a900463ffffffff1663ffffffff1681526020018281525060146000601560009054906101000a900463ffffffff1663ffffffff1663ffffffff16815260200190815260200160002060008201518160000160006101000a81548163ffffffff021916908363ffffffff1602179055506020820151816001019080519060200190613866929190615619565b5090505050565b6013600081819054906101000a900463ffffffff168092919060010191906101000a81548163ffffffff021916908363ffffffff16021790555050608060405190810160405280601360009054906101000a900463ffffffff1663ffffffff1681526020018463ffffffff1681526020018363ffffffff1681526020018263ffffffff1681525060126000601360009054906101000a900463ffffffff1663ffffffff1663ffffffff16815260200190815260200160002060008201518160000160006101000a81548163ffffffff021916908363ffffffff16021790555060208201518160000160046101000a81548163ffffffff021916908363ffffffff16021790555060408201518160000160086101000a81548163ffffffff021916908363ffffffff160217905550606082015181600001600c6101000a81548163ffffffff021916908363ffffffff160217905550905050505050565b6000600f80549050905090565b600e6020528060005260406000206000915090508060000160009054906101000a900473ffffffffffffffffffffffffffffffffffffffff16908060000160149054906101000a900461ffff16908060000160169054906101000a900460ff16908060000160179054906101000a900463ffffffff16905084565b60066020528060005260406000206000915090508060000160009054906101000a900463ffffffff16908060000160049054906101000a900463ffffffff16908060000160089054906101000a900461ffff1690806001018054600181600116156101000203166002900480601f016020809104026020016040519081016040528092919081815260200182805460018160011615610100020316600290048015613b3d5780601f10613b1257610100808354040283529160200191613b3d565b820191906000526020600020905b815481529060010190602001808311613b2057829003601f168201915b5050505050908060020160009054906101000a900463ffffffff1690806003018054600181600116156101000203166002900480601f016020809104026020016040519081016040528092919081815260200182805460018160011615610100020316600290048015613bf15780601f10613bc657610100808354040283529160200191613bf1565b820191906000526020600020905b815481529060010190602001808311613bd457829003601f168201915b5050505050908060040160009054906101000a900463ffffffff16908060040160049054906101000a900463ffffffff16908060040160089054906101000a900463ffffffff16905089565b6003600081819054906101000a900463ffffffff168092919060010191906101000a81548163ffffffff021916908363ffffffff1602179055505061018060405190810160405280600360009054906101000a900463ffffffff1663ffffffff1681526020018b81526020018a63ffffffff1681526020018963ffffffff1681526020018861ffff1681526020018781526020018681526020018563ffffffff1681526020018463ffffffff1681526020018363ffffffff1681526020018263ffffffff1681526020013373ffffffffffffffffffffffffffffffffffffffff1681525060026000600360009054906101000a900463ffffffff1663ffffffff1663ffffffff16815260200190815260200160002060008201518160000160006101000a81548163ffffffff021916908363ffffffff1602179055506020820151816001019080519060200190613d95929190615619565b5060408201518160020160006101000a81548163ffffffff021916908363ffffffff16021790555060608201518160020160046101000a81548163ffffffff021916908363ffffffff16021790555060808201518160020160086101000a81548161ffff021916908361ffff16021790555060a0820151816003019080519060200190613e23929190615619565b5060c0820151816004019080519060200190613e40929190615699565b5060e08201518160050160006101000a81548163ffffffff021916908363ffffffff1602179055506101008201518160050160046101000a81548163ffffffff021916908363ffffffff1602179055506101208201518160050160086101000a81548163ffffffff021916908363ffffffff16021790555061014082015181600501600c6101000a81548163ffffffff021916908363ffffffff1602179055506101608201518160060160006101000a81548173ffffffffffffffffffffffffffffffffffffffff021916908373ffffffffffffffffffffffffffffffffffffffff160217905550905050600460008463ffffffff1663ffffffff168152602001908152602001600020600401600360009054906101000a900463ffffffff16908060018154018082558091505090600182039060005260206000209060089182820401919006600402909192909190916101000a81548163ffffffff021916908363ffffffff1602179055505050505050505050505050565b60006020528060005260406000206000915090508060000160009054906101000a900463ffffffff1690806001018054600181600116156101000203166002900480601f01602080910402602001604051908101604052809291908181526020018280546001816001161561010002031660029004801561407c5780601f106140515761010080835404028352916020019161407c565b820191906000526020600020905b81548152906001019060200180831161405f57829003601f168201915b505050505090806002018054600181600116156101000203166002900480601f01602080910402602001604051908101604052809291908181526020018280546001816001161561010002031660029004801561411a5780601f106140ef5761010080835404028352916020019161411a565b820191906000526020600020905b8154815290600101906020018083116140fd57829003601f168201915b505050505090806003018054600181600116156101000203166002900480601f0160208091040260200160405190810160405280929190818152602001828054600181600116156101000203166002900480156141b85780601f1061418d576101008083540402835291602001916141b8565b820191906000526020600020905b81548152906001019060200180831161419b57829003601f168201915b5050505050908060040160009054906101000a900460ff16908060040160019054906101000a900463ffffffff16908060040160059054906101000a900463ffffffff16905087565b6007600081819054906101000a900463ffffffff168092919060010191906101000a81548163ffffffff021916908363ffffffff1602179055505061012060405190810160405280600760009054906101000a900463ffffffff1663ffffffff1681526020018963ffffffff1681526020018861ffff1681526020018781526020018663ffffffff1681526020018581526020018463ffffffff1681526020018363ffffffff1681526020018263ffffffff1681525060066000600760009054906101000a900463ffffffff1663ffffffff1663ffffffff16815260200190815260200160002060008201518160000160006101000a81548163ffffffff021916908363ffffffff16021790555060208201518160000160046101000a81548163ffffffff021916908363ffffffff16021790555060408201518160000160086101000a81548161ffff021916908361ffff1602179055506060820151816001019080519060200190614375929190615619565b5060808201518160020160006101000a81548163ffffffff021916908363ffffffff16021790555060a08201518160030190805190602001906143b9929190615619565b5060c08201518160040160006101000a81548163ffffffff021916908363ffffffff16021790555060e08201518160040160046101000a81548163ffffffff021916908363ffffffff1602179055506101008201518160040160086101000a81548163ffffffff021916908363ffffffff160217905550905050600a60008463ffffffff1663ffffffff168152602001908152602001600020600301600760009054906101000a900463ffffffff16908060018154018082558091505090600182039060005260206000209060089182820401919006600402909192909190916101000a81548163ffffffff021916908363ffffffff16021790555050600460008363ffffffff1663ffffffff168152602001908152602001600020600401600760009054906101000a900463ffffffff16908060018154018082558091505090600182039060005260206000209060089182820401919006600402909192909190916101000a81548163ffffffff021916908363ffffffff160217905550505050505050505050565b6060600460008363ffffffff1663ffffffff1681526020019081526020016000206004018054806020026020016040519081016040528092919081815260200182805480156145dd57602002820191906000526020600020906000905b82829054906101000a900463ffffffff1663ffffffff16815260200190600401906020826003010492830192600103820291508084116145a05790505b50505050509050919050565b60606000808363ffffffff1663ffffffff16815260200190815260200160002060050180548060200260200160405190810160405280929190818152602001828054801561468257602002820191906000526020600020906000905b82829054906101000a900463ffffffff1663ffffffff16815260200190600401906020826003010492830192600103820291508084116146455790505b50505050509050919050565b600f8181548110151561469d57fe5b906000526020600020016000915054906101000a900473ffffffffffffffffffffffffffffffffffffffff1681565b600b60009054906101000a900463ffffffff1681565b600c6020528060005260406000206000915090508060000160009054906101000a900463ffffffff1690806001018054600181600116156101000203166002900480601f0160208091040260200160405190810160405280929190818152602001828054600181600116156101000203166002900480156147a45780601f10614779576101008083540402835291602001916147a4565b820191906000526020600020905b81548152906001019060200180831161478757829003601f168201915b505050505090806002018054600181600116156101000203166002900480601f0160208091040260200160405190810160405280929190818152602001828054600181600116156101000203166002900480156148425780601f1061481757610100808354040283529160200191614842565b820191906000526020600020905b81548152906001019060200180831161482557829003601f168201915b5050505050908060030160009054906101000a900463ffffffff16908060030160049054906101000a900463ffffffff16908060030160089054906101000a900463ffffffff169080600301600c9054906101000a900460ff16905087565b6000809050600063ffffffff16600460008663ffffffff1663ffffffff16815260200190815260200160002060000160009054906101000a900463ffffffff1663ffffffff161415151561495d576040517f08c379a000000000000000000000000000000000000000000000000000000000815260040180806020018281038252601a8152602001807f4f7267616e697a6174696f6e20646f65736e277420657869737400000000000081525060200191505060405180910390fd5b6000600190505b600560009054906101000a900463ffffffff1663ffffffff168163ffffffff16111515614b4a5760606000808363ffffffff1663ffffffff1681526020019081526020016000206001018054600181600116156101000203166002900480601f016020809104026020016040519081016040528092919081815260200182805460018160011615610100020316600290048015614a425780601f10614a1757610100808354040283529160200191614a42565b820191906000526020600020905b815481529060010190602001808311614a2557829003601f168201915b50505050509050886040516020018082805190602001908083835b602083101515614a825780518252602082019150602081019050602083039250614a5d565b6001836020036101000a03801982511681845116808217855250505050505090500191505060405160208183030381529060405280519060200120816040516020018082805190602001908083835b602083101515614af65780518252602082019150602081019050602083039250614ad1565b6001836020036101000a038019825116818451168082178552505050505050905001915050604051602081830303815290604052805190602001201415614b3c57600192505b508080600101915050614964565b5080151515614bc1576040517f08c379a00000000000000000000000000000000000000000000000000000000081526004018080602001828103825260198152602001807f50726f6475637420616c7265616479207265676973747265640000000000000081525060200191505060405180910390fd5b6001600081819054906101000a900463ffffffff168092919060010191906101000a81548163ffffffff021916908363ffffffff1602179055505061010060405190810160405280600160009054906101000a900463ffffffff1663ffffffff168152602001888152602001878152602001600c60008663ffffffff1663ffffffff1681526020019081526020016000206002018054600181600116156101000203166002900480601f016020809104026020016040519081016040528092919081815260200182805460018160011615610100020316600290048015614ce95780601f10614cbe57610100808354040283529160200191614ce9565b820191906000526020600020905b815481529060010190602001808311614ccc57829003601f168201915b5050505050815260200186151581526020018563ffffffff1681526020018463ffffffff16815260200183815250600080600160009054906101000a900463ffffffff1663ffffffff1663ffffffff16815260200190815260200160002060008201518160000160006101000a81548163ffffffff021916908363ffffffff1602179055506020820151816001019080519060200190614d8a929190615619565b506040820151816002019080519060200190614da7929190615619565b506060820151816003019080519060200190614dc4929190615619565b5060808201518160040160006101000a81548160ff02191690831515021790555060a08201518160040160016101000a81548163ffffffff021916908363ffffffff16021790555060c08201518160040160056101000a81548163ffffffff021916908363ffffffff16021790555060e0820151816005019080519060200190614e4f929190615699565b50905050600460008563ffffffff1663ffffffff168152602001908152602001600020600201600160009054906101000a900463ffffffff16908060018154018082558091505090600182039060005260206000209060089182820401919006600402909192909190916101000a81548163ffffffff021916908363ffffffff1602179055505050505050505050565b60046020528060005260406000206000915090508060000160009054906101000a900463ffffffff16908060000160049054906101000a900463ffffffff16908060000160089054906101000a900461ffff1690806001018054600181600116156101000203166002900480601f016020809104026020016040519081016040528092919081815260200182805460018160011615610100020316600290048015614fcb5780601f10614fa057610100808354040283529160200191614fcb565b820191906000526020600020905b815481529060010190602001808311614fae57829003601f168201915b5050505050905084565b601160009054906101000a900463ffffffff1681565b600063ffffffff166000808463ffffffff1663ffffffff16815260200190815260200160002060000160009054906101000a900463ffffffff1663ffffffff16141515156150a1576040517f08c379a00000000000000000000000000000000000000000000000000000000081526004018080602001828103825260158152602001807f50726f6475637420646f65736e2774206578697374000000000000000000000081525060200191505060405180910390fd5b6011600081819054906101000a900463ffffffff168092919060010191906101000a81548163ffffffff021916908363ffffffff1602179055505060a060405190810160405280601160009054906101000a900463ffffffff1663ffffffff1681526020018563ffffffff1681526020018461ffff1681526020018363ffffffff1681526020018263ffffffff1681525060106000601160009054906101000a900463ffffffff1663ffffffff1663ffffffff16815260200190815260200160002060008201518160000160006101000a81548163ffffffff021916908363ffffffff16021790555060208201518160000160046101000a81548163ffffffff021916908363ffffffff16021790555060408201518160000160086101000a81548161ffff021916908361ffff160217905550606082015181600001600a6101000a81548163ffffffff021916908363ffffffff160217905550608082015181600001600e6101000a81548163ffffffff021916908363ffffffff1602179055509050506000808363ffffffff1663ffffffff168152602001908152602001600020600501601160009054906101000a900463ffffffff16908060018154018082558091505090600182039060005260206000209060089182820401919006600402909192909190916101000a81548163ffffffff021916908363ffffffff1602179055505050505050565b600160009054906101000a900463ffffffff1681565b60008073ffffffffffffffffffffffffffffffffffffffff168273ffffffffffffffffffffffffffffffffffffffff16149050919050565b600073ffffffffffffffffffffffffffffffffffffffff16600e60008473ffffffffffffffffffffffffffffffffffffffff1673ffffffffffffffffffffffffffffffffffffffff16815260200190815260200160002060000160009054906101000a900473ffffffffffffffffffffffffffffffffffffffff1673ffffffffffffffffffffffffffffffffffffffff1614151515615402576040517f08c379a00000000000000000000000000000000000000000000000000000000081526004018080602001828103825260158152602001807f55736572206973206e6f7420726567697374726564000000000000000000000081525060200191505060405180910390fd5b6000600e60008473ffffffffffffffffffffffffffffffffffffffff1673ffffffffffffffffffffffffffffffffffffffff16815260200190815260200160002060000160149054906101000a900461ffff1661ffff161415156154f4576040517f08c379a00000000000000000000000000000000000000000000000000000000081526004018080602001828103825260228152602001807f596f75206e65656420746f20686176652061646d696e207065726d697373696f81526020017f6e7300000000000000000000000000000000000000000000000000000000000081525060400191505060405180910390fd5b6000600e60008373ffffffffffffffffffffffffffffffffffffffff1673ffffffffffffffffffffffffffffffffffffffff16815260200190815260200160002060000160166101000a81548160ff0219169083151502179055505050565b600360009054906101000a900463ffffffff1681565b60086020528060005260406000206000915090508060000160009054906101000a900463ffffffff16908060000160049054906101000a900463ffffffff16908060000160089054906101000a900461ffff169080600001600a9054906101000a900463ffffffff169080600001600e9054906101000a900463ffffffff16908060000160129054906101000a900463ffffffff16905086565b600760009054906101000a900463ffffffff1681565b828054600181600116156101000203166002900490600052602060002090601f016020900481019282601f1061565a57805160ff1916838001178555615688565b82800160010185558215615688579182015b8281111561568757825182559160200191906001019061566c565b5b5090506156959190615749565b5090565b828054828255906000526020600020906007016008900481019282156157385791602002820160005b8382111561570657835183826101000a81548163ffffffff021916908363ffffffff16021790555092602001926004016020816003010492830192600103026156c2565b80156157365782816101000a81549063ffffffff0219169055600401602081600301049283019260010302615706565b505b509050615745919061576e565b5090565b61576b91905b8082111561576757600081600090555060010161574f565b5090565b90565b61579e91905b8082111561579a57600081816101000a81549063ffffffff021916905550600101615774565b5090565b9056fea165627a7a72305820234a9a5a9433933ff78892656651b204018161c052cc10341cb8b863c50de7530029",
  "source": "pragma solidity >=0.4.2;\r\n\r\ncontract CarbonFootPrint{\r\n    \r\n    // -- Estrutura dos produtos\r\n    struct Product{\r\n        uint32 id;\r\n        string name;\r\n        string description;\r\n        string prodUnit;\r\n        bool intermediate;\r\n        uint32 idOrganization;\r\n        uint32 idUnit;\r\n        uint32[] productFootPrints;\r\n    }\r\n\r\n    struct ProductFootprint{\r\n        uint32 id;\r\n        uint32 co2eq;\r\n        uint16 exp;\r\n        uint32 idProduct;\r\n        uint32 idYear;\r\n    }\r\n\r\n    struct ProductQuantity{\r\n        uint32 id;\r\n        uint32 quantity;\r\n        uint32 idPFootPrint;\r\n        uint32 idM_Activity;\r\n    }\r\n\r\n\r\n    // -- Estrutura das organizaes\r\n    struct Organization{\r\n        uint32 id;\r\n        uint32 co2eq;\r\n        uint16 exp;\r\n        string name;\r\n        uint32[] products;\r\n        uint32[] m_activities;\r\n        uint32[] m_fixcosts;\r\n    }\r\n\r\n    // -- Estrutura das atividades mensais\r\n    struct MonthlyActivity{\r\n        uint32 id;\r\n        string description;\r\n        uint32 co2eq;\r\n        uint32 finalProductQt;\r\n        uint16 exp;\r\n        string month;\r\n        uint32[] productQuantities; // -- codigo dos produtos de input\r\n        uint32 output; // -- codigo do product foot print de output\r\n        uint32 idOrganization;\r\n        uint32 idUnit;\r\n        uint32 idYear;\r\n        address idUser;\r\n    }\r\n\r\n    // -- Estrutura dos custos fixos mensais\r\n    struct MonthlyFixCost{\r\n        uint32 id;\r\n        uint32 co2eq;\r\n        uint16 exp;\r\n        string description;\r\n        uint32 quantity;\r\n        string month;\r\n        uint32 idCostType;\r\n        uint32 idOrganization;\r\n        uint32 idYear;\r\n    }\r\n\r\n    // -- Estrutura dos custos dos produtos\r\n    struct ProductCost{\r\n        uint32 id;\r\n        uint32 co2eq;\r\n        uint16 exp;\r\n        uint32 quantity;\r\n        uint32 idCostType;\r\n        uint32 idM_Activity;\r\n    }\r\n\r\n    // -- Estrutura do tipo de custo\r\n    struct CostType{\r\n        uint32 id;\r\n        uint32 co2PerUnit;\r\n        uint16 exp;\r\n        string description;\r\n        uint32 idUnit;\r\n        uint32[] m_fixcosts;\r\n        uint32[] products_costs;\r\n    }\r\n\r\n    // -- Estrutura das unidades\r\n    struct Unit{\r\n        uint32 id;\r\n        string measure;\r\n        string initials;\r\n        uint32 base;\r\n        uint32 exp;\r\n        uint32 idUnit;\r\n        bool negative;\r\n    }\r\n\r\n    // -- Users\r\n    struct User{\r\n        address user_add;\r\n        uint16 tipo; // 0 - Admin , 1 - OrgAdmin,  2 - User\r\n        bool status;\r\n        uint32 idOrganization;\r\n    }\r\n\r\n    struct Year{\r\n        uint32 id;\r\n        string year;\r\n    }\r\n\r\n\r\n    // -- Mappings\r\n    mapping(uint32 => Product) public products;\r\n    uint32 public productsCount;\r\n\r\n    mapping(uint32 => MonthlyActivity) public mactivities;\r\n    uint32 public mactivitiesCount;\r\n\r\n    mapping(uint32 => Organization) public organizations;\r\n    uint32 public organizationsCount;\r\n\r\n    mapping(uint32 => MonthlyFixCost) public mfixcosts;\r\n    uint32 public mfixcostsCount;\r\n\r\n    mapping(uint32 => ProductCost) public productCosts;\r\n    uint32 public productCostsCount;\r\n\r\n    mapping(uint32 => CostType) public costsTypes;\r\n    uint32 public costsTypesCount;\r\n\r\n    mapping(uint32 => Unit) public units;\r\n    uint32 public unitsCount;\r\n\r\n    mapping(address => User) public users;\r\n    address[] public arrayUsers;\r\n\r\n    mapping(uint32 => ProductFootprint) public productFootPrints;\r\n    uint32 public pfootPrintCount;\r\n\r\n    mapping(uint32 => ProductQuantity) public productsQuantities;\r\n    uint32 public productsQuantitiesCount;\r\n\r\n    mapping(uint32 => Year) public yearly;\r\n    uint32 public yearliesCount;\r\n\r\n    event registUserEvent (\r\n        address indexed _candidateAddress\r\n    );\r\n\r\n    constructor () public{\r\n        users[msg.sender] = User(msg.sender, 0, true, 0);\r\n        arrayUsers.push(msg.sender);\r\n\r\n        // -- Initalize units\r\n        addUnit(\"tonne\", \"t\", 10, 0, 1, false);\r\n        addUnit(\"kilogram\", \"kg\", 10, 3, 1, true);\r\n        addUnit(\"gram\", \"g\", 10, 6, 1, true);\r\n        addUnit(\"milligram\", \"mg\", 10, 9, 1, true);\r\n\r\n        addYear(\"2019\");\r\n    }\r\n\r\n    function getUsersCount() public view returns(uint count) {\r\n        return arrayUsers.length;\r\n    }\r\n\r\n    function isNull(address _add) public pure returns(bool addressNull){\r\n        return _add == address(0);\r\n    }\r\n\r\n    // -- GETTERS -> organization\r\n    function getOrgProducts(uint32 _org) public view returns(uint32[] memory prods){\r\n        return organizations[_org].products;\r\n    }\r\n\r\n    function getOrgMactivities(uint32 _org) public view returns(uint32[] memory m_activities){\r\n        return organizations[_org].m_activities;\r\n    }\r\n\r\n    function getOrgFixCosts(uint32 _org) public view returns(uint32[] memory m_fixcosts){\r\n        return organizations[_org].m_fixcosts;\r\n    }\r\n\r\n\r\n\r\n    // -- GETTERS -> products\r\n    function getFootPrintsProd(uint32 _prod) public view returns(uint32[] memory footprints){\r\n        return products[_prod].productFootPrints;\r\n    }   \r\n\r\n\r\n\r\n    function addUser (address _userResp,address _user, uint16 _tipo, uint32 _idOrganization) public {\r\n        \r\n        require(users[_userResp].user_add != address(0), \"User is not registred\");\r\n        require(users[_user].user_add == address(0), \"User already registred\");\r\n\r\n        if(_tipo == 0 || _tipo == 1){\r\n            require(users[_userResp].tipo == 0, \"You need to have admin permissions\");\r\n        }else if(_tipo == 2){\r\n            require(users[_userResp].tipo == 1 , \"You need to have organization admin permissions\");\r\n            require(users[_userResp].idOrganization == _idOrganization, \"You need to belong to the organization\");\r\n        }\r\n\r\n        users[_user] = User(_user, _tipo, true, _idOrganization);\r\n        arrayUsers.push(_user);\r\n\r\n        emit registUserEvent(_user);\r\n        \r\n    }\r\n\r\n    function blockUser (address _userResp, address _userBlock) public {\r\n\r\n        require(users[_userResp].user_add != address(0), \"User is not registred\");\r\n        require(users[_userResp].tipo == 0, \"You need to have admin permissions\");\r\n\r\n        users[_userBlock].status = false;\r\n    }\r\n\r\n    function addUnit(string memory _measure, string memory _initials, uint32 _base, uint32 _exp, uint32 _idUnit,bool _negative) private{\r\n        \r\n        require(users[msg.sender].tipo == 0, \"You need to have admin permissions\");\r\n\r\n        unitsCount++;\r\n        Unit(unitsCount, _measure, _initials, _base, _exp, _idUnit, _negative);\r\n        units[unitsCount] = Unit(unitsCount, _measure, _initials, _base, _exp, _idUnit, _negative);\r\n    }\r\n\r\n    function addOrganization(string memory _name, uint32[] memory _products, uint32[] memory _m_activities, uint32[] memory _m_fixcosts) public {\r\n        require(users[msg.sender].tipo == 0, \"You need to have admin permissions\");\r\n        bool exist = false;\r\n\r\n        for(uint32 i=1; i <= organizationsCount; i++){\r\n            string memory name = organizations[i].name;\r\n            if(keccak256(abi.encodePacked(name)) == keccak256(abi.encodePacked(_name))){\r\n                exist = true;\r\n            }\r\n        }\r\n\r\n        require(!exist, \"Organization already registred\");\r\n\r\n        organizationsCount++;\r\n        organizations[organizationsCount] = Organization(organizationsCount, 0, 0, _name, _products, _m_activities, _m_fixcosts); \r\n    }\r\n\r\n    function addProduct(string memory _name, string memory _description, \r\n        bool _intermediate, uint32 _org, uint32 _unit, uint32[] memory _footPrints) public{\r\n        \r\n        bool exist = false;        \r\n        //require(users[msg.sender].idOrganization == _org, \"You need to belong to the organization\");\r\n        require(organizations[_org].id != uint32(0), \"Organization doesn't exist\");\r\n\r\n        for(uint32 i=1; i <= organizationsCount; i++){\r\n            string memory name = products[i].name;\r\n            if(keccak256(abi.encodePacked(name)) == keccak256(abi.encodePacked(_name))){\r\n                exist = true;\r\n            }\r\n        }\r\n\r\n        require(!exist, \"Product already registred\");\r\n\r\n\r\n        productsCount++;\r\n        products[productsCount] = Product(productsCount, _name, _description, units[_unit].initials,\r\n            _intermediate, _org, _unit, _footPrints);\r\n        organizations[_org].products.push(productsCount);\r\n\r\n    }\r\n\r\n    function addYear(string memory _year) public {\r\n        require(users[msg.sender].tipo == 0, \"You need to have admin permissions\");        \r\n        yearliesCount++;\r\n        yearly[yearliesCount] = Year(yearliesCount, _year);\r\n    }\r\n\r\n    function addFootPrintProd(uint32 _co2eq, uint16 _exp, uint32 _idProd, uint32 _idYear) public {\r\n        \r\n        //require(users[msg.sender].idOrganization == products[_idProd].idOrganization, \"The product doesnt belong to your organization\");        \r\n        require(products[_idProd].id != uint32(0), \"Product doesn't exist\");\r\n\r\n\r\n        pfootPrintCount++;\r\n        productFootPrints[pfootPrintCount] = ProductFootprint(pfootPrintCount, _co2eq, _exp, _idProd, _idYear);\r\n        products[_idProd].productFootPrints.push(pfootPrintCount);\r\n    }\r\n\r\n    function addCostType(uint32 _co2, uint16 _exp, string memory _desc, uint32 _idUnit, \r\n        uint32[] memory _fixCosts, uint32[] memory _p_costs) public {\r\n\r\n        //require(users[msg.sender].tipo == 0 || users[msg.sender].tipo == 1, \"You need to have admin/org admin permissions\");        \r\n        \r\n\r\n        costsTypesCount++;\r\n        costsTypes[costsTypesCount] = CostType(costsTypesCount, _co2, _exp, _desc, _idUnit, _fixCosts, _p_costs);\r\n    }\r\n\r\n    function addMonthlyFixCost(uint32 _co2eq, uint16 _exp, string memory _desc, uint32 _qtd, \r\n        string memory _month,uint32 _idCost,uint32 _idOrg, uint32 _idYear) public{\r\n\r\n        //require(users[msg.sender].idOrganization == _idOrg, \"You need to belong to the organization\");        \r\n\r\n        mfixcostsCount++;\r\n        mfixcosts[mfixcostsCount] = MonthlyFixCost(mfixcostsCount, _co2eq, _exp, _desc, _qtd, _month, _idCost, _idOrg, _idYear);\r\n        costsTypes[_idCost].m_fixcosts.push(mfixcostsCount);\r\n        organizations[_idOrg].m_fixcosts.push(mfixcostsCount);\r\n    }\r\n\r\n    function addMonthlyActivity(string memory _desc, uint32 _co2eq, uint32 _qtd, uint16 _exp, string memory _month,\r\n        uint32[] memory _prodQuantities, uint32 _output, uint32 _idOrg, uint32 _idUnit, uint32 _idYear) public{\r\n        \r\n        //require(users[msg.sender].idOrganization == _idOrg, \"You need to belong to the organization\");    \r\n\r\n        mactivitiesCount++;\r\n        mactivities[mactivitiesCount] = MonthlyActivity(mactivitiesCount, _desc, _co2eq, _qtd, _exp, _month, _prodQuantities, _output, _idOrg, _idUnit, _idYear, msg.sender);\r\n        organizations[_idOrg].m_fixcosts.push(mactivitiesCount);\r\n    }\r\n\r\n\r\n    function addProdQuantity(uint32 _qtd, uint32 _idPfootPrint, uint32 _m_activity) public{\r\n        productsQuantitiesCount++;\r\n        productsQuantities[productsQuantitiesCount] = ProductQuantity(productsQuantitiesCount, _qtd, _idPfootPrint, _m_activity);\r\n    }\r\n\r\n    function updateMonthlyActivity(uint32 _idProd, uint32 _idMA) public {\r\n        mactivities[_idMA].productQuantities.push(_idProd);\r\n    }\r\n\r\n\r\n\r\n}",
  "sourcePath": "C:/Users/Francisco Santos/Desktop/ENG. INFORMTICA/E.I._2018-2019/2_semestre/CarbonFootPrint/contracts/CarbonFootPrint.sol",
  "compiler": {
    "name": "solc",
    "version": "0.5.0+commit.1d4f565a.Emscripten.clang"
  },
  "schemaVersion": "3.0.2",
  "updatedAt": "2019-04-19T01:03:56.115Z",
  "devdoc": {
    "methods": {}
  },
  "userdoc": {
    "methods": {}
  }
}