{
  "contractName": "CarbonFootPrint",
  "abi": [
    {
      "constant": true,
      "inputs": [
        {
          "name": "",
          "type": "uint32"
        }
      ],
      "name": "yearly",
      "outputs": [
        {
          "name": "id",
          "type": "uint32"
        },
        {
          "name": "year",
          "type": "string"
        }
      ],
      "payable": false,
      "stateMutability": "view",
      "type": "function",
      "signature": "0x0be48c8d"
    },
    {
      "constant": true,
      "inputs": [],
      "name": "productsQuantitiesCount",
      "outputs": [
        {
          "name": "",
          "type": "uint32"
        }
      ],
      "payable": false,
      "stateMutability": "view",
      "type": "function",
      "signature": "0x26de83c0"
    },
    {
      "constant": true,
      "inputs": [
        {
          "name": "",
          "type": "uint32"
        }
      ],
      "name": "mactivities",
      "outputs": [
        {
          "name": "id",
          "type": "uint32"
        },
        {
          "name": "description",
          "type": "string"
        },
        {
          "name": "co2eq",
          "type": "uint32"
        },
        {
          "name": "finalProductQt",
          "type": "uint32"
        },
        {
          "name": "exp",
          "type": "uint16"
        },
        {
          "name": "month",
          "type": "string"
        },
        {
          "name": "output",
          "type": "uint32"
        },
        {
          "name": "idOrganization",
          "type": "uint32"
        },
        {
          "name": "idUnit",
          "type": "uint32"
        },
        {
          "name": "idYear",
          "type": "uint32"
        },
        {
          "name": "idUser",
          "type": "address"
        }
      ],
      "payable": false,
      "stateMutability": "view",
      "type": "function",
      "signature": "0x2c4d89b6"
    },
    {
      "constant": true,
      "inputs": [
        {
          "name": "",
          "type": "uint32"
        }
      ],
      "name": "productFootPrints",
      "outputs": [
        {
          "name": "id",
          "type": "uint32"
        },
        {
          "name": "co2eq",
          "type": "uint32"
        },
        {
          "name": "exp",
          "type": "uint16"
        },
        {
          "name": "idProduct",
          "type": "uint32"
        },
        {
          "name": "idYear",
          "type": "uint32"
        }
      ],
      "payable": false,
      "stateMutability": "view",
      "type": "function",
      "signature": "0x3bd6d8e3"
    },
    {
      "constant": true,
      "inputs": [
        {
          "name": "",
          "type": "uint32"
        }
      ],
      "name": "costsTypes",
      "outputs": [
        {
          "name": "id",
          "type": "uint32"
        },
        {
          "name": "co2PerUnit",
          "type": "uint32"
        },
        {
          "name": "exp",
          "type": "uint16"
        },
        {
          "name": "description",
          "type": "string"
        },
        {
          "name": "idUnit",
          "type": "uint32"
        }
      ],
      "payable": false,
      "stateMutability": "view",
      "type": "function",
      "signature": "0x4a2a7c27"
    },
    {
      "constant": true,
      "inputs": [],
      "name": "yearliesCount",
      "outputs": [
        {
          "name": "",
          "type": "uint32"
        }
      ],
      "payable": false,
      "stateMutability": "view",
      "type": "function",
      "signature": "0x53f1799b"
    },
    {
      "constant": true,
      "inputs": [],
      "name": "organizationsCount",
      "outputs": [
        {
          "name": "",
          "type": "uint32"
        }
      ],
      "payable": false,
      "stateMutability": "view",
      "type": "function",
      "signature": "0x59987f91"
    },
    {
      "constant": true,
      "inputs": [],
      "name": "unitsCount",
      "outputs": [
        {
          "name": "",
          "type": "uint32"
        }
      ],
      "payable": false,
      "stateMutability": "view",
      "type": "function",
      "signature": "0x5c29bc08"
    },
    {
      "constant": true,
      "inputs": [],
      "name": "productCostsCount",
      "outputs": [
        {
          "name": "",
          "type": "uint32"
        }
      ],
      "payable": false,
      "stateMutability": "view",
      "type": "function",
      "signature": "0x7ae88697"
    },
    {
      "constant": true,
      "inputs": [
        {
          "name": "",
          "type": "uint32"
        }
      ],
      "name": "productsQuantities",
      "outputs": [
        {
          "name": "id",
          "type": "uint32"
        },
        {
          "name": "quantity",
          "type": "uint32"
        },
        {
          "name": "idPFootPrint",
          "type": "uint32"
        },
        {
          "name": "idM_Activity",
          "type": "uint32"
        }
      ],
      "payable": false,
      "stateMutability": "view",
      "type": "function",
      "signature": "0x8760466c"
    },
    {
      "constant": true,
      "inputs": [
        {
          "name": "",
          "type": "address"
        }
      ],
      "name": "users",
      "outputs": [
        {
          "name": "user_add",
          "type": "address"
        },
        {
          "name": "tipo",
          "type": "uint16"
        },
        {
          "name": "status",
          "type": "bool"
        },
        {
          "name": "idOrganization",
          "type": "uint32"
        }
      ],
      "payable": false,
      "stateMutability": "view",
      "type": "function",
      "signature": "0xa87430ba"
    },
    {
      "constant": true,
      "inputs": [
        {
          "name": "",
          "type": "uint32"
        }
      ],
      "name": "mfixcosts",
      "outputs": [
        {
          "name": "id",
          "type": "uint32"
        },
        {
          "name": "co2eq",
          "type": "uint32"
        },
        {
          "name": "exp",
          "type": "uint16"
        },
        {
          "name": "description",
          "type": "string"
        },
        {
          "name": "quantity",
          "type": "uint32"
        },
        {
          "name": "month",
          "type": "string"
        },
        {
          "name": "idCostType",
          "type": "uint32"
        },
        {
          "name": "idOrganization",
          "type": "uint32"
        },
        {
          "name": "idYear",
          "type": "uint32"
        }
      ],
      "payable": false,
      "stateMutability": "view",
      "type": "function",
      "signature": "0xa89215fa"
    },
    {
      "constant": true,
      "inputs": [
        {
          "name": "",
          "type": "uint32"
        }
      ],
      "name": "products",
      "outputs": [
        {
          "name": "id",
          "type": "uint32"
        },
        {
          "name": "name",
          "type": "string"
        },
        {
          "name": "description",
          "type": "string"
        },
        {
          "name": "prodUnit",
          "type": "string"
        },
        {
          "name": "co2eq",
          "type": "uint32"
        },
        {
          "name": "exp",
          "type": "uint16"
        },
        {
          "name": "intermediate",
          "type": "bool"
        },
        {
          "name": "idOrganization",
          "type": "uint32"
        },
        {
          "name": "idUnit",
          "type": "uint32"
        }
      ],
      "payable": false,
      "stateMutability": "view",
      "type": "function",
      "signature": "0xbf712fd6"
    },
    {
      "constant": true,
      "inputs": [
        {
          "name": "",
          "type": "uint256"
        }
      ],
      "name": "arrayUsers",
      "outputs": [
        {
          "name": "",
          "type": "address"
        }
      ],
      "payable": false,
      "stateMutability": "view",
      "type": "function",
      "signature": "0xcbedd17b"
    },
    {
      "constant": true,
      "inputs": [],
      "name": "costsTypesCount",
      "outputs": [
        {
          "name": "",
          "type": "uint32"
        }
      ],
      "payable": false,
      "stateMutability": "view",
      "type": "function",
      "signature": "0xcd7c0448"
    },
    {
      "constant": true,
      "inputs": [
        {
          "name": "",
          "type": "uint32"
        }
      ],
      "name": "units",
      "outputs": [
        {
          "name": "id",
          "type": "uint32"
        },
        {
          "name": "measure",
          "type": "string"
        },
        {
          "name": "initials",
          "type": "string"
        },
        {
          "name": "base",
          "type": "uint32"
        },
        {
          "name": "exp",
          "type": "uint32"
        },
        {
          "name": "idUnit",
          "type": "uint32"
        },
        {
          "name": "negative",
          "type": "bool"
        }
      ],
      "payable": false,
      "stateMutability": "view",
      "type": "function",
      "signature": "0xcfd6dc59"
    },
    {
      "constant": true,
      "inputs": [
        {
          "name": "",
          "type": "uint32"
        }
      ],
      "name": "organizations",
      "outputs": [
        {
          "name": "id",
          "type": "uint32"
        },
        {
          "name": "co2eq",
          "type": "uint32"
        },
        {
          "name": "exp",
          "type": "uint16"
        },
        {
          "name": "name",
          "type": "string"
        }
      ],
      "payable": false,
      "stateMutability": "view",
      "type": "function",
      "signature": "0xd4dfba99"
    },
    {
      "constant": true,
      "inputs": [],
      "name": "pfootPrintCount",
      "outputs": [
        {
          "name": "",
          "type": "uint32"
        }
      ],
      "payable": false,
      "stateMutability": "view",
      "type": "function",
      "signature": "0xdd69c582"
    },
    {
      "constant": true,
      "inputs": [],
      "name": "productsCount",
      "outputs": [
        {
          "name": "",
          "type": "uint32"
        }
      ],
      "payable": false,
      "stateMutability": "view",
      "type": "function",
      "signature": "0xe0df7bb6"
    },
    {
      "constant": true,
      "inputs": [],
      "name": "mactivitiesCount",
      "outputs": [
        {
          "name": "",
          "type": "uint32"
        }
      ],
      "payable": false,
      "stateMutability": "view",
      "type": "function",
      "signature": "0xec4b547d"
    },
    {
      "constant": true,
      "inputs": [
        {
          "name": "",
          "type": "uint32"
        }
      ],
      "name": "productCosts",
      "outputs": [
        {
          "name": "id",
          "type": "uint32"
        },
        {
          "name": "co2eq",
          "type": "uint32"
        },
        {
          "name": "exp",
          "type": "uint16"
        },
        {
          "name": "quantity",
          "type": "uint32"
        },
        {
          "name": "idCostType",
          "type": "uint32"
        },
        {
          "name": "idM_Activity",
          "type": "uint32"
        }
      ],
      "payable": false,
      "stateMutability": "view",
      "type": "function",
      "signature": "0xec923196"
    },
    {
      "constant": true,
      "inputs": [],
      "name": "mfixcostsCount",
      "outputs": [
        {
          "name": "",
          "type": "uint32"
        }
      ],
      "payable": false,
      "stateMutability": "view",
      "type": "function",
      "signature": "0xf86bc05e"
    },
    {
      "inputs": [],
      "payable": false,
      "stateMutability": "nonpayable",
      "type": "constructor",
      "signature": "constructor"
    },
    {
      "anonymous": false,
      "inputs": [
        {
          "indexed": true,
          "name": "_candidateAddress",
          "type": "address"
        }
      ],
      "name": "registUserEvent",
      "type": "event",
      "signature": "0x7bdb2b3927fb40923bed5ce31134e6f465bc28bcf91ad634338c2eb2398de5fe"
    },
    {
      "constant": true,
      "inputs": [],
      "name": "getUsersCount",
      "outputs": [
        {
          "name": "count",
          "type": "uint256"
        }
      ],
      "payable": false,
      "stateMutability": "view",
      "type": "function",
      "signature": "0xa4a1e263"
    },
    {
      "constant": true,
      "inputs": [
        {
          "name": "org",
          "type": "uint32"
        }
      ],
      "name": "getOrgProducts",
      "outputs": [
        {
          "name": "prods",
          "type": "uint32[]"
        }
      ],
      "payable": false,
      "stateMutability": "view",
      "type": "function",
      "signature": "0x01843f74"
    },
    {
      "constant": false,
      "inputs": [
        {
          "name": "_userResp",
          "type": "address"
        },
        {
          "name": "_user",
          "type": "address"
        },
        {
          "name": "_tipo",
          "type": "uint16"
        },
        {
          "name": "_idOrganization",
          "type": "uint32"
        }
      ],
      "name": "addUser",
      "outputs": [],
      "payable": false,
      "stateMutability": "nonpayable",
      "type": "function",
      "signature": "0x7a6cf388"
    },
    {
      "constant": false,
      "inputs": [
        {
          "name": "_name",
          "type": "string"
        },
        {
          "name": "_products",
          "type": "uint32[]"
        },
        {
          "name": "_m_activities",
          "type": "uint32[]"
        },
        {
          "name": "_m_fixcosts",
          "type": "uint32[]"
        }
      ],
      "name": "addOrganization",
      "outputs": [],
      "payable": false,
      "stateMutability": "nonpayable",
      "type": "function",
      "signature": "0x6aeb9ca1"
    },
    {
      "constant": false,
      "inputs": [
        {
          "name": "_name",
          "type": "string"
        },
        {
          "name": "_description",
          "type": "string"
        },
        {
          "name": "_intermediate",
          "type": "bool"
        },
        {
          "name": "_org",
          "type": "uint32"
        },
        {
          "name": "_unit",
          "type": "uint32"
        },
        {
          "name": "_footPrints",
          "type": "uint32[]"
        }
      ],
      "name": "addProduct",
      "outputs": [],
      "payable": false,
      "stateMutability": "nonpayable",
      "type": "function",
      "signature": "0xd4676fa4"
    },
    {
      "constant": false,
      "inputs": [
        {
          "name": "_year",
          "type": "string"
        }
      ],
      "name": "addYear",
      "outputs": [],
      "payable": false,
      "stateMutability": "nonpayable",
      "type": "function",
      "signature": "0x8d40f303"
    },
    {
      "constant": false,
      "inputs": [
        {
          "name": "_co2eq",
          "type": "uint32"
        },
        {
          "name": "_exp",
          "type": "uint16"
        },
        {
          "name": "_idProd",
          "type": "uint32"
        },
        {
          "name": "_idYear",
          "type": "uint32"
        }
      ],
      "name": "addFootPrintProd",
      "outputs": [],
      "payable": false,
      "stateMutability": "nonpayable",
      "type": "function",
      "signature": "0xdf77a009"
    },
    {
      "constant": false,
      "inputs": [
        {
          "name": "_id",
          "type": "uint32"
        }
      ],
      "name": "updateFootPrint",
      "outputs": [],
      "payable": false,
      "stateMutability": "nonpayable",
      "type": "function",
      "signature": "0x0e830fed"
    }
  ],
  "bytecode": "0x60806040523480156200001157600080fd5b506080604051908101604052803373ffffffffffffffffffffffffffffffffffffffff168152602001600061ffff168152602001600115158152602001600063ffffffff16815250600e60003373ffffffffffffffffffffffffffffffffffffffff1673ffffffffffffffffffffffffffffffffffffffff16815260200190815260200160002060008201518160000160006101000a81548173ffffffffffffffffffffffffffffffffffffffff021916908373ffffffffffffffffffffffffffffffffffffffff16021790555060208201518160000160146101000a81548161ffff021916908361ffff16021790555060408201518160000160166101000a81548160ff02191690831515021790555060608201518160000160176101000a81548163ffffffff021916908363ffffffff160217905550905050600f3390806001815401808255809150509060018203906000526020600020016000909192909190916101000a81548173ffffffffffffffffffffffffffffffffffffffff021916908373ffffffffffffffffffffffffffffffffffffffff160217905550506200023f6040805190810160405280600581526020017f746f6e6e650000000000000000000000000000000000000000000000000000008152506040805190810160405280600181526020017f7400000000000000000000000000000000000000000000000000000000000000815250600a600060016000620003e9640100000000026401000000009004565b620002cb6040805190810160405280600881526020017f6b696c6f6772616d0000000000000000000000000000000000000000000000008152506040805190810160405280600281526020017f6b67000000000000000000000000000000000000000000000000000000000000815250600a6003600180620003e9640100000000026401000000009004565b620003576040805190810160405280600481526020017f6772616d000000000000000000000000000000000000000000000000000000008152506040805190810160405280600181526020017f6700000000000000000000000000000000000000000000000000000000000000815250600a6006600180620003e9640100000000026401000000009004565b620003e36040805190810160405280600981526020017f6d696c6c696772616d00000000000000000000000000000000000000000000008152506040805190810160405280600281526020017f6d67000000000000000000000000000000000000000000000000000000000000815250600a6009600180620003e9640100000000026401000000009004565b620007bd565b6000600e60003373ffffffffffffffffffffffffffffffffffffffff1673ffffffffffffffffffffffffffffffffffffffff16815260200190815260200160002060000160149054906101000a900461ffff1661ffff16141515620004dc576040517f08c379a00000000000000000000000000000000000000000000000000000000081526004018080602001828103825260228152602001807f596f75206e65656420746f20686176652061646d696e207065726d697373696f81526020017f6e7300000000000000000000000000000000000000000000000000000000000081525060400191505060405180910390fd5b600d600081819054906101000a900463ffffffff168092919060010191906101000a81548163ffffffff021916908363ffffffff1602179055505060e060405190810160405280600d60009054906101000a900463ffffffff1663ffffffff1681526020018781526020018681526020018563ffffffff1681526020018463ffffffff1681526020018363ffffffff1681526020018215158152505060e060405190810160405280600d60009054906101000a900463ffffffff1663ffffffff1681526020018781526020018681526020018563ffffffff1681526020018463ffffffff1681526020018363ffffffff168152602001821515815250600c6000600d60009054906101000a900463ffffffff1663ffffffff1663ffffffff16815260200190815260200160002060008201518160000160006101000a81548163ffffffff021916908363ffffffff16021790555060208201518160010190805190602001906200064e9291906200070e565b5060408201518160020190805190602001906200066d9291906200070e565b5060608201518160030160006101000a81548163ffffffff021916908363ffffffff16021790555060808201518160030160046101000a81548163ffffffff021916908363ffffffff16021790555060a08201518160030160086101000a81548163ffffffff021916908363ffffffff16021790555060c082015181600301600c6101000a81548160ff021916908315150217905550905050505050505050565b828054600181600116156101000203166002900490600052602060002090601f016020900481019282601f106200075157805160ff191683800117855562000782565b8280016001018555821562000782579182015b828111156200078157825182559160200191906001019062000764565b5b50905062000791919062000795565b5090565b620007ba91905b80821115620007b65760008160009055506001016200079c565b5090565b90565b6139bd80620007cd6000396000f3fe608060405260043610610180576000357c0100000000000000000000000000000000000000000000000000000000900463ffffffff16806301843f74146101855780630be48c8d1461021b5780630e830fed146102e857806326de83c0146103295780632c4d89b6146103605780633bd6d8e31461054d5780634a2a7c27146105f657806353f1799b146106f857806359987f911461072f5780635c29bc08146107665780636aeb9ca11461079d5780637a6cf38814610a215780637ae8869714610ab05780638760466c14610ae75780638d40f30314610b81578063a4a1e26314610c49578063a87430ba14610c74578063a89215fa14610d32578063bf712fd614610ed9578063cbedd17b146110d1578063cd7c04481461114c578063cfd6dc5914611183578063d4676fa414611300578063d4dfba991461151f578063dd69c5821461160e578063df77a00914611645578063e0df7bb6146116b4578063ec4b547d146116eb578063ec92319614611722578063f86bc05e146117de575b600080fd5b34801561019157600080fd5b506101c4600480360360208110156101a857600080fd5b81019080803563ffffffff169060200190929190505050611815565b6040518080602001828103825283818151815260200191508051906020019060200280838360005b838110156102075780820151818401526020810190506101ec565b505050509050019250505060405180910390f35b34801561022757600080fd5b5061025a6004803603602081101561023e57600080fd5b81019080803563ffffffff1690602001909291905050506118bb565b604051808363ffffffff1663ffffffff16815260200180602001828103825283818151815260200191508051906020019080838360005b838110156102ac578082015181840152602081019050610291565b50505050905090810190601f1680156102d95780820380516001836020036101000a031916815260200191505b50935050505060405180910390f35b3480156102f457600080fd5b506103276004803603602081101561030b57600080fd5b81019080803563ffffffff169060200190929190505050611987565b005b34801561033557600080fd5b5061033e61198a565b604051808263ffffffff1663ffffffff16815260200191505060405180910390f35b34801561036c57600080fd5b5061039f6004803603602081101561038357600080fd5b81019080803563ffffffff1690602001909291905050506119a0565b604051808c63ffffffff1663ffffffff168152602001806020018b63ffffffff1663ffffffff1681526020018a63ffffffff1663ffffffff1681526020018961ffff1661ffff168152602001806020018863ffffffff1663ffffffff1681526020018763ffffffff1663ffffffff1681526020018663ffffffff1663ffffffff1681526020018563ffffffff1663ffffffff1681526020018473ffffffffffffffffffffffffffffffffffffffff1673ffffffffffffffffffffffffffffffffffffffff16815260200183810383528d818151815260200191508051906020019080838360005b838110156104a1578082015181840152602081019050610486565b50505050905090810190601f1680156104ce5780820380516001836020036101000a031916815260200191505b50838103825289818151815260200191508051906020019080838360005b838110156105075780820151818401526020810190506104ec565b50505050905090810190601f1680156105345780820380516001836020036101000a031916815260200191505b509d505050505050505050505050505060405180910390f35b34801561055957600080fd5b5061058c6004803603602081101561057057600080fd5b81019080803563ffffffff169060200190929190505050611bc8565b604051808663ffffffff1663ffffffff1681526020018563ffffffff1663ffffffff1681526020018461ffff1661ffff1681526020018363ffffffff1663ffffffff1681526020018263ffffffff1663ffffffff1681526020019550505050505060405180910390f35b34801561060257600080fd5b506106356004803603602081101561061957600080fd5b81019080803563ffffffff169060200190929190505050611c4c565b604051808663ffffffff1663ffffffff1681526020018563ffffffff1663ffffffff1681526020018461ffff1661ffff168152602001806020018363ffffffff1663ffffffff168152602001828103825284818151815260200191508051906020019080838360005b838110156106b957808201518184015260208101905061069e565b50505050905090810190601f1680156106e65780820380516001836020036101000a031916815260200191505b50965050505050505060405180910390f35b34801561070457600080fd5b5061070d611d58565b604051808263ffffffff1663ffffffff16815260200191505060405180910390f35b34801561073b57600080fd5b50610744611d6e565b604051808263ffffffff1663ffffffff16815260200191505060405180910390f35b34801561077257600080fd5b5061077b611d84565b604051808263ffffffff1663ffffffff16815260200191505060405180910390f35b3480156107a957600080fd5b50610a1f600480360360808110156107c057600080fd5b81019080803590602001906401000000008111156107dd57600080fd5b8201836020820111156107ef57600080fd5b8035906020019184600183028401116401000000008311171561081157600080fd5b91908080601f016020809104026020016040519081016040528093929190818152602001838380828437600081840152601f19601f8201169050808301925050505050505091929192908035906020019064010000000081111561087457600080fd5b82018360208201111561088657600080fd5b803590602001918460208302840111640100000000831117156108a857600080fd5b919080806020026020016040519081016040528093929190818152602001838360200280828437600081840152601f19601f8201169050808301925050505050505091929192908035906020019064010000000081111561090857600080fd5b82018360208201111561091a57600080fd5b8035906020019184602083028401116401000000008311171561093c57600080fd5b919080806020026020016040519081016040528093929190818152602001838360200280828437600081840152601f19601f8201169050808301925050505050505091929192908035906020019064010000000081111561099c57600080fd5b8201836020820111156109ae57600080fd5b803590602001918460208302840111640100000000831117156109d057600080fd5b919080806020026020016040519081016040528093929190818152602001838360200280828437600081840152601f19601f820116905080830192505050505050509192919290505050611d9a565b005b348015610a2d57600080fd5b50610aae60048036036080811015610a4457600080fd5b81019080803573ffffffffffffffffffffffffffffffffffffffff169060200190929190803573ffffffffffffffffffffffffffffffffffffffff169060200190929190803561ffff169060200190929190803563ffffffff16906020019092919050505061203e565b005b348015610abc57600080fd5b50610ac5612741565b604051808263ffffffff1663ffffffff16815260200191505060405180910390f35b348015610af357600080fd5b50610b2660048036036020811015610b0a57600080fd5b81019080803563ffffffff169060200190929190505050612757565b604051808563ffffffff1663ffffffff1681526020018463ffffffff1663ffffffff1681526020018363ffffffff1663ffffffff1681526020018263ffffffff1663ffffffff16815260200194505050505060405180910390f35b348015610b8d57600080fd5b50610c4760048036036020811015610ba457600080fd5b8101908080359060200190640100000000811115610bc157600080fd5b820183602082011115610bd357600080fd5b80359060200191846001830284011164010000000083111715610bf557600080fd5b91908080601f016020809104026020016040519081016040528093929190818152602001838380828437600081840152601f19601f8201169050808301925050505050505091929192905050506127c7565b005b348015610c5557600080fd5b50610c5e61299c565b6040518082815260200191505060405180910390f35b348015610c8057600080fd5b50610cc360048036036020811015610c9757600080fd5b81019080803573ffffffffffffffffffffffffffffffffffffffff1690602001909291905050506129a9565b604051808573ffffffffffffffffffffffffffffffffffffffff1673ffffffffffffffffffffffffffffffffffffffff1681526020018461ffff1661ffff168152602001831515151581526020018263ffffffff1663ffffffff16815260200194505050505060405180910390f35b348015610d3e57600080fd5b50610d7160048036036020811015610d5557600080fd5b81019080803563ffffffff169060200190929190505050612a24565b604051808a63ffffffff1663ffffffff1681526020018963ffffffff1663ffffffff1681526020018861ffff1661ffff168152602001806020018763ffffffff1663ffffffff168152602001806020018663ffffffff1663ffffffff1681526020018563ffffffff1663ffffffff1681526020018463ffffffff1663ffffffff168152602001838103835289818151815260200191508051906020019080838360005b83811015610e2f578082015181840152602081019050610e14565b50505050905090810190601f168015610e5c5780820380516001836020036101000a031916815260200191505b50838103825287818151815260200191508051906020019080838360005b83811015610e95578082015181840152602081019050610e7a565b50505050905090810190601f168015610ec25780820380516001836020036101000a031916815260200191505b509b50505050505050505050505060405180910390f35b348015610ee557600080fd5b50610f1860048036036020811015610efc57600080fd5b81019080803563ffffffff169060200190929190505050612c10565b604051808a63ffffffff1663ffffffff1681526020018060200180602001806020018963ffffffff1663ffffffff1681526020018861ffff1661ffff168152602001871515151581526020018663ffffffff1663ffffffff1681526020018563ffffffff1663ffffffff16815260200184810384528c818151815260200191508051906020019080838360005b83811015610fc0578082015181840152602081019050610fa5565b50505050905090810190601f168015610fed5780820380516001836020036101000a031916815260200191505b5084810383528b818151815260200191508051906020019080838360005b8381101561102657808201518184015260208101905061100b565b50505050905090810190601f1680156110535780820380516001836020036101000a031916815260200191505b5084810382528a818151815260200191508051906020019080838360005b8381101561108c578082015181840152602081019050611071565b50505050905090810190601f1680156110b95780820380516001836020036101000a031916815260200191505b509c5050505050505050505050505060405180910390f35b3480156110dd57600080fd5b5061110a600480360360208110156110f457600080fd5b8101908080359060200190929190505050612e81565b604051808273ffffffffffffffffffffffffffffffffffffffff1673ffffffffffffffffffffffffffffffffffffffff16815260200191505060405180910390f35b34801561115857600080fd5b50611161612ebf565b604051808263ffffffff1663ffffffff16815260200191505060405180910390f35b34801561118f57600080fd5b506111c2600480360360208110156111a657600080fd5b81019080803563ffffffff169060200190929190505050612ed5565b604051808863ffffffff1663ffffffff16815260200180602001806020018763ffffffff1663ffffffff1681526020018663ffffffff1663ffffffff1681526020018563ffffffff1663ffffffff16815260200184151515158152602001838103835289818151815260200191508051906020019080838360005b8381101561125857808201518184015260208101905061123d565b50505050905090810190601f1680156112855780820380516001836020036101000a031916815260200191505b50838103825288818151815260200191508051906020019080838360005b838110156112be5780820151818401526020810190506112a3565b50505050905090810190601f1680156112eb5780820380516001836020036101000a031916815260200191505b50995050505050505050505060405180910390f35b34801561130c57600080fd5b5061151d600480360360c081101561132357600080fd5b810190808035906020019064010000000081111561134057600080fd5b82018360208201111561135257600080fd5b8035906020019184600183028401116401000000008311171561137457600080fd5b91908080601f016020809104026020016040519081016040528093929190818152602001838380828437600081840152601f19601f820116905080830192505050505050509192919290803590602001906401000000008111156113d757600080fd5b8201836020820111156113e957600080fd5b8035906020019184600183028401116401000000008311171561140b57600080fd5b91908080601f016020809104026020016040519081016040528093929190818152602001838380828437600081840152601f19601f820116905080830192505050505050509192919290803515159060200190929190803563ffffffff169060200190929190803563ffffffff1690602001909291908035906020019064010000000081111561149a57600080fd5b8201836020820111156114ac57600080fd5b803590602001918460208302840111640100000000831117156114ce57600080fd5b919080806020026020016040519081016040528093929190818152602001838360200280828437600081840152601f19601f820116905080830192505050505050509192919290505050613094565b005b34801561152b57600080fd5b5061155e6004803603602081101561154257600080fd5b81019080803563ffffffff169060200190929190505050613415565b604051808563ffffffff1663ffffffff1681526020018463ffffffff1663ffffffff1681526020018361ffff1661ffff16815260200180602001828103825283818151815260200191508051906020019080838360005b838110156115d05780820151818401526020810190506115b5565b50505050905090810190601f1680156115fd5780820380516001836020036101000a031916815260200191505b509550505050505060405180910390f35b34801561161a57600080fd5b5061162361350b565b604051808263ffffffff1663ffffffff16815260200191505060405180910390f35b34801561165157600080fd5b506116b26004803603608081101561166857600080fd5b81019080803563ffffffff169060200190929190803561ffff169060200190929190803563ffffffff169060200190929190803563ffffffff169060200190929190505050613521565b005b3480156116c057600080fd5b506116c961372d565b604051808263ffffffff1663ffffffff16815260200191505060405180910390f35b3480156116f757600080fd5b50611700613743565b604051808263ffffffff1663ffffffff16815260200191505060405180910390f35b34801561172e57600080fd5b506117616004803603602081101561174557600080fd5b81019080803563ffffffff169060200190929190505050613759565b604051808763ffffffff1663ffffffff1681526020018663ffffffff1663ffffffff1681526020018561ffff1661ffff1681526020018463ffffffff1663ffffffff1681526020018363ffffffff1663ffffffff1681526020018263ffffffff1663ffffffff168152602001965050505050505060405180910390f35b3480156117ea57600080fd5b506117f36137f3565b604051808263ffffffff1663ffffffff16815260200191505060405180910390f35b6060600460008363ffffffff1663ffffffff1681526020019081526020016000206002018054806020026020016040519081016040528092919081815260200182805480156118af57602002820191906000526020600020906000905b82829054906101000a900463ffffffff1663ffffffff16815260200190600401906020826003010492830192600103820291508084116118725790505b50505050509050919050565b60146020528060005260406000206000915090508060000160009054906101000a900463ffffffff1690806001018054600181600116156101000203166002900480601f01602080910402602001604051908101604052809291908181526020018280546001816001161561010002031660029004801561197d5780601f106119525761010080835404028352916020019161197d565b820191906000526020600020905b81548152906001019060200180831161196057829003601f168201915b5050505050905082565b50565b601360009054906101000a900463ffffffff1681565b60026020528060005260406000206000915090508060000160009054906101000a900463ffffffff1690806001018054600181600116156101000203166002900480601f016020809104026020016040519081016040528092919081815260200182805460018160011615610100020316600290048015611a625780601f10611a3757610100808354040283529160200191611a62565b820191906000526020600020905b815481529060010190602001808311611a4557829003601f168201915b5050505050908060020160009054906101000a900463ffffffff16908060020160049054906101000a900463ffffffff16908060020160089054906101000a900461ffff1690806003018054600181600116156101000203166002900480601f016020809104026020016040519081016040528092919081815260200182805460018160011615610100020316600290048015611b405780601f10611b1557610100808354040283529160200191611b40565b820191906000526020600020905b815481529060010190602001808311611b2357829003601f168201915b5050505050908060050160009054906101000a900463ffffffff16908060050160049054906101000a900463ffffffff16908060050160089054906101000a900463ffffffff169080600501600c9054906101000a900463ffffffff16908060060160009054906101000a900473ffffffffffffffffffffffffffffffffffffffff1690508b565b60106020528060005260406000206000915090508060000160009054906101000a900463ffffffff16908060000160049054906101000a900463ffffffff16908060000160089054906101000a900461ffff169080600001600a9054906101000a900463ffffffff169080600001600e9054906101000a900463ffffffff16905085565b600a6020528060005260406000206000915090508060000160009054906101000a900463ffffffff16908060000160049054906101000a900463ffffffff16908060000160089054906101000a900461ffff1690806001018054600181600116156101000203166002900480601f016020809104026020016040519081016040528092919081815260200182805460018160011615610100020316600290048015611d385780601f10611d0d57610100808354040283529160200191611d38565b820191906000526020600020905b815481529060010190602001808311611d1b57829003601f168201915b5050505050908060020160009054906101000a900463ffffffff16905085565b601560009054906101000a900463ffffffff1681565b600560009054906101000a900463ffffffff1681565b600d60009054906101000a900463ffffffff1681565b6000600e60003373ffffffffffffffffffffffffffffffffffffffff1673ffffffffffffffffffffffffffffffffffffffff16815260200190815260200160002060000160149054906101000a900461ffff1661ffff16141515611e8c576040517f08c379a00000000000000000000000000000000000000000000000000000000081526004018080602001828103825260228152602001807f596f75206e65656420746f20686176652061646d696e207065726d697373696f81526020017f6e7300000000000000000000000000000000000000000000000000000000000081525060400191505060405180910390fd5b6005600081819054906101000a900463ffffffff168092919060010191906101000a81548163ffffffff021916908363ffffffff1602179055505060e060405190810160405280600560009054906101000a900463ffffffff1663ffffffff168152602001600063ffffffff168152602001600061ffff1681526020018581526020018481526020018381526020018281525060046000600560009054906101000a900463ffffffff1663ffffffff1663ffffffff16815260200190815260200160002060008201518160000160006101000a81548163ffffffff021916908363ffffffff16021790555060208201518160000160046101000a81548163ffffffff021916908363ffffffff16021790555060408201518160000160086101000a81548161ffff021916908361ffff1602179055506060820151816001019080519060200190611fdd929190613809565b506080820151816002019080519060200190611ffa929190613889565b5060a0820151816003019080519060200190612017929190613889565b5060c0820151816004019080519060200190612034929190613889565b5090505050505050565b600073ffffffffffffffffffffffffffffffffffffffff16600e60008673ffffffffffffffffffffffffffffffffffffffff1673ffffffffffffffffffffffffffffffffffffffff16815260200190815260200160002060000160009054906101000a900473ffffffffffffffffffffffffffffffffffffffff1673ffffffffffffffffffffffffffffffffffffffff1614151515612145576040517f08c379a00000000000000000000000000000000000000000000000000000000081526004018080602001828103825260158152602001807f55736572206973206e6f7420726567697374726564000000000000000000000081525060200191505060405180910390fd5b600073ffffffffffffffffffffffffffffffffffffffff16600e60008573ffffffffffffffffffffffffffffffffffffffff1673ffffffffffffffffffffffffffffffffffffffff16815260200190815260200160002060000160009054906101000a900473ffffffffffffffffffffffffffffffffffffffff1673ffffffffffffffffffffffffffffffffffffffff1614151561224b576040517f08c379a00000000000000000000000000000000000000000000000000000000081526004018080602001828103825260168152602001807f5573657220616c7265616479207265676973747265640000000000000000000081525060200191505060405180910390fd5b60008261ffff161480612262575060018261ffff16145b1561235e576000600e60008673ffffffffffffffffffffffffffffffffffffffff1673ffffffffffffffffffffffffffffffffffffffff16815260200190815260200160002060000160149054906101000a900461ffff1661ffff16141515612359576040517f08c379a00000000000000000000000000000000000000000000000000000000081526004018080602001828103825260228152602001807f596f75206e65656420746f20686176652061646d696e207065726d697373696f81526020017f6e7300000000000000000000000000000000000000000000000000000000000081525060400191505060405180910390fd5b61255a565b60028261ffff161415612559576001600e60008673ffffffffffffffffffffffffffffffffffffffff1673ffffffffffffffffffffffffffffffffffffffff16815260200190815260200160002060000160149054906101000a900461ffff1661ffff1614151561245d576040517f08c379a000000000000000000000000000000000000000000000000000000000815260040180806020018281038252602f8152602001807f596f75206e65656420746f2068617665206f7267616e697a6174696f6e20616481526020017f6d696e207065726d697373696f6e73000000000000000000000000000000000081525060400191505060405180910390fd5b8063ffffffff16600e60008673ffffffffffffffffffffffffffffffffffffffff1673ffffffffffffffffffffffffffffffffffffffff16815260200190815260200160002060000160179054906101000a900463ffffffff1663ffffffff16141515612558576040517f08c379a00000000000000000000000000000000000000000000000000000000081526004018080602001828103825260268152602001807f596f75206e65656420746f2062656c6f6e6720746f20746865206f7267616e6981526020017f7a6174696f6e000000000000000000000000000000000000000000000000000081525060400191505060405180910390fd5b5b5b6080604051908101604052808473ffffffffffffffffffffffffffffffffffffffff1681526020018361ffff1681526020016001151581526020018263ffffffff16815250600e60008573ffffffffffffffffffffffffffffffffffffffff1673ffffffffffffffffffffffffffffffffffffffff16815260200190815260200160002060008201518160000160006101000a81548173ffffffffffffffffffffffffffffffffffffffff021916908373ffffffffffffffffffffffffffffffffffffffff16021790555060208201518160000160146101000a81548161ffff021916908361ffff16021790555060408201518160000160166101000a81548160ff02191690831515021790555060608201518160000160176101000a81548163ffffffff021916908363ffffffff160217905550905050600f8390806001815401808255809150509060018203906000526020600020016000909192909190916101000a81548173ffffffffffffffffffffffffffffffffffffffff021916908373ffffffffffffffffffffffffffffffffffffffff160217905550508273ffffffffffffffffffffffffffffffffffffffff167f7bdb2b3927fb40923bed5ce31134e6f465bc28bcf91ad634338c2eb2398de5fe60405160405180910390a250505050565b600960009054906101000a900463ffffffff1681565b60126020528060005260406000206000915090508060000160009054906101000a900463ffffffff16908060000160049054906101000a900463ffffffff16908060000160089054906101000a900463ffffffff169080600001600c9054906101000a900463ffffffff16905084565b6000600e60003373ffffffffffffffffffffffffffffffffffffffff1673ffffffffffffffffffffffffffffffffffffffff16815260200190815260200160002060000160149054906101000a900461ffff1661ffff161415156128b9576040517f08c379a00000000000000000000000000000000000000000000000000000000081526004018080602001828103825260228152602001807f596f75206e65656420746f20686176652061646d696e207065726d697373696f81526020017f6e7300000000000000000000000000000000000000000000000000000000000081525060400191505060405180910390fd5b6015600081819054906101000a900463ffffffff168092919060010191906101000a81548163ffffffff021916908363ffffffff160217905550506040805190810160405280601560009054906101000a900463ffffffff1663ffffffff1681526020018281525060146000601560009054906101000a900463ffffffff1663ffffffff1663ffffffff16815260200190815260200160002060008201518160000160006101000a81548163ffffffff021916908363ffffffff1602179055506020820151816001019080519060200190612995929190613809565b5090505050565b6000600f80549050905090565b600e6020528060005260406000206000915090508060000160009054906101000a900473ffffffffffffffffffffffffffffffffffffffff16908060000160149054906101000a900461ffff16908060000160169054906101000a900460ff16908060000160179054906101000a900463ffffffff16905084565b60066020528060005260406000206000915090508060000160009054906101000a900463ffffffff16908060000160049054906101000a900463ffffffff16908060000160089054906101000a900461ffff1690806001018054600181600116156101000203166002900480601f016020809104026020016040519081016040528092919081815260200182805460018160011615610100020316600290048015612b105780601f10612ae557610100808354040283529160200191612b10565b820191906000526020600020905b815481529060010190602001808311612af357829003601f168201915b5050505050908060020160009054906101000a900463ffffffff1690806003018054600181600116156101000203166002900480601f016020809104026020016040519081016040528092919081815260200182805460018160011615610100020316600290048015612bc45780601f10612b9957610100808354040283529160200191612bc4565b820191906000526020600020905b815481529060010190602001808311612ba757829003601f168201915b5050505050908060040160009054906101000a900463ffffffff16908060040160049054906101000a900463ffffffff16908060040160089054906101000a900463ffffffff16905089565b60006020528060005260406000206000915090508060000160009054906101000a900463ffffffff1690806001018054600181600116156101000203166002900480601f016020809104026020016040519081016040528092919081815260200182805460018160011615610100020316600290048015612cd25780601f10612ca757610100808354040283529160200191612cd2565b820191906000526020600020905b815481529060010190602001808311612cb557829003601f168201915b505050505090806002018054600181600116156101000203166002900480601f016020809104026020016040519081016040528092919081815260200182805460018160011615610100020316600290048015612d705780601f10612d4557610100808354040283529160200191612d70565b820191906000526020600020905b815481529060010190602001808311612d5357829003601f168201915b505050505090806003018054600181600116156101000203166002900480601f016020809104026020016040519081016040528092919081815260200182805460018160011615610100020316600290048015612e0e5780601f10612de357610100808354040283529160200191612e0e565b820191906000526020600020905b815481529060010190602001808311612df157829003601f168201915b5050505050908060040160009054906101000a900463ffffffff16908060040160049054906101000a900461ffff16908060040160069054906101000a900460ff16908060040160079054906101000a900463ffffffff169080600401600b9054906101000a900463ffffffff16905089565b600f81815481101515612e9057fe5b906000526020600020016000915054906101000a900473ffffffffffffffffffffffffffffffffffffffff1681565b600b60009054906101000a900463ffffffff1681565b600c6020528060005260406000206000915090508060000160009054906101000a900463ffffffff1690806001018054600181600116156101000203166002900480601f016020809104026020016040519081016040528092919081815260200182805460018160011615610100020316600290048015612f975780601f10612f6c57610100808354040283529160200191612f97565b820191906000526020600020905b815481529060010190602001808311612f7a57829003601f168201915b505050505090806002018054600181600116156101000203166002900480601f0160208091040260200160405190810160405280929190818152602001828054600181600116156101000203166002900480156130355780601f1061300a57610100808354040283529160200191613035565b820191906000526020600020905b81548152906001019060200180831161301857829003601f168201915b5050505050908060030160009054906101000a900463ffffffff16908060030160049054906101000a900463ffffffff16908060030160089054906101000a900463ffffffff169080600301600c9054906101000a900460ff16905087565b6001600081819054906101000a900463ffffffff168092919060010191906101000a81548163ffffffff021916908363ffffffff1602179055505061014060405190810160405280600160009054906101000a900463ffffffff1663ffffffff168152602001878152602001868152602001600c60008563ffffffff1663ffffffff1681526020019081526020016000206002018054600181600116156101000203166002900480601f0160208091040260200160405190810160405280929190818152602001828054600181600116156101000203166002900480156131bc5780601f10613191576101008083540402835291602001916131bc565b820191906000526020600020905b81548152906001019060200180831161319f57829003601f168201915b50505050508152602001600063ffffffff168152602001600061ffff16815260200185151581526020018463ffffffff1681526020018363ffffffff16815260200182815250600080600160009054906101000a900463ffffffff1663ffffffff1663ffffffff16815260200190815260200160002060008201518160000160006101000a81548163ffffffff021916908363ffffffff1602179055506020820151816001019080519060200190613275929190613809565b506040820151816002019080519060200190613292929190613809565b5060608201518160030190805190602001906132af929190613809565b5060808201518160040160006101000a81548163ffffffff021916908363ffffffff16021790555060a08201518160040160046101000a81548161ffff021916908361ffff16021790555060c08201518160040160066101000a81548160ff02191690831515021790555060e08201518160040160076101000a81548163ffffffff021916908363ffffffff16021790555061010082015181600401600b6101000a81548163ffffffff021916908363ffffffff160217905550610120820151816005019080519060200190613386929190613889565b50905050600460008463ffffffff1663ffffffff168152602001908152602001600020600201600160009054906101000a900463ffffffff16908060018154018082558091505090600182039060005260206000209060089182820401919006600402909192909190916101000a81548163ffffffff021916908363ffffffff16021790555050505050505050565b60046020528060005260406000206000915090508060000160009054906101000a900463ffffffff16908060000160049054906101000a900463ffffffff16908060000160089054906101000a900461ffff1690806001018054600181600116156101000203166002900480601f0160208091040260200160405190810160405280929190818152602001828054600181600116156101000203166002900480156135015780601f106134d657610100808354040283529160200191613501565b820191906000526020600020905b8154815290600101906020018083116134e457829003601f168201915b5050505050905084565b601160009054906101000a900463ffffffff1681565b6011600081819054906101000a900463ffffffff168092919060010191906101000a81548163ffffffff021916908363ffffffff1602179055505060a060405190810160405280601160009054906101000a900463ffffffff1663ffffffff1681526020018563ffffffff1681526020018461ffff1681526020018363ffffffff1681526020018263ffffffff1681525060106000601160009054906101000a900463ffffffff1663ffffffff1663ffffffff16815260200190815260200160002060008201518160000160006101000a81548163ffffffff021916908363ffffffff16021790555060208201518160000160046101000a81548163ffffffff021916908363ffffffff16021790555060408201518160000160086101000a81548161ffff021916908361ffff160217905550606082015181600001600a6101000a81548163ffffffff021916908363ffffffff160217905550608082015181600001600e6101000a81548163ffffffff021916908363ffffffff1602179055509050506000808363ffffffff1663ffffffff168152602001908152602001600020600501601160009054906101000a900463ffffffff16908060018154018082558091505090600182039060005260206000209060089182820401919006600402909192909190916101000a81548163ffffffff021916908363ffffffff1602179055505050505050565b600160009054906101000a900463ffffffff1681565b600360009054906101000a900463ffffffff1681565b60086020528060005260406000206000915090508060000160009054906101000a900463ffffffff16908060000160049054906101000a900463ffffffff16908060000160089054906101000a900461ffff169080600001600a9054906101000a900463ffffffff169080600001600e9054906101000a900463ffffffff16908060000160129054906101000a900463ffffffff16905086565b600760009054906101000a900463ffffffff1681565b828054600181600116156101000203166002900490600052602060002090601f016020900481019282601f1061384a57805160ff1916838001178555613878565b82800160010185558215613878579182015b8281111561387757825182559160200191906001019061385c565b5b5090506138859190613939565b5090565b828054828255906000526020600020906007016008900481019282156139285791602002820160005b838211156138f657835183826101000a81548163ffffffff021916908363ffffffff16021790555092602001926004016020816003010492830192600103026138b2565b80156139265782816101000a81549063ffffffff02191690556004016020816003010492830192600103026138f6565b505b509050613935919061395e565b5090565b61395b91905b8082111561395757600081600090555060010161393f565b5090565b90565b61398e91905b8082111561398a57600081816101000a81549063ffffffff021916905550600101613964565b5090565b9056fea165627a7a72305820a8dcb8a42590c2e9b716eb3632d02a55be4d7874403aaa3e76854618e8658d2d0029",
  "source": "pragma solidity >=0.4.2;\r\n\r\ncontract CarbonFootPrint{\r\n    \r\n    // -- Estrutura dos produtos\r\n    struct Product{\r\n        uint32 id;\r\n        string name;\r\n        string description;\r\n        string prodUnit;\r\n        uint32 co2eq;\r\n        uint16 exp;\r\n        bool intermediate;\r\n        uint32 idOrganization;\r\n        uint32 idUnit;\r\n        uint32[] productFootPrints;\r\n    }\r\n\r\n    struct ProductFootprint{\r\n        uint32 id;\r\n        uint32 co2eq;\r\n        uint16 exp;\r\n        uint32 idProduct;\r\n        uint32 idYear;\r\n    }\r\n\r\n    struct ProductQuantity{\r\n        uint32 id;\r\n        uint32 quantity;\r\n        uint32 idPFootPrint;\r\n        uint32 idM_Activity;\r\n    }\r\n\r\n\r\n    // -- Estrutura das organizaes\r\n    struct Organization{\r\n        uint32 id;\r\n        uint32 co2eq;\r\n        uint16 exp;\r\n        string name;\r\n        uint32[] products;\r\n        uint32[] m_activities;\r\n        uint32[] m_fixcosts;\r\n    }\r\n\r\n    // -- Estrutura das atividades mensais\r\n    struct MonthlyActivity{\r\n        uint32 id;\r\n        string description;\r\n        uint32 co2eq;\r\n        uint32 finalProductQt;\r\n        uint16 exp;\r\n        string month;\r\n        uint32[] productQuantities; // -- codigo dos produtos de input\r\n        uint32 output; // -- codigo do product foot print de output\r\n        uint32 idOrganization;\r\n        uint32 idUnit;\r\n        uint32 idYear;\r\n        address idUser;\r\n    }\r\n\r\n    // -- Estrutura dos custos fixos mensais\r\n    struct MonthlyFixCost{\r\n        uint32 id;\r\n        uint32 co2eq;\r\n        uint16 exp;\r\n        string description;\r\n        uint32 quantity;\r\n        string month;\r\n        uint32 idCostType;\r\n        uint32 idOrganization;\r\n        uint32 idYear;\r\n    }\r\n\r\n    // -- Estrutura dos custos dos produtos\r\n    struct ProductCost{\r\n        uint32 id;\r\n        uint32 co2eq;\r\n        uint16 exp;\r\n        uint32 quantity;\r\n        uint32 idCostType;\r\n        uint32 idM_Activity;\r\n    }\r\n\r\n    // -- Estrutura do tipo de custo\r\n    struct CostType{\r\n        uint32 id;\r\n        uint32 co2PerUnit;\r\n        uint16 exp;\r\n        string description;\r\n        uint32 idUnit;\r\n        uint32[] m_fixcosts;\r\n        uint32[] products_costs;\r\n    }\r\n\r\n    // -- Estrutura das unidades\r\n    struct Unit{\r\n        uint32 id;\r\n        string measure;\r\n        string initials;\r\n        uint32 base;\r\n        uint32 exp;\r\n        uint32 idUnit;\r\n        bool negative;\r\n    }\r\n\r\n    // -- Users\r\n    struct User{\r\n        address user_add;\r\n        uint16 tipo; // 0 - Admin , 1 - OrgAdmin,  2 - User\r\n        bool status;\r\n        uint32 idOrganization;\r\n    }\r\n\r\n    struct Year{\r\n        uint32 id;\r\n        string year;\r\n    }\r\n\r\n\r\n    // -- Mappings\r\n    mapping(uint32 => Product) public products;\r\n    uint32 public productsCount;\r\n\r\n    mapping(uint32 => MonthlyActivity) public mactivities;\r\n    uint32 public mactivitiesCount;\r\n\r\n    mapping(uint32 => Organization) public organizations;\r\n    uint32 public organizationsCount;\r\n\r\n    mapping(uint32 => MonthlyFixCost) public mfixcosts;\r\n    uint32 public mfixcostsCount;\r\n\r\n    mapping(uint32 => ProductCost) public productCosts;\r\n    uint32 public productCostsCount;\r\n\r\n    mapping(uint32 => CostType) public costsTypes;\r\n    uint32 public costsTypesCount;\r\n\r\n    mapping(uint32 => Unit) public units;\r\n    uint32 public unitsCount;\r\n\r\n    mapping(address => User) public users;\r\n    address[] public arrayUsers;\r\n\r\n    mapping(uint32 => ProductFootprint) public productFootPrints;\r\n    uint32 public pfootPrintCount;\r\n\r\n    mapping(uint32 => ProductQuantity) public productsQuantities;\r\n    uint32 public productsQuantitiesCount;\r\n\r\n    mapping(uint32 => Year) public yearly;\r\n    uint32 public yearliesCount;\r\n\r\n    event registUserEvent (\r\n        address indexed _candidateAddress\r\n    );\r\n\r\n    constructor () public{\r\n        users[msg.sender] = User(msg.sender, 0, true, 0);\r\n        arrayUsers.push(msg.sender);\r\n\r\n        // -- Initalize units\r\n        addUnit(\"tonne\", \"t\", 10, 0, 1, false);\r\n        addUnit(\"kilogram\", \"kg\", 10, 3, 1, true);\r\n        addUnit(\"gram\", \"g\", 10, 6, 1, true);\r\n        addUnit(\"milligram\", \"mg\", 10, 9, 1, true);\r\n    }\r\n\r\n    function getUsersCount() public view returns(uint count) {\r\n        return arrayUsers.length;\r\n    }\r\n\r\n    // -- getters organization\r\n    function getOrgProducts(uint32 org) public view returns(uint32[] memory prods){\r\n        return organizations[org].products;\r\n    }   \r\n\r\n\r\n\r\n    function addUser (address _userResp,address _user, uint16 _tipo, uint32 _idOrganization) public {\r\n        \r\n        require(users[_userResp].user_add != address(0), \"User is not registred\");\r\n        require(users[_user].user_add == address(0), \"User already registred\");\r\n\r\n        if(_tipo == 0 || _tipo == 1){\r\n            require(users[_userResp].tipo == 0, \"You need to have admin permissions\");\r\n        }else if(_tipo == 2){\r\n            require(users[_userResp].tipo == 1 , \"You need to have organization admin permissions\");\r\n            require(users[_userResp].idOrganization == _idOrganization, \"You need to belong to the organization\");\r\n        }\r\n\r\n        users[_user] = User(_user, _tipo, true, _idOrganization);\r\n        arrayUsers.push(_user);\r\n\r\n        emit registUserEvent(_user);\r\n        \r\n    }\r\n\r\n    function addUnit(string memory _measure, string memory _initials, uint32 _base, uint32 _exp, uint32 _idUnit,bool _negative) private{\r\n        \r\n        require(users[msg.sender].tipo == 0, \"You need to have admin permissions\");\r\n\r\n        unitsCount++;\r\n        Unit(unitsCount, _measure, _initials, _base, _exp, _idUnit, _negative);\r\n        units[unitsCount] = Unit(unitsCount, _measure, _initials, _base, _exp, _idUnit, _negative);\r\n    }\r\n\r\n    function addOrganization(string memory _name, uint32[] memory _products, uint32[] memory _m_activities, uint32[] memory _m_fixcosts) public {\r\n        require(users[msg.sender].tipo == 0, \"You need to have admin permissions\");\r\n\r\n        organizationsCount++;\r\n        organizations[organizationsCount] = Organization(organizationsCount, 0, 0, _name, _products, _m_activities, _m_fixcosts); \r\n    }\r\n\r\n    function addProduct(string memory _name, string memory _description, \r\n        bool _intermediate, uint32 _org, uint32 _unit, uint32[] memory _footPrints) public{\r\n        \r\n        //require(users[msg.sender].idOrganization == _org, \"You need to belong to the organization\");\r\n\r\n        productsCount++;\r\n        products[productsCount] = Product(productsCount, _name, _description, units[_unit].initials, 0, 0,\r\n            _intermediate, _org, _unit, _footPrints);\r\n        organizations[_org].products.push(productsCount);\r\n\r\n    }\r\n\r\n    function addYear(string memory _year) public {\r\n        require(users[msg.sender].tipo == 0, \"You need to have admin permissions\");        \r\n        yearliesCount++;\r\n        yearly[yearliesCount] = Year(yearliesCount, _year);\r\n    }\r\n\r\n    function addFootPrintProd(uint32 _co2eq, uint16 _exp, uint32 _idProd, uint32 _idYear) public {\r\n        \r\n        //require(users[msg.sender].idOrganization == products[_idProd].idOrganization, \"The product doesnt bellow to your organization\");        \r\n\r\n        pfootPrintCount++;\r\n        productFootPrints[pfootPrintCount] = ProductFootprint(pfootPrintCount, _co2eq, _exp, _idProd, _idYear);\r\n        products[_idProd].productFootPrints.push(pfootPrintCount);\r\n    }\r\n\r\n    function updateFootPrint(uint32 _id) public {\r\n        \r\n    }\r\n\r\n\r\n\r\n\r\n}",
  "sourcePath": "C:/Users/Francisco Santos/Desktop/ENG. INFORMTICA/E.I._2018-2019/2_semestre/CarbonFootPrint/contracts/CarbonFootPrint.sol",
  "compiler": {
    "name": "solc",
    "version": "0.5.0+commit.1d4f565a.Emscripten.clang"
  },
  "schemaVersion": "3.0.2",
  "updatedAt": "2019-04-10T15:25:02.291Z",
  "devdoc": {
    "methods": {}
  },
  "userdoc": {
    "methods": {}
  }
}